{
  "contractName": "AaveVaultLong",
  "abi": [
    {
      "inputs": [],
      "stateMutability": "nonpayable",
      "type": "constructor"
    },
    {
      "anonymous": false,
      "inputs": [
        {
          "indexed": true,
          "internalType": "address",
          "name": "user",
          "type": "address"
        },
        {
          "indexed": false,
          "internalType": "uint256",
          "name": "claimed",
          "type": "uint256"
        }
      ],
      "name": "ClaimRewardsFor",
      "type": "event"
    },
    {
      "anonymous": false,
      "inputs": [
        {
          "indexed": false,
          "internalType": "uint256",
          "name": "vaultId",
          "type": "uint256"
        },
        {
          "indexed": false,
          "internalType": "uint256",
          "name": "amount",
          "type": "uint256"
        }
      ],
      "name": "Deposit",
      "type": "event"
    },
    {
      "anonymous": false,
      "inputs": [
        {
          "indexed": false,
          "internalType": "uint256",
          "name": "vaultId",
          "type": "uint256"
        },
        {
          "indexed": false,
          "internalType": "uint256",
          "name": "longAmount",
          "type": "uint256"
        },
        {
          "indexed": false,
          "internalType": "uint256",
          "name": "initialDeposit",
          "type": "uint256"
        }
      ],
      "name": "LongAsset",
      "type": "event"
    },
    {
      "anonymous": false,
      "inputs": [
        {
          "indexed": true,
          "internalType": "address",
          "name": "previousOwner",
          "type": "address"
        },
        {
          "indexed": true,
          "internalType": "address",
          "name": "newOwner",
          "type": "address"
        }
      ],
      "name": "OwnershipTransferred",
      "type": "event"
    },
    {
      "anonymous": false,
      "inputs": [
        {
          "indexed": false,
          "internalType": "uint256",
          "name": "vaultId",
          "type": "uint256"
        },
        {
          "indexed": false,
          "internalType": "uint256",
          "name": "debtAmountToReduce",
          "type": "uint256"
        }
      ],
      "name": "ReduceLong",
      "type": "event"
    },
    {
      "anonymous": false,
      "inputs": [
        {
          "indexed": false,
          "internalType": "uint256",
          "name": "vaultId",
          "type": "uint256"
        },
        {
          "indexed": false,
          "internalType": "uint256",
          "name": "amount",
          "type": "uint256"
        }
      ],
      "name": "Repay",
      "type": "event"
    },
    {
      "anonymous": false,
      "inputs": [
        {
          "indexed": false,
          "internalType": "uint256",
          "name": "vaultId",
          "type": "uint256"
        }
      ],
      "name": "VaultCreated",
      "type": "event"
    },
    {
      "anonymous": false,
      "inputs": [
        {
          "indexed": false,
          "internalType": "uint256",
          "name": "vaultId",
          "type": "uint256"
        },
        {
          "indexed": false,
          "internalType": "uint256",
          "name": "amount",
          "type": "uint256"
        }
      ],
      "name": "WithdrawCollateral",
      "type": "event"
    },
    {
      "inputs": [],
      "name": "ADDRESSES_PROVIDER",
      "outputs": [
        {
          "internalType": "contract ILendingPoolAddressesProvider",
          "name": "",
          "type": "address"
        }
      ],
      "stateMutability": "view",
      "type": "function",
      "constant": true
    },
    {
      "inputs": [],
      "name": "LENDING_POOL",
      "outputs": [
        {
          "internalType": "contract ILendingPool",
          "name": "",
          "type": "address"
        }
      ],
      "stateMutability": "view",
      "type": "function",
      "constant": true
    },
    {
      "inputs": [
        {
          "internalType": "uint256",
          "name": "",
          "type": "uint256"
        }
      ],
      "name": "balanceRewardsByPeriod",
      "outputs": [
        {
          "internalType": "uint256",
          "name": "",
          "type": "uint256"
        }
      ],
      "stateMutability": "view",
      "type": "function",
      "constant": true
    },
    {
      "inputs": [],
      "name": "blocksByPeriod",
      "outputs": [
        {
          "internalType": "uint256",
          "name": "",
          "type": "uint256"
        }
      ],
      "stateMutability": "view",
      "type": "function",
      "constant": true
    },
    {
      "inputs": [
        {
          "internalType": "address",
          "name": "user",
          "type": "address"
        }
      ],
      "name": "claimRewardsFor",
      "outputs": [],
      "stateMutability": "nonpayable",
      "type": "function"
    },
    {
      "inputs": [
        {
          "internalType": "address",
          "name": "user",
          "type": "address"
        }
      ],
      "name": "claimableRewards",
      "outputs": [
        {
          "internalType": "uint256",
          "name": "",
          "type": "uint256"
        }
      ],
      "stateMutability": "view",
      "type": "function",
      "constant": true
    },
    {
      "inputs": [],
      "name": "collateral",
      "outputs": [
        {
          "internalType": "address",
          "name": "",
          "type": "address"
        }
      ],
      "stateMutability": "view",
      "type": "function",
      "constant": true
    },
    {
      "inputs": [],
      "name": "createVault",
      "outputs": [],
      "stateMutability": "nonpayable",
      "type": "function"
    },
    {
      "inputs": [],
      "name": "currentBlockStart",
      "outputs": [
        {
          "internalType": "uint256",
          "name": "",
          "type": "uint256"
        }
      ],
      "stateMutability": "view",
      "type": "function",
      "constant": true
    },
    {
      "inputs": [
        {
          "internalType": "address",
          "name": "",
          "type": "address"
        }
      ],
      "name": "currentUserBlockStart",
      "outputs": [
        {
          "internalType": "uint256",
          "name": "",
          "type": "uint256"
        }
      ],
      "stateMutability": "view",
      "type": "function",
      "constant": true
    },
    {
      "inputs": [
        {
          "internalType": "uint256",
          "name": "vaultId",
          "type": "uint256"
        },
        {
          "internalType": "uint256",
          "name": "amount",
          "type": "uint256"
        }
      ],
      "name": "deposit",
      "outputs": [],
      "stateMutability": "nonpayable",
      "type": "function"
    },
    {
      "inputs": [
        {
          "internalType": "address[]",
          "name": "assets",
          "type": "address[]"
        },
        {
          "internalType": "uint256[]",
          "name": "amounts",
          "type": "uint256[]"
        },
        {
          "internalType": "uint256[]",
          "name": "premiums",
          "type": "uint256[]"
        },
        {
          "internalType": "address",
          "name": "initiator",
          "type": "address"
        },
        {
          "internalType": "bytes",
          "name": "params",
          "type": "bytes"
        }
      ],
      "name": "executeOperation",
      "outputs": [
        {
          "internalType": "bool",
          "name": "",
          "type": "bool"
        }
      ],
      "stateMutability": "nonpayable",
      "type": "function"
    },
    {
      "inputs": [
        {
          "internalType": "address",
          "name": "_tokenIn",
          "type": "address"
        },
        {
          "internalType": "address",
          "name": "_tokenOut",
          "type": "address"
        },
        {
          "internalType": "uint256",
          "name": "_amountOut",
          "type": "uint256"
        }
      ],
      "name": "getAmountInMin",
      "outputs": [
        {
          "internalType": "uint256",
          "name": "",
          "type": "uint256"
        }
      ],
      "stateMutability": "view",
      "type": "function",
      "constant": true
    },
    {
      "inputs": [
        {
          "internalType": "address",
          "name": "_tokenIn",
          "type": "address"
        },
        {
          "internalType": "address",
          "name": "_tokenOut",
          "type": "address"
        },
        {
          "internalType": "uint256",
          "name": "_amountIn",
          "type": "uint256"
        }
      ],
      "name": "getAmountOutMin",
      "outputs": [
        {
          "internalType": "uint256",
          "name": "",
          "type": "uint256"
        }
      ],
      "stateMutability": "view",
      "type": "function",
      "constant": true
    },
    {
      "inputs": [
        {
          "internalType": "uint256",
          "name": "amount",
          "type": "uint256"
        }
      ],
      "name": "getMAIDebtForAmount",
      "outputs": [
        {
          "internalType": "uint256",
          "name": "",
          "type": "uint256"
        }
      ],
      "stateMutability": "view",
      "type": "function",
      "constant": true
    },
    {
      "inputs": [
        {
          "internalType": "uint256",
          "name": "vaultId",
          "type": "uint256"
        }
      ],
      "name": "getMaxWithdrawableCollateral",
      "outputs": [
        {
          "internalType": "uint256",
          "name": "",
          "type": "uint256"
        }
      ],
      "stateMutability": "view",
      "type": "function",
      "constant": true
    },
    {
      "inputs": [],
      "name": "getMinimumCollateralPercentage",
      "outputs": [
        {
          "internalType": "uint256",
          "name": "",
          "type": "uint256"
        }
      ],
      "stateMutability": "view",
      "type": "function",
      "constant": true
    },
    {
      "inputs": [],
      "name": "getMultiplicatorMax100th",
      "outputs": [
        {
          "internalType": "uint256",
          "name": "",
          "type": "uint256"
        }
      ],
      "stateMutability": "view",
      "type": "function",
      "constant": true
    },
    {
      "inputs": [
        {
          "internalType": "address",
          "name": "token1",
          "type": "address"
        },
        {
          "internalType": "address",
          "name": "token2",
          "type": "address"
        }
      ],
      "name": "getPathSwap",
      "outputs": [
        {
          "internalType": "address[]",
          "name": "",
          "type": "address[]"
        }
      ],
      "stateMutability": "pure",
      "type": "function",
      "constant": true
    },
    {
      "inputs": [],
      "name": "getUserVaultList",
      "outputs": [
        {
          "internalType": "uint256[]",
          "name": "",
          "type": "uint256[]"
        }
      ],
      "stateMutability": "view",
      "type": "function",
      "constant": true
    },
    {
      "inputs": [],
      "name": "lastBlockUpdate",
      "outputs": [
        {
          "internalType": "uint256",
          "name": "",
          "type": "uint256"
        }
      ],
      "stateMutability": "view",
      "type": "function",
      "constant": true
    },
    {
      "inputs": [
        {
          "internalType": "address",
          "name": "",
          "type": "address"
        }
      ],
      "name": "lastBlockUserUpdate",
      "outputs": [
        {
          "internalType": "uint256",
          "name": "",
          "type": "uint256"
        }
      ],
      "stateMutability": "view",
      "type": "function",
      "constant": true
    },
    {
      "inputs": [
        {
          "internalType": "uint256",
          "name": "vaultId",
          "type": "uint256"
        },
        {
          "internalType": "uint256",
          "name": "longAmount",
          "type": "uint256"
        },
        {
          "internalType": "uint256",
          "name": "initialDeposit",
          "type": "uint256"
        }
      ],
      "name": "longAsset",
      "outputs": [],
      "stateMutability": "nonpayable",
      "type": "function"
    },
    {
      "inputs": [],
      "name": "maiVault",
      "outputs": [
        {
          "internalType": "address",
          "name": "",
          "type": "address"
        }
      ],
      "stateMutability": "view",
      "type": "function",
      "constant": true
    },
    {
      "inputs": [],
      "name": "owner",
      "outputs": [
        {
          "internalType": "address",
          "name": "",
          "type": "address"
        }
      ],
      "stateMutability": "view",
      "type": "function",
      "constant": true
    },
    {
      "inputs": [
        {
          "internalType": "uint256",
          "name": "vaultId",
          "type": "uint256"
        },
        {
          "internalType": "uint256",
          "name": "debtAmountToReduce",
          "type": "uint256"
        }
      ],
      "name": "reduceLong",
      "outputs": [],
      "stateMutability": "nonpayable",
      "type": "function"
    },
    {
      "inputs": [],
      "name": "renounceOwnership",
      "outputs": [],
      "stateMutability": "nonpayable",
      "type": "function"
    },
    {
      "inputs": [
        {
          "internalType": "uint256",
          "name": "vaultId",
          "type": "uint256"
        },
        {
          "internalType": "uint256",
          "name": "amountToRepay",
          "type": "uint256"
        }
      ],
      "name": "repay",
      "outputs": [],
      "stateMutability": "nonpayable",
      "type": "function"
    },
    {
      "inputs": [],
      "name": "totalDebt",
      "outputs": [
        {
          "internalType": "uint256",
          "name": "",
          "type": "uint256"
        }
      ],
      "stateMutability": "view",
      "type": "function",
      "constant": true
    },
    {
      "inputs": [
        {
          "internalType": "uint256",
          "name": "",
          "type": "uint256"
        }
      ],
      "name": "totalDebtByPeriod",
      "outputs": [
        {
          "internalType": "uint256",
          "name": "",
          "type": "uint256"
        }
      ],
      "stateMutability": "view",
      "type": "function",
      "constant": true
    },
    {
      "inputs": [
        {
          "internalType": "address",
          "name": "newOwner",
          "type": "address"
        }
      ],
      "name": "transferOwnership",
      "outputs": [],
      "stateMutability": "nonpayable",
      "type": "function"
    },
    {
      "inputs": [
        {
          "internalType": "uint256",
          "name": "periodBlockStart",
          "type": "uint256"
        },
        {
          "internalType": "uint256",
          "name": "amount",
          "type": "uint256"
        }
      ],
      "name": "updateRewardsBalance",
      "outputs": [],
      "stateMutability": "nonpayable",
      "type": "function"
    },
    {
      "inputs": [
        {
          "internalType": "address",
          "name": "",
          "type": "address"
        }
      ],
      "name": "userDebt",
      "outputs": [
        {
          "internalType": "uint256",
          "name": "",
          "type": "uint256"
        }
      ],
      "stateMutability": "view",
      "type": "function",
      "constant": true
    },
    {
      "inputs": [
        {
          "internalType": "address",
          "name": "",
          "type": "address"
        },
        {
          "internalType": "uint256",
          "name": "",
          "type": "uint256"
        }
      ],
      "name": "userDebtByPeriod",
      "outputs": [
        {
          "internalType": "uint256",
          "name": "",
          "type": "uint256"
        }
      ],
      "stateMutability": "view",
      "type": "function",
      "constant": true
    },
    {
      "inputs": [
        {
          "internalType": "address",
          "name": "",
          "type": "address"
        }
      ],
      "name": "userLastClaimBlockStart",
      "outputs": [
        {
          "internalType": "uint256",
          "name": "",
          "type": "uint256"
        }
      ],
      "stateMutability": "view",
      "type": "function",
      "constant": true
    },
    {
      "inputs": [
        {
          "internalType": "uint256",
          "name": "vaultId",
          "type": "uint256"
        },
        {
          "internalType": "uint256",
          "name": "amount",
          "type": "uint256"
        }
      ],
      "name": "withdrawCollateral",
      "outputs": [],
      "stateMutability": "nonpayable",
      "type": "function"
    }
  ],
  "bytecode": "0x60c06040526000600a556000600b553480156200001b57600080fd5b5073d6df932a45c0f255f85145f286ea0b292b21c90b7387ee36f780ae843a78d5735867bc1c13792b7b1163619516b373d05e3e715d945b59290df0ae8ef85c1bdb6847448073ffffffffffffffffffffffffffffffffffffffff1660808173ffffffffffffffffffffffffffffffffffffffff16815250508073ffffffffffffffffffffffffffffffffffffffff16630261bf8b6040518163ffffffff167c010000000000000000000000000000000000000000000000000000000002815260040160206040518083038186803b158015620000f757600080fd5b505afa1580156200010c573d6000803e3d6000fd5b505050506040513d601f19601f8201168201806040525081019062000132919062000367565b73ffffffffffffffffffffffffffffffffffffffff1660a08173ffffffffffffffffffffffffffffffffffffffff168152505050620001986200018362000231640100000000026401000000009004565b62000239640100000000026401000000009004565b81600260006101000a81548173ffffffffffffffffffffffffffffffffffffffff021916908373ffffffffffffffffffffffffffffffffffffffff16021790555082600360006101000a81548173ffffffffffffffffffffffffffffffffffffffff021916908373ffffffffffffffffffffffffffffffffffffffff16021790555080600d8190555042600b8190555050505062000399565b600033905090565b60008060009054906101000a900473ffffffffffffffffffffffffffffffffffffffff169050816000806101000a81548173ffffffffffffffffffffffffffffffffffffffff021916908373ffffffffffffffffffffffffffffffffffffffff1602179055508173ffffffffffffffffffffffffffffffffffffffff168173ffffffffffffffffffffffffffffffffffffffff167f8be0079c531659141344cd1fd0a4f28419497f9722a3daafe3b4186f6b6457e060405160405180910390a35050565b600080fd5b600073ffffffffffffffffffffffffffffffffffffffff82169050919050565b60006200032f8262000302565b9050919050565b620003418162000322565b81146200034d57600080fd5b50565b600081519050620003618162000336565b92915050565b60006020828403121562000380576200037f620002fd565b5b6000620003908482850162000350565b91505092915050565b60805160a051615b14620003cd60003960008181611b3701528181611ed0015261305c0152600061073c0152615b146000f3fe608060405234801561001057600080fd5b5060043610610239576000357c0100000000000000000000000000000000000000000000000000000000900480637afa4bbe11610142578063b69e5c77116100ca578063dc01f60d11610099578063dc01f60d14610684578063e2bbb158146106b4578063f2fde38b146106d0578063f48b0dc8146106ec578063fc7b9c181461071c57610239565b8063b69e5c77146105fc578063b9f40cf91461062c578063d8aed1451461064a578063d8dfeb451461066657610239565b80639bbdff51116101115780639bbdff5114610544578063a887b6af14610562578063af26e5be1461057e578063b38f2887146105ae578063b4dcfc77146105de57610239565b80637afa4bbe146104a85780638da5cb5b146104d8578063920f5c84146104f65780639b816a471461052657610239565b80633c50eec1116101c55780635e99a757116101945780635e99a757146104185780635fdfa45f1461043457806368e1910414610452578063715018a614610482578063767a7b051461048c57610239565b80633c50eec1146103925780634070776c146103c25780634bc2dd06146103f25780635d12928b1461040e57610239565b80631ac6d19d1161020c5780631ac6d19d146102c8578063226fd0b3146102e457806322c40bdf1461031457806323f2138d14610332578063241091431461036257610239565b80630542975c1461023e5780630654fc951461025c578063082ed05c1461027a57806310a784b414610298575b600080fd5b61024661073a565b60405161025391906145f8565b60405180910390f35b61026461075e565b60405161027191906146db565b60405180910390f35b6102826107f3565b60405161028f919061470c565b60405180910390f35b6102b260048036038101906102ad9190614779565b6107f9565b6040516102bf919061470c565b60405180910390f35b6102e260048036038101906102dd9190614779565b610811565b005b6102fe60048036038101906102f99190614779565b610d03565b60405161030b919061470c565b60405180910390f35b61031c610d1b565b604051610329919061470c565b60405180910390f35b61034c60048036038101906103479190614779565b610dde565b604051610359919061470c565b60405180910390f35b61037c600480360381019061037791906147d2565b610df6565b604051610389919061470c565b60405180910390f35b6103ac60048036038101906103a791906147ff565b61112c565b6040516103b9919061470c565b60405180910390f35b6103dc60048036038101906103d791906147d2565b611233565b6040516103e9919061470c565b60405180910390f35b61040c60048036038101906104079190614852565b61124b565b005b6104166112eb565b005b610432600480360381019061042d9190614852565b611453565b005b61043c6114b9565b604051610449919061470c565b60405180910390f35b61046c600480360381019061046791906147ff565b6114bf565b604051610479919061470c565b60405180910390f35b61048a6115ba565b005b6104a660048036038101906104a19190614852565b611642565b005b6104c260048036038101906104bd91906147d2565b611779565b6040516104cf919061470c565b60405180910390f35b6104e0611a2a565b6040516104ed91906148a1565b60405180910390f35b610510600480360381019061050b91906149cd565b611a53565b60405161051d9190614ae4565b60405180910390f35b61052e611b92565b60405161053b91906148a1565b60405180910390f35b61054c611bb8565b604051610559919061470c565b60405180910390f35b61057c60048036038101906105779190614aff565b611bbf565b005b61059860048036038101906105939190614b52565b611e91565b6040516105a5919061470c565b60405180910390f35b6105c860048036038101906105c391906147d2565b611eb6565b6040516105d5919061470c565b60405180910390f35b6105e6611ece565b6040516105f39190614bb3565b60405180910390f35b61061660048036038101906106119190614779565b611ef2565b604051610623919061470c565b60405180910390f35b610634611f0a565b604051610641919061470c565b60405180910390f35b610664600480360381019061065f9190614852565b611f43565b005b61066e612203565b60405161067b91906148a1565b60405180910390f35b61069e60048036038101906106999190614779565b612229565b6040516106ab919061470c565b60405180910390f35b6106ce60048036038101906106c99190614852565b6124dd565b005b6106ea60048036038101906106e59190614779565b61260a565b005b61070660048036038101906107019190614bce565b612702565b6040516107139190614ccc565b60405180910390f35b6107246129e5565b604051610731919061470c565b60405180910390f35b7f000000000000000000000000000000000000000000000000000000000000000081565b6060600160003373ffffffffffffffffffffffffffffffffffffffff1673ffffffffffffffffffffffffffffffffffffffff1681526020019081526020016000208054806020026020016040519081016040528092919081815260200182805480156107e957602002820191906000526020600020905b8154815260200190600101908083116107d5575b5050505050905090565b600b5481565b60076020528060005260406000206000915090505481565b6108196129eb565b73ffffffffffffffffffffffffffffffffffffffff16610837611a2a565b73ffffffffffffffffffffffffffffffffffffffff161461088d576040517f08c379a000000000000000000000000000000000000000000000000000000000815260040161088490614d4b565b60405180910390fd5b61089a81600060016129f3565b60005b600d54600c60008473ffffffffffffffffffffffffffffffffffffffff1673ffffffffffffffffffffffffffffffffffffffff168152602001908152602001600020541015610b2957600060086000600c60008673ffffffffffffffffffffffffffffffffffffffff1673ffffffffffffffffffffffffffffffffffffffff168152602001908152602001600020548152602001908152602001600020541115610acb57600060086000600c60008673ffffffffffffffffffffffffffffffffffffffff1673ffffffffffffffffffffffffffffffffffffffff16815260200190815260200160002054815260200190815260200160002054670de0b6b3a7640000600460008673ffffffffffffffffffffffffffffffffffffffff1673ffffffffffffffffffffffffffffffffffffffff1681526020019081526020016000206000600c60008873ffffffffffffffffffffffffffffffffffffffff1673ffffffffffffffffffffffffffffffffffffffff16815260200190815260200160002054815260200190815260200160002054610a399190614d9a565b610a439190614e23565b90506000670de0b6b3a76400008260096000600c60008973ffffffffffffffffffffffffffffffffffffffff1673ffffffffffffffffffffffffffffffffffffffff16815260200190815260200160002054815260200190815260200160002054610aae9190614d9a565b610ab89190614e23565b90508083610ac69190614e54565b925050505b62093a80600c60008473ffffffffffffffffffffffffffffffffffffffff1673ffffffffffffffffffffffffffffffffffffffff1681526020019081526020016000206000828254610b1d9190614e54565b9250508190555061089d565b6000811115610cb15773580a84c73811e1839f75d86d75d88cca0c241ff473ffffffffffffffffffffffffffffffffffffffff1663095ea7b330836040518363ffffffff167c0100000000000000000000000000000000000000000000000000000000028152600401610b9d929190614eaa565b602060405180830381600087803b158015610bb757600080fd5b505af1158015610bcb573d6000803e3d6000fd5b505050506040513d601f19601f82011682018060405250810190610bef9190614eff565b5073580a84c73811e1839f75d86d75d88cca0c241ff473ffffffffffffffffffffffffffffffffffffffff166323b872dd3084846040518463ffffffff167c0100000000000000000000000000000000000000000000000000000000028152600401610c5d93929190614f2c565b602060405180830381600087803b158015610c7757600080fd5b505af1158015610c8b573d6000803e3d6000fd5b505050506040513d601f19601f82011682018060405250810190610caf9190614eff565b505b8173ffffffffffffffffffffffffffffffffffffffff167f242c1e3f8870907764ec31f219842da14596f9730059d8361155bfee276043f782604051610cf7919061470c565b60405180910390a25050565b600c6020528060005260406000206000915090505481565b6000600260009054906101000a900473ffffffffffffffffffffffffffffffffffffffff1673ffffffffffffffffffffffffffffffffffffffff1663e5f4dc926040518163ffffffff167c010000000000000000000000000000000000000000000000000000000002815260040160206040518083038186803b158015610da157600080fd5b505afa158015610db5573d6000803e3d6000fd5b505050506040513d601f19601f82011682018060405250810190610dd99190614f78565b905090565b60066020528060005260406000206000915090505481565b60006060600567ffffffffffffffff811115610e1557610e14614fa5565b5b604051908082528060200260200182016040528015610e435781602001602082028036833780820191505090505b50905073a3fa99a148fa48d14ed51d610c367c61876997f181600081518110610e6f57610e6e614fd4565b5b602002602001019073ffffffffffffffffffffffffffffffffffffffff16908173ffffffffffffffffffffffffffffffffffffffff1681525050730d500b1d8e8ef31e21c99d1db9a6444d3adf127081600181518110610ed257610ed1614fd4565b5b602002602001019073ffffffffffffffffffffffffffffffffffffffff16908173ffffffffffffffffffffffffffffffffffffffff1681525050732791bca1f2de4661ed88a30c99a7a9449aa8417481600281518110610f3557610f34614fd4565b5b602002602001019073ffffffffffffffffffffffffffffffffffffffff16908173ffffffffffffffffffffffffffffffffffffffff1681525050730d500b1d8e8ef31e21c99d1db9a6444d3adf127081600381518110610f9857610f97614fd4565b5b602002602001019073ffffffffffffffffffffffffffffffffffffffff16908173ffffffffffffffffffffffffffffffffffffffff1681525050600360009054906101000a900473ffffffffffffffffffffffffffffffffffffffff168160048151811061100957611008614fd4565b5b602002602001019073ffffffffffffffffffffffffffffffffffffffff16908173ffffffffffffffffffffffffffffffffffffffff1681525050600073a5e0829caced8ffdd4de3c43696c57f7d7a678ff73ffffffffffffffffffffffffffffffffffffffff16631f00ca7485846040518363ffffffff167c01000000000000000000000000000000000000000000000000000000000281526004016110b0929190615003565b60006040518083038186803b1580156110c857600080fd5b505afa1580156110dc573d6000803e3d6000fd5b505050506040513d6000823e3d601f19601f820116820180604052508101906111059190615153565b90508060008151811061111b5761111a614fd4565b5b602002602001015192505050919050565b6000606061113a8585612702565b9050600073a5e0829caced8ffdd4de3c43696c57f7d7a678ff73ffffffffffffffffffffffffffffffffffffffff1663d06ca61f85846040518363ffffffff167c01000000000000000000000000000000000000000000000000000000000281526004016111a9929190615003565b60006040518083038186803b1580156111c157600080fd5b505afa1580156111d5573d6000803e3d6000fd5b505050506040513d6000823e3d601f19601f820116820180604052508101906111fe9190615153565b9050806001835161120f919061519c565b815181106112205761121f614fd4565b5b6020026020010151925050509392505050565b60086020528060005260406000206000915090505481565b6112536129eb565b73ffffffffffffffffffffffffffffffffffffffff16611271611a2a565b73ffffffffffffffffffffffffffffffffffffffff16146112c7576040517f08c379a00000000000000000000000000000000000000000000000000000000081526004016112be90614d4b565b60405180910390fd5b8060096000848152602001908152602001600020819055506112e7612bea565b5050565b6000600260009054906101000a900473ffffffffffffffffffffffffffffffffffffffff16905060008173ffffffffffffffffffffffffffffffffffffffff16635d12928b6040518163ffffffff167c0100000000000000000000000000000000000000000000000000000000028152600401602060405180830381600087803b15801561137857600080fd5b505af115801561138c573d6000803e3d6000fd5b505050506040513d601f19601f820116820180604052508101906113b09190614f78565b9050600160003373ffffffffffffffffffffffffffffffffffffffff1673ffffffffffffffffffffffffffffffffffffffff1681526020019081526020016000208190806001815401808255809150506001900390600052602060002001600090919091909150557f4111fcee61908834830adf60a520ba26d09f02fa4e00cfe3d2c134e32f3f869681604051611447919061470c565b60405180910390a15050565b813361145f8282612ceb565b5061146c338460006129f3565b61147a848460016000612e0b565b7fc0df9fe8084fa90073ce26d7d6aab182bcc9b31fc0d5d0292b71444a96fa9e3d84846040516114ab9291906151d0565b60405180910390a150505050565b600d5481565b600060606114cd8585612702565b9050600073a5e0829caced8ffdd4de3c43696c57f7d7a678ff73ffffffffffffffffffffffffffffffffffffffff16631f00ca7485846040518363ffffffff167c010000000000000000000000000000000000000000000000000000000002815260040161153c929190615003565b60006040518083038186803b15801561155457600080fd5b505afa158015611568573d6000803e3d6000fd5b505050506040513d6000823e3d601f19601f820116820180604052508101906115919190615153565b9050806000815181106115a7576115a6614fd4565b5b6020026020010151925050509392505050565b6115c26129eb565b73ffffffffffffffffffffffffffffffffffffffff166115e0611a2a565b73ffffffffffffffffffffffffffffffffffffffff1614611636576040517f08c379a000000000000000000000000000000000000000000000000000000000815260040161162d90614d4b565b60405180910390fd5b611640600061311b565b565b813361164e8282612ceb565b508260008111611693576040517f08c379a000000000000000000000000000000000000000000000000000000000815260040161168a90615245565b60405180910390fd5b61169d85856131df565b6116ea3085600360009054906101000a900473ffffffffffffffffffffffffffffffffffffffff1673ffffffffffffffffffffffffffffffffffffffff1661328e9092919063ffffffff16565b611739303386600360009054906101000a900473ffffffffffffffffffffffffffffffffffffffff1673ffffffffffffffffffffffffffffffffffffffff166133e7909392919063ffffffff16565b7f6c0ea3bea9dd66afa8f9d39d6eb93d833466190330813b42835efc650dca4cb9858560405161176a9291906151d0565b60405180910390a15050505050565b600080600260009054906101000a900473ffffffffffffffffffffffffffffffffffffffff16905060008173ffffffffffffffffffffffffffffffffffffffff1663d310f49b856040518263ffffffff167c01000000000000000000000000000000000000000000000000000000000281526004016117f8919061470c565b60206040518083038186803b15801561181057600080fd5b505afa158015611824573d6000803e3d6000fd5b505050506040513d601f19601f820116820180604052508101906118489190614f78565b905060008273ffffffffffffffffffffffffffffffffffffffff1663d4a9b2c5866040518263ffffffff167c01000000000000000000000000000000000000000000000000000000000281526004016118a1919061470c565b60206040518083038186803b1580156118b957600080fd5b505afa1580156118cd573d6000803e3d6000fd5b505050506040513d601f19601f820116820180604052508101906118f19190614f78565b9050600082141561190757809350505050611a25565b6000611911610d1b565b905060008473ffffffffffffffffffffffffffffffffffffffff1663df987846886040518263ffffffff167c010000000000000000000000000000000000000000000000000000000002815260040161196a919061470c565b60206040518083038186803b15801561198257600080fd5b505afa158015611996573d6000803e3d6000fd5b505050506040513d601f19601f820116820180604052508101906119ba9190614f78565b9050600081856119ca9190614d9a565b9050600084826119da9190614e23565b9050600084836119ea9190614e23565b9050600087826119fa919061519c565b90506000868483611a0b9190614e23565b611a159190614d9a565b9050809a50505050505050505050505b919050565b60008060009054906101000a900473ffffffffffffffffffffffffffffffffffffffff16905090565b6000808383810190611a6591906152dc565b505092505050600089896000818110611a8157611a80614fd4565b5b905060200201359050600088886000818110611aa057611a9f614fd4565b5b905060200201358b8b6000818110611abb57611aba614fd4565b5b90506020020135611acc9190614e54565b905060008d8d6000818110611ae457611ae3614fd4565b5b9050602002016020810190611af99190614779565b905060008460ff161415611b1857611b138383898961348c565b611b32565b60018460ff161415611b3157611b308383898961381f565b5b5b611b7d7f0000000000000000000000000000000000000000000000000000000000000000838373ffffffffffffffffffffffffffffffffffffffff1661328e9092919063ffffffff16565b60019450505050509998505050505050505050565b600260009054906101000a900473ffffffffffffffffffffffffffffffffffffffff1681565b62093a8081565b8233611bcb8282612ceb565b50600083118015611c055750611bdf610d1b565b8460648587611bee9190614e54565b611bf89190614d9a565b611c029190614e23565b10155b611c44576040517f08c379a0000000000000000000000000000000000000000000000000000000008152600401611c3b906153a3565b60405180910390fd5b6000600260009054906101000a900473ffffffffffffffffffffffffffffffffffffffff1673ffffffffffffffffffffffffffffffffffffffff1663d310f49b876040518263ffffffff167c0100000000000000000000000000000000000000000000000000000000028152600401611cbd919061470c565b60206040518083038186803b158015611cd557600080fd5b505afa158015611ce9573d6000803e3d6000fd5b505050506040513d601f19601f82011682018060405250810190611d0d9190614f78565b9050611d5e333086600360009054906101000a900473ffffffffffffffffffffffffffffffffffffffff1673ffffffffffffffffffffffffffffffffffffffff166133e7909392919063ffffffff16565b611d6b8686600087612e0b565b6000600260009054906101000a900473ffffffffffffffffffffffffffffffffffffffff1673ffffffffffffffffffffffffffffffffffffffff1663d310f49b886040518263ffffffff167c0100000000000000000000000000000000000000000000000000000000028152600401611de4919061470c565b60206040518083038186803b158015611dfc57600080fd5b505afa158015611e10573d6000803e3d6000fd5b505050506040513d601f19601f82011682018060405250810190611e349190614f78565b9050611e4d338383611e46919061519c565b60016129f3565b7fcbf3d8fa8a0327024c779609ca3898d31246e64909b6867939acb857a6ca747e878787604051611e80939291906153c3565b60405180910390a150505050505050565b6004602052816000526040600020602052806000526040600020600091509150505481565b60096020528060005260406000206000915090505481565b7f000000000000000000000000000000000000000000000000000000000000000081565b60056020528060005260406000206000915090505481565b6000806064611f17610d1b565b611f21919061519c565b9050600181611f309190614e54565b612710611f3d9190614e23565b91505090565b8133611f4f8282612ceb565b508260008111611f94576040517f08c379a0000000000000000000000000000000000000000000000000000000008152600401611f8b90615245565b60405180910390fd5b6000600260009054906101000a900473ffffffffffffffffffffffffffffffffffffffff1673ffffffffffffffffffffffffffffffffffffffff1663d310f49b876040518263ffffffff167c010000000000000000000000000000000000000000000000000000000002815260040161200d919061470c565b60206040518083038186803b15801561202557600080fd5b505afa158015612039573d6000803e3d6000fd5b505050506040513d601f19601f8201168201806040525081019061205d9190614f78565b9050808511156120a2576040517f08c379a000000000000000000000000000000000000000000000000000000000815260040161209990615446565b60405180910390fd5b6120e333308773a3fa99a148fa48d14ed51d610c367c61876997f173ffffffffffffffffffffffffffffffffffffffff166133e7909392919063ffffffff16565b6120ed8686613c80565b600260009054906101000a900473ffffffffffffffffffffffffffffffffffffffff1673ffffffffffffffffffffffffffffffffffffffff1663d310f49b876040518263ffffffff167c0100000000000000000000000000000000000000000000000000000000028152600401612164919061470c565b60206040518083038186803b15801561217c57600080fd5b505afa158015612190573d6000803e3d6000fd5b505050506040513d601f19601f820116820180604052508101906121b49190614f78565b90506121c2338660006129f3565b7f552544cb36551120f07c66c5cd4b2987725a0c72198587f2ce796099bb66c58c86866040516121f39291906151d0565b60405180910390a1505050505050565b600360009054906101000a900473ffffffffffffffffffffffffffffffffffffffff1681565b600080600090506000600760008573ffffffffffffffffffffffffffffffffffffffff1673ffffffffffffffffffffffffffffffffffffffff1681526020019081526020016000205411156124d4576000600c60008573ffffffffffffffffffffffffffffffffffffffff1673ffffffffffffffffffffffffffffffffffffffff1681526020019081526020016000205490505b600d548110156124d2576000600860008381526020019081526020016000205411156124bc576000819050600062093a80826122f99190614e54565b90506000600660008873ffffffffffffffffffffffffffffffffffffffff1673ffffffffffffffffffffffffffffffffffffffff16815260200190815260200160002054831161238857600660008873ffffffffffffffffffffffffffffffffffffffff1673ffffffffffffffffffffffffffffffffffffffff1681526020019081526020016000205461238a565b825b905060006008600086815260200190815260200160002054670de0b6b3a764000083856123b7919061519c565b600560008c73ffffffffffffffffffffffffffffffffffffffff1673ffffffffffffffffffffffffffffffffffffffff168152602001908152602001600020546124019190614d9a565b600460008c73ffffffffffffffffffffffffffffffffffffffff1673ffffffffffffffffffffffffffffffffffffffff16815260200190815260200160002060008981526020019081526020016000205461245c9190614e54565b6124669190614d9a565b6124709190614e23565b90506000670de0b6b3a764000082600960008981526020019081526020016000205461249c9190614d9a565b6124a69190614e23565b905080876124b49190614e54565b965050505050505b62093a80816124cb9190614e54565b90506122bd565b505b80915050919050565b81336124e98282612ceb565b50826000811161252e576040517f08c379a000000000000000000000000000000000000000000000000000000000815260040161252590615245565b60405180910390fd5b60008411612571576040517f08c379a0000000000000000000000000000000000000000000000000000000008152600401612568906154b2565b60405180910390fd5b6125c0333086600360009054906101000a900473ffffffffffffffffffffffffffffffffffffffff1673ffffffffffffffffffffffffffffffffffffffff166133e7909392919063ffffffff16565b6125ca8585613d90565b7fa3af609bf46297028ce551832669030f9effef2b02606d02cbbcc40fe6b47c5585856040516125fb9291906151d0565b60405180910390a15050505050565b6126126129eb565b73ffffffffffffffffffffffffffffffffffffffff16612630611a2a565b73ffffffffffffffffffffffffffffffffffffffff1614612686576040517f08c379a000000000000000000000000000000000000000000000000000000000815260040161267d90614d4b565b60405180910390fd5b600073ffffffffffffffffffffffffffffffffffffffff168173ffffffffffffffffffffffffffffffffffffffff1614156126f6576040517f08c379a00000000000000000000000000000000000000000000000000000000081526004016126ed90615544565b60405180910390fd5b6126ff8161311b565b50565b6060730d500b1d8e8ef31e21c99d1db9a6444d3adf127073ffffffffffffffffffffffffffffffffffffffff168373ffffffffffffffffffffffffffffffffffffffff1614806127915750730d500b1d8e8ef31e21c99d1db9a6444d3adf127073ffffffffffffffffffffffffffffffffffffffff168273ffffffffffffffffffffffffffffffffffffffff16145b1561288b576000600267ffffffffffffffff8111156127b3576127b2614fa5565b5b6040519080825280602002602001820160405280156127e15781602001602082028036833780820191505090505b50905083816000815181106127f9576127f8614fd4565b5b602002602001019073ffffffffffffffffffffffffffffffffffffffff16908173ffffffffffffffffffffffffffffffffffffffff1681525050828160018151811061284857612847614fd4565b5b602002602001019073ffffffffffffffffffffffffffffffffffffffff16908173ffffffffffffffffffffffffffffffffffffffff1681525050809150506129df565b6000600367ffffffffffffffff8111156128a8576128a7614fa5565b5b6040519080825280602002602001820160405280156128d65781602001602082028036833780820191505090505b50905083816000815181106128ee576128ed614fd4565b5b602002602001019073ffffffffffffffffffffffffffffffffffffffff16908173ffffffffffffffffffffffffffffffffffffffff1681525050730d500b1d8e8ef31e21c99d1db9a6444d3adf12708160018151811061295157612950614fd4565b5b602002602001019073ffffffffffffffffffffffffffffffffffffffff16908173ffffffffffffffffffffffffffffffffffffffff168152505082816002815181106129a05761299f614fd4565b5b602002602001019073ffffffffffffffffffffffffffffffffffffffff16908173ffffffffffffffffffffffffffffffffffffffff1681525050809150505b92915050565b600a5481565b600033905090565b6129fb612bea565b612a0483613eb8565b600062093a80600d5442612a18919061519c565b612a229190614e23565b90508062093a80612a339190614d9a565b600d6000828254612a449190614e54565b925050819055508062093a80612a5a9190614d9a565b600760008673ffffffffffffffffffffffffffffffffffffffff1673ffffffffffffffffffffffffffffffffffffffff1681526020019081526020016000206000828254612aa89190614e54565b9250508190555042600b8190555042600660008673ffffffffffffffffffffffffffffffffffffffff1673ffffffffffffffffffffffffffffffffffffffff168152602001908152602001600020819055508115612b745782600a6000828254612b129190614e54565b9250508190555082600560008673ffffffffffffffffffffffffffffffffffffffff1673ffffffffffffffffffffffffffffffffffffffff1681526020019081526020016000206000828254612b689190614e54565b92505081905550612be4565b82600a6000828254612b86919061519c565b9250508190555082600560008673ffffffffffffffffffffffffffffffffffffffff1673ffffffffffffffffffffffffffffffffffffffff1681526020019081526020016000206000828254612bdc919061519c565b925050819055505b50505050565b600062093a80600d5442612bfe919061519c565b612c089190614e23565b905060005b818111612ce757600062093a8082612c259190614d9a565b600d54612c329190614e54565b9050600062093a8082612c459190614e54565b421115612c605762093a8082612c5b9190614e54565b612c62565b425b90506000600b548311612c7757600b54612c79565b825b90506000824211612c8a5742612c8c565b825b90508181612c9a919061519c565b600a54612ca79190614d9a565b600860008681526020019081526020016000206000828254612cc99190614e54565b92505081905550505050508080612cdf90615564565b915050612c0d565b5050565b600080600160008473ffffffffffffffffffffffffffffffffffffffff1673ffffffffffffffffffffffffffffffffffffffff168152602001908152602001600020805480602002602001604051908101604052809291908181526020018280548015612d7757602002820191906000526020600020905b815481526020019060010190808311612d63575b5050505050905060005b8151811015612dc95784828281518110612d9e57612d9d614fd4565b5b60200260200101511415612db6578092505050612e05565b8080612dc190615564565b915050612d81565b506040517f08c379a0000000000000000000000000000000000000000000000000000000008152600401612dfc906155f9565b60405180910390fd5b92915050565b6000612e4e732791bca1f2de4661ed88a30c99a7a9449aa84174600360009054906101000a900473ffffffffffffffffffffffffffffffffffffffff16866114bf565b905060018360ff161415612e9257612e8f732791bca1f2de4661ed88a30c99a7a9449aa8417473a3fa99a148fa48d14ed51d610c367c61876997f1866114bf565b90505b60003090506000600167ffffffffffffffff811115612eb457612eb3614fa5565b5b604051908082528060200260200182016040528015612ee25781602001602082028036833780820191505090505b509050732791bca1f2de4661ed88a30c99a7a9449aa8417481600081518110612f0e57612f0d614fd4565b5b602002602001019073ffffffffffffffffffffffffffffffffffffffff16908173ffffffffffffffffffffffffffffffffffffffff16815250506000600167ffffffffffffffff811115612f6557612f64614fa5565b5b604051908082528060200260200182016040528015612f935781602001602082028036833780820191505090505b5090508381600081518110612fab57612faa614fd4565b5b6020026020010181815250506000600167ffffffffffffffff811115612fd457612fd3614fa5565b5b6040519080825280602002602001820160405280156130025781602001602082028036833780820191505090505b50905060008160008151811061301b5761301a614fd4565b5b602002602001018181525050600030905060008a338a8c8b604051602001613047959493929190615628565b604051602081830303815290604052905060007f000000000000000000000000000000000000000000000000000000000000000073ffffffffffffffffffffffffffffffffffffffff1663ab9c4b5d888888888888886040518863ffffffff167c01000000000000000000000000000000000000000000000000000000000281526004016130db9796959493929190615720565b600060405180830381600087803b1580156130f557600080fd5b505af1158015613109573d6000803e3d6000fd5b50505050505050505050505050505050565b60008060009054906101000a900473ffffffffffffffffffffffffffffffffffffffff169050816000806101000a81548173ffffffffffffffffffffffffffffffffffffffff021916908373ffffffffffffffffffffffffffffffffffffffff1602179055508173ffffffffffffffffffffffffffffffffffffffff168173ffffffffffffffffffffffffffffffffffffffff167f8be0079c531659141344cd1fd0a4f28419497f9722a3daafe3b4186f6b6457e060405160405180910390a35050565b600260009054906101000a900473ffffffffffffffffffffffffffffffffffffffff1673ffffffffffffffffffffffffffffffffffffffff1663767a7b0583836040518363ffffffff167c01000000000000000000000000000000000000000000000000000000000281526004016132589291906151d0565b600060405180830381600087803b15801561327257600080fd5b505af1158015613286573d6000803e3d6000fd5b505050505050565b6000818473ffffffffffffffffffffffffffffffffffffffff1663dd62ed3e30866040518363ffffffff167c01000000000000000000000000000000000000000000000000000000000281526004016132e89291906157ab565b60206040518083038186803b15801561330057600080fd5b505afa158015613314573d6000803e3d6000fd5b505050506040513d601f19601f820116820180604052508101906133389190614f78565b6133429190614e54565b90506133e18463095ea7b37c010000000000000000000000000000000000000000000000000000000002858460405160240161337f929190614eaa565b604051602081830303815290604052907bffffffffffffffffffffffffffffffffffffffffffffffffffffffff19166020820180517bffffffffffffffffffffffffffffffffffffffffffffffffffffffff8381831617835250505050614246565b50505050565b613486846323b872dd7c01000000000000000000000000000000000000000000000000000000000285858560405160240161342493929190614f2c565b604051602081830303815290604052907bffffffffffffffffffffffffffffffffffffffffffffffffffffffff19166020820180517bffffffffffffffffffffffffffffffffffffffffffffffffffffffff8381831617835250505050614246565b50505050565b600080600084848101906134a091906152dc565b94509450505092506134fb73a5e0829caced8ffdd4de3c43696c57f7d7a678ff88732791bca1f2de4661ed88a30c99a7a9449aa8417473ffffffffffffffffffffffffffffffffffffffff1661328e9092919063ffffffff16565b600073a5e0829caced8ffdd4de3c43696c57f7d7a678ff73ffffffffffffffffffffffffffffffffffffffff16638803dbee848a61356f732791bca1f2de4661ed88a30c99a7a9449aa84174600360009054906101000a900473ffffffffffffffffffffffffffffffffffffffff16612702565b30426040518663ffffffff167c01000000000000000000000000000000000000000000000000000000000281526004016135ad9594939291906157d4565b600060405180830381600087803b1580156135c757600080fd5b505af11580156135db573d6000803e3d6000fd5b505050506040513d6000823e3d601f19601f820116820180604052508101906136049190615153565b90508060008151811061361a57613619614fd4565b5b60200260200101518861362d919061519c565b87613638919061519c565b9650600082846136489190614e54565b90506136548582613d90565b600061368973a3fa99a148fa48d14ed51d610c367c61876997f1732791bca1f2de4661ed88a30c99a7a9449aa841748b6114bf565b9050613695868261430d565b6136e873a5e0829caced8ffdd4de3c43696c57f7d7a678ff8273a3fa99a148fa48d14ed51d610c367c61876997f173ffffffffffffffffffffffffffffffffffffffff1661328e9092919063ffffffff16565b73a5e0829caced8ffdd4de3c43696c57f7d7a678ff73ffffffffffffffffffffffffffffffffffffffff16638803dbee8a8361374c73a3fa99a148fa48d14ed51d610c367c61876997f1732791bca1f2de4661ed88a30c99a7a9449aa84174612702565b30426040518663ffffffff167c010000000000000000000000000000000000000000000000000000000002815260040161378a9594939291906157d4565b600060405180830381600087803b1580156137a457600080fd5b505af11580156137b8573d6000803e3d6000fd5b505050506040513d6000823e3d601f19601f820116820180604052508101906137e19190615153565b925061381386846000815181106137fb576137fa614fd4565b5b60200260200101518361380e919061519c565b613c80565b50505050505050505050565b6000808383810190613831919061582e565b93505050915061388a73a5e0829caced8ffdd4de3c43696c57f7d7a678ff87732791bca1f2de4661ed88a30c99a7a9449aa8417473ffffffffffffffffffffffffffffffffffffffff1661328e9092919063ffffffff16565b600073a5e0829caced8ffdd4de3c43696c57f7d7a678ff73ffffffffffffffffffffffffffffffffffffffff16638803dbee83896138f0732791bca1f2de4661ed88a30c99a7a9449aa8417473a3fa99a148fa48d14ed51d610c367c61876997f1612702565b30426040518663ffffffff167c010000000000000000000000000000000000000000000000000000000002815260040161392e9594939291906157d4565b600060405180830381600087803b15801561394857600080fd5b505af115801561395c573d6000803e3d6000fd5b505050506040513d6000823e3d601f19601f820116820180604052508101906139859190615153565b90508060008151811061399b5761399a614fd4565b5b6020026020010151876139ae919061519c565b866139b9919061519c565b95506139ec8382600184516139ce919061519c565b815181106139df576139de614fd4565b5b6020026020010151613c80565b6000613a2f600360009054906101000a900473ffffffffffffffffffffffffffffffffffffffff16732791bca1f2de4661ed88a30c99a7a9449aa84174896114bf565b9050600260009054906101000a900473ffffffffffffffffffffffffffffffffffffffff1673ffffffffffffffffffffffffffffffffffffffff1663767a7b0585836040518363ffffffff167c0100000000000000000000000000000000000000000000000000000000028152600401613aaa9291906151d0565b600060405180830381600087803b158015613ac457600080fd5b505af1158015613ad8573d6000803e3d6000fd5b50505050613b3d73a5e0829caced8ffdd4de3c43696c57f7d7a678ff82600360009054906101000a900473ffffffffffffffffffffffffffffffffffffffff1673ffffffffffffffffffffffffffffffffffffffff1661328e9092919063ffffffff16565b73a5e0829caced8ffdd4de3c43696c57f7d7a678ff73ffffffffffffffffffffffffffffffffffffffff16638803dbee8883613baf600360009054906101000a900473ffffffffffffffffffffffffffffffffffffffff16732791bca1f2de4661ed88a30c99a7a9449aa84174612702565b30426040518663ffffffff167c0100000000000000000000000000000000000000000000000000000000028152600401613bed9594939291906157d4565b600060405180830381600087803b158015613c0757600080fd5b505af1158015613c1b573d6000803e3d6000fd5b505050506040513d6000823e3d601f19601f82011682018060405250810190613c449190615153565b9150613c768483600081518110613c5e57613c5d614fd4565b5b602002602001015183613c71919061519c565b613d90565b5050505050505050565b613ce1600260009054906101000a900473ffffffffffffffffffffffffffffffffffffffff168273a3fa99a148fa48d14ed51d610c367c61876997f173ffffffffffffffffffffffffffffffffffffffff1661328e9092919063ffffffff16565b600260009054906101000a900473ffffffffffffffffffffffffffffffffffffffff1673ffffffffffffffffffffffffffffffffffffffff166385af3c1683836040518363ffffffff167c0100000000000000000000000000000000000000000000000000000000028152600401613d5a9291906151d0565b600060405180830381600087803b158015613d7457600080fd5b505af1158015613d88573d6000803e3d6000fd5b505050505050565b6000811115613eb457613e08600260009054906101000a900473ffffffffffffffffffffffffffffffffffffffff1682600360009054906101000a900473ffffffffffffffffffffffffffffffffffffffff1673ffffffffffffffffffffffffffffffffffffffff1661328e9092919063ffffffff16565b600260009054906101000a900473ffffffffffffffffffffffffffffffffffffffff1673ffffffffffffffffffffffffffffffffffffffff1663ece1373283836040518363ffffffff167c0100000000000000000000000000000000000000000000000000000000028152600401613e819291906151d0565b600060405180830381600087803b158015613e9b57600080fd5b505af1158015613eaf573d6000803e3d6000fd5b505050505b5050565b6000600760008373ffffffffffffffffffffffffffffffffffffffff1673ffffffffffffffffffffffffffffffffffffffff168152602001908152602001600020541415613f4757600d54600760008373ffffffffffffffffffffffffffffffffffffffff1673ffffffffffffffffffffffffffffffffffffffff168152602001908152602001600020819055505b6000600c60008373ffffffffffffffffffffffffffffffffffffffff1673ffffffffffffffffffffffffffffffffffffffff168152602001908152602001600020541415613fd657600d54600c60008373ffffffffffffffffffffffffffffffffffffffff1673ffffffffffffffffffffffffffffffffffffffff168152602001908152602001600020819055505b600062093a80600760008473ffffffffffffffffffffffffffffffffffffffff1673ffffffffffffffffffffffffffffffffffffffff1681526020019081526020016000205442614027919061519c565b6140319190614e23565b905060005b81811161424157600062093a808261404e9190614d9a565b600760008673ffffffffffffffffffffffffffffffffffffffff1673ffffffffffffffffffffffffffffffffffffffff168152602001908152602001600020546140989190614e54565b9050600062093a80826140ab9190614e54565b4211156140c65762093a80826140c19190614e54565b6140c8565b425b90506000600660008773ffffffffffffffffffffffffffffffffffffffff1673ffffffffffffffffffffffffffffffffffffffff16815260200190815260200160002054831161415757600660008773ffffffffffffffffffffffffffffffffffffffff1673ffffffffffffffffffffffffffffffffffffffff16815260200190815260200160002054614159565b825b9050600082421161416a574261416c565b825b9050818161417a919061519c565b600560008973ffffffffffffffffffffffffffffffffffffffff1673ffffffffffffffffffffffffffffffffffffffff168152602001908152602001600020546141c49190614d9a565b600460008973ffffffffffffffffffffffffffffffffffffffff1673ffffffffffffffffffffffffffffffffffffffff168152602001908152602001600020600086815260200190815260200160002060008282546142239190614e54565b9250508190555050505050808061423990615564565b915050614036565b505050565b60006142a8826040518060400160405280602081526020017f5361666545524332303a206c6f772d6c6576656c2063616c6c206661696c65648152508573ffffffffffffffffffffffffffffffffffffffff166143bc9092919063ffffffff16565b905060008151111561430857808060200190518101906142c89190614eff565b614307576040517f08c379a00000000000000000000000000000000000000000000000000000000081526004016142fe90615907565b60405180910390fd5b5b505050565b600260009054906101000a900473ffffffffffffffffffffffffffffffffffffffff1673ffffffffffffffffffffffffffffffffffffffff166308ec592783836040518363ffffffff167c01000000000000000000000000000000000000000000000000000000000281526004016143869291906151d0565b600060405180830381600087803b1580156143a057600080fd5b505af11580156143b4573d6000803e3d6000fd5b505050505050565b60606143cb84846000856143d4565b90509392505050565b6060823073ffffffffffffffffffffffffffffffffffffffff16311015614430576040517f08c379a000000000000000000000000000000000000000000000000000000000815260040161442790615999565b60405180910390fd5b614439856144ff565b614478576040517f08c379a000000000000000000000000000000000000000000000000000000000815260040161446f90615a05565b60405180910390fd5b6000808673ffffffffffffffffffffffffffffffffffffffff1685876040516144a19190615a61565b60006040518083038185875af1925050503d80600081146144de576040519150601f19603f3d011682016040523d82523d6000602084013e6144e3565b606091505b50915091506144f3828286614512565b92505050949350505050565b600080823b905060008111915050919050565b6060831561452257829050614572565b6000835111156145355782518084602001fd5b816040517f08c379a00000000000000000000000000000000000000000000000000000000081526004016145699190615abc565b60405180910390fd5b9392505050565b600073ffffffffffffffffffffffffffffffffffffffff82169050919050565b6000819050919050565b60006145be6145b96145b484614579565b614599565b614579565b9050919050565b60006145d0826145a3565b9050919050565b60006145e2826145c5565b9050919050565b6145f2816145d7565b82525050565b600060208201905061460d60008301846145e9565b92915050565b600081519050919050565b600082825260208201905092915050565b6000819050602082019050919050565b6000819050919050565b6146528161463f565b82525050565b60006146648383614649565b60208301905092915050565b6000602082019050919050565b600061468882614613565b614692818561461e565b935061469d8361462f565b8060005b838110156146ce5781516146b58882614658565b97506146c083614670565b9250506001810190506146a1565b5085935050505092915050565b600060208201905081810360008301526146f5818461467d565b905092915050565b6147068161463f565b82525050565b600060208201905061472160008301846146fd565b92915050565b6000604051905090565b600080fd5b600080fd5b600061474682614579565b9050919050565b6147568161473b565b811461476157600080fd5b50565b6000813590506147738161474d565b92915050565b60006020828403121561478f5761478e614731565b5b600061479d84828501614764565b91505092915050565b6147af8161463f565b81146147ba57600080fd5b50565b6000813590506147cc816147a6565b92915050565b6000602082840312156147e8576147e7614731565b5b60006147f6848285016147bd565b91505092915050565b60008060006060848603121561481857614817614731565b5b600061482686828701614764565b935050602061483786828701614764565b9250506040614848868287016147bd565b9150509250925092565b6000806040838503121561486957614868614731565b5b6000614877858286016147bd565b9250506020614888858286016147bd565b9150509250929050565b61489b8161473b565b82525050565b60006020820190506148b66000830184614892565b92915050565b600080fd5b600080fd5b600080fd5b60008083601f8401126148e1576148e06148bc565b5b8235905067ffffffffffffffff8111156148fe576148fd6148c1565b5b60208301915083602082028301111561491a576149196148c6565b5b9250929050565b60008083601f840112614937576149366148bc565b5b8235905067ffffffffffffffff811115614954576149536148c1565b5b6020830191508360208202830111156149705761496f6148c6565b5b9250929050565b60008083601f84011261498d5761498c6148bc565b5b8235905067ffffffffffffffff8111156149aa576149a96148c1565b5b6020830191508360018202830111156149c6576149c56148c6565b5b9250929050565b600080600080600080600080600060a08a8c0312156149ef576149ee614731565b5b60008a013567ffffffffffffffff811115614a0d57614a0c614736565b5b614a198c828d016148cb565b995099505060208a013567ffffffffffffffff811115614a3c57614a3b614736565b5b614a488c828d01614921565b975097505060408a013567ffffffffffffffff811115614a6b57614a6a614736565b5b614a778c828d01614921565b95509550506060614a8a8c828d01614764565b93505060808a013567ffffffffffffffff811115614aab57614aaa614736565b5b614ab78c828d01614977565b92509250509295985092959850929598565b60008115159050919050565b614ade81614ac9565b82525050565b6000602082019050614af96000830184614ad5565b92915050565b600080600060608486031215614b1857614b17614731565b5b6000614b26868287016147bd565b9350506020614b37868287016147bd565b9250506040614b48868287016147bd565b9150509250925092565b60008060408385031215614b6957614b68614731565b5b6000614b7785828601614764565b9250506020614b88858286016147bd565b9150509250929050565b6000614b9d826145c5565b9050919050565b614bad81614b92565b82525050565b6000602082019050614bc86000830184614ba4565b92915050565b60008060408385031215614be557614be4614731565b5b6000614bf385828601614764565b9250506020614c0485828601614764565b9150509250929050565b600081519050919050565b600082825260208201905092915050565b6000819050602082019050919050565b614c438161473b565b82525050565b6000614c558383614c3a565b60208301905092915050565b6000602082019050919050565b6000614c7982614c0e565b614c838185614c19565b9350614c8e83614c2a565b8060005b83811015614cbf578151614ca68882614c49565b9750614cb183614c61565b925050600181019050614c92565b5085935050505092915050565b60006020820190508181036000830152614ce68184614c6e565b905092915050565b600082825260208201905092915050565b7f4f776e61626c653a2063616c6c6572206973206e6f7420746865206f776e6572600082015250565b6000614d35602083614cee565b9150614d4082614cff565b602082019050919050565b60006020820190508181036000830152614d6481614d28565b9050919050565b7f4e487b7100000000000000000000000000000000000000000000000000000000600052601160045260246000fd5b6000614da58261463f565b9150614db08361463f565b9250817fffffffffffffffffffffffffffffffffffffffffffffffffffffffffffffffff0483118215151615614de957614de8614d6b565b5b828202905092915050565b7f4e487b7100000000000000000000000000000000000000000000000000000000600052601260045260246000fd5b6000614e2e8261463f565b9150614e398361463f565b925082614e4957614e48614df4565b5b828204905092915050565b6000614e5f8261463f565b9150614e6a8361463f565b9250827fffffffffffffffffffffffffffffffffffffffffffffffffffffffffffffffff03821115614e9f57614e9e614d6b565b5b828201905092915050565b6000604082019050614ebf6000830185614892565b614ecc60208301846146fd565b9392505050565b614edc81614ac9565b8114614ee757600080fd5b50565b600081519050614ef981614ed3565b92915050565b600060208284031215614f1557614f14614731565b5b6000614f2384828501614eea565b91505092915050565b6000606082019050614f416000830186614892565b614f4e6020830185614892565b614f5b60408301846146fd565b949350505050565b600081519050614f72816147a6565b92915050565b600060208284031215614f8e57614f8d614731565b5b6000614f9c84828501614f63565b91505092915050565b7f4e487b7100000000000000000000000000000000000000000000000000000000600052604160045260246000fd5b7f4e487b7100000000000000000000000000000000000000000000000000000000600052603260045260246000fd5b600060408201905061501860008301856146fd565b818103602083015261502a8184614c6e565b90509392505050565b6000601f19601f8301169050919050565b61504d82615033565b810181811067ffffffffffffffff8211171561506c5761506b614fa5565b5b80604052505050565b600061507f614727565b905061508b8282615044565b919050565b600067ffffffffffffffff8211156150ab576150aa614fa5565b5b602082029050602081019050919050565b60006150cf6150ca84615090565b615075565b905080838252602082019050602084028301858111156150f2576150f16148c6565b5b835b8181101561511b57806151078882614f63565b8452602084019350506020810190506150f4565b5050509392505050565b600082601f83011261513a576151396148bc565b5b815161514a8482602086016150bc565b91505092915050565b60006020828403121561516957615168614731565b5b600082015167ffffffffffffffff81111561518757615186614736565b5b61519384828501615125565b91505092915050565b60006151a78261463f565b91506151b28361463f565b9250828210156151c5576151c4614d6b565b5b828203905092915050565b60006040820190506151e560008301856146fd565b6151f260208301846146fd565b9392505050565b7f504f5349544956455f414d4f554e545f52455155495245440000000000000000600082015250565b600061522f601883614cee565b915061523a826151f9565b602082019050919050565b6000602082019050818103600083015261525e81615222565b9050919050565b600061527082614579565b9050919050565b61528081615265565b811461528b57600080fd5b50565b60008135905061529d81615277565b92915050565b600060ff82169050919050565b6152b9816152a3565b81146152c457600080fd5b50565b6000813590506152d6816152b0565b92915050565b600080600080600060a086880312156152f8576152f7614731565b5b6000615306888289016147bd565b95505060206153178882890161528e565b9450506040615328888289016152c7565b9350506060615339888289016147bd565b925050608061534a888289016147bd565b9150509295509295909350565b7f4e4f545f454e4f5547485f434f4c4c41544552414c0000000000000000000000600082015250565b600061538d601583614cee565b915061539882615357565b602082019050919050565b600060208201905081810360008301526153bc81615380565b9050919050565b60006060820190506153d860008301866146fd565b6153e560208301856146fd565b6153f260408301846146fd565b949350505050565b7f414d4f554e545f544f4f5f424947000000000000000000000000000000000000600082015250565b6000615430600e83614cee565b915061543b826153fa565b602082019050919050565b6000602082019050818103600083015261545f81615423565b9050919050565b7f414d4f554e545f5a45524f000000000000000000000000000000000000000000600082015250565b600061549c600b83614cee565b91506154a782615466565b602082019050919050565b600060208201905081810360008301526154cb8161548f565b9050919050565b7f4f776e61626c653a206e6577206f776e657220697320746865207a65726f206160008201527f6464726573730000000000000000000000000000000000000000000000000000602082015250565b600061552e602683614cee565b9150615539826154d2565b604082019050919050565b6000602082019050818103600083015261555d81615521565b9050919050565b600061556f8261463f565b91507fffffffffffffffffffffffffffffffffffffffffffffffffffffffffffffffff8214156155a2576155a1614d6b565b5b600182019050919050565b7f555345525f4e4f545f4f574e4552000000000000000000000000000000000000600082015250565b60006155e3600e83614cee565b91506155ee826155ad565b602082019050919050565b60006020820190508181036000830152615612816155d6565b9050919050565b615622816152a3565b82525050565b600060a08201905061563d60008301886146fd565b61564a6020830187614892565b6156576040830186615619565b61566460608301856146fd565b61567160808301846146fd565b9695505050505050565b600081519050919050565b600082825260208201905092915050565b60005b838110156156b557808201518184015260208101905061569a565b838111156156c4576000848401525b50505050565b60006156d58261567b565b6156df8185615686565b93506156ef818560208601615697565b6156f881615033565b840191505092915050565b600061ffff82169050919050565b61571a81615703565b82525050565b600060e082019050615735600083018a614892565b81810360208301526157478189614c6e565b9050818103604083015261575b818861467d565b9050818103606083015261576f818761467d565b905061577e6080830186614892565b81810360a083015261579081856156ca565b905061579f60c0830184615711565b98975050505050505050565b60006040820190506157c06000830185614892565b6157cd6020830184614892565b9392505050565b600060a0820190506157e960008301886146fd565b6157f660208301876146fd565b81810360408301526158088186614c6e565b90506158176060830185614892565b61582460808301846146fd565b9695505050505050565b6000806000806080858703121561584857615847614731565b5b6000615856878288016147bd565b94505060206158678782880161528e565b9350506040615878878288016152c7565b9250506060615889878288016147bd565b91505092959194509250565b7f5361666545524332303a204552433230206f7065726174696f6e20646964206e60008201527f6f74207375636365656400000000000000000000000000000000000000000000602082015250565b60006158f1602a83614cee565b91506158fc82615895565b604082019050919050565b60006020820190508181036000830152615920816158e4565b9050919050565b7f416464726573733a20696e73756666696369656e742062616c616e636520666f60008201527f722063616c6c0000000000000000000000000000000000000000000000000000602082015250565b6000615983602683614cee565b915061598e82615927565b604082019050919050565b600060208201905081810360008301526159b281615976565b9050919050565b7f416464726573733a2063616c6c20746f206e6f6e2d636f6e7472616374000000600082015250565b60006159ef601d83614cee565b91506159fa826159b9565b602082019050919050565b60006020820190508181036000830152615a1e816159e2565b9050919050565b600081905092915050565b6000615a3b8261567b565b615a458185615a25565b9350615a55818560208601615697565b80840191505092915050565b6000615a6d8284615a30565b915081905092915050565b600081519050919050565b6000615a8e82615a78565b615a988185614cee565b9350615aa8818560208601615697565b615ab181615033565b840191505092915050565b60006020820190508181036000830152615ad68184615a83565b90509291505056fea2646970667358221220cf2c7e2acaf3a582aed31b3aab27ce4ca204d1dc486f17d753931b45425eff9464736f6c63430008090033",
  "immutableReferences": {
    "762": [
      {
        "length": 32,
        "start": 1852
      }
    ],
    "765": [
      {
        "length": 32,
        "start": 6967
      },
      {
        "length": 32,
        "start": 7888
      },
      {
        "length": 32,
        "start": 12380
      }
    ]
  },
  "source": "// SPDX-License-Identifier: MIT\npragma solidity >=0.8.9;\n\nimport {VaultLongMaiFinanceBase} from \"./VaultLongMaiFinanceBase.sol\";\n\ncontract AaveVaultLong is VaultLongMaiFinanceBase {\n    address constant collateralAddr =\n        0xD6DF932A45C0f255f85145f286eA0b292B21C90B;\n    address constant vaultAddr = 0x87ee36f780ae843A78D5735867bc1c13792b7b11;\n    uint256 constant startBlockRewards = 1637160627;\n\n    constructor()\n        VaultLongMaiFinanceBase(collateralAddr, vaultAddr, startBlockRewards)\n    {}\n}\n",
  "sourcePath": "/media/nello/Data/dev/blockchain/Consensys/blockchain-developer-bootcamp-final-project/contracts/AaveVaultLong.sol",
  "compiler": {
    "name": "solc",
    "version": "0.8.9+commit.e5eed63a.Emscripten.clang"
  },
  "schemaVersion": "3.4.3",
  "updatedAt": "2021-11-24T18:31:31.092Z",
  "networkType": "ethereum",
  "devdoc": {
    "kind": "dev",
    "methods": {
      "owner()": {
        "details": "Returns the address of the current owner."
      },
      "renounceOwnership()": {
        "details": "Leaves the contract without owner. It will not be possible to call `onlyOwner` functions anymore. Can only be called by the current owner. NOTE: Renouncing ownership will leave the contract without an owner, thereby removing any functionality that is only available to the owner."
      },
      "transferOwnership(address)": {
        "details": "Transfers ownership of the contract to a new account (`newOwner`). Can only be called by the current owner."
      }
    },
    "version": 1
  },
  "userdoc": {
    "kind": "user",
    "methods": {
      "claimRewardsFor(address)": {
        "notice": "To claim the pending reward for a user for a specific vault, the rewards are coming from the weekly distribution from Mai finance in Qi rewards, a user will be able to claim only once every REWARD_PERIOD_NB_BLOCKS blocks"
      },
      "claimableRewards(address)": {
        "notice": "Returns the amount of rewards a user can claim"
      },
      "deposit(uint256,uint256)": {
        "notice": "Deposit funds from the user to the contract, then the contract deposit the funds to the chosen Mai vault"
      },
      "executeOperation(address[],uint256[],uint256[],address,bytes)": {
        "notice": "This function is called after the contract has received the flash loaned amount"
      },
      "getAmountInMin(address,address,uint256)": {
        "notice": "This function will return the minimum amount in for a swap"
      },
      "getAmountOutMin(address,address,uint256)": {
        "notice": "This function will return the minimum amount out from a swap"
      },
      "getMAIDebtForAmount(uint256)": {
        "notice": "Returns an estimate of MAI amount to borrow to create a new long"
      },
      "getMaxWithdrawableCollateral(uint256)": {
        "notice": "This will return the max amount of collateral it is possible to withdraw with the current debt"
      },
      "getMinimumCollateralPercentage()": {
        "notice": "Get the minimum collateral percentage for this Mai vault type"
      },
      "getMultiplicatorMax100th()": {
        "notice": "This function will give the multiplicator maximum one user can long an asset The result is given multiplied by 100 to keep 2 decimals precision, the caller needs to devide by 100"
      },
      "getPathSwap(address,address)": {
        "notice": "Get the path for the 2 tokens passed in parameters, since we use Quickswap for the swaps, will go through WMATIC token to create the swap"
      },
      "getUserVaultList()": {
        "notice": "Get all the vault Ids for the sender address"
      },
      "longAsset(uint256,uint256,uint256)": {
        "notice": "The functions borrow the required amount of USDC to buy the chosen amount of collateral to long, will repay the borrowed USDC by borrowing MAI from Mai finance's vault, the user ends up with a long position and a debt in MAI Credits to Abracadra finance for the idea"
      },
      "reduceLong(uint256,uint256)": {
        "notice": "Reduce the long amount by doing another flash loan in USDC to buy the MAI required to repay the desired amount, the contract will then withdraw the required collateral to repay the USDC debt"
      },
      "repay(uint256,uint256)": {
        "notice": "Repay the wanted amount of MAI from the user wallet to the chosen vault"
      },
      "updateRewardsBalance(uint256,uint256)": {
        "notice": "Function called by an external script that will update the number of rewards which the contract get by period to be then shared with users"
      },
      "withdrawCollateral(uint256,uint256)": {
        "notice": "Withdraw the collateral amount from the Mai vault calling withdrawFromVault(), then sends the fund back to the user"
      }
    },
    "version": 1
  }
}