{
  "contractName": "GhstVaultLong",
  "abi": [
    {
      "inputs": [],
      "stateMutability": "nonpayable",
      "type": "constructor"
    },
    {
      "anonymous": false,
      "inputs": [
        {
          "indexed": false,
          "internalType": "uint256",
          "name": "amountClaimed",
          "type": "uint256"
        },
        {
          "indexed": false,
          "internalType": "uint256",
          "name": "nextClaimableBlock",
          "type": "uint256"
        }
      ],
      "name": "ClaimRewards",
      "type": "event"
    },
    {
      "anonymous": false,
      "inputs": [
        {
          "indexed": false,
          "internalType": "uint256",
          "name": "vaultId",
          "type": "uint256"
        },
        {
          "indexed": false,
          "internalType": "uint256",
          "name": "amount",
          "type": "uint256"
        }
      ],
      "name": "Deposit",
      "type": "event"
    },
    {
      "anonymous": false,
      "inputs": [
        {
          "indexed": false,
          "internalType": "uint256",
          "name": "vaultId",
          "type": "uint256"
        },
        {
          "indexed": false,
          "internalType": "uint256",
          "name": "longAmount",
          "type": "uint256"
        },
        {
          "indexed": false,
          "internalType": "uint256",
          "name": "initialDeposit",
          "type": "uint256"
        }
      ],
      "name": "LongAsset",
      "type": "event"
    },
    {
      "anonymous": false,
      "inputs": [
        {
          "indexed": false,
          "internalType": "uint256",
          "name": "vaultId",
          "type": "uint256"
        },
        {
          "indexed": false,
          "internalType": "uint256",
          "name": "debtAmountToReduce",
          "type": "uint256"
        }
      ],
      "name": "ReduceLong",
      "type": "event"
    },
    {
      "anonymous": false,
      "inputs": [
        {
          "indexed": false,
          "internalType": "uint256",
          "name": "vaultId",
          "type": "uint256"
        },
        {
          "indexed": false,
          "internalType": "uint256",
          "name": "amount",
          "type": "uint256"
        }
      ],
      "name": "Repay",
      "type": "event"
    },
    {
      "anonymous": false,
      "inputs": [
        {
          "indexed": false,
          "internalType": "uint256",
          "name": "reward",
          "type": "uint256"
        }
      ],
      "name": "RewardAdded",
      "type": "event"
    },
    {
      "anonymous": false,
      "inputs": [
        {
          "indexed": true,
          "internalType": "address",
          "name": "user",
          "type": "address"
        },
        {
          "indexed": false,
          "internalType": "uint256",
          "name": "reward",
          "type": "uint256"
        }
      ],
      "name": "RewardPaid",
      "type": "event"
    },
    {
      "anonymous": false,
      "inputs": [
        {
          "indexed": false,
          "internalType": "uint256",
          "name": "vaultId",
          "type": "uint256"
        }
      ],
      "name": "VaultCreated",
      "type": "event"
    },
    {
      "anonymous": false,
      "inputs": [
        {
          "indexed": false,
          "internalType": "uint256",
          "name": "vaultId",
          "type": "uint256"
        },
        {
          "indexed": false,
          "internalType": "uint256",
          "name": "amount",
          "type": "uint256"
        }
      ],
      "name": "WithdrawCollateral",
      "type": "event"
    },
    {
      "inputs": [],
      "name": "ADDRESSES_PROVIDER",
      "outputs": [
        {
          "internalType": "contract ILendingPoolAddressesProvider",
          "name": "",
          "type": "address"
        }
      ],
      "stateMutability": "view",
      "type": "function",
      "constant": true
    },
    {
      "inputs": [],
      "name": "LENDING_POOL",
      "outputs": [
        {
          "internalType": "contract ILendingPool",
          "name": "",
          "type": "address"
        }
      ],
      "stateMutability": "view",
      "type": "function",
      "constant": true
    },
    {
      "inputs": [],
      "name": "collateral",
      "outputs": [
        {
          "internalType": "address",
          "name": "",
          "type": "address"
        }
      ],
      "stateMutability": "view",
      "type": "function",
      "constant": true
    },
    {
      "inputs": [],
      "name": "createVault",
      "outputs": [],
      "stateMutability": "nonpayable",
      "type": "function"
    },
    {
      "inputs": [
        {
          "internalType": "uint256",
          "name": "vaultId",
          "type": "uint256"
        },
        {
          "internalType": "uint256",
          "name": "amount",
          "type": "uint256"
        }
      ],
      "name": "deposit",
      "outputs": [],
      "stateMutability": "nonpayable",
      "type": "function"
    },
    {
      "inputs": [
        {
          "internalType": "address[]",
          "name": "assets",
          "type": "address[]"
        },
        {
          "internalType": "uint256[]",
          "name": "amounts",
          "type": "uint256[]"
        },
        {
          "internalType": "uint256[]",
          "name": "premiums",
          "type": "uint256[]"
        },
        {
          "internalType": "address",
          "name": "initiator",
          "type": "address"
        },
        {
          "internalType": "bytes",
          "name": "params",
          "type": "bytes"
        }
      ],
      "name": "executeOperation",
      "outputs": [
        {
          "internalType": "bool",
          "name": "",
          "type": "bool"
        }
      ],
      "stateMutability": "nonpayable",
      "type": "function"
    },
    {
      "inputs": [
        {
          "internalType": "address",
          "name": "_tokenIn",
          "type": "address"
        },
        {
          "internalType": "address",
          "name": "_tokenOut",
          "type": "address"
        },
        {
          "internalType": "uint256",
          "name": "_amountOut",
          "type": "uint256"
        }
      ],
      "name": "getAmountInMin",
      "outputs": [
        {
          "internalType": "uint256",
          "name": "",
          "type": "uint256"
        }
      ],
      "stateMutability": "view",
      "type": "function",
      "constant": true
    },
    {
      "inputs": [
        {
          "internalType": "address",
          "name": "_tokenIn",
          "type": "address"
        },
        {
          "internalType": "address",
          "name": "_tokenOut",
          "type": "address"
        },
        {
          "internalType": "uint256",
          "name": "_amountIn",
          "type": "uint256"
        }
      ],
      "name": "getAmountOutMin",
      "outputs": [
        {
          "internalType": "uint256",
          "name": "",
          "type": "uint256"
        }
      ],
      "stateMutability": "view",
      "type": "function",
      "constant": true
    },
    {
      "inputs": [
        {
          "internalType": "uint256",
          "name": "amount",
          "type": "uint256"
        }
      ],
      "name": "getMAIDebtForAmount",
      "outputs": [
        {
          "internalType": "uint256",
          "name": "",
          "type": "uint256"
        }
      ],
      "stateMutability": "view",
      "type": "function",
      "constant": true
    },
    {
      "inputs": [
        {
          "internalType": "uint256",
          "name": "vaultId",
          "type": "uint256"
        }
      ],
      "name": "getMaxWithdrawableCollateral",
      "outputs": [
        {
          "internalType": "uint256",
          "name": "",
          "type": "uint256"
        }
      ],
      "stateMutability": "view",
      "type": "function",
      "constant": true
    },
    {
      "inputs": [],
      "name": "getMinimumCollateralPercentage",
      "outputs": [
        {
          "internalType": "uint256",
          "name": "",
          "type": "uint256"
        }
      ],
      "stateMutability": "view",
      "type": "function",
      "constant": true
    },
    {
      "inputs": [],
      "name": "getMultiplicatorMax100th",
      "outputs": [
        {
          "internalType": "uint256",
          "name": "",
          "type": "uint256"
        }
      ],
      "stateMutability": "view",
      "type": "function",
      "constant": true
    },
    {
      "inputs": [
        {
          "internalType": "address",
          "name": "token1",
          "type": "address"
        },
        {
          "internalType": "address",
          "name": "token2",
          "type": "address"
        }
      ],
      "name": "getPathSwap",
      "outputs": [
        {
          "internalType": "address[]",
          "name": "",
          "type": "address[]"
        }
      ],
      "stateMutability": "view",
      "type": "function",
      "constant": true
    },
    {
      "inputs": [],
      "name": "getUserVaultList",
      "outputs": [
        {
          "internalType": "uint256[]",
          "name": "",
          "type": "uint256[]"
        }
      ],
      "stateMutability": "view",
      "type": "function",
      "constant": true
    },
    {
      "inputs": [
        {
          "internalType": "uint256",
          "name": "vaultId",
          "type": "uint256"
        },
        {
          "internalType": "uint256",
          "name": "longAmount",
          "type": "uint256"
        },
        {
          "internalType": "uint256",
          "name": "initialDeposit",
          "type": "uint256"
        }
      ],
      "name": "longAsset",
      "outputs": [],
      "stateMutability": "nonpayable",
      "type": "function"
    },
    {
      "inputs": [],
      "name": "maiVault",
      "outputs": [
        {
          "internalType": "address",
          "name": "",
          "type": "address"
        }
      ],
      "stateMutability": "view",
      "type": "function",
      "constant": true
    },
    {
      "inputs": [
        {
          "internalType": "uint256",
          "name": "vaultId",
          "type": "uint256"
        },
        {
          "internalType": "uint256",
          "name": "debtAmountToReduce",
          "type": "uint256"
        }
      ],
      "name": "reduceLong",
      "outputs": [],
      "stateMutability": "nonpayable",
      "type": "function"
    },
    {
      "inputs": [
        {
          "internalType": "uint256",
          "name": "vaultId",
          "type": "uint256"
        },
        {
          "internalType": "uint256",
          "name": "amountToRepay",
          "type": "uint256"
        }
      ],
      "name": "repay",
      "outputs": [],
      "stateMutability": "nonpayable",
      "type": "function"
    },
    {
      "inputs": [
        {
          "internalType": "uint256",
          "name": "vaultId",
          "type": "uint256"
        },
        {
          "internalType": "uint256",
          "name": "amount",
          "type": "uint256"
        }
      ],
      "name": "withdrawCollateral",
      "outputs": [],
      "stateMutability": "nonpayable",
      "type": "function"
    }
  ],
  "bytecode": "0x60c060405273d05e3e715d945b59290df0ae8ef85c1bdb6847446000806101000a81548173ffffffffffffffffffffffffffffffffffffffff021916908373ffffffffffffffffffffffffffffffffffffffff160217905550732791bca1f2de4661ed88a30c99a7a9449aa84174600160006101000a81548173ffffffffffffffffffffffffffffffffffffffff021916908373ffffffffffffffffffffffffffffffffffffffff16021790555073a3fa99a148fa48d14ed51d610c367c61876997f1600260006101000a81548173ffffffffffffffffffffffffffffffffffffffff021916908373ffffffffffffffffffffffffffffffffffffffff160217905550730d500b1d8e8ef31e21c99d1db9a6444d3adf1270600360006101000a81548173ffffffffffffffffffffffffffffffffffffffff021916908373ffffffffffffffffffffffffffffffffffffffff16021790555073a5e0829caced8ffdd4de3c43696c57f7d7a678ff600460006101000a81548173ffffffffffffffffffffffffffffffffffffffff021916908373ffffffffffffffffffffffffffffffffffffffff16021790555073385eeac5cb85a38a9a07a70c73e0a3271cfb54a7600860006101000a81548173ffffffffffffffffffffffffffffffffffffffff021916908373ffffffffffffffffffffffffffffffffffffffff16021790555073f086dedf6a89e7b16145b03a6cb0c0a9979f1433600960006101000a81548173ffffffffffffffffffffffffffffffffffffffff021916908373ffffffffffffffffffffffffffffffffffffffff1602179055503480156200026357600080fd5b50600860009054906101000a900473ffffffffffffffffffffffffffffffffffffffff16600960009054906101000a900473ffffffffffffffffffffffffffffffffffffffff1660008054906101000a900473ffffffffffffffffffffffffffffffffffffffff168073ffffffffffffffffffffffffffffffffffffffff1660808173ffffffffffffffffffffffffffffffffffffffff16815250508073ffffffffffffffffffffffffffffffffffffffff16630261bf8b6040518163ffffffff167c010000000000000000000000000000000000000000000000000000000002815260040160206040518083038186803b1580156200036257600080fd5b505afa15801562000377573d6000803e3d6000fd5b505050506040513d601f19601f820116820180604052508101906200039d9190620004c5565b73ffffffffffffffffffffffffffffffffffffffff1660a08173ffffffffffffffffffffffffffffffffffffffff16815250505080600660006101000a81548173ffffffffffffffffffffffffffffffffffffffff021916908373ffffffffffffffffffffffffffffffffffffffff16021790555081600760006101000a81548173ffffffffffffffffffffffffffffffffffffffff021916908373ffffffffffffffffffffffffffffffffffffffff1602179055505050620004f7565b600080fd5b600073ffffffffffffffffffffffffffffffffffffffff82169050919050565b60006200048d8262000460565b9050919050565b6200049f8162000480565b8114620004ab57600080fd5b50565b600081519050620004bf8162000494565b92915050565b600060208284031215620004de57620004dd6200045b565b5b6000620004ee84828501620004ae565b91505092915050565b60805160a0516143c06200052b6000396000818161116f015281816113150152611d72015260006103cd01526143c06000f3fe608060405234801561001057600080fd5b506004361061013e576000357c0100000000000000000000000000000000000000000000000000000000900480637afa4bbe116100ca578063b9f40cf91161008e578063b9f40cf914610327578063d8aed14514610345578063d8dfeb4514610361578063e2bbb1581461037f578063f48b0dc81461039b5761013e565b80637afa4bbe1461026f578063920f5c841461029f5780639b816a47146102cf578063a887b6af146102ed578063b4dcfc77146103095761013e565b80633c50eec1116101115780633c50eec1146101cd5780635d12928b146101fd5780635e99a7571461020757806368e1910414610223578063767a7b05146102535761013e565b80630542975c146101435780630654fc951461016157806322c40bdf1461017f578063241091431461019d575b600080fd5b61014b6103cb565b6040516101589190612fe2565b60405180910390f35b6101696103ef565b60405161017691906130c5565b60405180910390f35b610187610484565b60405161019491906130f6565b60405180910390f35b6101b760048036038101906101b29190613151565b610547565b6040516101c491906130f6565b60405180910390f35b6101e760048036038101906101e291906131bc565b6108c3565b6040516101f491906130f6565b60405180910390f35b6102056109d8565b005b610221600480360381019061021c919061320f565b610b40565b005b61023d600480360381019061023891906131bc565b610b9a565b60405161024a91906130f6565b60405180910390f35b61026d6004803603810190610268919061320f565b610ca3565b005b61028960048036038101906102849190613151565b610dda565b60405161029691906130f6565b60405180910390f35b6102b960048036038101906102b49190613360565b61108b565b6040516102c69190613477565b60405180910390f35b6102d76111ca565b6040516102e491906134a1565b60405180910390f35b610307600480360381019061030291906134bc565b6111f0565b005b610311611313565b60405161031e9190613530565b60405180910390f35b61032f611337565b60405161033c91906130f6565b60405180910390f35b61035f600480360381019061035a919061320f565b611370565b005b610369611569565b60405161037691906134a1565b60405180910390f35b6103996004803603810190610394919061320f565b61158f565b005b6103b560048036038101906103b0919061354b565b6116bc565b6040516103c29190613649565b60405180910390f35b7f000000000000000000000000000000000000000000000000000000000000000081565b6060600560003373ffffffffffffffffffffffffffffffffffffffff1673ffffffffffffffffffffffffffffffffffffffff16815260200190815260200160002080548060200260200160405190810160405280929190818152602001828054801561047a57602002820191906000526020600020905b815481526020019060010190808311610466575b5050505050905090565b6000600660009054906101000a900473ffffffffffffffffffffffffffffffffffffffff1673ffffffffffffffffffffffffffffffffffffffff1663e5f4dc926040518163ffffffff167c010000000000000000000000000000000000000000000000000000000002815260040160206040518083038186803b15801561050a57600080fd5b505afa15801561051e573d6000803e3d6000fd5b505050506040513d601f19601f820116820180604052508101906105429190613680565b905090565b60006060600567ffffffffffffffff811115610566576105656136ad565b5b6040519080825280602002602001820160405280156105945781602001602082028036833780820191505090505b509050600260009054906101000a900473ffffffffffffffffffffffffffffffffffffffff16816000815181106105ce576105cd6136dc565b5b602002602001019073ffffffffffffffffffffffffffffffffffffffff16908173ffffffffffffffffffffffffffffffffffffffff1681525050600360009054906101000a900473ffffffffffffffffffffffffffffffffffffffff168160018151811061063f5761063e6136dc565b5b602002602001019073ffffffffffffffffffffffffffffffffffffffff16908173ffffffffffffffffffffffffffffffffffffffff1681525050600160009054906101000a900473ffffffffffffffffffffffffffffffffffffffff16816002815181106106b0576106af6136dc565b5b602002602001019073ffffffffffffffffffffffffffffffffffffffff16908173ffffffffffffffffffffffffffffffffffffffff1681525050600360009054906101000a900473ffffffffffffffffffffffffffffffffffffffff1681600381518110610721576107206136dc565b5b602002602001019073ffffffffffffffffffffffffffffffffffffffff16908173ffffffffffffffffffffffffffffffffffffffff1681525050600760009054906101000a900473ffffffffffffffffffffffffffffffffffffffff1681600481518110610792576107916136dc565b5b602002602001019073ffffffffffffffffffffffffffffffffffffffff16908173ffffffffffffffffffffffffffffffffffffffff16815250506000600460009054906101000a900473ffffffffffffffffffffffffffffffffffffffff1673ffffffffffffffffffffffffffffffffffffffff16631f00ca7485846040518363ffffffff167c010000000000000000000000000000000000000000000000000000000002815260040161084792919061370b565b60006040518083038186803b15801561085f57600080fd5b505afa158015610873573d6000803e3d6000fd5b505050506040513d6000823e3d601f19601f8201168201806040525081019061089c919061385b565b9050806000815181106108b2576108b16136dc565b5b602002602001015192505050919050565b600060606108d185856116bc565b90506000600460009054906101000a900473ffffffffffffffffffffffffffffffffffffffff1673ffffffffffffffffffffffffffffffffffffffff1663d06ca61f85846040518363ffffffff167c010000000000000000000000000000000000000000000000000000000002815260040161094e92919061370b565b60006040518083038186803b15801561096657600080fd5b505afa15801561097a573d6000803e3d6000fd5b505050506040513d6000823e3d601f19601f820116820180604052508101906109a3919061385b565b905080600183516109b491906138d3565b815181106109c5576109c46136dc565b5b6020026020010151925050509392505050565b6000600660009054906101000a900473ffffffffffffffffffffffffffffffffffffffff16905060008173ffffffffffffffffffffffffffffffffffffffff16635d12928b6040518163ffffffff167c0100000000000000000000000000000000000000000000000000000000028152600401602060405180830381600087803b158015610a6557600080fd5b505af1158015610a79573d6000803e3d6000fd5b505050506040513d601f19601f82011682018060405250810190610a9d9190613680565b9050600560003373ffffffffffffffffffffffffffffffffffffffff1673ffffffffffffffffffffffffffffffffffffffff1681526020019081526020016000208190806001815401808255809150506001900390600052602060002001600090919091909150557f4111fcee61908834830adf60a520ba26d09f02fa4e00cfe3d2c134e32f3f869681604051610b3491906130f6565b60405180910390a15050565b8133610b4c82826119c9565b50610b5b848460016000611ae9565b7fc0df9fe8084fa90073ce26d7d6aab182bcc9b31fc0d5d0292b71444a96fa9e3d8484604051610b8c929190613907565b60405180910390a150505050565b60006060610ba885856116bc565b90506000600460009054906101000a900473ffffffffffffffffffffffffffffffffffffffff1673ffffffffffffffffffffffffffffffffffffffff16631f00ca7485846040518363ffffffff167c0100000000000000000000000000000000000000000000000000000000028152600401610c2592919061370b565b60006040518083038186803b158015610c3d57600080fd5b505afa158015610c51573d6000803e3d6000fd5b505050506040513d6000823e3d601f19601f82011682018060405250810190610c7a919061385b565b905080600081518110610c9057610c8f6136dc565b5b6020026020010151925050509392505050565b8133610caf82826119c9565b508260008111610cf4576040517f08c379a0000000000000000000000000000000000000000000000000000000008152600401610ceb9061398d565b60405180910390fd5b610cfe8585611e31565b610d4b3085600760009054906101000a900473ffffffffffffffffffffffffffffffffffffffff1673ffffffffffffffffffffffffffffffffffffffff16611ee09092919063ffffffff16565b610d9a303386600760009054906101000a900473ffffffffffffffffffffffffffffffffffffffff1673ffffffffffffffffffffffffffffffffffffffff16612039909392919063ffffffff16565b7f6c0ea3bea9dd66afa8f9d39d6eb93d833466190330813b42835efc650dca4cb98585604051610dcb929190613907565b60405180910390a15050505050565b600080600660009054906101000a900473ffffffffffffffffffffffffffffffffffffffff16905060008173ffffffffffffffffffffffffffffffffffffffff1663d310f49b856040518263ffffffff167c0100000000000000000000000000000000000000000000000000000000028152600401610e5991906130f6565b60206040518083038186803b158015610e7157600080fd5b505afa158015610e85573d6000803e3d6000fd5b505050506040513d601f19601f82011682018060405250810190610ea99190613680565b905060008273ffffffffffffffffffffffffffffffffffffffff1663d4a9b2c5866040518263ffffffff167c0100000000000000000000000000000000000000000000000000000000028152600401610f0291906130f6565b60206040518083038186803b158015610f1a57600080fd5b505afa158015610f2e573d6000803e3d6000fd5b505050506040513d601f19601f82011682018060405250810190610f529190613680565b90506000821415610f6857809350505050611086565b6000610f72610484565b905060008473ffffffffffffffffffffffffffffffffffffffff1663df987846886040518263ffffffff167c0100000000000000000000000000000000000000000000000000000000028152600401610fcb91906130f6565b60206040518083038186803b158015610fe357600080fd5b505afa158015610ff7573d6000803e3d6000fd5b505050506040513d601f19601f8201168201806040525081019061101b9190613680565b90506000818561102b91906139ad565b90506000848261103b9190613a36565b90506000848361104b9190613a36565b90506000878261105b91906138d3565b9050600086848361106c9190613a36565b61107691906139ad565b9050809a50505050505050505050505b919050565b600080838381019061109d9190613ade565b5050925050506000898960008181106110b9576110b86136dc565b5b9050602002013590506000888860008181106110d8576110d76136dc565b5b905060200201358b8b60008181106110f3576110f26136dc565b5b905060200201356111049190613b59565b905060008d8d600081811061111c5761111b6136dc565b5b90506020020160208101906111319190613baf565b905060008460ff1614156111505761114b838389896120de565b61116a565b60018460ff161415611169576111688383898961250b565b5b5b6111b57f0000000000000000000000000000000000000000000000000000000000000000838373ffffffffffffffffffffffffffffffffffffffff16611ee09092919063ffffffff16565b60019450505050509998505050505050505050565b600660009054906101000a900473ffffffffffffffffffffffffffffffffffffffff1681565b82336111fc82826119c9565b506000831180156112365750611210610484565b846064858761121f9190613b59565b61122991906139ad565b6112339190613a36565b10155b611275576040517f08c379a000000000000000000000000000000000000000000000000000000000815260040161126c90613c28565b60405180910390fd5b6112c4333085600760009054906101000a900473ffffffffffffffffffffffffffffffffffffffff1673ffffffffffffffffffffffffffffffffffffffff16612039909392919063ffffffff16565b6112d18585600086611ae9565b7fcbf3d8fa8a0327024c779609ca3898d31246e64909b6867939acb857a6ca747e85858560405161130493929190613c48565b60405180910390a15050505050565b7f000000000000000000000000000000000000000000000000000000000000000081565b6000806064611344610484565b61134e91906138d3565b905060018161135d9190613b59565b61271061136a9190613a36565b91505090565b813361137c82826119c9565b5082600081116113c1576040517f08c379a00000000000000000000000000000000000000000000000000000000081526004016113b89061398d565b60405180910390fd5b6000600660009054906101000a900473ffffffffffffffffffffffffffffffffffffffff1673ffffffffffffffffffffffffffffffffffffffff1663d310f49b876040518263ffffffff167c010000000000000000000000000000000000000000000000000000000002815260040161143a91906130f6565b60206040518083038186803b15801561145257600080fd5b505afa158015611466573d6000803e3d6000fd5b505050506040513d601f19601f8201168201806040525081019061148a9190613680565b9050808511156114cf576040517f08c379a00000000000000000000000000000000000000000000000000000000081526004016114c690613ccb565b60405180910390fd5b61151e333087600260009054906101000a900473ffffffffffffffffffffffffffffffffffffffff1673ffffffffffffffffffffffffffffffffffffffff16612039909392919063ffffffff16565b61152886866129ea565b7f552544cb36551120f07c66c5cd4b2987725a0c72198587f2ce796099bb66c58c8686604051611559929190613907565b60405180910390a1505050505050565b600760009054906101000a900473ffffffffffffffffffffffffffffffffffffffff1681565b813361159b82826119c9565b5082600081116115e0576040517f08c379a00000000000000000000000000000000000000000000000000000000081526004016115d79061398d565b60405180910390fd5b60008411611623576040517f08c379a000000000000000000000000000000000000000000000000000000000815260040161161a90613d37565b60405180910390fd5b611672333086600760009054906101000a900473ffffffffffffffffffffffffffffffffffffffff1673ffffffffffffffffffffffffffffffffffffffff16612039909392919063ffffffff16565b61167c8585612b08565b7fa3af609bf46297028ce551832669030f9effef2b02606d02cbbcc40fe6b47c5585856040516116ad929190613907565b60405180910390a15050505050565b6060600360009054906101000a900473ffffffffffffffffffffffffffffffffffffffff1673ffffffffffffffffffffffffffffffffffffffff168373ffffffffffffffffffffffffffffffffffffffff1614806117675750600360009054906101000a900473ffffffffffffffffffffffffffffffffffffffff1673ffffffffffffffffffffffffffffffffffffffff168273ffffffffffffffffffffffffffffffffffffffff16145b15611861576000600267ffffffffffffffff811115611789576117886136ad565b5b6040519080825280602002602001820160405280156117b75781602001602082028036833780820191505090505b50905083816000815181106117cf576117ce6136dc565b5b602002602001019073ffffffffffffffffffffffffffffffffffffffff16908173ffffffffffffffffffffffffffffffffffffffff1681525050828160018151811061181e5761181d6136dc565b5b602002602001019073ffffffffffffffffffffffffffffffffffffffff16908173ffffffffffffffffffffffffffffffffffffffff1681525050809150506119c3565b6000600367ffffffffffffffff81111561187e5761187d6136ad565b5b6040519080825280602002602001820160405280156118ac5781602001602082028036833780820191505090505b50905083816000815181106118c4576118c36136dc565b5b602002602001019073ffffffffffffffffffffffffffffffffffffffff16908173ffffffffffffffffffffffffffffffffffffffff1681525050600360009054906101000a900473ffffffffffffffffffffffffffffffffffffffff1681600181518110611935576119346136dc565b5b602002602001019073ffffffffffffffffffffffffffffffffffffffff16908173ffffffffffffffffffffffffffffffffffffffff16815250508281600281518110611984576119836136dc565b5b602002602001019073ffffffffffffffffffffffffffffffffffffffff16908173ffffffffffffffffffffffffffffffffffffffff1681525050809150505b92915050565b600080600560008473ffffffffffffffffffffffffffffffffffffffff1673ffffffffffffffffffffffffffffffffffffffff168152602001908152602001600020805480602002602001604051908101604052809291908181526020018280548015611a5557602002820191906000526020600020905b815481526020019060010190808311611a41575b5050505050905060005b8151811015611aa75784828281518110611a7c57611a7b6136dc565b5b60200260200101511415611a94578092505050611ae3565b8080611a9f90613d57565b915050611a5f565b506040517f08c379a0000000000000000000000000000000000000000000000000000000008152600401611ada90613dec565b60405180910390fd5b92915050565b6000611b3a600160009054906101000a900473ffffffffffffffffffffffffffffffffffffffff16600760009054906101000a900473ffffffffffffffffffffffffffffffffffffffff1686610b9a565b905060018360ff161415611b9a57611b97600160009054906101000a900473ffffffffffffffffffffffffffffffffffffffff16600260009054906101000a900473ffffffffffffffffffffffffffffffffffffffff1686610b9a565b90505b60003090506000600167ffffffffffffffff811115611bbc57611bbb6136ad565b5b604051908082528060200260200182016040528015611bea5781602001602082028036833780820191505090505b509050600160009054906101000a900473ffffffffffffffffffffffffffffffffffffffff1681600081518110611c2457611c236136dc565b5b602002602001019073ffffffffffffffffffffffffffffffffffffffff16908173ffffffffffffffffffffffffffffffffffffffff16815250506000600167ffffffffffffffff811115611c7b57611c7a6136ad565b5b604051908082528060200260200182016040528015611ca95781602001602082028036833780820191505090505b5090508381600081518110611cc157611cc06136dc565b5b6020026020010181815250506000600167ffffffffffffffff811115611cea57611ce96136ad565b5b604051908082528060200260200182016040528015611d185781602001602082028036833780820191505090505b509050600081600081518110611d3157611d306136dc565b5b602002602001018181525050600030905060008a338a8c8b604051602001611d5d959493929190613e1b565b604051602081830303815290604052905060007f000000000000000000000000000000000000000000000000000000000000000073ffffffffffffffffffffffffffffffffffffffff1663ab9c4b5d888888888888886040518863ffffffff167c0100000000000000000000000000000000000000000000000000000000028152600401611df19796959493929190613f13565b600060405180830381600087803b158015611e0b57600080fd5b505af1158015611e1f573d6000803e3d6000fd5b50505050505050505050505050505050565b600660009054906101000a900473ffffffffffffffffffffffffffffffffffffffff1673ffffffffffffffffffffffffffffffffffffffff1663767a7b0583836040518363ffffffff167c0100000000000000000000000000000000000000000000000000000000028152600401611eaa929190613907565b600060405180830381600087803b158015611ec457600080fd5b505af1158015611ed8573d6000803e3d6000fd5b505050505050565b6000818473ffffffffffffffffffffffffffffffffffffffff1663dd62ed3e30866040518363ffffffff167c0100000000000000000000000000000000000000000000000000000000028152600401611f3a929190613f9e565b60206040518083038186803b158015611f5257600080fd5b505afa158015611f66573d6000803e3d6000fd5b505050506040513d601f19601f82011682018060405250810190611f8a9190613680565b611f949190613b59565b90506120338463095ea7b37c0100000000000000000000000000000000000000000000000000000000028584604051602401611fd1929190613fc7565b604051602081830303815290604052907bffffffffffffffffffffffffffffffffffffffffffffffffffffffff19166020820180517bffffffffffffffffffffffffffffffffffffffffffffffffffffffff8381831617835250505050612c30565b50505050565b6120d8846323b872dd7c01000000000000000000000000000000000000000000000000000000000285858560405160240161207693929190613ff0565b604051602081830303815290604052907bffffffffffffffffffffffffffffffffffffffffffffffffffffffff19166020820180517bffffffffffffffffffffffffffffffffffffffffffffffffffffffff8381831617835250505050612c30565b50505050565b600080600084848101906120f29190613ade565b9450945050509250612169600460009054906101000a900473ffffffffffffffffffffffffffffffffffffffff1688600160009054906101000a900473ffffffffffffffffffffffffffffffffffffffff1673ffffffffffffffffffffffffffffffffffffffff16611ee09092919063ffffffff16565b6000600460009054906101000a900473ffffffffffffffffffffffffffffffffffffffff1673ffffffffffffffffffffffffffffffffffffffff16638803dbee848a6121f9600160009054906101000a900473ffffffffffffffffffffffffffffffffffffffff16600760009054906101000a900473ffffffffffffffffffffffffffffffffffffffff166116bc565b30426040518663ffffffff167c0100000000000000000000000000000000000000000000000000000000028152600401612237959493929190614027565b600060405180830381600087803b15801561225157600080fd5b505af1158015612265573d6000803e3d6000fd5b505050506040513d6000823e3d601f19601f8201168201806040525081019061228e919061385b565b9050806000815181106122a4576122a36136dc565b5b6020026020010151886122b791906138d3565b876122c291906138d3565b9650600082846122d29190613b59565b90506122de8582612b08565b600061232f600260009054906101000a900473ffffffffffffffffffffffffffffffffffffffff16600160009054906101000a900473ffffffffffffffffffffffffffffffffffffffff168b610b9a565b905061233b8682612cf7565b6123aa600460009054906101000a900473ffffffffffffffffffffffffffffffffffffffff1682600260009054906101000a900473ffffffffffffffffffffffffffffffffffffffff1673ffffffffffffffffffffffffffffffffffffffff16611ee09092919063ffffffff16565b600460009054906101000a900473ffffffffffffffffffffffffffffffffffffffff1673ffffffffffffffffffffffffffffffffffffffff16638803dbee8a83612438600260009054906101000a900473ffffffffffffffffffffffffffffffffffffffff16600160009054906101000a900473ffffffffffffffffffffffffffffffffffffffff166116bc565b30426040518663ffffffff167c0100000000000000000000000000000000000000000000000000000000028152600401612476959493929190614027565b600060405180830381600087803b15801561249057600080fd5b505af11580156124a4573d6000803e3d6000fd5b505050506040513d6000823e3d601f19601f820116820180604052508101906124cd919061385b565b92506124ff86846000815181106124e7576124e66136dc565b5b6020026020010151836124fa91906138d3565b6129ea565b50505050505050505050565b600080838381019061251d9190614081565b935050509150612592600460009054906101000a900473ffffffffffffffffffffffffffffffffffffffff1687600160009054906101000a900473ffffffffffffffffffffffffffffffffffffffff1673ffffffffffffffffffffffffffffffffffffffff16611ee09092919063ffffffff16565b6000600460009054906101000a900473ffffffffffffffffffffffffffffffffffffffff1673ffffffffffffffffffffffffffffffffffffffff16638803dbee8389612622600160009054906101000a900473ffffffffffffffffffffffffffffffffffffffff16600260009054906101000a900473ffffffffffffffffffffffffffffffffffffffff166116bc565b30426040518663ffffffff167c0100000000000000000000000000000000000000000000000000000000028152600401612660959493929190614027565b600060405180830381600087803b15801561267a57600080fd5b505af115801561268e573d6000803e3d6000fd5b505050506040513d6000823e3d601f19601f820116820180604052508101906126b7919061385b565b9050806000815181106126cd576126cc6136dc565b5b6020026020010151876126e091906138d3565b866126eb91906138d3565b955061271e83826001845161270091906138d3565b81518110612711576127106136dc565b5b60200260200101516129ea565b600061276f600760009054906101000a900473ffffffffffffffffffffffffffffffffffffffff16600160009054906101000a900473ffffffffffffffffffffffffffffffffffffffff1689610b9a565b9050600660009054906101000a900473ffffffffffffffffffffffffffffffffffffffff1673ffffffffffffffffffffffffffffffffffffffff1663767a7b0585836040518363ffffffff167c01000000000000000000000000000000000000000000000000000000000281526004016127ea929190613907565b600060405180830381600087803b15801561280457600080fd5b505af1158015612818573d6000803e3d6000fd5b5050505061288b600460009054906101000a900473ffffffffffffffffffffffffffffffffffffffff1682600760009054906101000a900473ffffffffffffffffffffffffffffffffffffffff1673ffffffffffffffffffffffffffffffffffffffff16611ee09092919063ffffffff16565b600460009054906101000a900473ffffffffffffffffffffffffffffffffffffffff1673ffffffffffffffffffffffffffffffffffffffff16638803dbee8883612919600760009054906101000a900473ffffffffffffffffffffffffffffffffffffffff16600160009054906101000a900473ffffffffffffffffffffffffffffffffffffffff166116bc565b30426040518663ffffffff167c0100000000000000000000000000000000000000000000000000000000028152600401612957959493929190614027565b600060405180830381600087803b15801561297157600080fd5b505af1158015612985573d6000803e3d6000fd5b505050506040513d6000823e3d601f19601f820116820180604052508101906129ae919061385b565b91506129e084836000815181106129c8576129c76136dc565b5b6020026020010151836129db91906138d3565b612b08565b5050505050505050565b612a59600660009054906101000a900473ffffffffffffffffffffffffffffffffffffffff1682600260009054906101000a900473ffffffffffffffffffffffffffffffffffffffff1673ffffffffffffffffffffffffffffffffffffffff16611ee09092919063ffffffff16565b600660009054906101000a900473ffffffffffffffffffffffffffffffffffffffff1673ffffffffffffffffffffffffffffffffffffffff166385af3c1683836040518363ffffffff167c0100000000000000000000000000000000000000000000000000000000028152600401612ad2929190613907565b600060405180830381600087803b158015612aec57600080fd5b505af1158015612b00573d6000803e3d6000fd5b505050505050565b6000811115612c2c57612b80600660009054906101000a900473ffffffffffffffffffffffffffffffffffffffff1682600760009054906101000a900473ffffffffffffffffffffffffffffffffffffffff1673ffffffffffffffffffffffffffffffffffffffff16611ee09092919063ffffffff16565b600660009054906101000a900473ffffffffffffffffffffffffffffffffffffffff1673ffffffffffffffffffffffffffffffffffffffff1663ece1373283836040518363ffffffff167c0100000000000000000000000000000000000000000000000000000000028152600401612bf9929190613907565b600060405180830381600087803b158015612c1357600080fd5b505af1158015612c27573d6000803e3d6000fd5b505050505b5050565b6000612c92826040518060400160405280602081526020017f5361666545524332303a206c6f772d6c6576656c2063616c6c206661696c65648152508573ffffffffffffffffffffffffffffffffffffffff16612da69092919063ffffffff16565b9050600081511115612cf25780806020019051810190612cb29190614114565b612cf1576040517f08c379a0000000000000000000000000000000000000000000000000000000008152600401612ce8906141b3565b60405180910390fd5b5b505050565b600660009054906101000a900473ffffffffffffffffffffffffffffffffffffffff1673ffffffffffffffffffffffffffffffffffffffff166308ec592783836040518363ffffffff167c0100000000000000000000000000000000000000000000000000000000028152600401612d70929190613907565b600060405180830381600087803b158015612d8a57600080fd5b505af1158015612d9e573d6000803e3d6000fd5b505050505050565b6060612db58484600085612dbe565b90509392505050565b6060823073ffffffffffffffffffffffffffffffffffffffff16311015612e1a576040517f08c379a0000000000000000000000000000000000000000000000000000000008152600401612e1190614245565b60405180910390fd5b612e2385612ee9565b612e62576040517f08c379a0000000000000000000000000000000000000000000000000000000008152600401612e59906142b1565b60405180910390fd5b6000808673ffffffffffffffffffffffffffffffffffffffff168587604051612e8b919061430d565b60006040518083038185875af1925050503d8060008114612ec8576040519150601f19603f3d011682016040523d82523d6000602084013e612ecd565b606091505b5091509150612edd828286612efc565b92505050949350505050565b600080823b905060008111915050919050565b60608315612f0c57829050612f5c565b600083511115612f1f5782518084602001fd5b816040517f08c379a0000000000000000000000000000000000000000000000000000000008152600401612f539190614368565b60405180910390fd5b9392505050565b600073ffffffffffffffffffffffffffffffffffffffff82169050919050565b6000819050919050565b6000612fa8612fa3612f9e84612f63565b612f83565b612f63565b9050919050565b6000612fba82612f8d565b9050919050565b6000612fcc82612faf565b9050919050565b612fdc81612fc1565b82525050565b6000602082019050612ff76000830184612fd3565b92915050565b600081519050919050565b600082825260208201905092915050565b6000819050602082019050919050565b6000819050919050565b61303c81613029565b82525050565b600061304e8383613033565b60208301905092915050565b6000602082019050919050565b600061307282612ffd565b61307c8185613008565b935061308783613019565b8060005b838110156130b857815161309f8882613042565b97506130aa8361305a565b92505060018101905061308b565b5085935050505092915050565b600060208201905081810360008301526130df8184613067565b905092915050565b6130f081613029565b82525050565b600060208201905061310b60008301846130e7565b92915050565b6000604051905090565b600080fd5b600080fd5b61312e81613029565b811461313957600080fd5b50565b60008135905061314b81613125565b92915050565b6000602082840312156131675761316661311b565b5b60006131758482850161313c565b91505092915050565b600061318982612f63565b9050919050565b6131998161317e565b81146131a457600080fd5b50565b6000813590506131b681613190565b92915050565b6000806000606084860312156131d5576131d461311b565b5b60006131e3868287016131a7565b93505060206131f4868287016131a7565b92505060406132058682870161313c565b9150509250925092565b600080604083850312156132265761322561311b565b5b60006132348582860161313c565b92505060206132458582860161313c565b9150509250929050565b600080fd5b600080fd5b600080fd5b60008083601f8401126132745761327361324f565b5b8235905067ffffffffffffffff81111561329157613290613254565b5b6020830191508360208202830111156132ad576132ac613259565b5b9250929050565b60008083601f8401126132ca576132c961324f565b5b8235905067ffffffffffffffff8111156132e7576132e6613254565b5b60208301915083602082028301111561330357613302613259565b5b9250929050565b60008083601f8401126133205761331f61324f565b5b8235905067ffffffffffffffff81111561333d5761333c613254565b5b60208301915083600182028301111561335957613358613259565b5b9250929050565b600080600080600080600080600060a08a8c0312156133825761338161311b565b5b60008a013567ffffffffffffffff8111156133a05761339f613120565b5b6133ac8c828d0161325e565b995099505060208a013567ffffffffffffffff8111156133cf576133ce613120565b5b6133db8c828d016132b4565b975097505060408a013567ffffffffffffffff8111156133fe576133fd613120565b5b61340a8c828d016132b4565b9550955050606061341d8c828d016131a7565b93505060808a013567ffffffffffffffff81111561343e5761343d613120565b5b61344a8c828d0161330a565b92509250509295985092959850929598565b60008115159050919050565b6134718161345c565b82525050565b600060208201905061348c6000830184613468565b92915050565b61349b8161317e565b82525050565b60006020820190506134b66000830184613492565b92915050565b6000806000606084860312156134d5576134d461311b565b5b60006134e38682870161313c565b93505060206134f48682870161313c565b92505060406135058682870161313c565b9150509250925092565b600061351a82612faf565b9050919050565b61352a8161350f565b82525050565b60006020820190506135456000830184613521565b92915050565b600080604083850312156135625761356161311b565b5b6000613570858286016131a7565b9250506020613581858286016131a7565b9150509250929050565b600081519050919050565b600082825260208201905092915050565b6000819050602082019050919050565b6135c08161317e565b82525050565b60006135d283836135b7565b60208301905092915050565b6000602082019050919050565b60006135f68261358b565b6136008185613596565b935061360b836135a7565b8060005b8381101561363c57815161362388826135c6565b975061362e836135de565b92505060018101905061360f565b5085935050505092915050565b6000602082019050818103600083015261366381846135eb565b905092915050565b60008151905061367a81613125565b92915050565b6000602082840312156136965761369561311b565b5b60006136a48482850161366b565b91505092915050565b7f4e487b7100000000000000000000000000000000000000000000000000000000600052604160045260246000fd5b7f4e487b7100000000000000000000000000000000000000000000000000000000600052603260045260246000fd5b600060408201905061372060008301856130e7565b818103602083015261373281846135eb565b90509392505050565b6000601f19601f8301169050919050565b6137558261373b565b810181811067ffffffffffffffff82111715613774576137736136ad565b5b80604052505050565b6000613787613111565b9050613793828261374c565b919050565b600067ffffffffffffffff8211156137b3576137b26136ad565b5b602082029050602081019050919050565b60006137d76137d284613798565b61377d565b905080838252602082019050602084028301858111156137fa576137f9613259565b5b835b81811015613823578061380f888261366b565b8452602084019350506020810190506137fc565b5050509392505050565b600082601f8301126138425761384161324f565b5b81516138528482602086016137c4565b91505092915050565b6000602082840312156138715761387061311b565b5b600082015167ffffffffffffffff81111561388f5761388e613120565b5b61389b8482850161382d565b91505092915050565b7f4e487b7100000000000000000000000000000000000000000000000000000000600052601160045260246000fd5b60006138de82613029565b91506138e983613029565b9250828210156138fc576138fb6138a4565b5b828203905092915050565b600060408201905061391c60008301856130e7565b61392960208301846130e7565b9392505050565b600082825260208201905092915050565b7f504f5349544956455f414d4f554e545f52455155495245440000000000000000600082015250565b6000613977601883613930565b915061398282613941565b602082019050919050565b600060208201905081810360008301526139a68161396a565b9050919050565b60006139b882613029565b91506139c383613029565b9250817fffffffffffffffffffffffffffffffffffffffffffffffffffffffffffffffff04831182151516156139fc576139fb6138a4565b5b828202905092915050565b7f4e487b7100000000000000000000000000000000000000000000000000000000600052601260045260246000fd5b6000613a4182613029565b9150613a4c83613029565b925082613a5c57613a5b613a07565b5b828204905092915050565b6000613a7282612f63565b9050919050565b613a8281613a67565b8114613a8d57600080fd5b50565b600081359050613a9f81613a79565b92915050565b600060ff82169050919050565b613abb81613aa5565b8114613ac657600080fd5b50565b600081359050613ad881613ab2565b92915050565b600080600080600060a08688031215613afa57613af961311b565b5b6000613b088882890161313c565b9550506020613b1988828901613a90565b9450506040613b2a88828901613ac9565b9350506060613b3b8882890161313c565b9250506080613b4c8882890161313c565b9150509295509295909350565b6000613b6482613029565b9150613b6f83613029565b9250827fffffffffffffffffffffffffffffffffffffffffffffffffffffffffffffffff03821115613ba457613ba36138a4565b5b828201905092915050565b600060208284031215613bc557613bc461311b565b5b6000613bd3848285016131a7565b91505092915050565b7f4e4f545f454e4f5547485f434f4c4c41544552414c0000000000000000000000600082015250565b6000613c12601583613930565b9150613c1d82613bdc565b602082019050919050565b60006020820190508181036000830152613c4181613c05565b9050919050565b6000606082019050613c5d60008301866130e7565b613c6a60208301856130e7565b613c7760408301846130e7565b949350505050565b7f414d4f554e545f544f4f5f424947000000000000000000000000000000000000600082015250565b6000613cb5600e83613930565b9150613cc082613c7f565b602082019050919050565b60006020820190508181036000830152613ce481613ca8565b9050919050565b7f414d4f554e545f5a45524f000000000000000000000000000000000000000000600082015250565b6000613d21600b83613930565b9150613d2c82613ceb565b602082019050919050565b60006020820190508181036000830152613d5081613d14565b9050919050565b6000613d6282613029565b91507fffffffffffffffffffffffffffffffffffffffffffffffffffffffffffffffff821415613d9557613d946138a4565b5b600182019050919050565b7f555345525f4e4f545f4f574e4552000000000000000000000000000000000000600082015250565b6000613dd6600e83613930565b9150613de182613da0565b602082019050919050565b60006020820190508181036000830152613e0581613dc9565b9050919050565b613e1581613aa5565b82525050565b600060a082019050613e3060008301886130e7565b613e3d6020830187613492565b613e4a6040830186613e0c565b613e5760608301856130e7565b613e6460808301846130e7565b9695505050505050565b600081519050919050565b600082825260208201905092915050565b60005b83811015613ea8578082015181840152602081019050613e8d565b83811115613eb7576000848401525b50505050565b6000613ec882613e6e565b613ed28185613e79565b9350613ee2818560208601613e8a565b613eeb8161373b565b840191505092915050565b600061ffff82169050919050565b613f0d81613ef6565b82525050565b600060e082019050613f28600083018a613492565b8181036020830152613f3a81896135eb565b90508181036040830152613f4e8188613067565b90508181036060830152613f628187613067565b9050613f716080830186613492565b81810360a0830152613f838185613ebd565b9050613f9260c0830184613f04565b98975050505050505050565b6000604082019050613fb36000830185613492565b613fc06020830184613492565b9392505050565b6000604082019050613fdc6000830185613492565b613fe960208301846130e7565b9392505050565b60006060820190506140056000830186613492565b6140126020830185613492565b61401f60408301846130e7565b949350505050565b600060a08201905061403c60008301886130e7565b61404960208301876130e7565b818103604083015261405b81866135eb565b905061406a6060830185613492565b61407760808301846130e7565b9695505050505050565b6000806000806080858703121561409b5761409a61311b565b5b60006140a98782880161313c565b94505060206140ba87828801613a90565b93505060406140cb87828801613ac9565b92505060606140dc8782880161313c565b91505092959194509250565b6140f18161345c565b81146140fc57600080fd5b50565b60008151905061410e816140e8565b92915050565b60006020828403121561412a5761412961311b565b5b6000614138848285016140ff565b91505092915050565b7f5361666545524332303a204552433230206f7065726174696f6e20646964206e60008201527f6f74207375636365656400000000000000000000000000000000000000000000602082015250565b600061419d602a83613930565b91506141a882614141565b604082019050919050565b600060208201905081810360008301526141cc81614190565b9050919050565b7f416464726573733a20696e73756666696369656e742062616c616e636520666f60008201527f722063616c6c0000000000000000000000000000000000000000000000000000602082015250565b600061422f602683613930565b915061423a826141d3565b604082019050919050565b6000602082019050818103600083015261425e81614222565b9050919050565b7f416464726573733a2063616c6c20746f206e6f6e2d636f6e7472616374000000600082015250565b600061429b601d83613930565b91506142a682614265565b602082019050919050565b600060208201905081810360008301526142ca8161428e565b9050919050565b600081905092915050565b60006142e782613e6e565b6142f181856142d1565b9350614301818560208601613e8a565b80840191505092915050565b600061431982846142dc565b915081905092915050565b600081519050919050565b600061433a82614324565b6143448185613930565b9350614354818560208601613e8a565b61435d8161373b565b840191505092915050565b60006020820190508181036000830152614382818461432f565b90509291505056fea2646970667358221220143ae8502fb7e8cce932c2357c5faf256dd51481b2a990747c0a2c65a8cad74e64736f6c63430008090033",
  "immutableReferences": {
    "611": [
      {
        "length": 32,
        "start": 973
      }
    ],
    "614": [
      {
        "length": 32,
        "start": 4463
      },
      {
        "length": 32,
        "start": 4885
      },
      {
        "length": 32,
        "start": 7538
      }
    ]
  },
  "source": "// SPDX-License-Identifier: MIT\npragma solidity >=0.8.9;\n\nimport {VaultLongMaiFinanceBase} from \"./VaultLongMaiFinanceBase.sol\";\n\ncontract GhstVaultLong is VaultLongMaiFinanceBase {\n    address COLLATERAL_ADDRESS = 0x385Eeac5cB85A38A9a07A70c73e0a3271CfB54A7;\n    address VAULT_ADDRESS = 0xF086dEdf6a89e7B16145b03a6CB0C0a9979F1433;\n\n    constructor() VaultLongMaiFinanceBase(COLLATERAL_ADDRESS, VAULT_ADDRESS) {}\n}\n",
  "sourcePath": "/media/nello/Data/dev/blockchain/Consensys/blockchain-developer-bootcamp-final-project/contracts/GhstVaultLong.sol",
  "compiler": {
    "name": "solc",
    "version": "0.8.9+commit.e5eed63a.Emscripten.clang"
  },
  "schemaVersion": "3.4.3",
  "updatedAt": "2021-11-19T17:32:18.742Z",
  "networkType": "ethereum",
  "devdoc": {
    "kind": "dev",
    "methods": {},
    "version": 1
  },
  "userdoc": {
    "kind": "user",
    "methods": {
      "deposit(uint256,uint256)": {
        "notice": "Deposit funds from the user to the contract, then the contract deposit the funds to the chosen Mai vault"
      },
      "executeOperation(address[],uint256[],uint256[],address,bytes)": {
        "notice": "This function is called after the contract has received the flash loaned amount"
      },
      "getAmountInMin(address,address,uint256)": {
        "notice": "This function will return the minimum amount in for a swap"
      },
      "getAmountOutMin(address,address,uint256)": {
        "notice": "This function will return the minimum amount out from a swap"
      },
      "getMAIDebtForAmount(uint256)": {
        "notice": "Returns an estimate of MAI amount to borrow to create a new long"
      },
      "getMaxWithdrawableCollateral(uint256)": {
        "notice": "This will return the max amount of collateral it is possible to withdraw with the current debt"
      },
      "getMinimumCollateralPercentage()": {
        "notice": "Get the minimum collateral percentage for this Mai vault type"
      },
      "getMultiplicatorMax100th()": {
        "notice": "This function will give the multiplicator maximum one user can long an asset The result is given multiplied by 100 to keep 2 decimals precision, the caller needs to devide by 100"
      },
      "getPathSwap(address,address)": {
        "notice": "Get the path for the 2 tokens passed in parameters, since we use Quickswap for the swaps, will go through WMATIC token to create the swap"
      },
      "getUserVaultList()": {
        "notice": "Get all the vault Ids for the sender address"
      },
      "longAsset(uint256,uint256,uint256)": {
        "notice": "The functions borrow the required amount of USDC to buy the chosen amount of collateral to long, will repay the borrowed USDC by borrowing MAI from Mai finance's vault, the user ends up with a long position and a debt in MAI Credits to Abracadra finance for the idea"
      },
      "reduceLong(uint256,uint256)": {
        "notice": "Reduce the long amount by doing another flash loan in USDC to buy the MAI required to repay the desired amount, the contract will then withdraw the required collateral to repay the USDC debt"
      },
      "repay(uint256,uint256)": {
        "notice": "Repay the wanted amount of MAI from the user wallet to the chosen vault"
      },
      "withdrawCollateral(uint256,uint256)": {
        "notice": "Withdraw the collateral amount from the Mai vault calling withdrawFromVault(), then sends the fund back to the user"
      }
    },
    "version": 1
  }
}