{
  "contractName": "HelperAdmin",
  "abi": [
    {
      "inputs": [],
      "stateMutability": "nonpayable",
      "type": "constructor"
    },
    {
      "anonymous": false,
      "inputs": [
        {
          "indexed": true,
          "internalType": "address",
          "name": "previousOwner",
          "type": "address"
        },
        {
          "indexed": true,
          "internalType": "address",
          "name": "newOwner",
          "type": "address"
        }
      ],
      "name": "OwnershipTransferred",
      "type": "event"
    },
    {
      "inputs": [],
      "name": "owner",
      "outputs": [
        {
          "internalType": "address",
          "name": "",
          "type": "address"
        }
      ],
      "stateMutability": "view",
      "type": "function",
      "constant": true
    },
    {
      "inputs": [],
      "name": "renounceOwnership",
      "outputs": [],
      "stateMutability": "nonpayable",
      "type": "function"
    },
    {
      "inputs": [
        {
          "internalType": "address",
          "name": "newOwner",
          "type": "address"
        }
      ],
      "name": "transferOwnership",
      "outputs": [],
      "stateMutability": "nonpayable",
      "type": "function"
    },
    {
      "inputs": [
        {
          "internalType": "address[]",
          "name": "vaultAddresses",
          "type": "address[]"
        }
      ],
      "name": "claimRewards",
      "outputs": [],
      "stateMutability": "nonpayable",
      "type": "function"
    },
    {
      "inputs": [
        {
          "internalType": "address",
          "name": "vaultAddress",
          "type": "address"
        },
        {
          "internalType": "uint256",
          "name": "periodBlockStart",
          "type": "uint256"
        },
        {
          "internalType": "uint256",
          "name": "amount",
          "type": "uint256"
        }
      ],
      "name": "updatePeriodReward",
      "outputs": [],
      "stateMutability": "nonpayable",
      "type": "function"
    },
    {
      "inputs": [
        {
          "internalType": "address[]",
          "name": "vaultAddresses",
          "type": "address[]"
        }
      ],
      "name": "claimableRewards",
      "outputs": [
        {
          "internalType": "uint256",
          "name": "",
          "type": "uint256"
        }
      ],
      "stateMutability": "view",
      "type": "function",
      "constant": true
    }
  ],
  "bytecode": "0x608060405234801561001057600080fd5b5061003f61002b610044640100000000026401000000009004565b61004c640100000000026401000000009004565b610110565b600033905090565b60008060009054906101000a900473ffffffffffffffffffffffffffffffffffffffff169050816000806101000a81548173ffffffffffffffffffffffffffffffffffffffff021916908373ffffffffffffffffffffffffffffffffffffffff1602179055508173ffffffffffffffffffffffffffffffffffffffff168173ffffffffffffffffffffffffffffffffffffffff167f8be0079c531659141344cd1fd0a4f28419497f9722a3daafe3b4186f6b6457e060405160405180910390a35050565b610c3a8061011f6000396000f3fe608060405234801561001057600080fd5b506004361061007f576000357c01000000000000000000000000000000000000000000000000000000009004806349d0d9dd14610084578063715018a6146100a05780638da5cb5b146100aa578063a8521b2b146100c8578063f2fde38b146100f8578063f9f031df14610114575b600080fd5b61009e60048036038101906100999190610717565b610130565b005b6100a861023a565b005b6100b26102c2565b6040516100bf9190610779565b60405180910390f35b6100e260048036038101906100dd91906108ed565b6102eb565b6040516100ef9190610945565b60405180910390f35b610112600480360381019061010d9190610960565b6103e7565b005b61012e600480360381019061012991906108ed565b6104df565b005b6101386105a3565b73ffffffffffffffffffffffffffffffffffffffff166101566102c2565b73ffffffffffffffffffffffffffffffffffffffff16146101ac576040517f08c379a00000000000000000000000000000000000000000000000000000000081526004016101a3906109ea565b60405180910390fd5b8273ffffffffffffffffffffffffffffffffffffffff16634bc2dd0683836040518363ffffffff167c0100000000000000000000000000000000000000000000000000000000028152600401610203929190610a0a565b600060405180830381600087803b15801561021d57600080fd5b505af1158015610231573d6000803e3d6000fd5b50505050505050565b6102426105a3565b73ffffffffffffffffffffffffffffffffffffffff166102606102c2565b73ffffffffffffffffffffffffffffffffffffffff16146102b6576040517f08c379a00000000000000000000000000000000000000000000000000000000081526004016102ad906109ea565b60405180910390fd5b6102c060006105ab565b565b60008060009054906101000a900473ffffffffffffffffffffffffffffffffffffffff16905090565b6000806000905060005b83518110156103dd5783818151811061031157610310610a33565b5b602002602001015173ffffffffffffffffffffffffffffffffffffffff1663dc01f60d336040518263ffffffff167c010000000000000000000000000000000000000000000000000000000002815260040161036d9190610779565b60206040518083038186803b15801561038557600080fd5b505afa158015610399573d6000803e3d6000fd5b505050506040513d601f19601f820116820180604052508101906103bd9190610a77565b826103c89190610ad3565b915080806103d590610b29565b9150506102f5565b5080915050919050565b6103ef6105a3565b73ffffffffffffffffffffffffffffffffffffffff1661040d6102c2565b73ffffffffffffffffffffffffffffffffffffffff1614610463576040517f08c379a000000000000000000000000000000000000000000000000000000000815260040161045a906109ea565b60405180910390fd5b600073ffffffffffffffffffffffffffffffffffffffff168173ffffffffffffffffffffffffffffffffffffffff1614156104d3576040517f08c379a00000000000000000000000000000000000000000000000000000000081526004016104ca90610be4565b60405180910390fd5b6104dc816105ab565b50565b60005b815181101561059f578181815181106104fe576104fd610a33565b5b602002602001015173ffffffffffffffffffffffffffffffffffffffff16631ac6d19d336040518263ffffffff167c010000000000000000000000000000000000000000000000000000000002815260040161055a9190610779565b600060405180830381600087803b15801561057457600080fd5b505af1158015610588573d6000803e3d6000fd5b50505050808061059790610b29565b9150506104e2565b5050565b600033905090565b60008060009054906101000a900473ffffffffffffffffffffffffffffffffffffffff169050816000806101000a81548173ffffffffffffffffffffffffffffffffffffffff021916908373ffffffffffffffffffffffffffffffffffffffff1602179055508173ffffffffffffffffffffffffffffffffffffffff168173ffffffffffffffffffffffffffffffffffffffff167f8be0079c531659141344cd1fd0a4f28419497f9722a3daafe3b4186f6b6457e060405160405180910390a35050565b6000604051905090565b600080fd5b600080fd5b600073ffffffffffffffffffffffffffffffffffffffff82169050919050565b60006106ae82610683565b9050919050565b6106be816106a3565b81146106c957600080fd5b50565b6000813590506106db816106b5565b92915050565b6000819050919050565b6106f4816106e1565b81146106ff57600080fd5b50565b600081359050610711816106eb565b92915050565b6000806000606084860312156107305761072f610679565b5b600061073e868287016106cc565b935050602061074f86828701610702565b925050604061076086828701610702565b9150509250925092565b610773816106a3565b82525050565b600060208201905061078e600083018461076a565b92915050565b600080fd5b6000601f19601f8301169050919050565b7f4e487b7100000000000000000000000000000000000000000000000000000000600052604160045260246000fd5b6107e282610799565b810181811067ffffffffffffffff82111715610801576108006107aa565b5b80604052505050565b600061081461066f565b905061082082826107d9565b919050565b600067ffffffffffffffff8211156108405761083f6107aa565b5b602082029050602081019050919050565b600080fd5b600061086961086484610825565b61080a565b9050808382526020820190506020840283018581111561088c5761088b610851565b5b835b818110156108b557806108a188826106cc565b84526020840193505060208101905061088e565b5050509392505050565b600082601f8301126108d4576108d3610794565b5b81356108e4848260208601610856565b91505092915050565b60006020828403121561090357610902610679565b5b600082013567ffffffffffffffff8111156109215761092061067e565b5b61092d848285016108bf565b91505092915050565b61093f816106e1565b82525050565b600060208201905061095a6000830184610936565b92915050565b60006020828403121561097657610975610679565b5b6000610984848285016106cc565b91505092915050565b600082825260208201905092915050565b7f4f776e61626c653a2063616c6c6572206973206e6f7420746865206f776e6572600082015250565b60006109d460208361098d565b91506109df8261099e565b602082019050919050565b60006020820190508181036000830152610a03816109c7565b9050919050565b6000604082019050610a1f6000830185610936565b610a2c6020830184610936565b9392505050565b7f4e487b7100000000000000000000000000000000000000000000000000000000600052603260045260246000fd5b600081519050610a71816106eb565b92915050565b600060208284031215610a8d57610a8c610679565b5b6000610a9b84828501610a62565b91505092915050565b7f4e487b7100000000000000000000000000000000000000000000000000000000600052601160045260246000fd5b6000610ade826106e1565b9150610ae9836106e1565b9250827fffffffffffffffffffffffffffffffffffffffffffffffffffffffffffffffff03821115610b1e57610b1d610aa4565b5b828201905092915050565b6000610b34826106e1565b91507fffffffffffffffffffffffffffffffffffffffffffffffffffffffffffffffff821415610b6757610b66610aa4565b5b600182019050919050565b7f4f776e61626c653a206e6577206f776e657220697320746865207a65726f206160008201527f6464726573730000000000000000000000000000000000000000000000000000602082015250565b6000610bce60268361098d565b9150610bd982610b72565b604082019050919050565b60006020820190508181036000830152610bfd81610bc1565b905091905056fea2646970667358221220e70c1ef620931fbe33f7d4b7215c3c65633598f85e46187d9a9a8151c62660ec64736f6c63430008090033",
  "immutableReferences": {},
  "source": "// SPDX-License-Identifier: MIT\npragma solidity >=0.8.9;\n\nimport \"@openzeppelin/contracts/access/Ownable.sol\";\nimport {IVaultLongMaiFinance} from \"./interfaces/IVaultLongMaiFinance.sol\";\n\ncontract HelperAdmin is Ownable {\n    constructor() {}\n\n    /**\n     Will claim all the rewards available for the user calling for all the vaults\n     passed as parameter\n    */\n    function claimRewards(address[] memory vaultAddresses) external {\n        for (uint256 i = 0; i < vaultAddresses.length; i++) {\n            IVaultLongMaiFinance(vaultAddresses[i]).claimRewardsFor(msg.sender);\n        }\n    }\n\n    /**\n     Allow the onwer to update the rewards balance of a period to be shared among the users\n     */\n    function updatePeriodReward(\n        address vaultAddress,\n        uint256 periodBlockStart,\n        uint256 amount\n    ) external onlyOwner {\n        IVaultLongMaiFinance(vaultAddress).updateRewardsBalance(\n            periodBlockStart,\n            amount\n        );\n    }\n\n    /**\n     Get the claimable rewards for all the contracts passed as parameter\n     */\n    function claimableRewards(address[] memory vaultAddresses)\n        external\n        view\n        returns (uint256)\n    {\n        uint256 totalRewards = 0;\n        for (uint256 i = 0; i < vaultAddresses.length; i++) {\n            totalRewards += IVaultLongMaiFinance(vaultAddresses[i])\n                .claimableRewards(msg.sender);\n        }\n\n        return totalRewards;\n    }\n}\n",
  "sourcePath": "/media/nello/Data/dev/blockchain/Consensys/blockchain-developer-bootcamp-final-project/contracts/HelperAdmin.sol",
  "compiler": {
    "name": "solc",
    "version": "0.8.9+commit.e5eed63a.Emscripten.clang"
  },
  "schemaVersion": "3.4.3",
  "updatedAt": "2021-11-24T18:31:31.130Z",
  "networkType": "ethereum",
  "devdoc": {
    "kind": "dev",
    "methods": {
      "owner()": {
        "details": "Returns the address of the current owner."
      },
      "renounceOwnership()": {
        "details": "Leaves the contract without owner. It will not be possible to call `onlyOwner` functions anymore. Can only be called by the current owner. NOTE: Renouncing ownership will leave the contract without an owner, thereby removing any functionality that is only available to the owner."
      },
      "transferOwnership(address)": {
        "details": "Transfers ownership of the contract to a new account (`newOwner`). Can only be called by the current owner."
      }
    },
    "version": 1
  },
  "userdoc": {
    "kind": "user",
    "methods": {
      "claimRewards(address[])": {
        "notice": "Will claim all the rewards available for the user calling for all the vaults passed as parameter"
      },
      "claimableRewards(address[])": {
        "notice": "Get the claimable rewards for all the contracts passed as parameter"
      },
      "updatePeriodReward(address,uint256,uint256)": {
        "notice": "Allow the onwer to update the rewards balance of a period to be shared among the users"
      }
    },
    "version": 1
  }
}