{
  "contractName": "LinkVaultLong",
  "abi": [
    {
      "inputs": [
        {
          "internalType": "address",
          "name": "collateralAddr",
          "type": "address"
        },
        {
          "internalType": "address",
          "name": "vaultAddr",
          "type": "address"
        },
        {
          "internalType": "uint256",
          "name": "periodStartRewards",
          "type": "uint256"
        },
        {
          "internalType": "address",
          "name": "aaveLendingPoolAddr",
          "type": "address"
        },
        {
          "internalType": "address",
          "name": "_usdcAddr",
          "type": "address"
        },
        {
          "internalType": "address",
          "name": "_maiAddr",
          "type": "address"
        },
        {
          "internalType": "address",
          "name": "_wmaticAddr",
          "type": "address"
        },
        {
          "internalType": "address",
          "name": "_qiAddr",
          "type": "address"
        },
        {
          "internalType": "address",
          "name": "_quickswapRouterAddr",
          "type": "address"
        }
      ],
      "stateMutability": "nonpayable",
      "type": "constructor"
    },
    {
      "anonymous": false,
      "inputs": [
        {
          "indexed": true,
          "internalType": "address",
          "name": "user",
          "type": "address"
        },
        {
          "indexed": false,
          "internalType": "uint256",
          "name": "claimed",
          "type": "uint256"
        }
      ],
      "name": "ClaimRewardsFor",
      "type": "event"
    },
    {
      "anonymous": false,
      "inputs": [
        {
          "indexed": false,
          "internalType": "uint256",
          "name": "vaultId",
          "type": "uint256"
        },
        {
          "indexed": false,
          "internalType": "uint256",
          "name": "amount",
          "type": "uint256"
        }
      ],
      "name": "Deposit",
      "type": "event"
    },
    {
      "anonymous": false,
      "inputs": [
        {
          "indexed": false,
          "internalType": "uint256",
          "name": "vaultId",
          "type": "uint256"
        },
        {
          "indexed": false,
          "internalType": "uint256",
          "name": "longAmount",
          "type": "uint256"
        },
        {
          "indexed": false,
          "internalType": "uint256",
          "name": "initialDeposit",
          "type": "uint256"
        }
      ],
      "name": "LongAsset",
      "type": "event"
    },
    {
      "anonymous": false,
      "inputs": [
        {
          "indexed": true,
          "internalType": "address",
          "name": "previousOwner",
          "type": "address"
        },
        {
          "indexed": true,
          "internalType": "address",
          "name": "newOwner",
          "type": "address"
        }
      ],
      "name": "OwnershipTransferred",
      "type": "event"
    },
    {
      "anonymous": false,
      "inputs": [
        {
          "indexed": false,
          "internalType": "uint256",
          "name": "vaultId",
          "type": "uint256"
        },
        {
          "indexed": false,
          "internalType": "uint256",
          "name": "debtAmountToReduce",
          "type": "uint256"
        }
      ],
      "name": "ReduceLong",
      "type": "event"
    },
    {
      "anonymous": false,
      "inputs": [
        {
          "indexed": false,
          "internalType": "uint256",
          "name": "vaultId",
          "type": "uint256"
        },
        {
          "indexed": false,
          "internalType": "uint256",
          "name": "amount",
          "type": "uint256"
        }
      ],
      "name": "Repay",
      "type": "event"
    },
    {
      "anonymous": false,
      "inputs": [
        {
          "indexed": false,
          "internalType": "uint256",
          "name": "vaultId",
          "type": "uint256"
        }
      ],
      "name": "VaultCreated",
      "type": "event"
    },
    {
      "anonymous": false,
      "inputs": [
        {
          "indexed": false,
          "internalType": "uint256",
          "name": "vaultId",
          "type": "uint256"
        },
        {
          "indexed": false,
          "internalType": "uint256",
          "name": "amount",
          "type": "uint256"
        }
      ],
      "name": "WithdrawCollateral",
      "type": "event"
    },
    {
      "inputs": [],
      "name": "ADDRESSES_PROVIDER",
      "outputs": [
        {
          "internalType": "contract ILendingPoolAddressesProvider",
          "name": "",
          "type": "address"
        }
      ],
      "stateMutability": "view",
      "type": "function",
      "constant": true
    },
    {
      "inputs": [],
      "name": "LENDING_POOL",
      "outputs": [
        {
          "internalType": "contract ILendingPool",
          "name": "",
          "type": "address"
        }
      ],
      "stateMutability": "view",
      "type": "function",
      "constant": true
    },
    {
      "inputs": [
        {
          "internalType": "uint256",
          "name": "",
          "type": "uint256"
        }
      ],
      "name": "balanceRewardsByPeriod",
      "outputs": [
        {
          "internalType": "uint256",
          "name": "",
          "type": "uint256"
        }
      ],
      "stateMutability": "view",
      "type": "function",
      "constant": true
    },
    {
      "inputs": [],
      "name": "blocksByPeriod",
      "outputs": [
        {
          "internalType": "uint256",
          "name": "",
          "type": "uint256"
        }
      ],
      "stateMutability": "view",
      "type": "function",
      "constant": true
    },
    {
      "inputs": [
        {
          "internalType": "address",
          "name": "user",
          "type": "address"
        }
      ],
      "name": "claimRewardsFor",
      "outputs": [],
      "stateMutability": "nonpayable",
      "type": "function"
    },
    {
      "inputs": [
        {
          "internalType": "address",
          "name": "user",
          "type": "address"
        }
      ],
      "name": "claimableRewards",
      "outputs": [
        {
          "internalType": "uint256",
          "name": "",
          "type": "uint256"
        }
      ],
      "stateMutability": "view",
      "type": "function",
      "constant": true
    },
    {
      "inputs": [],
      "name": "collateral",
      "outputs": [
        {
          "internalType": "address",
          "name": "",
          "type": "address"
        }
      ],
      "stateMutability": "view",
      "type": "function",
      "constant": true
    },
    {
      "inputs": [],
      "name": "createVault",
      "outputs": [],
      "stateMutability": "nonpayable",
      "type": "function"
    },
    {
      "inputs": [],
      "name": "currentPeriodStart",
      "outputs": [
        {
          "internalType": "uint256",
          "name": "",
          "type": "uint256"
        }
      ],
      "stateMutability": "view",
      "type": "function",
      "constant": true
    },
    {
      "inputs": [
        {
          "internalType": "address",
          "name": "",
          "type": "address"
        }
      ],
      "name": "currentUserPeriodStart",
      "outputs": [
        {
          "internalType": "uint256",
          "name": "",
          "type": "uint256"
        }
      ],
      "stateMutability": "view",
      "type": "function",
      "constant": true
    },
    {
      "inputs": [
        {
          "internalType": "uint256",
          "name": "vaultId",
          "type": "uint256"
        },
        {
          "internalType": "uint256",
          "name": "amount",
          "type": "uint256"
        }
      ],
      "name": "deposit",
      "outputs": [],
      "stateMutability": "nonpayable",
      "type": "function"
    },
    {
      "inputs": [
        {
          "internalType": "address[]",
          "name": "assets",
          "type": "address[]"
        },
        {
          "internalType": "uint256[]",
          "name": "amounts",
          "type": "uint256[]"
        },
        {
          "internalType": "uint256[]",
          "name": "premiums",
          "type": "uint256[]"
        },
        {
          "internalType": "address",
          "name": "initiator",
          "type": "address"
        },
        {
          "internalType": "bytes",
          "name": "params",
          "type": "bytes"
        }
      ],
      "name": "executeOperation",
      "outputs": [
        {
          "internalType": "bool",
          "name": "",
          "type": "bool"
        }
      ],
      "stateMutability": "nonpayable",
      "type": "function"
    },
    {
      "inputs": [
        {
          "internalType": "address",
          "name": "_tokenIn",
          "type": "address"
        },
        {
          "internalType": "address",
          "name": "_tokenOut",
          "type": "address"
        },
        {
          "internalType": "uint256",
          "name": "_amountOut",
          "type": "uint256"
        }
      ],
      "name": "getAmountInMin",
      "outputs": [
        {
          "internalType": "uint256",
          "name": "",
          "type": "uint256"
        }
      ],
      "stateMutability": "view",
      "type": "function",
      "constant": true
    },
    {
      "inputs": [
        {
          "internalType": "address",
          "name": "_tokenIn",
          "type": "address"
        },
        {
          "internalType": "address",
          "name": "_tokenOut",
          "type": "address"
        },
        {
          "internalType": "uint256",
          "name": "_amountIn",
          "type": "uint256"
        }
      ],
      "name": "getAmountOutMin",
      "outputs": [
        {
          "internalType": "uint256",
          "name": "",
          "type": "uint256"
        }
      ],
      "stateMutability": "view",
      "type": "function",
      "constant": true
    },
    {
      "inputs": [
        {
          "internalType": "uint256",
          "name": "amount",
          "type": "uint256"
        }
      ],
      "name": "getMAIDebtForAmount",
      "outputs": [
        {
          "internalType": "uint256",
          "name": "",
          "type": "uint256"
        }
      ],
      "stateMutability": "view",
      "type": "function",
      "constant": true
    },
    {
      "inputs": [
        {
          "internalType": "uint256",
          "name": "vaultId",
          "type": "uint256"
        }
      ],
      "name": "getMaxWithdrawableCollateral",
      "outputs": [
        {
          "internalType": "uint256",
          "name": "",
          "type": "uint256"
        }
      ],
      "stateMutability": "view",
      "type": "function",
      "constant": true
    },
    {
      "inputs": [],
      "name": "getMinimumCollateralPercentage",
      "outputs": [
        {
          "internalType": "uint256",
          "name": "",
          "type": "uint256"
        }
      ],
      "stateMutability": "view",
      "type": "function",
      "constant": true
    },
    {
      "inputs": [],
      "name": "getMultiplicatorMax100th",
      "outputs": [
        {
          "internalType": "uint256",
          "name": "",
          "type": "uint256"
        }
      ],
      "stateMutability": "view",
      "type": "function",
      "constant": true
    },
    {
      "inputs": [
        {
          "internalType": "address",
          "name": "token1",
          "type": "address"
        },
        {
          "internalType": "address",
          "name": "token2",
          "type": "address"
        }
      ],
      "name": "getPathSwap",
      "outputs": [
        {
          "internalType": "address[]",
          "name": "",
          "type": "address[]"
        }
      ],
      "stateMutability": "view",
      "type": "function",
      "constant": true
    },
    {
      "inputs": [],
      "name": "getUserVaultList",
      "outputs": [
        {
          "internalType": "uint256[]",
          "name": "",
          "type": "uint256[]"
        }
      ],
      "stateMutability": "view",
      "type": "function",
      "constant": true
    },
    {
      "inputs": [],
      "name": "lastTimeUpdate",
      "outputs": [
        {
          "internalType": "uint256",
          "name": "",
          "type": "uint256"
        }
      ],
      "stateMutability": "view",
      "type": "function",
      "constant": true
    },
    {
      "inputs": [
        {
          "internalType": "address",
          "name": "",
          "type": "address"
        }
      ],
      "name": "lastUserUpdate",
      "outputs": [
        {
          "internalType": "uint256",
          "name": "",
          "type": "uint256"
        }
      ],
      "stateMutability": "view",
      "type": "function",
      "constant": true
    },
    {
      "inputs": [
        {
          "internalType": "uint256",
          "name": "vaultId",
          "type": "uint256"
        },
        {
          "internalType": "uint256",
          "name": "longAmount",
          "type": "uint256"
        },
        {
          "internalType": "uint256",
          "name": "initialDeposit",
          "type": "uint256"
        }
      ],
      "name": "longAsset",
      "outputs": [],
      "stateMutability": "nonpayable",
      "type": "function"
    },
    {
      "inputs": [],
      "name": "maiVault",
      "outputs": [
        {
          "internalType": "address",
          "name": "",
          "type": "address"
        }
      ],
      "stateMutability": "view",
      "type": "function",
      "constant": true
    },
    {
      "inputs": [],
      "name": "owner",
      "outputs": [
        {
          "internalType": "address",
          "name": "",
          "type": "address"
        }
      ],
      "stateMutability": "view",
      "type": "function",
      "constant": true
    },
    {
      "inputs": [
        {
          "internalType": "uint256",
          "name": "vaultId",
          "type": "uint256"
        },
        {
          "internalType": "uint256",
          "name": "debtAmountToReduce",
          "type": "uint256"
        }
      ],
      "name": "reduceLong",
      "outputs": [],
      "stateMutability": "nonpayable",
      "type": "function"
    },
    {
      "inputs": [],
      "name": "renounceOwnership",
      "outputs": [],
      "stateMutability": "nonpayable",
      "type": "function"
    },
    {
      "inputs": [
        {
          "internalType": "uint256",
          "name": "vaultId",
          "type": "uint256"
        },
        {
          "internalType": "uint256",
          "name": "amountToRepay",
          "type": "uint256"
        }
      ],
      "name": "repay",
      "outputs": [],
      "stateMutability": "nonpayable",
      "type": "function"
    },
    {
      "inputs": [],
      "name": "totalDebt",
      "outputs": [
        {
          "internalType": "uint256",
          "name": "",
          "type": "uint256"
        }
      ],
      "stateMutability": "view",
      "type": "function",
      "constant": true
    },
    {
      "inputs": [
        {
          "internalType": "uint256",
          "name": "",
          "type": "uint256"
        }
      ],
      "name": "totalDebtByPeriod",
      "outputs": [
        {
          "internalType": "uint256",
          "name": "",
          "type": "uint256"
        }
      ],
      "stateMutability": "view",
      "type": "function",
      "constant": true
    },
    {
      "inputs": [
        {
          "internalType": "address",
          "name": "newOwner",
          "type": "address"
        }
      ],
      "name": "transferOwnership",
      "outputs": [],
      "stateMutability": "nonpayable",
      "type": "function"
    },
    {
      "inputs": [
        {
          "internalType": "uint256",
          "name": "periodTimetart",
          "type": "uint256"
        },
        {
          "internalType": "uint256",
          "name": "amount",
          "type": "uint256"
        }
      ],
      "name": "updateRewardsBalance",
      "outputs": [],
      "stateMutability": "nonpayable",
      "type": "function"
    },
    {
      "inputs": [
        {
          "internalType": "address",
          "name": "",
          "type": "address"
        }
      ],
      "name": "userDebt",
      "outputs": [
        {
          "internalType": "uint256",
          "name": "",
          "type": "uint256"
        }
      ],
      "stateMutability": "view",
      "type": "function",
      "constant": true
    },
    {
      "inputs": [
        {
          "internalType": "address",
          "name": "",
          "type": "address"
        },
        {
          "internalType": "uint256",
          "name": "",
          "type": "uint256"
        }
      ],
      "name": "userDebtByPeriod",
      "outputs": [
        {
          "internalType": "uint256",
          "name": "",
          "type": "uint256"
        }
      ],
      "stateMutability": "view",
      "type": "function",
      "constant": true
    },
    {
      "inputs": [
        {
          "internalType": "address",
          "name": "",
          "type": "address"
        }
      ],
      "name": "userLastClaimPeriodStart",
      "outputs": [
        {
          "internalType": "uint256",
          "name": "",
          "type": "uint256"
        }
      ],
      "stateMutability": "view",
      "type": "function",
      "constant": true
    },
    {
      "inputs": [
        {
          "internalType": "uint256",
          "name": "vaultId",
          "type": "uint256"
        },
        {
          "internalType": "address",
          "name": "sender",
          "type": "address"
        }
      ],
      "name": "userOwnsVault",
      "outputs": [
        {
          "internalType": "bool",
          "name": "",
          "type": "bool"
        }
      ],
      "stateMutability": "view",
      "type": "function",
      "constant": true
    },
    {
      "inputs": [
        {
          "internalType": "uint256",
          "name": "vaultId",
          "type": "uint256"
        },
        {
          "internalType": "uint256",
          "name": "amount",
          "type": "uint256"
        }
      ],
      "name": "withdrawCollateral",
      "outputs": [],
      "stateMutability": "nonpayable",
      "type": "function"
    }
  ],
  "bytecode": "0x60c06040526000600f5560006010553480156200001b57600080fd5b50604051620064de380380620064de8339818101604052810190620000419190620004e1565b888888888888888888858073ffffffffffffffffffffffffffffffffffffffff1660808173ffffffffffffffffffffffffffffffffffffffff16815250508073ffffffffffffffffffffffffffffffffffffffff16630261bf8b6040518163ffffffff167c010000000000000000000000000000000000000000000000000000000002815260040160206040518083038186803b158015620000e257600080fd5b505afa158015620000f7573d6000803e3d6000fd5b505050506040513d601f19601f820116820180604052508101906200011d9190620005c0565b73ffffffffffffffffffffffffffffffffffffffff1660a08173ffffffffffffffffffffffffffffffffffffffff168152505050620001836200016e62000370640100000000026401000000009004565b62000378640100000000026401000000009004565b87600760006101000a81548173ffffffffffffffffffffffffffffffffffffffff021916908373ffffffffffffffffffffffffffffffffffffffff16021790555088600860006101000a81548173ffffffffffffffffffffffffffffffffffffffff021916908373ffffffffffffffffffffffffffffffffffffffff1602179055508660128190555084600160006101000a81548173ffffffffffffffffffffffffffffffffffffffff021916908373ffffffffffffffffffffffffffffffffffffffff16021790555083600260006101000a81548173ffffffffffffffffffffffffffffffffffffffff021916908373ffffffffffffffffffffffffffffffffffffffff16021790555082600360006101000a81548173ffffffffffffffffffffffffffffffffffffffff021916908373ffffffffffffffffffffffffffffffffffffffff16021790555081600460006101000a81548173ffffffffffffffffffffffffffffffffffffffff021916908373ffffffffffffffffffffffffffffffffffffffff16021790555080600560006101000a81548173ffffffffffffffffffffffffffffffffffffffff021916908373ffffffffffffffffffffffffffffffffffffffff16021790555042601081905550505050505050505050505050505050505050620005f2565b600033905090565b60008060009054906101000a900473ffffffffffffffffffffffffffffffffffffffff169050816000806101000a81548173ffffffffffffffffffffffffffffffffffffffff021916908373ffffffffffffffffffffffffffffffffffffffff1602179055508173ffffffffffffffffffffffffffffffffffffffff168173ffffffffffffffffffffffffffffffffffffffff167f8be0079c531659141344cd1fd0a4f28419497f9722a3daafe3b4186f6b6457e060405160405180910390a35050565b600080fd5b600073ffffffffffffffffffffffffffffffffffffffff82169050919050565b60006200046e8262000441565b9050919050565b620004808162000461565b81146200048c57600080fd5b50565b600081519050620004a08162000475565b92915050565b6000819050919050565b620004bb81620004a6565b8114620004c757600080fd5b50565b600081519050620004db81620004b0565b92915050565b60008060008060008060008060006101208a8c0312156200050757620005066200043c565b5b6000620005178c828d016200048f565b99505060206200052a8c828d016200048f565b98505060406200053d8c828d01620004ca565b9750506060620005508c828d016200048f565b9650506080620005638c828d016200048f565b95505060a0620005768c828d016200048f565b94505060c0620005898c828d016200048f565b93505060e06200059c8c828d016200048f565b925050610100620005b08c828d016200048f565b9150509295985092959850929598565b600060208284031215620005d957620005d86200043c565b5b6000620005e9848285016200048f565b91505092915050565b60805160a051615eb86200062660003960008181611d310152818161210801526131830152600061077d0152615eb86000f3fe608060405234801561001057600080fd5b5060043610610244576000357c01000000000000000000000000000000000000000000000000000000009004806380111d9e1161014d578063b69e5c77116100d5578063e2bbb15811610099578063e2bbb158146106bf578063f2fde38b146106db578063f47a6df4146106f7578063f48b0dc814610727578063fc7b9c181461075757610244565b8063b69e5c7714610607578063b9f40cf914610637578063d8aed14514610655578063d8dfeb4514610671578063dc01f60d1461068f57610244565b80639bbdff511161011c5780639bbdff511461054f578063a887b6af1461056d578063af26e5be14610589578063b38f2887146105b9578063b4dcfc77146105e957610244565b806380111d9e146104b35780638da5cb5b146104e3578063920f5c84146105015780639b816a471461053157610244565b80634070776c116101d05780635e99a7571161019f5780635e99a7571461041157806368e191041461042d578063715018a61461045d578063767a7b05146104675780637afa4bbe1461048357610244565b80634070776c1461039d5780634bc2dd06146103cd5780634d483d5c146103e95780635d12928b1461040757610244565b8063214405191161021757806321440519146102bf57806322c40bdf146102ef578063241091431461030d57806325c0c7191461033d5780633c50eec11461036d57610244565b8063035ac814146102495780630542975c146102675780630654fc95146102855780631ac6d19d146102a3575b600080fd5b610251610775565b60405161025e91906149bd565b60405180910390f35b61026f61077b565b60405161027c9190614a57565b60405180910390f35b61028d61079f565b60405161029a9190614b30565b60405180910390f35b6102bd60048036038101906102b89190614ba4565b610834565b005b6102d960048036038101906102d49190614ba4565b610d42565b6040516102e691906149bd565b60405180910390f35b6102f7610d5a565b60405161030491906149bd565b60405180910390f35b61032760048036038101906103229190614bfd565b610e1d565b60405161033491906149bd565b60405180910390f35b61035760048036038101906103529190614c2a565b611199565b6040516103649190614c85565b60405180910390f35b61038760048036038101906103829190614ca0565b611285565b60405161039491906149bd565b60405180910390f35b6103b760048036038101906103b29190614bfd565b61139a565b6040516103c491906149bd565b60405180910390f35b6103e760048036038101906103e29190614cf3565b6113b2565b005b6103f161144a565b6040516103fe91906149bd565b60405180910390f35b61040f611450565b005b61042b60048036038101906104269190614cf3565b6115b2565b005b61044760048036038101906104429190614ca0565b611656565b60405161045491906149bd565b60405180910390f35b61046561175f565b005b610481600480360381019061047c9190614cf3565b6117e7565b005b61049d60048036038101906104989190614bfd565b61195c565b6040516104aa91906149bd565b60405180910390f35b6104cd60048036038101906104c89190614ba4565b611c0d565b6040516104da91906149bd565b60405180910390f35b6104eb611c25565b6040516104f89190614d42565b60405180910390f35b61051b60048036038101906105169190614e6e565b611c4e565b6040516105289190614c85565b60405180910390f35b610539611d8c565b6040516105469190614d42565b60405180910390f35b610557611db2565b60405161056491906149bd565b60405180910390f35b61058760048036038101906105829190614f6a565b611db9565b005b6105a3600480360381019061059e9190614fbd565b6120c9565b6040516105b091906149bd565b60405180910390f35b6105d360048036038101906105ce9190614bfd565b6120ee565b6040516105e091906149bd565b60405180910390f35b6105f1612106565b6040516105fe919061501e565b60405180910390f35b610621600480360381019061061c9190614ba4565b61212a565b60405161062e91906149bd565b60405180910390f35b61063f612142565b60405161064c91906149bd565b60405180910390f35b61066f600480360381019061066a9190614cf3565b61217b565b005b610679612495565b6040516106869190614d42565b60405180910390f35b6106a960048036038101906106a49190614ba4565b6124bb565b6040516106b691906149bd565b60405180910390f35b6106d960048036038101906106d49190614cf3565b61276f565b005b6106f560048036038101906106f09190614ba4565b6128da565b005b610711600480360381019061070c9190614ba4565b6129d2565b60405161071e91906149bd565b60405180910390f35b610741600480360381019061073c9190615039565b6129ea565b60405161074e9190615137565b60405180910390f35b61075f612cf7565b60405161076c91906149bd565b60405180910390f35b60105481565b7f000000000000000000000000000000000000000000000000000000000000000081565b6060600660003373ffffffffffffffffffffffffffffffffffffffff1673ffffffffffffffffffffffffffffffffffffffff16815260200190815260200160002080548060200260200160405190810160405280929190818152602001828054801561082a57602002820191906000526020600020905b815481526020019060010190808311610816575b5050505050905090565b61083c612cfd565b73ffffffffffffffffffffffffffffffffffffffff1661085a611c25565b73ffffffffffffffffffffffffffffffffffffffff16146108b0576040517f08c379a00000000000000000000000000000000000000000000000000000000081526004016108a7906151b6565b60405180910390fd5b6108bd8160006001612d05565b60005b601254601160008473ffffffffffffffffffffffffffffffffffffffff1673ffffffffffffffffffffffffffffffffffffffff168152602001908152602001600020541015610b4c576000600d6000601160008673ffffffffffffffffffffffffffffffffffffffff1673ffffffffffffffffffffffffffffffffffffffff168152602001908152602001600020548152602001908152602001600020541115610aee576000600d6000601160008673ffffffffffffffffffffffffffffffffffffffff1673ffffffffffffffffffffffffffffffffffffffff16815260200190815260200160002054815260200190815260200160002054670de0b6b3a7640000600960008673ffffffffffffffffffffffffffffffffffffffff1673ffffffffffffffffffffffffffffffffffffffff1681526020019081526020016000206000601160008873ffffffffffffffffffffffffffffffffffffffff1673ffffffffffffffffffffffffffffffffffffffff16815260200190815260200160002054815260200190815260200160002054610a5c9190615205565b610a66919061528e565b90506000670de0b6b3a764000082600e6000601160008973ffffffffffffffffffffffffffffffffffffffff1673ffffffffffffffffffffffffffffffffffffffff16815260200190815260200160002054815260200190815260200160002054610ad19190615205565b610adb919061528e565b90508083610ae991906152bf565b925050505b62093a80601160008473ffffffffffffffffffffffffffffffffffffffff1673ffffffffffffffffffffffffffffffffffffffff1681526020019081526020016000206000828254610b4091906152bf565b925050819055506108c0565b6000811115610cf057600460009054906101000a900473ffffffffffffffffffffffffffffffffffffffff1673ffffffffffffffffffffffffffffffffffffffff1663095ea7b330836040518363ffffffff167c0100000000000000000000000000000000000000000000000000000000028152600401610bce929190615315565b602060405180830381600087803b158015610be857600080fd5b505af1158015610bfc573d6000803e3d6000fd5b505050506040513d601f19601f82011682018060405250810190610c20919061536a565b50600460009054906101000a900473ffffffffffffffffffffffffffffffffffffffff1673ffffffffffffffffffffffffffffffffffffffff166323b872dd3084846040518463ffffffff167c0100000000000000000000000000000000000000000000000000000000028152600401610c9c93929190615397565b602060405180830381600087803b158015610cb657600080fd5b505af1158015610cca573d6000803e3d6000fd5b505050506040513d601f19601f82011682018060405250810190610cee919061536a565b505b8173ffffffffffffffffffffffffffffffffffffffff167f242c1e3f8870907764ec31f219842da14596f9730059d8361155bfee276043f782604051610d3691906149bd565b60405180910390a25050565b60116020528060005260406000206000915090505481565b6000600760009054906101000a900473ffffffffffffffffffffffffffffffffffffffff1673ffffffffffffffffffffffffffffffffffffffff1663e5f4dc926040518163ffffffff167c010000000000000000000000000000000000000000000000000000000002815260040160206040518083038186803b158015610de057600080fd5b505afa158015610df4573d6000803e3d6000fd5b505050506040513d601f19601f82011682018060405250810190610e1891906153e3565b905090565b60006060600567ffffffffffffffff811115610e3c57610e3b615410565b5b604051908082528060200260200182016040528015610e6a5781602001602082028036833780820191505090505b509050600260009054906101000a900473ffffffffffffffffffffffffffffffffffffffff1681600081518110610ea457610ea361543f565b5b602002602001019073ffffffffffffffffffffffffffffffffffffffff16908173ffffffffffffffffffffffffffffffffffffffff1681525050600360009054906101000a900473ffffffffffffffffffffffffffffffffffffffff1681600181518110610f1557610f1461543f565b5b602002602001019073ffffffffffffffffffffffffffffffffffffffff16908173ffffffffffffffffffffffffffffffffffffffff1681525050600160009054906101000a900473ffffffffffffffffffffffffffffffffffffffff1681600281518110610f8657610f8561543f565b5b602002602001019073ffffffffffffffffffffffffffffffffffffffff16908173ffffffffffffffffffffffffffffffffffffffff1681525050600360009054906101000a900473ffffffffffffffffffffffffffffffffffffffff1681600381518110610ff757610ff661543f565b5b602002602001019073ffffffffffffffffffffffffffffffffffffffff16908173ffffffffffffffffffffffffffffffffffffffff1681525050600860009054906101000a900473ffffffffffffffffffffffffffffffffffffffff16816004815181106110685761106761543f565b5b602002602001019073ffffffffffffffffffffffffffffffffffffffff16908173ffffffffffffffffffffffffffffffffffffffff16815250506000600560009054906101000a900473ffffffffffffffffffffffffffffffffffffffff1673ffffffffffffffffffffffffffffffffffffffff16631f00ca7485846040518363ffffffff167c010000000000000000000000000000000000000000000000000000000002815260040161111d92919061546e565b60006040518083038186803b15801561113557600080fd5b505afa158015611149573d6000803e3d6000fd5b505050506040513d6000823e3d601f19601f8201168201806040525081019061117291906155be565b9050806000815181106111885761118761543f565b5b602002602001015192505050919050565b600080600660008473ffffffffffffffffffffffffffffffffffffffff1673ffffffffffffffffffffffffffffffffffffffff16815260200190815260200160002080548060200260200160405190810160405280929190818152602001828054801561122557602002820191906000526020600020905b815481526020019060010190808311611211575b5050505050905060005b8151811015611278578482828151811061124c5761124b61543f565b5b602002602001015114156112655760019250505061127f565b808061127090615607565b91505061122f565b5060009150505b92915050565b6000606061129385856129ea565b90506000600560009054906101000a900473ffffffffffffffffffffffffffffffffffffffff1673ffffffffffffffffffffffffffffffffffffffff1663d06ca61f85846040518363ffffffff167c010000000000000000000000000000000000000000000000000000000002815260040161131092919061546e565b60006040518083038186803b15801561132857600080fd5b505afa15801561133c573d6000803e3d6000fd5b505050506040513d6000823e3d601f19601f8201168201806040525081019061136591906155be565b905080600183516113769190615650565b815181106113875761138661543f565b5b6020026020010151925050509392505050565b600d6020528060005260406000206000915090505481565b6113ba612cfd565b73ffffffffffffffffffffffffffffffffffffffff166113d8611c25565b73ffffffffffffffffffffffffffffffffffffffff161461142e576040517f08c379a0000000000000000000000000000000000000000000000000000000008152600401611425906151b6565b60405180910390fd5b80600e6000848152602001908152602001600020819055505050565b60125481565b6000600760009054906101000a900473ffffffffffffffffffffffffffffffffffffffff1673ffffffffffffffffffffffffffffffffffffffff16635d12928b6040518163ffffffff167c0100000000000000000000000000000000000000000000000000000000028152600401602060405180830381600087803b1580156114d857600080fd5b505af11580156114ec573d6000803e3d6000fd5b505050506040513d601f19601f8201168201806040525081019061151091906153e3565b9050600660003373ffffffffffffffffffffffffffffffffffffffff1673ffffffffffffffffffffffffffffffffffffffff1681526020019081526020016000208190806001815401808255809150506001900390600052602060002001600090919091909150557f4111fcee61908834830adf60a520ba26d09f02fa4e00cfe3d2c134e32f3f8696816040516115a791906149bd565b60405180910390a150565b81336115be8282611199565b6115fd576040517f08c379a00000000000000000000000000000000000000000000000000000000081526004016115f4906156d0565b60405180910390fd5b61160933846000612d05565b611617848460016000612efc565b7fc0df9fe8084fa90073ce26d7d6aab182bcc9b31fc0d5d0292b71444a96fa9e3d84846040516116489291906156f0565b60405180910390a150505050565b6000606061166485856129ea565b90506000600560009054906101000a900473ffffffffffffffffffffffffffffffffffffffff1673ffffffffffffffffffffffffffffffffffffffff16631f00ca7485846040518363ffffffff167c01000000000000000000000000000000000000000000000000000000000281526004016116e192919061546e565b60006040518083038186803b1580156116f957600080fd5b505afa15801561170d573d6000803e3d6000fd5b505050506040513d6000823e3d601f19601f8201168201806040525081019061173691906155be565b90508060008151811061174c5761174b61543f565b5b6020026020010151925050509392505050565b611767612cfd565b73ffffffffffffffffffffffffffffffffffffffff16611785611c25565b73ffffffffffffffffffffffffffffffffffffffff16146117db576040517f08c379a00000000000000000000000000000000000000000000000000000000081526004016117d2906151b6565b60405180910390fd5b6117e56000613242565b565b81336117f38282611199565b611832576040517f08c379a0000000000000000000000000000000000000000000000000000000008152600401611829906156d0565b60405180910390fd5b8260008111611876576040517f08c379a000000000000000000000000000000000000000000000000000000000815260040161186d90615765565b60405180910390fd5b6118808585613306565b6118cd3085600860009054906101000a900473ffffffffffffffffffffffffffffffffffffffff1673ffffffffffffffffffffffffffffffffffffffff166133b59092919063ffffffff16565b61191c303386600860009054906101000a900473ffffffffffffffffffffffffffffffffffffffff1673ffffffffffffffffffffffffffffffffffffffff1661350e909392919063ffffffff16565b7f6c0ea3bea9dd66afa8f9d39d6eb93d833466190330813b42835efc650dca4cb9858560405161194d9291906156f0565b60405180910390a15050505050565b600080600760009054906101000a900473ffffffffffffffffffffffffffffffffffffffff16905060008173ffffffffffffffffffffffffffffffffffffffff1663d310f49b856040518263ffffffff167c01000000000000000000000000000000000000000000000000000000000281526004016119db91906149bd565b60206040518083038186803b1580156119f357600080fd5b505afa158015611a07573d6000803e3d6000fd5b505050506040513d601f19601f82011682018060405250810190611a2b91906153e3565b905060008273ffffffffffffffffffffffffffffffffffffffff1663d4a9b2c5866040518263ffffffff167c0100000000000000000000000000000000000000000000000000000000028152600401611a8491906149bd565b60206040518083038186803b158015611a9c57600080fd5b505afa158015611ab0573d6000803e3d6000fd5b505050506040513d601f19601f82011682018060405250810190611ad491906153e3565b90506000821415611aea57809350505050611c08565b6000611af4610d5a565b905060008473ffffffffffffffffffffffffffffffffffffffff1663df987846886040518263ffffffff167c0100000000000000000000000000000000000000000000000000000000028152600401611b4d91906149bd565b60206040518083038186803b158015611b6557600080fd5b505afa158015611b79573d6000803e3d6000fd5b505050506040513d601f19601f82011682018060405250810190611b9d91906153e3565b905060008185611bad9190615205565b905060008482611bbd919061528e565b905060008483611bcd919061528e565b905060008782611bdd9190615650565b90506000868483611bee919061528e565b611bf89190615205565b9050809a50505050505050505050505b919050565b600c6020528060005260406000206000915090505481565b60008060009054906101000a900473ffffffffffffffffffffffffffffffffffffffff16905090565b6000808383810190611c6091906157be565b5050915050600089896000818110611c7b57611c7a61543f565b5b905060200201359050600088886000818110611c9a57611c9961543f565b5b905060200201358b8b6000818110611cb557611cb461543f565b5b90506020020135611cc691906152bf565b905060008d8d6000818110611cde57611cdd61543f565b5b9050602002016020810190611cf39190614ba4565b905060008460ff161415611d1257611d0d838389896135b3565b611d2c565b60018460ff161415611d2b57611d2a838389896139df565b5b5b611d777f0000000000000000000000000000000000000000000000000000000000000000838373ffffffffffffffffffffffffffffffffffffffff166133b59092919063ffffffff16565b60019450505050509998505050505050505050565b600760009054906101000a900473ffffffffffffffffffffffffffffffffffffffff1681565b62093a8081565b8233611dc58282611199565b611e04576040517f08c379a0000000000000000000000000000000000000000000000000000000008152600401611dfb906156d0565b60405180910390fd5b600083118015611e3d5750611e17610d5a565b8460648587611e2691906152bf565b611e309190615205565b611e3a919061528e565b10155b611e7c576040517f08c379a0000000000000000000000000000000000000000000000000000000008152600401611e7390615871565b60405180910390fd5b6000600760009054906101000a900473ffffffffffffffffffffffffffffffffffffffff1673ffffffffffffffffffffffffffffffffffffffff1663d310f49b876040518263ffffffff167c0100000000000000000000000000000000000000000000000000000000028152600401611ef591906149bd565b60206040518083038186803b158015611f0d57600080fd5b505afa158015611f21573d6000803e3d6000fd5b505050506040513d601f19601f82011682018060405250810190611f4591906153e3565b9050611f96333086600860009054906101000a900473ffffffffffffffffffffffffffffffffffffffff1673ffffffffffffffffffffffffffffffffffffffff1661350e909392919063ffffffff16565b611fa38686600087612efc565b6000600760009054906101000a900473ffffffffffffffffffffffffffffffffffffffff1673ffffffffffffffffffffffffffffffffffffffff1663d310f49b886040518263ffffffff167c010000000000000000000000000000000000000000000000000000000002815260040161201c91906149bd565b60206040518083038186803b15801561203457600080fd5b505afa158015612048573d6000803e3d6000fd5b505050506040513d601f19601f8201168201806040525081019061206c91906153e3565b905061208533838361207e9190615650565b6001612d05565b7fcbf3d8fa8a0327024c779609ca3898d31246e64909b6867939acb857a6ca747e8787876040516120b893929190615891565b60405180910390a150505050505050565b6009602052816000526040600020602052806000526040600020600091509150505481565b600e6020528060005260406000206000915090505481565b7f000000000000000000000000000000000000000000000000000000000000000081565b600a6020528060005260406000206000915090505481565b600080606461214f610d5a565b6121599190615650565b905060018161216891906152bf565b612710612175919061528e565b91505090565b81336121878282611199565b6121c6576040517f08c379a00000000000000000000000000000000000000000000000000000000081526004016121bd906156d0565b60405180910390fd5b826000811161220a576040517f08c379a000000000000000000000000000000000000000000000000000000000815260040161220190615765565b60405180910390fd5b6000600760009054906101000a900473ffffffffffffffffffffffffffffffffffffffff1673ffffffffffffffffffffffffffffffffffffffff1663d310f49b876040518263ffffffff167c010000000000000000000000000000000000000000000000000000000002815260040161228391906149bd565b60206040518083038186803b15801561229b57600080fd5b505afa1580156122af573d6000803e3d6000fd5b505050506040513d601f19601f820116820180604052508101906122d391906153e3565b905080851115612318576040517f08c379a000000000000000000000000000000000000000000000000000000000815260040161230f90615914565b60405180910390fd5b612367333087600260009054906101000a900473ffffffffffffffffffffffffffffffffffffffff1673ffffffffffffffffffffffffffffffffffffffff1661350e909392919063ffffffff16565b6123718686613ebe565b6000600760009054906101000a900473ffffffffffffffffffffffffffffffffffffffff1673ffffffffffffffffffffffffffffffffffffffff1663d310f49b886040518263ffffffff167c01000000000000000000000000000000000000000000000000000000000281526004016123ea91906149bd565b60206040518083038186803b15801561240257600080fd5b505afa158015612416573d6000803e3d6000fd5b505050506040513d601f19601f8201168201806040525081019061243a91906153e3565b905061245333828461244c9190615650565b6000612d05565b7f552544cb36551120f07c66c5cd4b2987725a0c72198587f2ce796099bb66c58c87876040516124849291906156f0565b60405180910390a150505050505050565b600860009054906101000a900473ffffffffffffffffffffffffffffffffffffffff1681565b600080600090506000600c60008573ffffffffffffffffffffffffffffffffffffffff1673ffffffffffffffffffffffffffffffffffffffff168152602001908152602001600020541115612766576000601160008573ffffffffffffffffffffffffffffffffffffffff1673ffffffffffffffffffffffffffffffffffffffff1681526020019081526020016000205490505b601254811015612764576000600d600083815260200190815260200160002054111561274e576000819050600062093a808261258b91906152bf565b90506000600b60008873ffffffffffffffffffffffffffffffffffffffff1673ffffffffffffffffffffffffffffffffffffffff16815260200190815260200160002054831161261a57600b60008873ffffffffffffffffffffffffffffffffffffffff1673ffffffffffffffffffffffffffffffffffffffff1681526020019081526020016000205461261c565b825b90506000600d600086815260200190815260200160002054670de0b6b3a764000083856126499190615650565b600a60008c73ffffffffffffffffffffffffffffffffffffffff1673ffffffffffffffffffffffffffffffffffffffff168152602001908152602001600020546126939190615205565b600960008c73ffffffffffffffffffffffffffffffffffffffff1673ffffffffffffffffffffffffffffffffffffffff1681526020019081526020016000206000898152602001908152602001600020546126ee91906152bf565b6126f89190615205565b612702919061528e565b90506000670de0b6b3a764000082600e60008981526020019081526020016000205461272e9190615205565b612738919061528e565b9050808761274691906152bf565b965050505050505b62093a808161275d91906152bf565b905061254f565b505b80915050919050565b813361277b8282611199565b6127ba576040517f08c379a00000000000000000000000000000000000000000000000000000000081526004016127b1906156d0565b60405180910390fd5b82600081116127fe576040517f08c379a00000000000000000000000000000000000000000000000000000000081526004016127f590615765565b60405180910390fd5b60008411612841576040517f08c379a000000000000000000000000000000000000000000000000000000000815260040161283890615980565b60405180910390fd5b612890333086600860009054906101000a900473ffffffffffffffffffffffffffffffffffffffff1673ffffffffffffffffffffffffffffffffffffffff1661350e909392919063ffffffff16565b61289a8585613fdc565b7fa3af609bf46297028ce551832669030f9effef2b02606d02cbbcc40fe6b47c5585856040516128cb9291906156f0565b60405180910390a15050505050565b6128e2612cfd565b73ffffffffffffffffffffffffffffffffffffffff16612900611c25565b73ffffffffffffffffffffffffffffffffffffffff1614612956576040517f08c379a000000000000000000000000000000000000000000000000000000000815260040161294d906151b6565b60405180910390fd5b600073ffffffffffffffffffffffffffffffffffffffff168173ffffffffffffffffffffffffffffffffffffffff1614156129c6576040517f08c379a00000000000000000000000000000000000000000000000000000000081526004016129bd90615a12565b60405180910390fd5b6129cf81613242565b50565b600b6020528060005260406000206000915090505481565b6060600360009054906101000a900473ffffffffffffffffffffffffffffffffffffffff1673ffffffffffffffffffffffffffffffffffffffff168373ffffffffffffffffffffffffffffffffffffffff161480612a955750600360009054906101000a900473ffffffffffffffffffffffffffffffffffffffff1673ffffffffffffffffffffffffffffffffffffffff168273ffffffffffffffffffffffffffffffffffffffff16145b15612b8f576000600267ffffffffffffffff811115612ab757612ab6615410565b5b604051908082528060200260200182016040528015612ae55781602001602082028036833780820191505090505b5090508381600081518110612afd57612afc61543f565b5b602002602001019073ffffffffffffffffffffffffffffffffffffffff16908173ffffffffffffffffffffffffffffffffffffffff16815250508281600181518110612b4c57612b4b61543f565b5b602002602001019073ffffffffffffffffffffffffffffffffffffffff16908173ffffffffffffffffffffffffffffffffffffffff168152505080915050612cf1565b6000600367ffffffffffffffff811115612bac57612bab615410565b5b604051908082528060200260200182016040528015612bda5781602001602082028036833780820191505090505b5090508381600081518110612bf257612bf161543f565b5b602002602001019073ffffffffffffffffffffffffffffffffffffffff16908173ffffffffffffffffffffffffffffffffffffffff1681525050600360009054906101000a900473ffffffffffffffffffffffffffffffffffffffff1681600181518110612c6357612c6261543f565b5b602002602001019073ffffffffffffffffffffffffffffffffffffffff16908173ffffffffffffffffffffffffffffffffffffffff16815250508281600281518110612cb257612cb161543f565b5b602002602001019073ffffffffffffffffffffffffffffffffffffffff16908173ffffffffffffffffffffffffffffffffffffffff1681525050809150505b92915050565b600f5481565b600033905090565b612d0d614104565b612d168361420f565b600062093a8060125442612d2a9190615650565b612d34919061528e565b90508062093a80612d459190615205565b60126000828254612d5691906152bf565b925050819055508062093a80612d6c9190615205565b600c60008673ffffffffffffffffffffffffffffffffffffffff1673ffffffffffffffffffffffffffffffffffffffff1681526020019081526020016000206000828254612dba91906152bf565b925050819055504260108190555042600b60008673ffffffffffffffffffffffffffffffffffffffff1673ffffffffffffffffffffffffffffffffffffffff168152602001908152602001600020819055508115612e865782600f6000828254612e2491906152bf565b9250508190555082600a60008673ffffffffffffffffffffffffffffffffffffffff1673ffffffffffffffffffffffffffffffffffffffff1681526020019081526020016000206000828254612e7a91906152bf565b92505081905550612ef6565b82600f6000828254612e989190615650565b9250508190555082600a60008673ffffffffffffffffffffffffffffffffffffffff1673ffffffffffffffffffffffffffffffffffffffff1681526020019081526020016000206000828254612eee9190615650565b925050819055505b50505050565b6000612f4d600160009054906101000a900473ffffffffffffffffffffffffffffffffffffffff16600860009054906101000a900473ffffffffffffffffffffffffffffffffffffffff1686611656565b905060018360ff161415612fad57612faa600160009054906101000a900473ffffffffffffffffffffffffffffffffffffffff16600260009054906101000a900473ffffffffffffffffffffffffffffffffffffffff1686611656565b90505b60003090506000600167ffffffffffffffff811115612fcf57612fce615410565b5b604051908082528060200260200182016040528015612ffd5781602001602082028036833780820191505090505b509050600160009054906101000a900473ffffffffffffffffffffffffffffffffffffffff16816000815181106130375761303661543f565b5b602002602001019073ffffffffffffffffffffffffffffffffffffffff16908173ffffffffffffffffffffffffffffffffffffffff16815250506000600167ffffffffffffffff81111561308e5761308d615410565b5b6040519080825280602002602001820160405280156130bc5781602001602082028036833780820191505090505b50905083816000815181106130d4576130d361543f565b5b6020026020010181815250506000600167ffffffffffffffff8111156130fd576130fc615410565b5b60405190808252806020026020018201604052801561312b5781602001602082028036833780820191505090505b5090506000816000815181106131445761314361543f565b5b602002602001018181525050600030905060008a898b8a60405160200161316e9493929190615a41565b604051602081830303815290604052905060007f000000000000000000000000000000000000000000000000000000000000000073ffffffffffffffffffffffffffffffffffffffff1663ab9c4b5d888888888888886040518863ffffffff167c01000000000000000000000000000000000000000000000000000000000281526004016132029796959493929190615b2b565b600060405180830381600087803b15801561321c57600080fd5b505af1158015613230573d6000803e3d6000fd5b50505050505050505050505050505050565b60008060009054906101000a900473ffffffffffffffffffffffffffffffffffffffff169050816000806101000a81548173ffffffffffffffffffffffffffffffffffffffff021916908373ffffffffffffffffffffffffffffffffffffffff1602179055508173ffffffffffffffffffffffffffffffffffffffff168173ffffffffffffffffffffffffffffffffffffffff167f8be0079c531659141344cd1fd0a4f28419497f9722a3daafe3b4186f6b6457e060405160405180910390a35050565b600760009054906101000a900473ffffffffffffffffffffffffffffffffffffffff1673ffffffffffffffffffffffffffffffffffffffff1663767a7b0583836040518363ffffffff167c010000000000000000000000000000000000000000000000000000000002815260040161337f9291906156f0565b600060405180830381600087803b15801561339957600080fd5b505af11580156133ad573d6000803e3d6000fd5b505050505050565b6000818473ffffffffffffffffffffffffffffffffffffffff1663dd62ed3e30866040518363ffffffff167c010000000000000000000000000000000000000000000000000000000002815260040161340f929190615bb6565b60206040518083038186803b15801561342757600080fd5b505afa15801561343b573d6000803e3d6000fd5b505050506040513d601f19601f8201168201806040525081019061345f91906153e3565b61346991906152bf565b90506135088463095ea7b37c01000000000000000000000000000000000000000000000000000000000285846040516024016134a6929190615315565b604051602081830303815290604052907bffffffffffffffffffffffffffffffffffffffffffffffffffffffff19166020820180517bffffffffffffffffffffffffffffffffffffffffffffffffffffffff8381831617835250505050614671565b50505050565b6135ad846323b872dd7c01000000000000000000000000000000000000000000000000000000000285858560405160240161354b93929190615397565b604051602081830303815290604052907bffffffffffffffffffffffffffffffffffffffffffffffffffffffff19166020820180517bffffffffffffffffffffffffffffffffffffffffffffffffffffffff8381831617835250505050614671565b50505050565b600080600084848101906135c791906157be565b9350935050925061363d600560009054906101000a900473ffffffffffffffffffffffffffffffffffffffff1688600160009054906101000a900473ffffffffffffffffffffffffffffffffffffffff1673ffffffffffffffffffffffffffffffffffffffff166133b59092919063ffffffff16565b6000600560009054906101000a900473ffffffffffffffffffffffffffffffffffffffff1673ffffffffffffffffffffffffffffffffffffffff16638803dbee848a6136cd600160009054906101000a900473ffffffffffffffffffffffffffffffffffffffff16600860009054906101000a900473ffffffffffffffffffffffffffffffffffffffff166129ea565b30426040518663ffffffff167c010000000000000000000000000000000000000000000000000000000002815260040161370b959493929190615bdf565b600060405180830381600087803b15801561372557600080fd5b505af1158015613739573d6000803e3d6000fd5b505050506040513d6000823e3d601f19601f8201168201806040525081019061376291906155be565b9050806000815181106137785761377761543f565b5b60200260200101518861378b9190615650565b876137969190615650565b9650600082846137a691906152bf565b90506137b28582613fdc565b6000613803600260009054906101000a900473ffffffffffffffffffffffffffffffffffffffff16600160009054906101000a900473ffffffffffffffffffffffffffffffffffffffff168b611656565b905061380f8682614738565b61387e600560009054906101000a900473ffffffffffffffffffffffffffffffffffffffff1682600260009054906101000a900473ffffffffffffffffffffffffffffffffffffffff1673ffffffffffffffffffffffffffffffffffffffff166133b59092919063ffffffff16565b600560009054906101000a900473ffffffffffffffffffffffffffffffffffffffff1673ffffffffffffffffffffffffffffffffffffffff16638803dbee8a8361390c600260009054906101000a900473ffffffffffffffffffffffffffffffffffffffff16600160009054906101000a900473ffffffffffffffffffffffffffffffffffffffff166129ea565b30426040518663ffffffff167c010000000000000000000000000000000000000000000000000000000002815260040161394a959493929190615bdf565b600060405180830381600087803b15801561396457600080fd5b505af1158015613978573d6000803e3d6000fd5b505050506040513d6000823e3d601f19601f820116820180604052508101906139a191906155be565b92506139d386846000815181106139bb576139ba61543f565b5b6020026020010151836139ce9190615650565b613ebe565b50505050505050505050565b60008083838101906139f191906157be565b509250509150613a66600560009054906101000a900473ffffffffffffffffffffffffffffffffffffffff1687600160009054906101000a900473ffffffffffffffffffffffffffffffffffffffff1673ffffffffffffffffffffffffffffffffffffffff166133b59092919063ffffffff16565b6000600560009054906101000a900473ffffffffffffffffffffffffffffffffffffffff1673ffffffffffffffffffffffffffffffffffffffff16638803dbee8389613af6600160009054906101000a900473ffffffffffffffffffffffffffffffffffffffff16600260009054906101000a900473ffffffffffffffffffffffffffffffffffffffff166129ea565b30426040518663ffffffff167c0100000000000000000000000000000000000000000000000000000000028152600401613b34959493929190615bdf565b600060405180830381600087803b158015613b4e57600080fd5b505af1158015613b62573d6000803e3d6000fd5b505050506040513d6000823e3d601f19601f82011682018060405250810190613b8b91906155be565b905080600081518110613ba157613ba061543f565b5b602002602001015187613bb49190615650565b86613bbf9190615650565b9550613bf2838260018451613bd49190615650565b81518110613be557613be461543f565b5b6020026020010151613ebe565b6000613c43600860009054906101000a900473ffffffffffffffffffffffffffffffffffffffff16600160009054906101000a900473ffffffffffffffffffffffffffffffffffffffff1689611656565b9050600760009054906101000a900473ffffffffffffffffffffffffffffffffffffffff1673ffffffffffffffffffffffffffffffffffffffff1663767a7b0585836040518363ffffffff167c0100000000000000000000000000000000000000000000000000000000028152600401613cbe9291906156f0565b600060405180830381600087803b158015613cd857600080fd5b505af1158015613cec573d6000803e3d6000fd5b50505050613d5f600560009054906101000a900473ffffffffffffffffffffffffffffffffffffffff1682600860009054906101000a900473ffffffffffffffffffffffffffffffffffffffff1673ffffffffffffffffffffffffffffffffffffffff166133b59092919063ffffffff16565b600560009054906101000a900473ffffffffffffffffffffffffffffffffffffffff1673ffffffffffffffffffffffffffffffffffffffff16638803dbee8883613ded600860009054906101000a900473ffffffffffffffffffffffffffffffffffffffff16600160009054906101000a900473ffffffffffffffffffffffffffffffffffffffff166129ea565b30426040518663ffffffff167c0100000000000000000000000000000000000000000000000000000000028152600401613e2b959493929190615bdf565b600060405180830381600087803b158015613e4557600080fd5b505af1158015613e59573d6000803e3d6000fd5b505050506040513d6000823e3d601f19601f82011682018060405250810190613e8291906155be565b9150613eb48483600081518110613e9c57613e9b61543f565b5b602002602001015183613eaf9190615650565b613fdc565b5050505050505050565b613f2d600760009054906101000a900473ffffffffffffffffffffffffffffffffffffffff1682600260009054906101000a900473ffffffffffffffffffffffffffffffffffffffff1673ffffffffffffffffffffffffffffffffffffffff166133b59092919063ffffffff16565b600760009054906101000a900473ffffffffffffffffffffffffffffffffffffffff1673ffffffffffffffffffffffffffffffffffffffff166385af3c1683836040518363ffffffff167c0100000000000000000000000000000000000000000000000000000000028152600401613fa69291906156f0565b600060405180830381600087803b158015613fc057600080fd5b505af1158015613fd4573d6000803e3d6000fd5b505050505050565b600081111561410057614054600760009054906101000a900473ffffffffffffffffffffffffffffffffffffffff1682600860009054906101000a900473ffffffffffffffffffffffffffffffffffffffff1673ffffffffffffffffffffffffffffffffffffffff166133b59092919063ffffffff16565b600760009054906101000a900473ffffffffffffffffffffffffffffffffffffffff1673ffffffffffffffffffffffffffffffffffffffff1663ece1373283836040518363ffffffff167c01000000000000000000000000000000000000000000000000000000000281526004016140cd9291906156f0565b600060405180830381600087803b1580156140e757600080fd5b505af11580156140fb573d6000803e3d6000fd5b505050505b5050565b600062093a80601254426141189190615650565b614122919061528e565b905060005b81811161420b57600062093a808261413f9190615205565b60125461414c91906152bf565b9050600062093a808261415f91906152bf565b42111561417a5762093a808261417591906152bf565b61417c565b425b905080601054116141f6576000601054831161419a5760105461419c565b825b905060008242116141ad57426141af565b825b905081816141bd9190615650565b600f546141ca9190615205565b600d600086815260200190815260200160002060008282546141ec91906152bf565b9250508190555050505b5050808061420390615607565b915050614127565b5050565b6000600c60008373ffffffffffffffffffffffffffffffffffffffff1673ffffffffffffffffffffffffffffffffffffffff16815260200190815260200160002054141561429e57601254600c60008373ffffffffffffffffffffffffffffffffffffffff1673ffffffffffffffffffffffffffffffffffffffff168152602001908152602001600020819055505b6000601160008373ffffffffffffffffffffffffffffffffffffffff1673ffffffffffffffffffffffffffffffffffffffff16815260200190815260200160002054141561432d57601254601160008373ffffffffffffffffffffffffffffffffffffffff1673ffffffffffffffffffffffffffffffffffffffff168152602001908152602001600020819055505b6000600b60008373ffffffffffffffffffffffffffffffffffffffff1673ffffffffffffffffffffffffffffffffffffffff1681526020019081526020016000205414156143ba5742600b60008373ffffffffffffffffffffffffffffffffffffffff1673ffffffffffffffffffffffffffffffffffffffff168152602001908152602001600020819055505b600062093a80600c60008473ffffffffffffffffffffffffffffffffffffffff1673ffffffffffffffffffffffffffffffffffffffff168152602001908152602001600020544261440b9190615650565b614415919061528e565b905060005b81811161466c57600062093a80826144329190615205565b600c60008673ffffffffffffffffffffffffffffffffffffffff1673ffffffffffffffffffffffffffffffffffffffff1681526020019081526020016000205461447c91906152bf565b9050600062093a808261448f91906152bf565b4211156144aa5762093a80826144a591906152bf565b6144ac565b425b905080600b60008773ffffffffffffffffffffffffffffffffffffffff1673ffffffffffffffffffffffffffffffffffffffff1681526020019081526020016000205411614657576000600b60008773ffffffffffffffffffffffffffffffffffffffff1673ffffffffffffffffffffffffffffffffffffffff16815260200190815260200160002054831161458157600b60008773ffffffffffffffffffffffffffffffffffffffff1673ffffffffffffffffffffffffffffffffffffffff16815260200190815260200160002054614583565b825b905060008242116145945742614596565b825b905081816145a49190615650565b600a60008973ffffffffffffffffffffffffffffffffffffffff1673ffffffffffffffffffffffffffffffffffffffff168152602001908152602001600020546145ee9190615205565b600960008973ffffffffffffffffffffffffffffffffffffffff1673ffffffffffffffffffffffffffffffffffffffff1681526020019081526020016000206000868152602001908152602001600020600082825461464d91906152bf565b9250508190555050505b5050808061466490615607565b91505061441a565b505050565b60006146d3826040518060400160405280602081526020017f5361666545524332303a206c6f772d6c6576656c2063616c6c206661696c65648152508573ffffffffffffffffffffffffffffffffffffffff166147e79092919063ffffffff16565b905060008151111561473357808060200190518101906146f3919061536a565b614732576040517f08c379a000000000000000000000000000000000000000000000000000000000815260040161472990615cab565b60405180910390fd5b5b505050565b600760009054906101000a900473ffffffffffffffffffffffffffffffffffffffff1673ffffffffffffffffffffffffffffffffffffffff166308ec592783836040518363ffffffff167c01000000000000000000000000000000000000000000000000000000000281526004016147b19291906156f0565b600060405180830381600087803b1580156147cb57600080fd5b505af11580156147df573d6000803e3d6000fd5b505050505050565b60606147f684846000856147ff565b90509392505050565b6060823073ffffffffffffffffffffffffffffffffffffffff1631101561485b576040517f08c379a000000000000000000000000000000000000000000000000000000000815260040161485290615d3d565b60405180910390fd5b6148648561492a565b6148a3576040517f08c379a000000000000000000000000000000000000000000000000000000000815260040161489a90615da9565b60405180910390fd5b6000808673ffffffffffffffffffffffffffffffffffffffff1685876040516148cc9190615e05565b60006040518083038185875af1925050503d8060008114614909576040519150601f19603f3d011682016040523d82523d6000602084013e61490e565b606091505b509150915061491e82828661493d565b92505050949350505050565b600080823b905060008111915050919050565b6060831561494d5782905061499d565b6000835111156149605782518084602001fd5b816040517f08c379a00000000000000000000000000000000000000000000000000000000081526004016149949190615e60565b60405180910390fd5b9392505050565b6000819050919050565b6149b7816149a4565b82525050565b60006020820190506149d260008301846149ae565b92915050565b600073ffffffffffffffffffffffffffffffffffffffff82169050919050565b6000819050919050565b6000614a1d614a18614a13846149d8565b6149f8565b6149d8565b9050919050565b6000614a2f82614a02565b9050919050565b6000614a4182614a24565b9050919050565b614a5181614a36565b82525050565b6000602082019050614a6c6000830184614a48565b92915050565b600081519050919050565b600082825260208201905092915050565b6000819050602082019050919050565b614aa7816149a4565b82525050565b6000614ab98383614a9e565b60208301905092915050565b6000602082019050919050565b6000614add82614a72565b614ae78185614a7d565b9350614af283614a8e565b8060005b83811015614b23578151614b0a8882614aad565b9750614b1583614ac5565b925050600181019050614af6565b5085935050505092915050565b60006020820190508181036000830152614b4a8184614ad2565b905092915050565b6000604051905090565b600080fd5b600080fd5b6000614b71826149d8565b9050919050565b614b8181614b66565b8114614b8c57600080fd5b50565b600081359050614b9e81614b78565b92915050565b600060208284031215614bba57614bb9614b5c565b5b6000614bc884828501614b8f565b91505092915050565b614bda816149a4565b8114614be557600080fd5b50565b600081359050614bf781614bd1565b92915050565b600060208284031215614c1357614c12614b5c565b5b6000614c2184828501614be8565b91505092915050565b60008060408385031215614c4157614c40614b5c565b5b6000614c4f85828601614be8565b9250506020614c6085828601614b8f565b9150509250929050565b60008115159050919050565b614c7f81614c6a565b82525050565b6000602082019050614c9a6000830184614c76565b92915050565b600080600060608486031215614cb957614cb8614b5c565b5b6000614cc786828701614b8f565b9350506020614cd886828701614b8f565b9250506040614ce986828701614be8565b9150509250925092565b60008060408385031215614d0a57614d09614b5c565b5b6000614d1885828601614be8565b9250506020614d2985828601614be8565b9150509250929050565b614d3c81614b66565b82525050565b6000602082019050614d576000830184614d33565b92915050565b600080fd5b600080fd5b600080fd5b60008083601f840112614d8257614d81614d5d565b5b8235905067ffffffffffffffff811115614d9f57614d9e614d62565b5b602083019150836020820283011115614dbb57614dba614d67565b5b9250929050565b60008083601f840112614dd857614dd7614d5d565b5b8235905067ffffffffffffffff811115614df557614df4614d62565b5b602083019150836020820283011115614e1157614e10614d67565b5b9250929050565b60008083601f840112614e2e57614e2d614d5d565b5b8235905067ffffffffffffffff811115614e4b57614e4a614d62565b5b602083019150836001820283011115614e6757614e66614d67565b5b9250929050565b600080600080600080600080600060a08a8c031215614e9057614e8f614b5c565b5b60008a013567ffffffffffffffff811115614eae57614ead614b61565b5b614eba8c828d01614d6c565b995099505060208a013567ffffffffffffffff811115614edd57614edc614b61565b5b614ee98c828d01614dc2565b975097505060408a013567ffffffffffffffff811115614f0c57614f0b614b61565b5b614f188c828d01614dc2565b95509550506060614f2b8c828d01614b8f565b93505060808a013567ffffffffffffffff811115614f4c57614f4b614b61565b5b614f588c828d01614e18565b92509250509295985092959850929598565b600080600060608486031215614f8357614f82614b5c565b5b6000614f9186828701614be8565b9350506020614fa286828701614be8565b9250506040614fb386828701614be8565b9150509250925092565b60008060408385031215614fd457614fd3614b5c565b5b6000614fe285828601614b8f565b9250506020614ff385828601614be8565b9150509250929050565b600061500882614a24565b9050919050565b61501881614ffd565b82525050565b6000602082019050615033600083018461500f565b92915050565b600080604083850312156150505761504f614b5c565b5b600061505e85828601614b8f565b925050602061506f85828601614b8f565b9150509250929050565b600081519050919050565b600082825260208201905092915050565b6000819050602082019050919050565b6150ae81614b66565b82525050565b60006150c083836150a5565b60208301905092915050565b6000602082019050919050565b60006150e482615079565b6150ee8185615084565b93506150f983615095565b8060005b8381101561512a57815161511188826150b4565b975061511c836150cc565b9250506001810190506150fd565b5085935050505092915050565b6000602082019050818103600083015261515181846150d9565b905092915050565b600082825260208201905092915050565b7f4f776e61626c653a2063616c6c6572206973206e6f7420746865206f776e6572600082015250565b60006151a0602083615159565b91506151ab8261516a565b602082019050919050565b600060208201905081810360008301526151cf81615193565b9050919050565b7f4e487b7100000000000000000000000000000000000000000000000000000000600052601160045260246000fd5b6000615210826149a4565b915061521b836149a4565b9250817fffffffffffffffffffffffffffffffffffffffffffffffffffffffffffffffff0483118215151615615254576152536151d6565b5b828202905092915050565b7f4e487b7100000000000000000000000000000000000000000000000000000000600052601260045260246000fd5b6000615299826149a4565b91506152a4836149a4565b9250826152b4576152b361525f565b5b828204905092915050565b60006152ca826149a4565b91506152d5836149a4565b9250827fffffffffffffffffffffffffffffffffffffffffffffffffffffffffffffffff0382111561530a576153096151d6565b5b828201905092915050565b600060408201905061532a6000830185614d33565b61533760208301846149ae565b9392505050565b61534781614c6a565b811461535257600080fd5b50565b6000815190506153648161533e565b92915050565b6000602082840312156153805761537f614b5c565b5b600061538e84828501615355565b91505092915050565b60006060820190506153ac6000830186614d33565b6153b96020830185614d33565b6153c660408301846149ae565b949350505050565b6000815190506153dd81614bd1565b92915050565b6000602082840312156153f9576153f8614b5c565b5b6000615407848285016153ce565b91505092915050565b7f4e487b7100000000000000000000000000000000000000000000000000000000600052604160045260246000fd5b7f4e487b7100000000000000000000000000000000000000000000000000000000600052603260045260246000fd5b600060408201905061548360008301856149ae565b818103602083015261549581846150d9565b90509392505050565b6000601f19601f8301169050919050565b6154b88261549e565b810181811067ffffffffffffffff821117156154d7576154d6615410565b5b80604052505050565b60006154ea614b52565b90506154f682826154af565b919050565b600067ffffffffffffffff82111561551657615515615410565b5b602082029050602081019050919050565b600061553a615535846154fb565b6154e0565b9050808382526020820190506020840283018581111561555d5761555c614d67565b5b835b81811015615586578061557288826153ce565b84526020840193505060208101905061555f565b5050509392505050565b600082601f8301126155a5576155a4614d5d565b5b81516155b5848260208601615527565b91505092915050565b6000602082840312156155d4576155d3614b5c565b5b600082015167ffffffffffffffff8111156155f2576155f1614b61565b5b6155fe84828501615590565b91505092915050565b6000615612826149a4565b91507fffffffffffffffffffffffffffffffffffffffffffffffffffffffffffffffff821415615645576156446151d6565b5b600182019050919050565b600061565b826149a4565b9150615666836149a4565b925082821015615679576156786151d6565b5b828203905092915050565b7f555345525f4e4f545f4f574e4552000000000000000000000000000000000000600082015250565b60006156ba600e83615159565b91506156c582615684565b602082019050919050565b600060208201905081810360008301526156e9816156ad565b9050919050565b600060408201905061570560008301856149ae565b61571260208301846149ae565b9392505050565b7f504f5349544956455f414d4f554e545f52455155495245440000000000000000600082015250565b600061574f601883615159565b915061575a82615719565b602082019050919050565b6000602082019050818103600083015261577e81615742565b9050919050565b600060ff82169050919050565b61579b81615785565b81146157a657600080fd5b50565b6000813590506157b881615792565b92915050565b600080600080608085870312156157d8576157d7614b5c565b5b60006157e687828801614be8565b94505060206157f7878288016157a9565b935050604061580887828801614be8565b925050606061581987828801614be8565b91505092959194509250565b7f4e4f545f454e4f5547485f434f4c4c41544552414c0000000000000000000000600082015250565b600061585b601583615159565b915061586682615825565b602082019050919050565b6000602082019050818103600083015261588a8161584e565b9050919050565b60006060820190506158a660008301866149ae565b6158b360208301856149ae565b6158c060408301846149ae565b949350505050565b7f414d4f554e545f544f4f5f424947000000000000000000000000000000000000600082015250565b60006158fe600e83615159565b9150615909826158c8565b602082019050919050565b6000602082019050818103600083015261592d816158f1565b9050919050565b7f414d4f554e545f5a45524f000000000000000000000000000000000000000000600082015250565b600061596a600b83615159565b915061597582615934565b602082019050919050565b600060208201905081810360008301526159998161595d565b9050919050565b7f4f776e61626c653a206e6577206f776e657220697320746865207a65726f206160008201527f6464726573730000000000000000000000000000000000000000000000000000602082015250565b60006159fc602683615159565b9150615a07826159a0565b604082019050919050565b60006020820190508181036000830152615a2b816159ef565b9050919050565b615a3b81615785565b82525050565b6000608082019050615a5660008301876149ae565b615a636020830186615a32565b615a7060408301856149ae565b615a7d60608301846149ae565b95945050505050565b600081519050919050565b600082825260208201905092915050565b60005b83811015615ac0578082015181840152602081019050615aa5565b83811115615acf576000848401525b50505050565b6000615ae082615a86565b615aea8185615a91565b9350615afa818560208601615aa2565b615b038161549e565b840191505092915050565b600061ffff82169050919050565b615b2581615b0e565b82525050565b600060e082019050615b40600083018a614d33565b8181036020830152615b5281896150d9565b90508181036040830152615b668188614ad2565b90508181036060830152615b7a8187614ad2565b9050615b896080830186614d33565b81810360a0830152615b9b8185615ad5565b9050615baa60c0830184615b1c565b98975050505050505050565b6000604082019050615bcb6000830185614d33565b615bd86020830184614d33565b9392505050565b600060a082019050615bf460008301886149ae565b615c0160208301876149ae565b8181036040830152615c1381866150d9565b9050615c226060830185614d33565b615c2f60808301846149ae565b9695505050505050565b7f5361666545524332303a204552433230206f7065726174696f6e20646964206e60008201527f6f74207375636365656400000000000000000000000000000000000000000000602082015250565b6000615c95602a83615159565b9150615ca082615c39565b604082019050919050565b60006020820190508181036000830152615cc481615c88565b9050919050565b7f416464726573733a20696e73756666696369656e742062616c616e636520666f60008201527f722063616c6c0000000000000000000000000000000000000000000000000000602082015250565b6000615d27602683615159565b9150615d3282615ccb565b604082019050919050565b60006020820190508181036000830152615d5681615d1a565b9050919050565b7f416464726573733a2063616c6c20746f206e6f6e2d636f6e7472616374000000600082015250565b6000615d93601d83615159565b9150615d9e82615d5d565b602082019050919050565b60006020820190508181036000830152615dc281615d86565b9050919050565b600081905092915050565b6000615ddf82615a86565b615de98185615dc9565b9350615df9818560208601615aa2565b80840191505092915050565b6000615e118284615dd4565b915081905092915050565b600081519050919050565b6000615e3282615e1c565b615e3c8185615159565b9350615e4c818560208601615aa2565b615e558161549e565b840191505092915050565b60006020820190508181036000830152615e7a8184615e27565b90509291505056fea264697066735822122006d0f6deb2f58aca9097d14d0995bc1a424e5435baf42173c22c42450a57148b64736f6c63430008090033",
  "immutableReferences": {
    "777": [
      {
        "length": 32,
        "start": 1917
      }
    ],
    "780": [
      {
        "length": 32,
        "start": 7473
      },
      {
        "length": 32,
        "start": 8456
      },
      {
        "length": 32,
        "start": 12675
      }
    ]
  },
  "source": "// SPDX-License-Identifier: MIT\npragma solidity 0.8.9;\n\nimport {VaultLongMaiFinanceBase} from \"./VaultLongMaiFinanceBase.sol\";\n\ncontract LinkVaultLong is VaultLongMaiFinanceBase {\n    constructor(\n        address collateralAddr,\n        address vaultAddr,\n        uint256 periodStartRewards,\n        address aaveLendingPoolAddr,\n        address _usdcAddr,\n        address _maiAddr,\n        address _wmaticAddr,\n        address _qiAddr,\n        address _quickswapRouterAddr\n    )\n        VaultLongMaiFinanceBase(\n            collateralAddr,\n            vaultAddr,\n            periodStartRewards,\n            aaveLendingPoolAddr,\n            _usdcAddr,\n            _maiAddr,\n            _wmaticAddr,\n            _qiAddr,\n            _quickswapRouterAddr\n        )\n    {}\n}\n",
  "sourcePath": "/media/nello/Data/dev/blockchain/Consensys/blockchain-developer-bootcamp-final-project/contracts/LinkVaultLong.sol",
  "compiler": {
    "name": "solc",
    "version": "0.8.9+commit.e5eed63a.Emscripten.clang"
  },
  "schemaVersion": "3.4.3",
  "updatedAt": "2021-11-26T17:50:37.810Z",
  "networkType": "ethereum",
  "devdoc": {
    "kind": "dev",
    "methods": {
      "claimRewardsFor(address)": {
        "details": "This is onlyOwner because it's supposed to be called by the admin contract only `HelperAdmin`",
        "params": {
          "user": "address The user to claim the rewards for"
        }
      },
      "claimableRewards(address)": {
        "params": {
          "user": "address The user to check"
        },
        "returns": {
          "_0": "uint256 The amount of rewards claimable for this user"
        }
      },
      "deposit(uint256,uint256)": {
        "params": {
          "amount": "uint256 the amount to deposit",
          "vaultId": "uint256 The vaultId where to deposit the funds"
        }
      },
      "executeOperation(address[],uint256[],uint256[],address,bytes)": {
        "params": {
          "amounts": "uint256[] The list of amount borrowed for each asset",
          "assets": "address[] The list of asset addresses borrowed",
          "initiator": "address The address that intiated the flash loan (not used here)",
          "params": "bytes params sent by the caller ",
          "premiums": "uint256[] The list of amount in fees for each borrowed asset"
        }
      },
      "getAmountInMin(address,address,uint256)": {
        "params": {
          "_amountOut": "uint256 The amount out",
          "_tokenIn": "address The token address in",
          "_tokenOut": "address The token address out"
        }
      },
      "getAmountOutMin(address,address,uint256)": {
        "params": {
          "_amountIn": "uint256 The amount in",
          "_tokenIn": "address The token address in",
          "_tokenOut": "address The token address out"
        }
      },
      "getMAIDebtForAmount(uint256)": {
        "params": {
          "amount": "uint256 The amount of collateral to long"
        },
        "returns": {
          "_0": "uint256 The amount of MAI to borrow to create the long"
        }
      },
      "getMaxWithdrawableCollateral(uint256)": {
        "params": {
          "vaultId": "uint256 The vault Id to check"
        },
        "returns": {
          "_0": "uint256 the max amount to withdraw"
        }
      },
      "getMinimumCollateralPercentage()": {
        "returns": {
          "_0": "uint256 The minimum collateral percentage "
        }
      },
      "getMultiplicatorMax100th()": {
        "returns": {
          "_0": "uint256 The maximum multiplicator"
        }
      },
      "getPathSwap(address,address)": {
        "params": {
          "token1": "addres The token address in",
          "token2": "addres The token address out"
        },
        "returns": {
          "_0": "address[] The path"
        }
      },
      "getUserVaultList()": {
        "returns": {
          "_0": "vaults uint256[] The list of vault Ids"
        }
      },
      "longAsset(uint256,uint256,uint256)": {
        "params": {
          "initialDeposit": "uint256 The intial deposit",
          "longAmount": "uint256 The amount to long",
          "vaultId": "uint256 The vault Id where the user wants to create the long"
        }
      },
      "owner()": {
        "details": "Returns the address of the current owner."
      },
      "reduceLong(uint256,uint256)": {
        "params": {
          "debtAmountToReduce": "The debt amount to reduce (In MAI)",
          "vaultId": "uint256 The vault Id where the user wants to reduce the long"
        }
      },
      "renounceOwnership()": {
        "details": "Leaves the contract without owner. It will not be possible to call `onlyOwner` functions anymore. Can only be called by the current owner. NOTE: Renouncing ownership will leave the contract without an owner, thereby removing any functionality that is only available to the owner."
      },
      "repay(uint256,uint256)": {
        "params": {
          "amountToRepay": "The amount of MAI to repay",
          "vaultId": "uint256 The vault Id to repay"
        }
      },
      "transferOwnership(address)": {
        "details": "Transfers ownership of the contract to a new account (`newOwner`). Can only be called by the current owner."
      },
      "updateRewardsBalance(uint256,uint256)": {
        "details": "This is only called by the contract's owner `HelperAdmin` which is itself called the protocol's owner",
        "params": {
          "amount": "unit256 The amount to update",
          "periodTimetart": "uint256 The period for which the rewards amount is updated"
        }
      },
      "userOwnsVault(uint256,address)": {
        "params": {
          "sender": "address The sender to check",
          "vaultId": "uint256 The vault Id to check"
        },
        "returns": {
          "_0": "bool True is the sender owns this vault Id False is the sender does not own this vault Id"
        }
      },
      "withdrawCollateral(uint256,uint256)": {
        "params": {
          "amount": "uint256 the amount to withdraw",
          "vaultId": "uint256 The vaultId from where to withdraw the funds"
        }
      }
    },
    "version": 1
  },
  "userdoc": {
    "kind": "user",
    "methods": {
      "claimRewardsFor(address)": {
        "notice": "Claims the pending reward for a user for a specific vault, the rewards are coming from the weekly distribution from Mai finance in Qi rewards, a user will be able to claim only once a week"
      },
      "claimableRewards(address)": {
        "notice": "Returns the amount of rewards a user can claim"
      },
      "createVault()": {
        "notice": "Create a new vault in Mai finance protocol for the sender"
      },
      "deposit(uint256,uint256)": {
        "notice": "Deposits funds from the user to the contract, then the contract deposit the funds to the chosen Mai vault"
      },
      "executeOperation(address[],uint256[],uint256[],address,bytes)": {
        "notice": "This is called after the contract has received the flash loaned amount"
      },
      "getAmountInMin(address,address,uint256)": {
        "notice": "Returns the minimum amount in from a swap"
      },
      "getAmountOutMin(address,address,uint256)": {
        "notice": "Returns the minimum amount out from a swap"
      },
      "getMAIDebtForAmount(uint256)": {
        "notice": "Returns an estimate of MAI amount to borrow to create a new long"
      },
      "getMaxWithdrawableCollateral(uint256)": {
        "notice": "Return the max amount of collateral it is possible to withdraw with the current debt"
      },
      "getMinimumCollateralPercentage()": {
        "notice": "Get the minimum collateral percentage for this Mai vault type"
      },
      "getMultiplicatorMax100th()": {
        "notice": "Returns the multiplicator maximum one user can long an asset The result is given multiplied by 100 to keep 2 decimals precision, the caller needs to devide by 100"
      },
      "getPathSwap(address,address)": {
        "notice": "Get the path for the 2 tokens passed in parameters, since we use Quickswap for the swaps, will go through WMATIC token to create the swap"
      },
      "getUserVaultList()": {
        "notice": "Get all the vault Ids for the sender address"
      },
      "longAsset(uint256,uint256,uint256)": {
        "notice": "Borrows the required amount of USDC to buy the chosen amount of collateral to long, will repay the borrowed USDC by borrowing MAI from Mai finance's vault, the user ends up with a long position on the vault's collateral and a debt in MAI Credits to Abracadra finance for the idea"
      },
      "reduceLong(uint256,uint256)": {
        "notice": "Reduce the long amount by doing another flash loan in USDC to buy the MAI required to repay the desired amount, the contract will then withdraw the required collateral to repay the USDC debt"
      },
      "repay(uint256,uint256)": {
        "notice": "Repay the wanted amount of MAI from the user wallet to the chosen vault"
      },
      "updateRewardsBalance(uint256,uint256)": {
        "notice": "Function called by an external script that will update the number of rewards which the contract gets by period to be then shared by the users"
      },
      "userOwnsVault(uint256,address)": {
        "notice": "Check if the sener owns the vault Id passed in parameter"
      },
      "withdrawCollateral(uint256,uint256)": {
        "notice": "Withdraw the collateral amount from the Mai vault calling withdrawFromVault(), then sends the fund back to the user"
      }
    },
    "version": 1
  }
}