{
  "contractName": "LinkVaultLong",
  "abi": [
    {
      "inputs": [],
      "stateMutability": "nonpayable",
      "type": "constructor"
    },
    {
      "anonymous": false,
      "inputs": [
        {
          "indexed": false,
          "internalType": "uint256",
          "name": "vaultId",
          "type": "uint256"
        },
        {
          "indexed": false,
          "internalType": "uint256",
          "name": "amount",
          "type": "uint256"
        }
      ],
      "name": "BorrowMai",
      "type": "event"
    },
    {
      "anonymous": false,
      "inputs": [
        {
          "indexed": false,
          "internalType": "uint256",
          "name": "vaultId",
          "type": "uint256"
        },
        {
          "indexed": false,
          "internalType": "uint256",
          "name": "amount",
          "type": "uint256"
        }
      ],
      "name": "DepositCollateral",
      "type": "event"
    },
    {
      "anonymous": false,
      "inputs": [
        {
          "indexed": false,
          "internalType": "uint256",
          "name": "vaultId",
          "type": "uint256"
        },
        {
          "indexed": false,
          "internalType": "uint256",
          "name": "amount",
          "type": "uint256"
        }
      ],
      "name": "DepositInVault",
      "type": "event"
    },
    {
      "anonymous": false,
      "inputs": [
        {
          "indexed": false,
          "internalType": "uint256",
          "name": "vaultId",
          "type": "uint256"
        }
      ],
      "name": "VaultCreated",
      "type": "event"
    },
    {
      "anonymous": false,
      "inputs": [
        {
          "indexed": false,
          "internalType": "uint256",
          "name": "vaultId",
          "type": "uint256"
        },
        {
          "indexed": false,
          "internalType": "uint256",
          "name": "amount",
          "type": "uint256"
        }
      ],
      "name": "WithdrawCollateral",
      "type": "event"
    },
    {
      "inputs": [],
      "name": "ADDRESSES_PROVIDER",
      "outputs": [
        {
          "internalType": "contract ILendingPoolAddressesProvider",
          "name": "",
          "type": "address"
        }
      ],
      "stateMutability": "view",
      "type": "function",
      "constant": true
    },
    {
      "inputs": [],
      "name": "LENDING_POOL",
      "outputs": [
        {
          "internalType": "contract ILendingPool",
          "name": "",
          "type": "address"
        }
      ],
      "stateMutability": "view",
      "type": "function",
      "constant": true
    },
    {
      "inputs": [],
      "name": "collateral",
      "outputs": [
        {
          "internalType": "address",
          "name": "",
          "type": "address"
        }
      ],
      "stateMutability": "view",
      "type": "function",
      "constant": true
    },
    {
      "inputs": [],
      "name": "createVault",
      "outputs": [],
      "stateMutability": "nonpayable",
      "type": "function"
    },
    {
      "inputs": [
        {
          "internalType": "uint256",
          "name": "vaultId",
          "type": "uint256"
        },
        {
          "internalType": "uint256",
          "name": "amount",
          "type": "uint256"
        }
      ],
      "name": "depositCollateral",
      "outputs": [],
      "stateMutability": "nonpayable",
      "type": "function"
    },
    {
      "inputs": [
        {
          "internalType": "address",
          "name": "",
          "type": "address"
        },
        {
          "internalType": "uint256",
          "name": "",
          "type": "uint256"
        }
      ],
      "name": "deposits",
      "outputs": [
        {
          "internalType": "uint256",
          "name": "",
          "type": "uint256"
        }
      ],
      "stateMutability": "view",
      "type": "function",
      "constant": true
    },
    {
      "inputs": [
        {
          "internalType": "address[]",
          "name": "assets",
          "type": "address[]"
        },
        {
          "internalType": "uint256[]",
          "name": "amounts",
          "type": "uint256[]"
        },
        {
          "internalType": "uint256[]",
          "name": "premiums",
          "type": "uint256[]"
        },
        {
          "internalType": "address",
          "name": "initiator",
          "type": "address"
        },
        {
          "internalType": "bytes",
          "name": "params",
          "type": "bytes"
        }
      ],
      "name": "executeOperation",
      "outputs": [
        {
          "internalType": "bool",
          "name": "",
          "type": "bool"
        }
      ],
      "stateMutability": "nonpayable",
      "type": "function"
    },
    {
      "inputs": [],
      "name": "getMinimumCollateralPercentage",
      "outputs": [
        {
          "internalType": "uint256",
          "name": "",
          "type": "uint256"
        }
      ],
      "stateMutability": "view",
      "type": "function",
      "constant": true
    },
    {
      "inputs": [
        {
          "internalType": "address",
          "name": "userAddress",
          "type": "address"
        },
        {
          "internalType": "uint256",
          "name": "vaultId",
          "type": "uint256"
        }
      ],
      "name": "getUserDeposit",
      "outputs": [
        {
          "internalType": "uint256",
          "name": "",
          "type": "uint256"
        }
      ],
      "stateMutability": "view",
      "type": "function",
      "constant": true
    },
    {
      "inputs": [],
      "name": "getUserVaultList",
      "outputs": [
        {
          "internalType": "uint256[]",
          "name": "",
          "type": "uint256[]"
        }
      ],
      "stateMutability": "view",
      "type": "function",
      "constant": true
    },
    {
      "inputs": [
        {
          "internalType": "uint256",
          "name": "vaultId",
          "type": "uint256"
        },
        {
          "internalType": "uint256",
          "name": "longAmount",
          "type": "uint256"
        }
      ],
      "name": "longAsset",
      "outputs": [],
      "stateMutability": "nonpayable",
      "type": "function"
    },
    {
      "inputs": [],
      "name": "maiVault",
      "outputs": [
        {
          "internalType": "address",
          "name": "",
          "type": "address"
        }
      ],
      "stateMutability": "view",
      "type": "function",
      "constant": true
    },
    {
      "inputs": [
        {
          "internalType": "uint256",
          "name": "vaultId",
          "type": "uint256"
        },
        {
          "internalType": "uint256",
          "name": "debtAmountToReduce",
          "type": "uint256"
        }
      ],
      "name": "reduceLong",
      "outputs": [],
      "stateMutability": "nonpayable",
      "type": "function"
    },
    {
      "inputs": [
        {
          "internalType": "uint256",
          "name": "vaultId",
          "type": "uint256"
        },
        {
          "internalType": "uint256",
          "name": "amount",
          "type": "uint256"
        }
      ],
      "name": "withdrawCollateral",
      "outputs": [],
      "stateMutability": "nonpayable",
      "type": "function"
    },
    {
      "inputs": [
        {
          "internalType": "uint256",
          "name": "vaultId",
          "type": "uint256"
        },
        {
          "internalType": "uint256",
          "name": "amount",
          "type": "uint256"
        }
      ],
      "name": "withdrawFromVault",
      "outputs": [],
      "stateMutability": "nonpayable",
      "type": "function"
    }
  ],
  "bytecode": "0x60c060405273d05e3e715d945b59290df0ae8ef85c1bdb6847446000806101000a81548173ffffffffffffffffffffffffffffffffffffffff021916908373ffffffffffffffffffffffffffffffffffffffff160217905550732791bca1f2de4661ed88a30c99a7a9449aa84174600160006101000a81548173ffffffffffffffffffffffffffffffffffffffff021916908373ffffffffffffffffffffffffffffffffffffffff16021790555073a3fa99a148fa48d14ed51d610c367c61876997f1600260006101000a81548173ffffffffffffffffffffffffffffffffffffffff021916908373ffffffffffffffffffffffffffffffffffffffff16021790555073a5e0829caced8ffdd4de3c43696c57f7d7a678ff600360006101000a81548173ffffffffffffffffffffffffffffffffffffffff021916908373ffffffffffffffffffffffffffffffffffffffff1602179055507353e0bca35ec356bd5dddfebbd1fc0fd03fabad39600860006101000a81548173ffffffffffffffffffffffffffffffffffffffff021916908373ffffffffffffffffffffffffffffffffffffffff1602179055507361167073e31b1dad85a3e531211c7b8f1e5cae72600960006101000a81548173ffffffffffffffffffffffffffffffffffffffff021916908373ffffffffffffffffffffffffffffffffffffffff1602179055503480156200020e57600080fd5b50600860009054906101000a900473ffffffffffffffffffffffffffffffffffffffff16600960009054906101000a900473ffffffffffffffffffffffffffffffffffffffff1660008054906101000a900473ffffffffffffffffffffffffffffffffffffffff168073ffffffffffffffffffffffffffffffffffffffff1660808173ffffffffffffffffffffffffffffffffffffffff16815250508073ffffffffffffffffffffffffffffffffffffffff16630261bf8b6040518163ffffffff167c010000000000000000000000000000000000000000000000000000000002815260040160206040518083038186803b1580156200030d57600080fd5b505afa15801562000322573d6000803e3d6000fd5b505050506040513d601f19601f8201168201806040525081019062000348919062000470565b73ffffffffffffffffffffffffffffffffffffffff1660a08173ffffffffffffffffffffffffffffffffffffffff16815250505080600560006101000a81548173ffffffffffffffffffffffffffffffffffffffff021916908373ffffffffffffffffffffffffffffffffffffffff16021790555081600660006101000a81548173ffffffffffffffffffffffffffffffffffffffff021916908373ffffffffffffffffffffffffffffffffffffffff1602179055505050620004a2565b600080fd5b600073ffffffffffffffffffffffffffffffffffffffff82169050919050565b600062000438826200040b565b9050919050565b6200044a816200042b565b81146200045657600080fd5b50565b6000815190506200046a816200043f565b92915050565b60006020828403121562000489576200048862000406565b5b6000620004998482850162000459565b91505092915050565b60805160a05161398c620004d660003960008181610a2e01528181610b17015261108f015260006102f3015261398c6000f3fe608060405234801561001057600080fd5b5060043610610112576000357c010000000000000000000000000000000000000000000000000000000090048063767a7b05116100b4578063d6d6817711610083578063d6d681771461026b578063d7f7e7d91461029b578063d8dfeb45146102b7578063ece13732146102d557610112565b8063767a7b05146101e3578063920f5c84146101ff5780639b816a471461022f578063b4dcfc771461024d57610112565b80635d12928b116100f05780635d12928b146101715780635e99a7571461017b578063607110581461019757806370974818146101c757610112565b80630542975c146101175780630654fc951461013557806322c40bdf14610153575b600080fd5b61011f6102f1565b60405161012c9190612864565b60405180910390f35b61013d610315565b60405161014a9190612947565b60405180910390f35b61015b6103aa565b6040516101689190612978565b60405180910390f35b610179610472565b005b610195600480360381019061019091906129d3565b6105da565b005b6101b160048036038101906101ac9190612a51565b6105f9565b6040516101be9190612978565b60405180910390f35b6101e160048036038101906101dc91906129d3565b610654565b005b6101fd60048036038101906101f891906129d3565b610723565b005b61021960048036038101906102149190612ba2565b610932565b6040516102269190612cb9565b60405180910390f35b610237610aef565b6040516102449190612ce3565b60405180910390f35b610255610b15565b6040516102629190612d1f565b60405180910390f35b61028560048036038101906102809190612a51565b610b39565b6040516102929190612978565b60405180910390f35b6102b560048036038101906102b091906129d3565b610b5e565b005b6102bf610c09565b6040516102cc9190612ce3565b60405180910390f35b6102ef60048036038101906102ea91906129d3565b610c2f565b005b7f000000000000000000000000000000000000000000000000000000000000000081565b6060600460003373ffffffffffffffffffffffffffffffffffffffff1673ffffffffffffffffffffffffffffffffffffffff1681526020019081526020016000208054806020026020016040519081016040528092919081815260200182805480156103a057602002820191906000526020600020905b81548152602001906001019080831161038c575b5050505050905090565b600080600560009054906101000a900473ffffffffffffffffffffffffffffffffffffffff1690508073ffffffffffffffffffffffffffffffffffffffff1663e5f4dc926040518163ffffffff167c010000000000000000000000000000000000000000000000000000000002815260040160206040518083038186803b15801561043457600080fd5b505afa158015610448573d6000803e3d6000fd5b505050506040513d601f19601f8201168201806040525081019061046c9190612d4f565b91505090565b6000600560009054906101000a900473ffffffffffffffffffffffffffffffffffffffff16905060008173ffffffffffffffffffffffffffffffffffffffff16635d12928b6040518163ffffffff167c0100000000000000000000000000000000000000000000000000000000028152600401602060405180830381600087803b1580156104ff57600080fd5b505af1158015610513573d6000803e3d6000fd5b505050506040513d601f19601f820116820180604052508101906105379190612d4f565b9050600460003373ffffffffffffffffffffffffffffffffffffffff1673ffffffffffffffffffffffffffffffffffffffff1681526020019081526020016000208190806001815401808255809150506001900390600052602060002001600090919091909150557f4111fcee61908834830adf60a520ba26d09f02fa4e00cfe3d2c134e32f3f8696816040516105ce9190612978565b60405180910390a15050565b81336105e68282610ce8565b506105f384846001610e08565b50505050565b6000600760008473ffffffffffffffffffffffffffffffffffffffff1673ffffffffffffffffffffffffffffffffffffffff168152602001908152602001600020600083815260200190815260200160002054905092915050565b81336106608282610ce8565b506000600560009054906101000a900473ffffffffffffffffffffffffffffffffffffffff1690508073ffffffffffffffffffffffffffffffffffffffff1663767a7b0586866040518363ffffffff167c01000000000000000000000000000000000000000000000000000000000281526004016106df929190612d7c565b600060405180830381600087803b1580156106f957600080fd5b505af115801561070d573d6000803e3d6000fd5b5050505061071c33868661114d565b5050505050565b813361072f8282610ce8565b5083836000600760003373ffffffffffffffffffffffffffffffffffffffff1673ffffffffffffffffffffffffffffffffffffffff1681526020019081526020016000206000848152602001908152602001600020549050818110156107ca576040517f08c379a00000000000000000000000000000000000000000000000000000000081526004016107c190612e02565b60405180910390fd5b600660009054906101000a900473ffffffffffffffffffffffffffffffffffffffff1673ffffffffffffffffffffffffffffffffffffffff1663095ea7b330886040518363ffffffff167c0100000000000000000000000000000000000000000000000000000000028152600401610843929190612e22565b602060405180830381600087803b15801561085d57600080fd5b505af1158015610871573d6000803e3d6000fd5b505050506040513d601f19601f820116820180604052508101906108959190612e77565b506108e5303388600660009054906101000a900473ffffffffffffffffffffffffffffffffffffffff1673ffffffffffffffffffffffffffffffffffffffff166111b9909392919063ffffffff16565b6108f033888861125e565b7f6c0ea3bea9dd66afa8f9d39d6eb93d833466190330813b42835efc650dca4cb98787604051610921929190612d7c565b60405180910390a150505050505050565b60008083838101906109449190612f1b565b509250505060008989600081811061095f5761095e612f82565b5b90506020020135905060008888600081811061097e5761097d612f82565b5b905060200201358b8b600081811061099957610998612f82565b5b905060200201356109aa9190612fe0565b905060008d8d60008181106109c2576109c1612f82565b5b90506020020160208101906109d79190613036565b905060008460ff1614156109f6576109f1838389896112ca565b610a10565b60018460ff161415610a0f57610a0e83838989611811565b5b5b8073ffffffffffffffffffffffffffffffffffffffff1663095ea7b37f0000000000000000000000000000000000000000000000000000000000000000846040518363ffffffff167c0100000000000000000000000000000000000000000000000000000000028152600401610a87929190612e22565b602060405180830381600087803b158015610aa157600080fd5b505af1158015610ab5573d6000803e3d6000fd5b505050506040513d601f19601f82011682018060405250810190610ad99190612e77565b5060019450505050509998505050505050505050565b600560009054906101000a900473ffffffffffffffffffffffffffffffffffffffff1681565b7f000000000000000000000000000000000000000000000000000000000000000081565b6007602052816000526040600020602052806000526040600020600091509150505481565b8133610b6a8282610ce8565b506000610b7733866105f9565b90506000610b836103aa565b60c8610b8f9190613063565b9050808286610b9e9190612fe0565b606487610bab9190613097565b610bb59190613120565b10610bf5576040517f08c379a0000000000000000000000000000000000000000000000000000000008152600401610bec9061319d565b60405180910390fd5b610c0186866000610e08565b505050505050565b600660009054906101000a900473ffffffffffffffffffffffffffffffffffffffff1681565b8133610c3b8282610ce8565b5060008311610c4957600080fd5b6000600660009054906101000a900473ffffffffffffffffffffffffffffffffffffffff169050610c9d3330868473ffffffffffffffffffffffffffffffffffffffff166111b9909392919063ffffffff16565b610ca833868661114d565b7f52c4e7127ec34e8fc95f09ce2d06b4f00acca12ccbcdfb246ef67ee6aefe068d8585604051610cd9929190612d7c565b60405180910390a15050505050565b600080600460008473ffffffffffffffffffffffffffffffffffffffff1673ffffffffffffffffffffffffffffffffffffffff168152602001908152602001600020805480602002602001604051908101604052809291908181526020018280548015610d7457602002820191906000526020600020905b815481526020019060010190808311610d60575b5050505050905060005b8151811015610dc65784828281518110610d9b57610d9a612f82565b5b60200260200101511415610db3578092505050610e02565b8080610dbe906131bd565b915050610d7e565b506040517f08c379a0000000000000000000000000000000000000000000000000000000008152600401610df990613252565b60405180910390fd5b92915050565b6000610e59600660009054906101000a900473ffffffffffffffffffffffffffffffffffffffff16600160009054906101000a900473ffffffffffffffffffffffffffffffffffffffff1685611df4565b905060018260ff161415610eb957610eb6600260009054906101000a900473ffffffffffffffffffffffffffffffffffffffff16600160009054906101000a900473ffffffffffffffffffffffffffffffffffffffff1685611df4565b90505b60003090506000600167ffffffffffffffff811115610edb57610eda613272565b5b604051908082528060200260200182016040528015610f095781602001602082028036833780820191505090505b509050600160009054906101000a900473ffffffffffffffffffffffffffffffffffffffff1681600081518110610f4357610f42612f82565b5b602002602001019073ffffffffffffffffffffffffffffffffffffffff16908173ffffffffffffffffffffffffffffffffffffffff16815250506000600167ffffffffffffffff811115610f9a57610f99613272565b5b604051908082528060200260200182016040528015610fc85781602001602082028036833780820191505090505b5090508381600081518110610fe057610fdf612f82565b5b6020026020010181815250506000600167ffffffffffffffff81111561100957611008613272565b5b6040519080825280602002602001820160405280156110375781602001602082028036833780820191505090505b5090506000816000815181106110505761104f612f82565b5b602002602001018181525050600030905060008933898b60405160200161107a94939291906132b0565b604051602081830303815290604052905060007f000000000000000000000000000000000000000000000000000000000000000073ffffffffffffffffffffffffffffffffffffffff1663ab9c4b5d888888888888886040518863ffffffff167c010000000000000000000000000000000000000000000000000000000002815260040161110e9796959493929190613469565b600060405180830381600087803b15801561112857600080fd5b505af115801561113c573d6000803e3d6000fd5b505050505050505050505050505050565b80600760008573ffffffffffffffffffffffffffffffffffffffff1673ffffffffffffffffffffffffffffffffffffffff168152602001908152602001600020600084815260200190815260200160002060008282546111ad9190612fe0565b92505081905550505050565b611258846323b872dd7c0100000000000000000000000000000000000000000000000000000000028585856040516024016111f6939291906134f4565b604051602081830303815290604052907bffffffffffffffffffffffffffffffffffffffffffffffffffffffff19166020820180517bffffffffffffffffffffffffffffffffffffffffffffffffffffffff8381831617835250505050611fdb565b50505050565b80600760008573ffffffffffffffffffffffffffffffffffffffff1673ffffffffffffffffffffffffffffffffffffffff168152602001908152602001600020600084815260200190815260200160002060008282546112be9190613063565b92505081905550505050565b600080600084848101906112de9190612f1b565b93505092509250600160009054906101000a900473ffffffffffffffffffffffffffffffffffffffff1673ffffffffffffffffffffffffffffffffffffffff1663095ea7b3600360009054906101000a900473ffffffffffffffffffffffffffffffffffffffff16896040518363ffffffff167c0100000000000000000000000000000000000000000000000000000000028152600401611380929190612e22565b602060405180830381600087803b15801561139a57600080fd5b505af11580156113ae573d6000803e3d6000fd5b505050506040513d601f19601f820116820180604052508101906113d29190612e77565b506000600360009054906101000a900473ffffffffffffffffffffffffffffffffffffffff1673ffffffffffffffffffffffffffffffffffffffff16638803dbee838a611463600160009054906101000a900473ffffffffffffffffffffffffffffffffffffffff16600660009054906101000a900473ffffffffffffffffffffffffffffffffffffffff166120a2565b30426040518663ffffffff167c01000000000000000000000000000000000000000000000000000000000281526004016114a195949392919061352b565b600060405180830381600087803b1580156114bb57600080fd5b505af11580156114cf573d6000803e3d6000fd5b505050506040513d6000823e3d601f19601f820116820180604052508101906114f89190613694565b90508060008151811061150e5761150d612f82565b5b6020026020010151886115219190613063565b8761152c9190613063565b9650600061153a84866105f9565b836115459190612fe0565b9050611551858261219a565b611565848661156087896105f9565b61125e565b60006115b6600160009054906101000a900473ffffffffffffffffffffffffffffffffffffffff16600260009054906101000a900473ffffffffffffffffffffffffffffffffffffffff168b611df4565b90506115c28682612380565b600260009054906101000a900473ffffffffffffffffffffffffffffffffffffffff1673ffffffffffffffffffffffffffffffffffffffff1663095ea7b3600360009054906101000a900473ffffffffffffffffffffffffffffffffffffffff16836040518363ffffffff167c010000000000000000000000000000000000000000000000000000000002815260040161165d929190612e22565b602060405180830381600087803b15801561167757600080fd5b505af115801561168b573d6000803e3d6000fd5b505050506040513d601f19601f820116820180604052508101906116af9190612e77565b50600360009054906101000a900473ffffffffffffffffffffffffffffffffffffffff1673ffffffffffffffffffffffffffffffffffffffff16638803dbee8a8361173e600260009054906101000a900473ffffffffffffffffffffffffffffffffffffffff16600160009054906101000a900473ffffffffffffffffffffffffffffffffffffffff166120a2565b30426040518663ffffffff167c010000000000000000000000000000000000000000000000000000000002815260040161177c95949392919061352b565b600060405180830381600087803b15801561179657600080fd5b505af11580156117aa573d6000803e3d6000fd5b505050506040513d6000823e3d601f19601f820116820180604052508101906117d39190613694565b925061180586846000815181106117ed576117ec612f82565b5b6020026020010151836118009190613063565b61247b565b50505050505050505050565b60008083838101906118239190612f1b565b935050509150600160009054906101000a900473ffffffffffffffffffffffffffffffffffffffff1673ffffffffffffffffffffffffffffffffffffffff1663095ea7b3600360009054906101000a900473ffffffffffffffffffffffffffffffffffffffff16886040518363ffffffff167c01000000000000000000000000000000000000000000000000000000000281526004016118c4929190612e22565b602060405180830381600087803b1580156118de57600080fd5b505af11580156118f2573d6000803e3d6000fd5b505050506040513d601f19601f820116820180604052508101906119169190612e77565b506000600360009054906101000a900473ffffffffffffffffffffffffffffffffffffffff1673ffffffffffffffffffffffffffffffffffffffff16638803dbee83896119a7600160009054906101000a900473ffffffffffffffffffffffffffffffffffffffff16600260009054906101000a900473ffffffffffffffffffffffffffffffffffffffff166120a2565b30426040518663ffffffff167c01000000000000000000000000000000000000000000000000000000000281526004016119e595949392919061352b565b600060405180830381600087803b1580156119ff57600080fd5b505af1158015611a13573d6000803e3d6000fd5b505050506040513d6000823e3d601f19601f82011682018060405250810190611a3c9190613694565b905080600081518110611a5257611a51612f82565b5b602002602001015187611a659190613063565b86611a709190613063565b9550611aa3838260018451611a859190613063565b81518110611a9657611a95612f82565b5b602002602001015161247b565b6000611af4600160009054906101000a900473ffffffffffffffffffffffffffffffffffffffff16600660009054906101000a900473ffffffffffffffffffffffffffffffffffffffff1689611df4565b90506000600560009054906101000a900473ffffffffffffffffffffffffffffffffffffffff1690508073ffffffffffffffffffffffffffffffffffffffff1663767a7b0586846040518363ffffffff167c0100000000000000000000000000000000000000000000000000000000028152600401611b74929190612d7c565b600060405180830381600087803b158015611b8e57600080fd5b505af1158015611ba2573d6000803e3d6000fd5b50505050600660009054906101000a900473ffffffffffffffffffffffffffffffffffffffff1673ffffffffffffffffffffffffffffffffffffffff1663095ea7b3600360009054906101000a900473ffffffffffffffffffffffffffffffffffffffff16846040518363ffffffff167c0100000000000000000000000000000000000000000000000000000000028152600401611c41929190612e22565b602060405180830381600087803b158015611c5b57600080fd5b505af1158015611c6f573d6000803e3d6000fd5b505050506040513d601f19601f82011682018060405250810190611c939190612e77565b50600360009054906101000a900473ffffffffffffffffffffffffffffffffffffffff1673ffffffffffffffffffffffffffffffffffffffff16638803dbee8984611d22600660009054906101000a900473ffffffffffffffffffffffffffffffffffffffff16600160009054906101000a900473ffffffffffffffffffffffffffffffffffffffff166120a2565b30426040518663ffffffff167c0100000000000000000000000000000000000000000000000000000000028152600401611d6095949392919061352b565b600060405180830381600087803b158015611d7a57600080fd5b505af1158015611d8e573d6000803e3d6000fd5b505050506040513d6000823e3d601f19601f82011682018060405250810190611db79190613694565b9250611de98584600081518110611dd157611dd0612f82565b5b602002602001015184611de49190613063565b61219a565b505050505050505050565b60006060600267ffffffffffffffff811115611e1357611e12613272565b5b604051908082528060200260200182016040528015611e415781602001602082028036833780820191505090505b5090508381600081518110611e5957611e58612f82565b5b602002602001019073ffffffffffffffffffffffffffffffffffffffff16908173ffffffffffffffffffffffffffffffffffffffff16815250508481600181518110611ea857611ea7612f82565b5b602002602001019073ffffffffffffffffffffffffffffffffffffffff16908173ffffffffffffffffffffffffffffffffffffffff16815250506000600360009054906101000a900473ffffffffffffffffffffffffffffffffffffffff1673ffffffffffffffffffffffffffffffffffffffff16631f00ca7485846040518363ffffffff167c0100000000000000000000000000000000000000000000000000000000028152600401611f5d9291906136dd565b60006040518083038186803b158015611f7557600080fd5b505afa158015611f89573d6000803e3d6000fd5b505050506040513d6000823e3d601f19601f82011682018060405250810190611fb29190613694565b905080600081518110611fc857611fc7612f82565b5b6020026020010151925050509392505050565b600061203d826040518060400160405280602081526020017f5361666545524332303a206c6f772d6c6576656c2063616c6c206661696c65648152508573ffffffffffffffffffffffffffffffffffffffff166126289092919063ffffffff16565b905060008151111561209d578080602001905181019061205d9190612e77565b61209c576040517f08c379a00000000000000000000000000000000000000000000000000000000081526004016120939061377f565b60405180910390fd5b5b505050565b60606000600267ffffffffffffffff8111156120c1576120c0613272565b5b6040519080825280602002602001820160405280156120ef5781602001602082028036833780820191505090505b509050838160008151811061210757612106612f82565b5b602002602001019073ffffffffffffffffffffffffffffffffffffffff16908173ffffffffffffffffffffffffffffffffffffffff1681525050828160018151811061215657612155612f82565b5b602002602001019073ffffffffffffffffffffffffffffffffffffffff16908173ffffffffffffffffffffffffffffffffffffffff16815250508091505092915050565b600081111561237c57600660009054906101000a900473ffffffffffffffffffffffffffffffffffffffff1673ffffffffffffffffffffffffffffffffffffffff1663095ea7b3600560009054906101000a900473ffffffffffffffffffffffffffffffffffffffff16836040518363ffffffff167c010000000000000000000000000000000000000000000000000000000002815260040161223e929190612e22565b602060405180830381600087803b15801561225857600080fd5b505af115801561226c573d6000803e3d6000fd5b505050506040513d601f19601f820116820180604052508101906122909190612e77565b506000600560009054906101000a900473ffffffffffffffffffffffffffffffffffffffff1690508073ffffffffffffffffffffffffffffffffffffffff1663ece1373284846040518363ffffffff167c010000000000000000000000000000000000000000000000000000000002815260040161230f929190612d7c565b600060405180830381600087803b15801561232957600080fd5b505af115801561233d573d6000803e3d6000fd5b505050507f384e670e6ba4ba20a0b47430004cafc414f189f055d6062efbdde32bd3e685718383604051612372929190612d7c565b60405180910390a1505b5050565b6000811161238d57600080fd5b6000600560009054906101000a900473ffffffffffffffffffffffffffffffffffffffff1690508073ffffffffffffffffffffffffffffffffffffffff166308ec592784846040518363ffffffff167c010000000000000000000000000000000000000000000000000000000002815260040161240b929190612d7c565b600060405180830381600087803b15801561242557600080fd5b505af1158015612439573d6000803e3d6000fd5b505050507f51a29493de16a5062d1e6a64c674efde98d9d62c8f01941282ccdb1dab9eb814838360405161246e929190612d7c565b60405180910390a1505050565b600081111561262457600260009054906101000a900473ffffffffffffffffffffffffffffffffffffffff1673ffffffffffffffffffffffffffffffffffffffff1663095ea7b3600560009054906101000a900473ffffffffffffffffffffffffffffffffffffffff16836040518363ffffffff167c010000000000000000000000000000000000000000000000000000000002815260040161251f929190612e22565b602060405180830381600087803b15801561253957600080fd5b505af115801561254d573d6000803e3d6000fd5b505050506040513d601f19601f820116820180604052508101906125719190612e77565b506000600560009054906101000a900473ffffffffffffffffffffffffffffffffffffffff1690508073ffffffffffffffffffffffffffffffffffffffff166385af3c1684846040518363ffffffff167c01000000000000000000000000000000000000000000000000000000000281526004016125f0929190612d7c565b600060405180830381600087803b15801561260a57600080fd5b505af115801561261e573d6000803e3d6000fd5b50505050505b5050565b60606126378484600085612640565b90509392505050565b6060823073ffffffffffffffffffffffffffffffffffffffff1631101561269c576040517f08c379a000000000000000000000000000000000000000000000000000000000815260040161269390613811565b60405180910390fd5b6126a58561276b565b6126e4576040517f08c379a00000000000000000000000000000000000000000000000000000000081526004016126db9061387d565b60405180910390fd5b6000808673ffffffffffffffffffffffffffffffffffffffff16858760405161270d91906138d9565b60006040518083038185875af1925050503d806000811461274a576040519150601f19603f3d011682016040523d82523d6000602084013e61274f565b606091505b509150915061275f82828661277e565b92505050949350505050565b600080823b905060008111915050919050565b6060831561278e578290506127de565b6000835111156127a15782518084602001fd5b816040517f08c379a00000000000000000000000000000000000000000000000000000000081526004016127d59190613934565b60405180910390fd5b9392505050565b600073ffffffffffffffffffffffffffffffffffffffff82169050919050565b6000819050919050565b600061282a612825612820846127e5565b612805565b6127e5565b9050919050565b600061283c8261280f565b9050919050565b600061284e82612831565b9050919050565b61285e81612843565b82525050565b60006020820190506128796000830184612855565b92915050565b600081519050919050565b600082825260208201905092915050565b6000819050602082019050919050565b6000819050919050565b6128be816128ab565b82525050565b60006128d083836128b5565b60208301905092915050565b6000602082019050919050565b60006128f48261287f565b6128fe818561288a565b93506129098361289b565b8060005b8381101561293a57815161292188826128c4565b975061292c836128dc565b92505060018101905061290d565b5085935050505092915050565b6000602082019050818103600083015261296181846128e9565b905092915050565b612972816128ab565b82525050565b600060208201905061298d6000830184612969565b92915050565b6000604051905090565b600080fd5b600080fd5b6129b0816128ab565b81146129bb57600080fd5b50565b6000813590506129cd816129a7565b92915050565b600080604083850312156129ea576129e961299d565b5b60006129f8858286016129be565b9250506020612a09858286016129be565b9150509250929050565b6000612a1e826127e5565b9050919050565b612a2e81612a13565b8114612a3957600080fd5b50565b600081359050612a4b81612a25565b92915050565b60008060408385031215612a6857612a6761299d565b5b6000612a7685828601612a3c565b9250506020612a87858286016129be565b9150509250929050565b600080fd5b600080fd5b600080fd5b60008083601f840112612ab657612ab5612a91565b5b8235905067ffffffffffffffff811115612ad357612ad2612a96565b5b602083019150836020820283011115612aef57612aee612a9b565b5b9250929050565b60008083601f840112612b0c57612b0b612a91565b5b8235905067ffffffffffffffff811115612b2957612b28612a96565b5b602083019150836020820283011115612b4557612b44612a9b565b5b9250929050565b60008083601f840112612b6257612b61612a91565b5b8235905067ffffffffffffffff811115612b7f57612b7e612a96565b5b602083019150836001820283011115612b9b57612b9a612a9b565b5b9250929050565b600080600080600080600080600060a08a8c031215612bc457612bc361299d565b5b60008a013567ffffffffffffffff811115612be257612be16129a2565b5b612bee8c828d01612aa0565b995099505060208a013567ffffffffffffffff811115612c1157612c106129a2565b5b612c1d8c828d01612af6565b975097505060408a013567ffffffffffffffff811115612c4057612c3f6129a2565b5b612c4c8c828d01612af6565b95509550506060612c5f8c828d01612a3c565b93505060808a013567ffffffffffffffff811115612c8057612c7f6129a2565b5b612c8c8c828d01612b4c565b92509250509295985092959850929598565b60008115159050919050565b612cb381612c9e565b82525050565b6000602082019050612cce6000830184612caa565b92915050565b612cdd81612a13565b82525050565b6000602082019050612cf86000830184612cd4565b92915050565b6000612d0982612831565b9050919050565b612d1981612cfe565b82525050565b6000602082019050612d346000830184612d10565b92915050565b600081519050612d49816129a7565b92915050565b600060208284031215612d6557612d6461299d565b5b6000612d7384828501612d3a565b91505092915050565b6000604082019050612d916000830185612969565b612d9e6020830184612969565b9392505050565b600082825260208201905092915050565b7f414d4f554e545f494e53554646494349454e5400000000000000000000000000600082015250565b6000612dec601383612da5565b9150612df782612db6565b602082019050919050565b60006020820190508181036000830152612e1b81612ddf565b9050919050565b6000604082019050612e376000830185612cd4565b612e446020830184612969565b9392505050565b612e5481612c9e565b8114612e5f57600080fd5b50565b600081519050612e7181612e4b565b92915050565b600060208284031215612e8d57612e8c61299d565b5b6000612e9b84828501612e62565b91505092915050565b6000612eaf826127e5565b9050919050565b612ebf81612ea4565b8114612eca57600080fd5b50565b600081359050612edc81612eb6565b92915050565b600060ff82169050919050565b612ef881612ee2565b8114612f0357600080fd5b50565b600081359050612f1581612eef565b92915050565b60008060008060808587031215612f3557612f3461299d565b5b6000612f43878288016129be565b9450506020612f5487828801612ecd565b9350506040612f6587828801612f06565b9250506060612f76878288016129be565b91505092959194509250565b7f4e487b7100000000000000000000000000000000000000000000000000000000600052603260045260246000fd5b7f4e487b7100000000000000000000000000000000000000000000000000000000600052601160045260246000fd5b6000612feb826128ab565b9150612ff6836128ab565b9250827fffffffffffffffffffffffffffffffffffffffffffffffffffffffffffffffff0382111561302b5761302a612fb1565b5b828201905092915050565b60006020828403121561304c5761304b61299d565b5b600061305a84828501612a3c565b91505092915050565b600061306e826128ab565b9150613079836128ab565b92508282101561308c5761308b612fb1565b5b828203905092915050565b60006130a2826128ab565b91506130ad836128ab565b9250817fffffffffffffffffffffffffffffffffffffffffffffffffffffffffffffffff04831182151516156130e6576130e5612fb1565b5b828202905092915050565b7f4e487b7100000000000000000000000000000000000000000000000000000000600052601260045260246000fd5b600061312b826128ab565b9150613136836128ab565b925082613146576131456130f1565b5b828204905092915050565b7f4e4f545f454e4f5547485f434f4c4c41544552414c0000000000000000000000600082015250565b6000613187601583612da5565b915061319282613151565b602082019050919050565b600060208201905081810360008301526131b68161317a565b9050919050565b60006131c8826128ab565b91507fffffffffffffffffffffffffffffffffffffffffffffffffffffffffffffffff8214156131fb576131fa612fb1565b5b600182019050919050565b7f555345525f4e4f545f4f574e4552000000000000000000000000000000000000600082015250565b600061323c600e83612da5565b915061324782613206565b602082019050919050565b6000602082019050818103600083015261326b8161322f565b9050919050565b7f4e487b7100000000000000000000000000000000000000000000000000000000600052604160045260246000fd5b6132aa81612ee2565b82525050565b60006080820190506132c56000830187612969565b6132d26020830186612cd4565b6132df60408301856132a1565b6132ec6060830184612969565b95945050505050565b600081519050919050565b600082825260208201905092915050565b6000819050602082019050919050565b61332a81612a13565b82525050565b600061333c8383613321565b60208301905092915050565b6000602082019050919050565b6000613360826132f5565b61336a8185613300565b935061337583613311565b8060005b838110156133a657815161338d8882613330565b975061339883613348565b925050600181019050613379565b5085935050505092915050565b600081519050919050565b600082825260208201905092915050565b60005b838110156133ed5780820151818401526020810190506133d2565b838111156133fc576000848401525b50505050565b6000601f19601f8301169050919050565b600061341e826133b3565b61342881856133be565b93506134388185602086016133cf565b61344181613402565b840191505092915050565b600061ffff82169050919050565b6134638161344c565b82525050565b600060e08201905061347e600083018a612cd4565b81810360208301526134908189613355565b905081810360408301526134a481886128e9565b905081810360608301526134b881876128e9565b90506134c76080830186612cd4565b81810360a08301526134d98185613413565b90506134e860c083018461345a565b98975050505050505050565b60006060820190506135096000830186612cd4565b6135166020830185612cd4565b6135236040830184612969565b949350505050565b600060a0820190506135406000830188612969565b61354d6020830187612969565b818103604083015261355f8186613355565b905061356e6060830185612cd4565b61357b6080830184612969565b9695505050505050565b61358e82613402565b810181811067ffffffffffffffff821117156135ad576135ac613272565b5b80604052505050565b60006135c0612993565b90506135cc8282613585565b919050565b600067ffffffffffffffff8211156135ec576135eb613272565b5b602082029050602081019050919050565b600061361061360b846135d1565b6135b6565b9050808382526020820190506020840283018581111561363357613632612a9b565b5b835b8181101561365c57806136488882612d3a565b845260208401935050602081019050613635565b5050509392505050565b600082601f83011261367b5761367a612a91565b5b815161368b8482602086016135fd565b91505092915050565b6000602082840312156136aa576136a961299d565b5b600082015167ffffffffffffffff8111156136c8576136c76129a2565b5b6136d484828501613666565b91505092915050565b60006040820190506136f26000830185612969565b81810360208301526137048184613355565b90509392505050565b7f5361666545524332303a204552433230206f7065726174696f6e20646964206e60008201527f6f74207375636365656400000000000000000000000000000000000000000000602082015250565b6000613769602a83612da5565b91506137748261370d565b604082019050919050565b600060208201905081810360008301526137988161375c565b9050919050565b7f416464726573733a20696e73756666696369656e742062616c616e636520666f60008201527f722063616c6c0000000000000000000000000000000000000000000000000000602082015250565b60006137fb602683612da5565b91506138068261379f565b604082019050919050565b6000602082019050818103600083015261382a816137ee565b9050919050565b7f416464726573733a2063616c6c20746f206e6f6e2d636f6e7472616374000000600082015250565b6000613867601d83612da5565b915061387282613831565b602082019050919050565b600060208201905081810360008301526138968161385a565b9050919050565b600081905092915050565b60006138b3826133b3565b6138bd818561389d565b93506138cd8185602086016133cf565b80840191505092915050565b60006138e582846138a8565b915081905092915050565b600081519050919050565b6000613906826138f0565b6139108185612da5565b93506139208185602086016133cf565b61392981613402565b840191505092915050565b6000602082019050818103600083015261394e81846138fb565b90509291505056fea2646970667358221220cf3a5bd2b971daa70d5aeb5f3fe109aabde9502ab750751b4a29d00ff117f31a64736f6c63430008090033",
  "immutableReferences": {
    "930": [
      {
        "length": 32,
        "start": 755
      }
    ],
    "933": [
      {
        "length": 32,
        "start": 2606
      },
      {
        "length": 32,
        "start": 2839
      },
      {
        "length": 32,
        "start": 4239
      }
    ]
  },
  "source": "// SPDX-License-Identifier: MIT\npragma solidity >=0.8.9;\n\nimport {VaultLongMaiFinance} from \"./VaultLongMaiFinance.sol\";\n\ncontract LinkVaultLong is VaultLongMaiFinance {\n    address LINK_COLLATERAL = 0x53E0bca35eC356BD5ddDFebbD1Fc0fD03FaBad39;\n    address MAI_LINK_VAULT = 0x61167073E31b1DAd85a3E531211c7B8F1E5cAE72;\n\n    constructor() VaultLongMaiFinance(LINK_COLLATERAL, MAI_LINK_VAULT) {}\n}\n",
  "sourcePath": "/media/nello/Data/dev/blockchain/Consensys/blockchain-developer-bootcamp-final-project/contracts/LinkVaultLong.sol",
  "compiler": {
    "name": "solc",
    "version": "0.8.9+commit.e5eed63a.Emscripten.clang"
  },
  "schemaVersion": "3.4.3",
  "updatedAt": "2021-11-03T16:17:56.635Z",
  "networkType": "ethereum",
  "devdoc": {
    "kind": "dev",
    "methods": {},
    "version": 1
  },
  "userdoc": {
    "kind": "user",
    "methods": {
      "executeOperation(address[],uint256[],uint256[],address,bytes)": {
        "notice": "This function is called after the contract has received the flash loaned amount"
      }
    },
    "version": 1
  }
}