{
    "contractName": "LinkVaultLong",
    "abi": [
        {
            "inputs": [],
            "stateMutability": "nonpayable",
            "type": "constructor"
        },
        {
            "anonymous": false,
            "inputs": [
                {
                    "indexed": true,
                    "internalType": "address",
                    "name": "user",
                    "type": "address"
                },
                {
                    "indexed": false,
                    "internalType": "uint256",
                    "name": "claimed",
                    "type": "uint256"
                }
            ],
            "name": "ClaimRewardsFor",
            "type": "event"
        },
        {
            "anonymous": false,
            "inputs": [
                {
                    "indexed": false,
                    "internalType": "uint256",
                    "name": "vaultId",
                    "type": "uint256"
                },
                {
                    "indexed": false,
                    "internalType": "uint256",
                    "name": "amount",
                    "type": "uint256"
                }
            ],
            "name": "Deposit",
            "type": "event"
        },
        {
            "anonymous": false,
            "inputs": [
                {
                    "indexed": false,
                    "internalType": "uint256",
                    "name": "vaultId",
                    "type": "uint256"
                },
                {
                    "indexed": false,
                    "internalType": "uint256",
                    "name": "longAmount",
                    "type": "uint256"
                },
                {
                    "indexed": false,
                    "internalType": "uint256",
                    "name": "initialDeposit",
                    "type": "uint256"
                }
            ],
            "name": "LongAsset",
            "type": "event"
        },
        {
            "anonymous": false,
            "inputs": [
                {
                    "indexed": true,
                    "internalType": "address",
                    "name": "previousOwner",
                    "type": "address"
                },
                {
                    "indexed": true,
                    "internalType": "address",
                    "name": "newOwner",
                    "type": "address"
                }
            ],
            "name": "OwnershipTransferred",
            "type": "event"
        },
        {
            "anonymous": false,
            "inputs": [
                {
                    "indexed": false,
                    "internalType": "uint256",
                    "name": "vaultId",
                    "type": "uint256"
                },
                {
                    "indexed": false,
                    "internalType": "uint256",
                    "name": "debtAmountToReduce",
                    "type": "uint256"
                }
            ],
            "name": "ReduceLong",
            "type": "event"
        },
        {
            "anonymous": false,
            "inputs": [
                {
                    "indexed": false,
                    "internalType": "uint256",
                    "name": "vaultId",
                    "type": "uint256"
                },
                {
                    "indexed": false,
                    "internalType": "uint256",
                    "name": "amount",
                    "type": "uint256"
                }
            ],
            "name": "Repay",
            "type": "event"
        },
        {
            "anonymous": false,
            "inputs": [
                {
                    "indexed": false,
                    "internalType": "uint256",
                    "name": "vaultId",
                    "type": "uint256"
                }
            ],
            "name": "VaultCreated",
            "type": "event"
        },
        {
            "anonymous": false,
            "inputs": [
                {
                    "indexed": false,
                    "internalType": "uint256",
                    "name": "vaultId",
                    "type": "uint256"
                },
                {
                    "indexed": false,
                    "internalType": "uint256",
                    "name": "amount",
                    "type": "uint256"
                }
            ],
            "name": "WithdrawCollateral",
            "type": "event"
        },
        {
            "inputs": [],
            "name": "ADDRESSES_PROVIDER",
            "outputs": [
                {
                    "internalType": "contract ILendingPoolAddressesProvider",
                    "name": "",
                    "type": "address"
                }
            ],
            "stateMutability": "view",
            "type": "function",
            "constant": true
        },
        {
            "inputs": [],
            "name": "LENDING_POOL",
            "outputs": [
                {
                    "internalType": "contract ILendingPool",
                    "name": "",
                    "type": "address"
                }
            ],
            "stateMutability": "view",
            "type": "function",
            "constant": true
        },
        {
            "inputs": [
                {
                    "internalType": "uint256",
                    "name": "",
                    "type": "uint256"
                }
            ],
            "name": "balanceRewardsByPeriod",
            "outputs": [
                {
                    "internalType": "uint256",
                    "name": "",
                    "type": "uint256"
                }
            ],
            "stateMutability": "view",
            "type": "function",
            "constant": true
        },
        {
            "inputs": [],
            "name": "blocksByPeriod",
            "outputs": [
                {
                    "internalType": "uint256",
                    "name": "",
                    "type": "uint256"
                }
            ],
            "stateMutability": "view",
            "type": "function",
            "constant": true
        },
        {
            "inputs": [
                {
                    "internalType": "address",
                    "name": "user",
                    "type": "address"
                }
            ],
            "name": "claimRewardsFor",
            "outputs": [],
            "stateMutability": "nonpayable",
            "type": "function"
        },
        {
            "inputs": [
                {
                    "internalType": "address",
                    "name": "user",
                    "type": "address"
                }
            ],
            "name": "claimableRewards",
            "outputs": [
                {
                    "internalType": "uint256",
                    "name": "",
                    "type": "uint256"
                }
            ],
            "stateMutability": "view",
            "type": "function",
            "constant": true
        },
        {
            "inputs": [],
            "name": "collateral",
            "outputs": [
                {
                    "internalType": "address",
                    "name": "",
                    "type": "address"
                }
            ],
            "stateMutability": "view",
            "type": "function",
            "constant": true
        },
        {
            "inputs": [],
            "name": "createVault",
            "outputs": [],
            "stateMutability": "nonpayable",
            "type": "function"
        },
        {
            "inputs": [],
            "name": "currentBlockStart",
            "outputs": [
                {
                    "internalType": "uint256",
                    "name": "",
                    "type": "uint256"
                }
            ],
            "stateMutability": "view",
            "type": "function",
            "constant": true
        },
        {
            "inputs": [
                {
                    "internalType": "address",
                    "name": "",
                    "type": "address"
                }
            ],
            "name": "currentUserBlockStart",
            "outputs": [
                {
                    "internalType": "uint256",
                    "name": "",
                    "type": "uint256"
                }
            ],
            "stateMutability": "view",
            "type": "function",
            "constant": true
        },
        {
            "inputs": [
                {
                    "internalType": "uint256",
                    "name": "vaultId",
                    "type": "uint256"
                },
                {
                    "internalType": "uint256",
                    "name": "amount",
                    "type": "uint256"
                }
            ],
            "name": "deposit",
            "outputs": [],
            "stateMutability": "nonpayable",
            "type": "function"
        },
        {
            "inputs": [
                {
                    "internalType": "address[]",
                    "name": "assets",
                    "type": "address[]"
                },
                {
                    "internalType": "uint256[]",
                    "name": "amounts",
                    "type": "uint256[]"
                },
                {
                    "internalType": "uint256[]",
                    "name": "premiums",
                    "type": "uint256[]"
                },
                {
                    "internalType": "address",
                    "name": "initiator",
                    "type": "address"
                },
                {
                    "internalType": "bytes",
                    "name": "params",
                    "type": "bytes"
                }
            ],
            "name": "executeOperation",
            "outputs": [
                {
                    "internalType": "bool",
                    "name": "",
                    "type": "bool"
                }
            ],
            "stateMutability": "nonpayable",
            "type": "function"
        },
        {
            "inputs": [
                {
                    "internalType": "address",
                    "name": "_tokenIn",
                    "type": "address"
                },
                {
                    "internalType": "address",
                    "name": "_tokenOut",
                    "type": "address"
                },
                {
                    "internalType": "uint256",
                    "name": "_amountOut",
                    "type": "uint256"
                }
            ],
            "name": "getAmountInMin",
            "outputs": [
                {
                    "internalType": "uint256",
                    "name": "",
                    "type": "uint256"
                }
            ],
            "stateMutability": "view",
            "type": "function",
            "constant": true
        },
        {
            "inputs": [
                {
                    "internalType": "address",
                    "name": "_tokenIn",
                    "type": "address"
                },
                {
                    "internalType": "address",
                    "name": "_tokenOut",
                    "type": "address"
                },
                {
                    "internalType": "uint256",
                    "name": "_amountIn",
                    "type": "uint256"
                }
            ],
            "name": "getAmountOutMin",
            "outputs": [
                {
                    "internalType": "uint256",
                    "name": "",
                    "type": "uint256"
                }
            ],
            "stateMutability": "view",
            "type": "function",
            "constant": true
        },
        {
            "inputs": [
                {
                    "internalType": "uint256",
                    "name": "amount",
                    "type": "uint256"
                }
            ],
            "name": "getMAIDebtForAmount",
            "outputs": [
                {
                    "internalType": "uint256",
                    "name": "",
                    "type": "uint256"
                }
            ],
            "stateMutability": "view",
            "type": "function",
            "constant": true
        },
        {
            "inputs": [
                {
                    "internalType": "uint256",
                    "name": "vaultId",
                    "type": "uint256"
                }
            ],
            "name": "getMaxWithdrawableCollateral",
            "outputs": [
                {
                    "internalType": "uint256",
                    "name": "",
                    "type": "uint256"
                }
            ],
            "stateMutability": "view",
            "type": "function",
            "constant": true
        },
        {
            "inputs": [],
            "name": "getMinimumCollateralPercentage",
            "outputs": [
                {
                    "internalType": "uint256",
                    "name": "",
                    "type": "uint256"
                }
            ],
            "stateMutability": "view",
            "type": "function",
            "constant": true
        },
        {
            "inputs": [],
            "name": "getMultiplicatorMax100th",
            "outputs": [
                {
                    "internalType": "uint256",
                    "name": "",
                    "type": "uint256"
                }
            ],
            "stateMutability": "view",
            "type": "function",
            "constant": true
        },
        {
            "inputs": [
                {
                    "internalType": "address",
                    "name": "token1",
                    "type": "address"
                },
                {
                    "internalType": "address",
                    "name": "token2",
                    "type": "address"
                }
            ],
            "name": "getPathSwap",
            "outputs": [
                {
                    "internalType": "address[]",
                    "name": "",
                    "type": "address[]"
                }
            ],
            "stateMutability": "pure",
            "type": "function",
            "constant": true
        },
        {
            "inputs": [],
            "name": "getUserVaultList",
            "outputs": [
                {
                    "internalType": "uint256[]",
                    "name": "",
                    "type": "uint256[]"
                }
            ],
            "stateMutability": "view",
            "type": "function",
            "constant": true
        },
        {
            "inputs": [],
            "name": "lastBlockUpdate",
            "outputs": [
                {
                    "internalType": "uint256",
                    "name": "",
                    "type": "uint256"
                }
            ],
            "stateMutability": "view",
            "type": "function",
            "constant": true
        },
        {
            "inputs": [
                {
                    "internalType": "address",
                    "name": "",
                    "type": "address"
                }
            ],
            "name": "lastBlockUserUpdate",
            "outputs": [
                {
                    "internalType": "uint256",
                    "name": "",
                    "type": "uint256"
                }
            ],
            "stateMutability": "view",
            "type": "function",
            "constant": true
        },
        {
            "inputs": [
                {
                    "internalType": "uint256",
                    "name": "vaultId",
                    "type": "uint256"
                },
                {
                    "internalType": "uint256",
                    "name": "longAmount",
                    "type": "uint256"
                },
                {
                    "internalType": "uint256",
                    "name": "initialDeposit",
                    "type": "uint256"
                }
            ],
            "name": "longAsset",
            "outputs": [],
            "stateMutability": "nonpayable",
            "type": "function"
        },
        {
            "inputs": [],
            "name": "maiVault",
            "outputs": [
                {
                    "internalType": "address",
                    "name": "",
                    "type": "address"
                }
            ],
            "stateMutability": "view",
            "type": "function",
            "constant": true
        },
        {
            "inputs": [],
            "name": "owner",
            "outputs": [
                {
                    "internalType": "address",
                    "name": "",
                    "type": "address"
                }
            ],
            "stateMutability": "view",
            "type": "function",
            "constant": true
        },
        {
            "inputs": [
                {
                    "internalType": "uint256",
                    "name": "vaultId",
                    "type": "uint256"
                },
                {
                    "internalType": "uint256",
                    "name": "debtAmountToReduce",
                    "type": "uint256"
                }
            ],
            "name": "reduceLong",
            "outputs": [],
            "stateMutability": "nonpayable",
            "type": "function"
        },
        {
            "inputs": [],
            "name": "renounceOwnership",
            "outputs": [],
            "stateMutability": "nonpayable",
            "type": "function"
        },
        {
            "inputs": [
                {
                    "internalType": "uint256",
                    "name": "vaultId",
                    "type": "uint256"
                },
                {
                    "internalType": "uint256",
                    "name": "amountToRepay",
                    "type": "uint256"
                }
            ],
            "name": "repay",
            "outputs": [],
            "stateMutability": "nonpayable",
            "type": "function"
        },
        {
            "inputs": [],
            "name": "totalDebt",
            "outputs": [
                {
                    "internalType": "uint256",
                    "name": "",
                    "type": "uint256"
                }
            ],
            "stateMutability": "view",
            "type": "function",
            "constant": true
        },
        {
            "inputs": [
                {
                    "internalType": "uint256",
                    "name": "",
                    "type": "uint256"
                }
            ],
            "name": "totalDebtByPeriod",
            "outputs": [
                {
                    "internalType": "uint256",
                    "name": "",
                    "type": "uint256"
                }
            ],
            "stateMutability": "view",
            "type": "function",
            "constant": true
        },
        {
            "inputs": [
                {
                    "internalType": "address",
                    "name": "newOwner",
                    "type": "address"
                }
            ],
            "name": "transferOwnership",
            "outputs": [],
            "stateMutability": "nonpayable",
            "type": "function"
        },
        {
            "inputs": [
                {
                    "internalType": "uint256",
                    "name": "periodBlockStart",
                    "type": "uint256"
                },
                {
                    "internalType": "uint256",
                    "name": "amount",
                    "type": "uint256"
                }
            ],
            "name": "updateRewardsBalance",
            "outputs": [],
            "stateMutability": "nonpayable",
            "type": "function"
        },
        {
            "inputs": [
                {
                    "internalType": "address",
                    "name": "",
                    "type": "address"
                }
            ],
            "name": "userDebt",
            "outputs": [
                {
                    "internalType": "uint256",
                    "name": "",
                    "type": "uint256"
                }
            ],
            "stateMutability": "view",
            "type": "function",
            "constant": true
        },
        {
            "inputs": [
                {
                    "internalType": "address",
                    "name": "",
                    "type": "address"
                },
                {
                    "internalType": "uint256",
                    "name": "",
                    "type": "uint256"
                }
            ],
            "name": "userDebtByPeriod",
            "outputs": [
                {
                    "internalType": "uint256",
                    "name": "",
                    "type": "uint256"
                }
            ],
            "stateMutability": "view",
            "type": "function",
            "constant": true
        },
        {
            "inputs": [
                {
                    "internalType": "address",
                    "name": "",
                    "type": "address"
                }
            ],
            "name": "userLastClaimBlockStart",
            "outputs": [
                {
                    "internalType": "uint256",
                    "name": "",
                    "type": "uint256"
                }
            ],
            "stateMutability": "view",
            "type": "function",
            "constant": true
        },
        {
            "inputs": [
                {
                    "internalType": "uint256",
                    "name": "vaultId",
                    "type": "uint256"
                },
                {
                    "internalType": "address",
                    "name": "sender",
                    "type": "address"
                }
            ],
            "name": "userOwnsVault",
            "outputs": [
                {
                    "internalType": "bool",
                    "name": "",
                    "type": "bool"
                }
            ],
            "stateMutability": "view",
            "type": "function",
            "constant": true
        },
        {
            "inputs": [
                {
                    "internalType": "uint256",
                    "name": "vaultId",
                    "type": "uint256"
                },
                {
                    "internalType": "uint256",
                    "name": "amount",
                    "type": "uint256"
                }
            ],
            "name": "withdrawCollateral",
            "outputs": [],
            "stateMutability": "nonpayable",
            "type": "function"
        }
    ],
    "bytecode": "0x60c06040526000600a556000600b553480156200001b57600080fd5b507353e0bca35ec356bd5dddfebbd1fc0fd03fabad397361167073e31b1dad85a3e531211c7b8f1e5cae7263619516b373d05e3e715d945b59290df0ae8ef85c1bdb6847448073ffffffffffffffffffffffffffffffffffffffff1660808173ffffffffffffffffffffffffffffffffffffffff16815250508073ffffffffffffffffffffffffffffffffffffffff16630261bf8b6040518163ffffffff167c010000000000000000000000000000000000000000000000000000000002815260040160206040518083038186803b158015620000f757600080fd5b505afa1580156200010c573d6000803e3d6000fd5b505050506040513d601f19601f8201168201806040525081019062000132919062000367565b73ffffffffffffffffffffffffffffffffffffffff1660a08173ffffffffffffffffffffffffffffffffffffffff168152505050620001986200018362000231640100000000026401000000009004565b62000239640100000000026401000000009004565b81600260006101000a81548173ffffffffffffffffffffffffffffffffffffffff021916908373ffffffffffffffffffffffffffffffffffffffff16021790555082600360006101000a81548173ffffffffffffffffffffffffffffffffffffffff021916908373ffffffffffffffffffffffffffffffffffffffff16021790555080600d8190555042600b8190555050505062000399565b600033905090565b60008060009054906101000a900473ffffffffffffffffffffffffffffffffffffffff169050816000806101000a81548173ffffffffffffffffffffffffffffffffffffffff021916908373ffffffffffffffffffffffffffffffffffffffff1602179055508173ffffffffffffffffffffffffffffffffffffffff168173ffffffffffffffffffffffffffffffffffffffff167f8be0079c531659141344cd1fd0a4f28419497f9722a3daafe3b4186f6b6457e060405160405180910390a35050565b600080fd5b600073ffffffffffffffffffffffffffffffffffffffff82169050919050565b60006200032f8262000302565b9050919050565b620003418162000322565b81146200034d57600080fd5b50565b600081519050620003618162000336565b92915050565b60006020828403121562000380576200037f620002fd565b5b6000620003908482850162000350565b91505092915050565b60805160a051615d61620003cd60003960008181611ccc015281816120a3015261308a015260006107770152615d616000f3fe608060405234801561001057600080fd5b5060043610610244576000357c010000000000000000000000000000000000000000000000000000000090048063767a7b051161014d578063b4dcfc77116100d5578063dc01f60d11610099578063dc01f60d146106bf578063e2bbb158146106ef578063f2fde38b1461070b578063f48b0dc814610727578063fc7b9c181461075757610244565b8063b4dcfc7714610619578063b69e5c7714610637578063b9f40cf914610667578063d8aed14514610685578063d8dfeb45146106a157610244565b80639b816a471161011c5780639b816a47146105615780639bbdff511461057f578063a887b6af1461059d578063af26e5be146105b9578063b38f2887146105e957610244565b8063767a7b05146104c75780637afa4bbe146104e35780638da5cb5b14610513578063920f5c841461053157610244565b806325c0c719116101d05780635d12928b1161019f5780635d12928b146104495780635e99a757146104535780635fdfa45f1461046f57806368e191041461048d578063715018a6146104bd57610244565b806325c0c7191461039d5780633c50eec1146103cd5780634070776c146103fd5780634bc2dd061461042d57610244565b80631ac6d19d116102175780631ac6d19d146102d3578063226fd0b3146102ef57806322c40bdf1461031f57806323f2138d1461033d578063241091431461036d57610244565b80630542975c146102495780630654fc9514610267578063082ed05c1461028557806310a784b4146102a3575b600080fd5b610251610775565b60405161025e9190614805565b60405180910390f35b61026f610799565b60405161027c91906148e8565b60405180910390f35b61028d61082e565b60405161029a9190614919565b60405180910390f35b6102bd60048036038101906102b89190614986565b610834565b6040516102ca9190614919565b60405180910390f35b6102ed60048036038101906102e89190614986565b61084c565b005b61030960048036038101906103049190614986565b610d3e565b6040516103169190614919565b60405180910390f35b610327610d56565b6040516103349190614919565b60405180910390f35b61035760048036038101906103529190614986565b610e19565b6040516103649190614919565b60405180910390f35b610387600480360381019061038291906149df565b610e31565b6040516103949190614919565b60405180910390f35b6103b760048036038101906103b29190614a0c565b611167565b6040516103c49190614a67565b60405180910390f35b6103e760048036038101906103e29190614a82565b611253565b6040516103f49190614919565b60405180910390f35b610417600480360381019061041291906149df565b61135a565b6040516104249190614919565b60405180910390f35b61044760048036038101906104429190614ad5565b611372565b005b61045161140a565b005b61046d60048036038101906104689190614ad5565b61156c565b005b610477611610565b6040516104849190614919565b60405180910390f35b6104a760048036038101906104a29190614a82565b611616565b6040516104b49190614919565b60405180910390f35b6104c5611711565b005b6104e160048036038101906104dc9190614ad5565b611799565b005b6104fd60048036038101906104f891906149df565b61190e565b60405161050a9190614919565b60405180910390f35b61051b611bbf565b6040516105289190614b24565b60405180910390f35b61054b60048036038101906105469190614c50565b611be8565b6040516105589190614a67565b60405180910390f35b610569611d27565b6040516105769190614b24565b60405180910390f35b610587611d4d565b6040516105949190614919565b60405180910390f35b6105b760048036038101906105b29190614d4c565b611d54565b005b6105d360048036038101906105ce9190614d9f565b612064565b6040516105e09190614919565b60405180910390f35b61060360048036038101906105fe91906149df565b612089565b6040516106109190614919565b60405180910390f35b6106216120a1565b60405161062e9190614e00565b60405180910390f35b610651600480360381019061064c9190614986565b6120c5565b60405161065e9190614919565b60405180910390f35b61066f6120dd565b60405161067c9190614919565b60405180910390f35b61069f600480360381019061069a9190614ad5565b612116565b005b6106a9612414565b6040516106b69190614b24565b60405180910390f35b6106d960048036038101906106d49190614986565b61243a565b6040516106e69190614919565b60405180910390f35b61070960048036038101906107049190614ad5565b6126ee565b005b61072560048036038101906107209190614986565b612859565b005b610741600480360381019061073c9190614e1b565b612951565b60405161074e9190614f19565b60405180910390f35b61075f612c34565b60405161076c9190614919565b60405180910390f35b7f000000000000000000000000000000000000000000000000000000000000000081565b6060600160003373ffffffffffffffffffffffffffffffffffffffff1673ffffffffffffffffffffffffffffffffffffffff16815260200190815260200160002080548060200260200160405190810160405280929190818152602001828054801561082457602002820191906000526020600020905b815481526020019060010190808311610810575b5050505050905090565b600b5481565b60076020528060005260406000206000915090505481565b610854612c3a565b73ffffffffffffffffffffffffffffffffffffffff16610872611bbf565b73ffffffffffffffffffffffffffffffffffffffff16146108c8576040517f08c379a00000000000000000000000000000000000000000000000000000000081526004016108bf90614f98565b60405180910390fd5b6108d58160006001612c42565b60005b600d54600c60008473ffffffffffffffffffffffffffffffffffffffff1673ffffffffffffffffffffffffffffffffffffffff168152602001908152602001600020541015610b6457600060086000600c60008673ffffffffffffffffffffffffffffffffffffffff1673ffffffffffffffffffffffffffffffffffffffff168152602001908152602001600020548152602001908152602001600020541115610b0657600060086000600c60008673ffffffffffffffffffffffffffffffffffffffff1673ffffffffffffffffffffffffffffffffffffffff16815260200190815260200160002054815260200190815260200160002054670de0b6b3a7640000600460008673ffffffffffffffffffffffffffffffffffffffff1673ffffffffffffffffffffffffffffffffffffffff1681526020019081526020016000206000600c60008873ffffffffffffffffffffffffffffffffffffffff1673ffffffffffffffffffffffffffffffffffffffff16815260200190815260200160002054815260200190815260200160002054610a749190614fe7565b610a7e9190615070565b90506000670de0b6b3a76400008260096000600c60008973ffffffffffffffffffffffffffffffffffffffff1673ffffffffffffffffffffffffffffffffffffffff16815260200190815260200160002054815260200190815260200160002054610ae99190614fe7565b610af39190615070565b90508083610b0191906150a1565b925050505b62093a80600c60008473ffffffffffffffffffffffffffffffffffffffff1673ffffffffffffffffffffffffffffffffffffffff1681526020019081526020016000206000828254610b5891906150a1565b925050819055506108d8565b6000811115610cec5773580a84c73811e1839f75d86d75d88cca0c241ff473ffffffffffffffffffffffffffffffffffffffff1663095ea7b330836040518363ffffffff167c0100000000000000000000000000000000000000000000000000000000028152600401610bd89291906150f7565b602060405180830381600087803b158015610bf257600080fd5b505af1158015610c06573d6000803e3d6000fd5b505050506040513d601f19601f82011682018060405250810190610c2a919061514c565b5073580a84c73811e1839f75d86d75d88cca0c241ff473ffffffffffffffffffffffffffffffffffffffff166323b872dd3084846040518463ffffffff167c0100000000000000000000000000000000000000000000000000000000028152600401610c9893929190615179565b602060405180830381600087803b158015610cb257600080fd5b505af1158015610cc6573d6000803e3d6000fd5b505050506040513d601f19601f82011682018060405250810190610cea919061514c565b505b8173ffffffffffffffffffffffffffffffffffffffff167f242c1e3f8870907764ec31f219842da14596f9730059d8361155bfee276043f782604051610d329190614919565b60405180910390a25050565b600c6020528060005260406000206000915090505481565b6000600260009054906101000a900473ffffffffffffffffffffffffffffffffffffffff1673ffffffffffffffffffffffffffffffffffffffff1663e5f4dc926040518163ffffffff167c010000000000000000000000000000000000000000000000000000000002815260040160206040518083038186803b158015610ddc57600080fd5b505afa158015610df0573d6000803e3d6000fd5b505050506040513d601f19601f82011682018060405250810190610e1491906151c5565b905090565b60066020528060005260406000206000915090505481565b60006060600567ffffffffffffffff811115610e5057610e4f6151f2565b5b604051908082528060200260200182016040528015610e7e5781602001602082028036833780820191505090505b50905073a3fa99a148fa48d14ed51d610c367c61876997f181600081518110610eaa57610ea9615221565b5b602002602001019073ffffffffffffffffffffffffffffffffffffffff16908173ffffffffffffffffffffffffffffffffffffffff1681525050730d500b1d8e8ef31e21c99d1db9a6444d3adf127081600181518110610f0d57610f0c615221565b5b602002602001019073ffffffffffffffffffffffffffffffffffffffff16908173ffffffffffffffffffffffffffffffffffffffff1681525050732791bca1f2de4661ed88a30c99a7a9449aa8417481600281518110610f7057610f6f615221565b5b602002602001019073ffffffffffffffffffffffffffffffffffffffff16908173ffffffffffffffffffffffffffffffffffffffff1681525050730d500b1d8e8ef31e21c99d1db9a6444d3adf127081600381518110610fd357610fd2615221565b5b602002602001019073ffffffffffffffffffffffffffffffffffffffff16908173ffffffffffffffffffffffffffffffffffffffff1681525050600360009054906101000a900473ffffffffffffffffffffffffffffffffffffffff168160048151811061104457611043615221565b5b602002602001019073ffffffffffffffffffffffffffffffffffffffff16908173ffffffffffffffffffffffffffffffffffffffff1681525050600073a5e0829caced8ffdd4de3c43696c57f7d7a678ff73ffffffffffffffffffffffffffffffffffffffff16631f00ca7485846040518363ffffffff167c01000000000000000000000000000000000000000000000000000000000281526004016110eb929190615250565b60006040518083038186803b15801561110357600080fd5b505afa158015611117573d6000803e3d6000fd5b505050506040513d6000823e3d601f19601f8201168201806040525081019061114091906153a0565b90508060008151811061115657611155615221565b5b602002602001015192505050919050565b600080600160008473ffffffffffffffffffffffffffffffffffffffff1673ffffffffffffffffffffffffffffffffffffffff1681526020019081526020016000208054806020026020016040519081016040528092919081815260200182805480156111f357602002820191906000526020600020905b8154815260200190600101908083116111df575b5050505050905060005b8151811015611246578482828151811061121a57611219615221565b5b602002602001015114156112335760019250505061124d565b808061123e906153e9565b9150506111fd565b5060009150505b92915050565b600060606112618585612951565b9050600073a5e0829caced8ffdd4de3c43696c57f7d7a678ff73ffffffffffffffffffffffffffffffffffffffff1663d06ca61f85846040518363ffffffff167c01000000000000000000000000000000000000000000000000000000000281526004016112d0929190615250565b60006040518083038186803b1580156112e857600080fd5b505afa1580156112fc573d6000803e3d6000fd5b505050506040513d6000823e3d601f19601f8201168201806040525081019061132591906153a0565b905080600183516113369190615432565b8151811061134757611346615221565b5b6020026020010151925050509392505050565b60086020528060005260406000206000915090505481565b61137a612c3a565b73ffffffffffffffffffffffffffffffffffffffff16611398611bbf565b73ffffffffffffffffffffffffffffffffffffffff16146113ee576040517f08c379a00000000000000000000000000000000000000000000000000000000081526004016113e590614f98565b60405180910390fd5b8060096000848152602001908152602001600020819055505050565b6000600260009054906101000a900473ffffffffffffffffffffffffffffffffffffffff1673ffffffffffffffffffffffffffffffffffffffff16635d12928b6040518163ffffffff167c0100000000000000000000000000000000000000000000000000000000028152600401602060405180830381600087803b15801561149257600080fd5b505af11580156114a6573d6000803e3d6000fd5b505050506040513d601f19601f820116820180604052508101906114ca91906151c5565b9050600160003373ffffffffffffffffffffffffffffffffffffffff1673ffffffffffffffffffffffffffffffffffffffff1681526020019081526020016000208190806001815401808255809150506001900390600052602060002001600090919091909150557f4111fcee61908834830adf60a520ba26d09f02fa4e00cfe3d2c134e32f3f8696816040516115619190614919565b60405180910390a150565b81336115788282611167565b6115b7576040517f08c379a00000000000000000000000000000000000000000000000000000000081526004016115ae906154b2565b60405180910390fd5b6115c333846000612c42565b6115d1848460016000612e39565b7fc0df9fe8084fa90073ce26d7d6aab182bcc9b31fc0d5d0292b71444a96fa9e3d84846040516116029291906154d2565b60405180910390a150505050565b600d5481565b600060606116248585612951565b9050600073a5e0829caced8ffdd4de3c43696c57f7d7a678ff73ffffffffffffffffffffffffffffffffffffffff16631f00ca7485846040518363ffffffff167c0100000000000000000000000000000000000000000000000000000000028152600401611693929190615250565b60006040518083038186803b1580156116ab57600080fd5b505afa1580156116bf573d6000803e3d6000fd5b505050506040513d6000823e3d601f19601f820116820180604052508101906116e891906153a0565b9050806000815181106116fe576116fd615221565b5b6020026020010151925050509392505050565b611719612c3a565b73ffffffffffffffffffffffffffffffffffffffff16611737611bbf565b73ffffffffffffffffffffffffffffffffffffffff161461178d576040517f08c379a000000000000000000000000000000000000000000000000000000000815260040161178490614f98565b60405180910390fd5b6117976000613149565b565b81336117a58282611167565b6117e4576040517f08c379a00000000000000000000000000000000000000000000000000000000081526004016117db906154b2565b60405180910390fd5b8260008111611828576040517f08c379a000000000000000000000000000000000000000000000000000000000815260040161181f90615547565b60405180910390fd5b611832858561320d565b61187f3085600360009054906101000a900473ffffffffffffffffffffffffffffffffffffffff1673ffffffffffffffffffffffffffffffffffffffff166132bc9092919063ffffffff16565b6118ce303386600360009054906101000a900473ffffffffffffffffffffffffffffffffffffffff1673ffffffffffffffffffffffffffffffffffffffff16613415909392919063ffffffff16565b7f6c0ea3bea9dd66afa8f9d39d6eb93d833466190330813b42835efc650dca4cb985856040516118ff9291906154d2565b60405180910390a15050505050565b600080600260009054906101000a900473ffffffffffffffffffffffffffffffffffffffff16905060008173ffffffffffffffffffffffffffffffffffffffff1663d310f49b856040518263ffffffff167c010000000000000000000000000000000000000000000000000000000002815260040161198d9190614919565b60206040518083038186803b1580156119a557600080fd5b505afa1580156119b9573d6000803e3d6000fd5b505050506040513d601f19601f820116820180604052508101906119dd91906151c5565b905060008273ffffffffffffffffffffffffffffffffffffffff1663d4a9b2c5866040518263ffffffff167c0100000000000000000000000000000000000000000000000000000000028152600401611a369190614919565b60206040518083038186803b158015611a4e57600080fd5b505afa158015611a62573d6000803e3d6000fd5b505050506040513d601f19601f82011682018060405250810190611a8691906151c5565b90506000821415611a9c57809350505050611bba565b6000611aa6610d56565b905060008473ffffffffffffffffffffffffffffffffffffffff1663df987846886040518263ffffffff167c0100000000000000000000000000000000000000000000000000000000028152600401611aff9190614919565b60206040518083038186803b158015611b1757600080fd5b505afa158015611b2b573d6000803e3d6000fd5b505050506040513d601f19601f82011682018060405250810190611b4f91906151c5565b905060008185611b5f9190614fe7565b905060008482611b6f9190615070565b905060008483611b7f9190615070565b905060008782611b8f9190615432565b90506000868483611ba09190615070565b611baa9190614fe7565b9050809a50505050505050505050505b919050565b60008060009054906101000a900473ffffffffffffffffffffffffffffffffffffffff16905090565b6000808383810190611bfa91906155de565b505092505050600089896000818110611c1657611c15615221565b5b905060200201359050600088886000818110611c3557611c34615221565b5b905060200201358b8b6000818110611c5057611c4f615221565b5b90506020020135611c6191906150a1565b905060008d8d6000818110611c7957611c78615221565b5b9050602002016020810190611c8e9190614986565b905060008460ff161415611cad57611ca8838389896134ba565b611cc7565b60018460ff161415611cc657611cc58383898961384d565b5b5b611d127f0000000000000000000000000000000000000000000000000000000000000000838373ffffffffffffffffffffffffffffffffffffffff166132bc9092919063ffffffff16565b60019450505050509998505050505050505050565b600260009054906101000a900473ffffffffffffffffffffffffffffffffffffffff1681565b62093a8081565b8233611d608282611167565b611d9f576040517f08c379a0000000000000000000000000000000000000000000000000000000008152600401611d96906154b2565b60405180910390fd5b600083118015611dd85750611db2610d56565b8460648587611dc191906150a1565b611dcb9190614fe7565b611dd59190615070565b10155b611e17576040517f08c379a0000000000000000000000000000000000000000000000000000000008152600401611e0e906156a5565b60405180910390fd5b6000600260009054906101000a900473ffffffffffffffffffffffffffffffffffffffff1673ffffffffffffffffffffffffffffffffffffffff1663d310f49b876040518263ffffffff167c0100000000000000000000000000000000000000000000000000000000028152600401611e909190614919565b60206040518083038186803b158015611ea857600080fd5b505afa158015611ebc573d6000803e3d6000fd5b505050506040513d601f19601f82011682018060405250810190611ee091906151c5565b9050611f31333086600360009054906101000a900473ffffffffffffffffffffffffffffffffffffffff1673ffffffffffffffffffffffffffffffffffffffff16613415909392919063ffffffff16565b611f3e8686600087612e39565b6000600260009054906101000a900473ffffffffffffffffffffffffffffffffffffffff1673ffffffffffffffffffffffffffffffffffffffff1663d310f49b886040518263ffffffff167c0100000000000000000000000000000000000000000000000000000000028152600401611fb79190614919565b60206040518083038186803b158015611fcf57600080fd5b505afa158015611fe3573d6000803e3d6000fd5b505050506040513d601f19601f8201168201806040525081019061200791906151c5565b90506120203383836120199190615432565b6001612c42565b7fcbf3d8fa8a0327024c779609ca3898d31246e64909b6867939acb857a6ca747e878787604051612053939291906156c5565b60405180910390a150505050505050565b6004602052816000526040600020602052806000526040600020600091509150505481565b60096020528060005260406000206000915090505481565b7f000000000000000000000000000000000000000000000000000000000000000081565b60056020528060005260406000206000915090505481565b60008060646120ea610d56565b6120f49190615432565b905060018161210391906150a1565b6127106121109190615070565b91505090565b81336121228282611167565b612161576040517f08c379a0000000000000000000000000000000000000000000000000000000008152600401612158906154b2565b60405180910390fd5b82600081116121a5576040517f08c379a000000000000000000000000000000000000000000000000000000000815260040161219c90615547565b60405180910390fd5b6000600260009054906101000a900473ffffffffffffffffffffffffffffffffffffffff1673ffffffffffffffffffffffffffffffffffffffff1663d310f49b876040518263ffffffff167c010000000000000000000000000000000000000000000000000000000002815260040161221e9190614919565b60206040518083038186803b15801561223657600080fd5b505afa15801561224a573d6000803e3d6000fd5b505050506040513d601f19601f8201168201806040525081019061226e91906151c5565b9050808511156122b3576040517f08c379a00000000000000000000000000000000000000000000000000000000081526004016122aa90615748565b60405180910390fd5b6122f433308773a3fa99a148fa48d14ed51d610c367c61876997f173ffffffffffffffffffffffffffffffffffffffff16613415909392919063ffffffff16565b6122fe8686613cae565b600260009054906101000a900473ffffffffffffffffffffffffffffffffffffffff1673ffffffffffffffffffffffffffffffffffffffff1663d310f49b876040518263ffffffff167c01000000000000000000000000000000000000000000000000000000000281526004016123759190614919565b60206040518083038186803b15801561238d57600080fd5b505afa1580156123a1573d6000803e3d6000fd5b505050506040513d601f19601f820116820180604052508101906123c591906151c5565b90506123d333866000612c42565b7f552544cb36551120f07c66c5cd4b2987725a0c72198587f2ce796099bb66c58c86866040516124049291906154d2565b60405180910390a1505050505050565b600360009054906101000a900473ffffffffffffffffffffffffffffffffffffffff1681565b600080600090506000600760008573ffffffffffffffffffffffffffffffffffffffff1673ffffffffffffffffffffffffffffffffffffffff1681526020019081526020016000205411156126e5576000600c60008573ffffffffffffffffffffffffffffffffffffffff1673ffffffffffffffffffffffffffffffffffffffff1681526020019081526020016000205490505b600d548110156126e3576000600860008381526020019081526020016000205411156126cd576000819050600062093a808261250a91906150a1565b90506000600660008873ffffffffffffffffffffffffffffffffffffffff1673ffffffffffffffffffffffffffffffffffffffff16815260200190815260200160002054831161259957600660008873ffffffffffffffffffffffffffffffffffffffff1673ffffffffffffffffffffffffffffffffffffffff1681526020019081526020016000205461259b565b825b905060006008600086815260200190815260200160002054670de0b6b3a764000083856125c89190615432565b600560008c73ffffffffffffffffffffffffffffffffffffffff1673ffffffffffffffffffffffffffffffffffffffff168152602001908152602001600020546126129190614fe7565b600460008c73ffffffffffffffffffffffffffffffffffffffff1673ffffffffffffffffffffffffffffffffffffffff16815260200190815260200160002060008981526020019081526020016000205461266d91906150a1565b6126779190614fe7565b6126819190615070565b90506000670de0b6b3a76400008260096000898152602001908152602001600020546126ad9190614fe7565b6126b79190615070565b905080876126c591906150a1565b965050505050505b62093a80816126dc91906150a1565b90506124ce565b505b80915050919050565b81336126fa8282611167565b612739576040517f08c379a0000000000000000000000000000000000000000000000000000000008152600401612730906154b2565b60405180910390fd5b826000811161277d576040517f08c379a000000000000000000000000000000000000000000000000000000000815260040161277490615547565b60405180910390fd5b600084116127c0576040517f08c379a00000000000000000000000000000000000000000000000000000000081526004016127b7906157b4565b60405180910390fd5b61280f333086600360009054906101000a900473ffffffffffffffffffffffffffffffffffffffff1673ffffffffffffffffffffffffffffffffffffffff16613415909392919063ffffffff16565b6128198585613dbe565b7fa3af609bf46297028ce551832669030f9effef2b02606d02cbbcc40fe6b47c55858560405161284a9291906154d2565b60405180910390a15050505050565b612861612c3a565b73ffffffffffffffffffffffffffffffffffffffff1661287f611bbf565b73ffffffffffffffffffffffffffffffffffffffff16146128d5576040517f08c379a00000000000000000000000000000000000000000000000000000000081526004016128cc90614f98565b60405180910390fd5b600073ffffffffffffffffffffffffffffffffffffffff168173ffffffffffffffffffffffffffffffffffffffff161415612945576040517f08c379a000000000000000000000000000000000000000000000000000000000815260040161293c90615846565b60405180910390fd5b61294e81613149565b50565b6060730d500b1d8e8ef31e21c99d1db9a6444d3adf127073ffffffffffffffffffffffffffffffffffffffff168373ffffffffffffffffffffffffffffffffffffffff1614806129e05750730d500b1d8e8ef31e21c99d1db9a6444d3adf127073ffffffffffffffffffffffffffffffffffffffff168273ffffffffffffffffffffffffffffffffffffffff16145b15612ada576000600267ffffffffffffffff811115612a0257612a016151f2565b5b604051908082528060200260200182016040528015612a305781602001602082028036833780820191505090505b5090508381600081518110612a4857612a47615221565b5b602002602001019073ffffffffffffffffffffffffffffffffffffffff16908173ffffffffffffffffffffffffffffffffffffffff16815250508281600181518110612a9757612a96615221565b5b602002602001019073ffffffffffffffffffffffffffffffffffffffff16908173ffffffffffffffffffffffffffffffffffffffff168152505080915050612c2e565b6000600367ffffffffffffffff811115612af757612af66151f2565b5b604051908082528060200260200182016040528015612b255781602001602082028036833780820191505090505b5090508381600081518110612b3d57612b3c615221565b5b602002602001019073ffffffffffffffffffffffffffffffffffffffff16908173ffffffffffffffffffffffffffffffffffffffff1681525050730d500b1d8e8ef31e21c99d1db9a6444d3adf127081600181518110612ba057612b9f615221565b5b602002602001019073ffffffffffffffffffffffffffffffffffffffff16908173ffffffffffffffffffffffffffffffffffffffff16815250508281600281518110612bef57612bee615221565b5b602002602001019073ffffffffffffffffffffffffffffffffffffffff16908173ffffffffffffffffffffffffffffffffffffffff1681525050809150505b92915050565b600a5481565b600033905090565b612c4a613ee6565b612c5383613ff1565b600062093a80600d5442612c679190615432565b612c719190615070565b90508062093a80612c829190614fe7565b600d6000828254612c9391906150a1565b925050819055508062093a80612ca99190614fe7565b600760008673ffffffffffffffffffffffffffffffffffffffff1673ffffffffffffffffffffffffffffffffffffffff1681526020019081526020016000206000828254612cf791906150a1565b9250508190555042600b8190555042600660008673ffffffffffffffffffffffffffffffffffffffff1673ffffffffffffffffffffffffffffffffffffffff168152602001908152602001600020819055508115612dc35782600a6000828254612d6191906150a1565b9250508190555082600560008673ffffffffffffffffffffffffffffffffffffffff1673ffffffffffffffffffffffffffffffffffffffff1681526020019081526020016000206000828254612db791906150a1565b92505081905550612e33565b82600a6000828254612dd59190615432565b9250508190555082600560008673ffffffffffffffffffffffffffffffffffffffff1673ffffffffffffffffffffffffffffffffffffffff1681526020019081526020016000206000828254612e2b9190615432565b925050819055505b50505050565b6000612e7c732791bca1f2de4661ed88a30c99a7a9449aa84174600360009054906101000a900473ffffffffffffffffffffffffffffffffffffffff1686611616565b905060018360ff161415612ec057612ebd732791bca1f2de4661ed88a30c99a7a9449aa8417473a3fa99a148fa48d14ed51d610c367c61876997f186611616565b90505b60003090506000600167ffffffffffffffff811115612ee257612ee16151f2565b5b604051908082528060200260200182016040528015612f105781602001602082028036833780820191505090505b509050732791bca1f2de4661ed88a30c99a7a9449aa8417481600081518110612f3c57612f3b615221565b5b602002602001019073ffffffffffffffffffffffffffffffffffffffff16908173ffffffffffffffffffffffffffffffffffffffff16815250506000600167ffffffffffffffff811115612f9357612f926151f2565b5b604051908082528060200260200182016040528015612fc15781602001602082028036833780820191505090505b5090508381600081518110612fd957612fd8615221565b5b6020026020010181815250506000600167ffffffffffffffff811115613002576130016151f2565b5b6040519080825280602002602001820160405280156130305781602001602082028036833780820191505090505b50905060008160008151811061304957613048615221565b5b602002602001018181525050600030905060008a338a8c8b604051602001613075959493929190615875565b604051602081830303815290604052905060007f000000000000000000000000000000000000000000000000000000000000000073ffffffffffffffffffffffffffffffffffffffff1663ab9c4b5d888888888888886040518863ffffffff167c0100000000000000000000000000000000000000000000000000000000028152600401613109979695949392919061596d565b600060405180830381600087803b15801561312357600080fd5b505af1158015613137573d6000803e3d6000fd5b50505050505050505050505050505050565b60008060009054906101000a900473ffffffffffffffffffffffffffffffffffffffff169050816000806101000a81548173ffffffffffffffffffffffffffffffffffffffff021916908373ffffffffffffffffffffffffffffffffffffffff1602179055508173ffffffffffffffffffffffffffffffffffffffff168173ffffffffffffffffffffffffffffffffffffffff167f8be0079c531659141344cd1fd0a4f28419497f9722a3daafe3b4186f6b6457e060405160405180910390a35050565b600260009054906101000a900473ffffffffffffffffffffffffffffffffffffffff1673ffffffffffffffffffffffffffffffffffffffff1663767a7b0583836040518363ffffffff167c01000000000000000000000000000000000000000000000000000000000281526004016132869291906154d2565b600060405180830381600087803b1580156132a057600080fd5b505af11580156132b4573d6000803e3d6000fd5b505050505050565b6000818473ffffffffffffffffffffffffffffffffffffffff1663dd62ed3e30866040518363ffffffff167c01000000000000000000000000000000000000000000000000000000000281526004016133169291906159f8565b60206040518083038186803b15801561332e57600080fd5b505afa158015613342573d6000803e3d6000fd5b505050506040513d601f19601f8201168201806040525081019061336691906151c5565b61337091906150a1565b905061340f8463095ea7b37c01000000000000000000000000000000000000000000000000000000000285846040516024016133ad9291906150f7565b604051602081830303815290604052907bffffffffffffffffffffffffffffffffffffffffffffffffffffffff19166020820180517bffffffffffffffffffffffffffffffffffffffffffffffffffffffff8381831617835250505050614453565b50505050565b6134b4846323b872dd7c01000000000000000000000000000000000000000000000000000000000285858560405160240161345293929190615179565b604051602081830303815290604052907bffffffffffffffffffffffffffffffffffffffffffffffffffffffff19166020820180517bffffffffffffffffffffffffffffffffffffffffffffffffffffffff8381831617835250505050614453565b50505050565b600080600084848101906134ce91906155de565b945094505050925061352973a5e0829caced8ffdd4de3c43696c57f7d7a678ff88732791bca1f2de4661ed88a30c99a7a9449aa8417473ffffffffffffffffffffffffffffffffffffffff166132bc9092919063ffffffff16565b600073a5e0829caced8ffdd4de3c43696c57f7d7a678ff73ffffffffffffffffffffffffffffffffffffffff16638803dbee848a61359d732791bca1f2de4661ed88a30c99a7a9449aa84174600360009054906101000a900473ffffffffffffffffffffffffffffffffffffffff16612951565b30426040518663ffffffff167c01000000000000000000000000000000000000000000000000000000000281526004016135db959493929190615a21565b600060405180830381600087803b1580156135f557600080fd5b505af1158015613609573d6000803e3d6000fd5b505050506040513d6000823e3d601f19601f8201168201806040525081019061363291906153a0565b90508060008151811061364857613647615221565b5b60200260200101518861365b9190615432565b876136669190615432565b96506000828461367691906150a1565b90506136828582613dbe565b60006136b773a3fa99a148fa48d14ed51d610c367c61876997f1732791bca1f2de4661ed88a30c99a7a9449aa841748b611616565b90506136c3868261451a565b61371673a5e0829caced8ffdd4de3c43696c57f7d7a678ff8273a3fa99a148fa48d14ed51d610c367c61876997f173ffffffffffffffffffffffffffffffffffffffff166132bc9092919063ffffffff16565b73a5e0829caced8ffdd4de3c43696c57f7d7a678ff73ffffffffffffffffffffffffffffffffffffffff16638803dbee8a8361377a73a3fa99a148fa48d14ed51d610c367c61876997f1732791bca1f2de4661ed88a30c99a7a9449aa84174612951565b30426040518663ffffffff167c01000000000000000000000000000000000000000000000000000000000281526004016137b8959493929190615a21565b600060405180830381600087803b1580156137d257600080fd5b505af11580156137e6573d6000803e3d6000fd5b505050506040513d6000823e3d601f19601f8201168201806040525081019061380f91906153a0565b9250613841868460008151811061382957613828615221565b5b60200260200101518361383c9190615432565b613cae565b50505050505050505050565b600080838381019061385f9190615a7b565b9350505091506138b873a5e0829caced8ffdd4de3c43696c57f7d7a678ff87732791bca1f2de4661ed88a30c99a7a9449aa8417473ffffffffffffffffffffffffffffffffffffffff166132bc9092919063ffffffff16565b600073a5e0829caced8ffdd4de3c43696c57f7d7a678ff73ffffffffffffffffffffffffffffffffffffffff16638803dbee838961391e732791bca1f2de4661ed88a30c99a7a9449aa8417473a3fa99a148fa48d14ed51d610c367c61876997f1612951565b30426040518663ffffffff167c010000000000000000000000000000000000000000000000000000000002815260040161395c959493929190615a21565b600060405180830381600087803b15801561397657600080fd5b505af115801561398a573d6000803e3d6000fd5b505050506040513d6000823e3d601f19601f820116820180604052508101906139b391906153a0565b9050806000815181106139c9576139c8615221565b5b6020026020010151876139dc9190615432565b866139e79190615432565b9550613a1a8382600184516139fc9190615432565b81518110613a0d57613a0c615221565b5b6020026020010151613cae565b6000613a5d600360009054906101000a900473ffffffffffffffffffffffffffffffffffffffff16732791bca1f2de4661ed88a30c99a7a9449aa8417489611616565b9050600260009054906101000a900473ffffffffffffffffffffffffffffffffffffffff1673ffffffffffffffffffffffffffffffffffffffff1663767a7b0585836040518363ffffffff167c0100000000000000000000000000000000000000000000000000000000028152600401613ad89291906154d2565b600060405180830381600087803b158015613af257600080fd5b505af1158015613b06573d6000803e3d6000fd5b50505050613b6b73a5e0829caced8ffdd4de3c43696c57f7d7a678ff82600360009054906101000a900473ffffffffffffffffffffffffffffffffffffffff1673ffffffffffffffffffffffffffffffffffffffff166132bc9092919063ffffffff16565b73a5e0829caced8ffdd4de3c43696c57f7d7a678ff73ffffffffffffffffffffffffffffffffffffffff16638803dbee8883613bdd600360009054906101000a900473ffffffffffffffffffffffffffffffffffffffff16732791bca1f2de4661ed88a30c99a7a9449aa84174612951565b30426040518663ffffffff167c0100000000000000000000000000000000000000000000000000000000028152600401613c1b959493929190615a21565b600060405180830381600087803b158015613c3557600080fd5b505af1158015613c49573d6000803e3d6000fd5b505050506040513d6000823e3d601f19601f82011682018060405250810190613c7291906153a0565b9150613ca48483600081518110613c8c57613c8b615221565b5b602002602001015183613c9f9190615432565b613dbe565b5050505050505050565b613d0f600260009054906101000a900473ffffffffffffffffffffffffffffffffffffffff168273a3fa99a148fa48d14ed51d610c367c61876997f173ffffffffffffffffffffffffffffffffffffffff166132bc9092919063ffffffff16565b600260009054906101000a900473ffffffffffffffffffffffffffffffffffffffff1673ffffffffffffffffffffffffffffffffffffffff166385af3c1683836040518363ffffffff167c0100000000000000000000000000000000000000000000000000000000028152600401613d889291906154d2565b600060405180830381600087803b158015613da257600080fd5b505af1158015613db6573d6000803e3d6000fd5b505050505050565b6000811115613ee257613e36600260009054906101000a900473ffffffffffffffffffffffffffffffffffffffff1682600360009054906101000a900473ffffffffffffffffffffffffffffffffffffffff1673ffffffffffffffffffffffffffffffffffffffff166132bc9092919063ffffffff16565b600260009054906101000a900473ffffffffffffffffffffffffffffffffffffffff1673ffffffffffffffffffffffffffffffffffffffff1663ece1373283836040518363ffffffff167c0100000000000000000000000000000000000000000000000000000000028152600401613eaf9291906154d2565b600060405180830381600087803b158015613ec957600080fd5b505af1158015613edd573d6000803e3d6000fd5b505050505b5050565b600062093a80600d5442613efa9190615432565b613f049190615070565b905060005b818111613fed57600062093a8082613f219190614fe7565b600d54613f2e91906150a1565b9050600062093a8082613f4191906150a1565b421115613f5c5762093a8082613f5791906150a1565b613f5e565b425b905080600b5411613fd8576000600b548311613f7c57600b54613f7e565b825b90506000824211613f8f5742613f91565b825b90508181613f9f9190615432565b600a54613fac9190614fe7565b600860008681526020019081526020016000206000828254613fce91906150a1565b9250508190555050505b50508080613fe5906153e9565b915050613f09565b5050565b6000600760008373ffffffffffffffffffffffffffffffffffffffff1673ffffffffffffffffffffffffffffffffffffffff16815260200190815260200160002054141561408057600d54600760008373ffffffffffffffffffffffffffffffffffffffff1673ffffffffffffffffffffffffffffffffffffffff168152602001908152602001600020819055505b6000600c60008373ffffffffffffffffffffffffffffffffffffffff1673ffffffffffffffffffffffffffffffffffffffff16815260200190815260200160002054141561410f57600d54600c60008373ffffffffffffffffffffffffffffffffffffffff1673ffffffffffffffffffffffffffffffffffffffff168152602001908152602001600020819055505b6000600660008373ffffffffffffffffffffffffffffffffffffffff1673ffffffffffffffffffffffffffffffffffffffff16815260200190815260200160002054141561419c5742600660008373ffffffffffffffffffffffffffffffffffffffff1673ffffffffffffffffffffffffffffffffffffffff168152602001908152602001600020819055505b600062093a80600760008473ffffffffffffffffffffffffffffffffffffffff1673ffffffffffffffffffffffffffffffffffffffff16815260200190815260200160002054426141ed9190615432565b6141f79190615070565b905060005b81811161444e57600062093a80826142149190614fe7565b600760008673ffffffffffffffffffffffffffffffffffffffff1673ffffffffffffffffffffffffffffffffffffffff1681526020019081526020016000205461425e91906150a1565b9050600062093a808261427191906150a1565b42111561428c5762093a808261428791906150a1565b61428e565b425b905080600660008773ffffffffffffffffffffffffffffffffffffffff1673ffffffffffffffffffffffffffffffffffffffff1681526020019081526020016000205411614439576000600660008773ffffffffffffffffffffffffffffffffffffffff1673ffffffffffffffffffffffffffffffffffffffff16815260200190815260200160002054831161436357600660008773ffffffffffffffffffffffffffffffffffffffff1673ffffffffffffffffffffffffffffffffffffffff16815260200190815260200160002054614365565b825b905060008242116143765742614378565b825b905081816143869190615432565b600560008973ffffffffffffffffffffffffffffffffffffffff1673ffffffffffffffffffffffffffffffffffffffff168152602001908152602001600020546143d09190614fe7565b600460008973ffffffffffffffffffffffffffffffffffffffff1673ffffffffffffffffffffffffffffffffffffffff1681526020019081526020016000206000868152602001908152602001600020600082825461442f91906150a1565b9250508190555050505b50508080614446906153e9565b9150506141fc565b505050565b60006144b5826040518060400160405280602081526020017f5361666545524332303a206c6f772d6c6576656c2063616c6c206661696c65648152508573ffffffffffffffffffffffffffffffffffffffff166145c99092919063ffffffff16565b905060008151111561451557808060200190518101906144d5919061514c565b614514576040517f08c379a000000000000000000000000000000000000000000000000000000000815260040161450b90615b54565b60405180910390fd5b5b505050565b600260009054906101000a900473ffffffffffffffffffffffffffffffffffffffff1673ffffffffffffffffffffffffffffffffffffffff166308ec592783836040518363ffffffff167c01000000000000000000000000000000000000000000000000000000000281526004016145939291906154d2565b600060405180830381600087803b1580156145ad57600080fd5b505af11580156145c1573d6000803e3d6000fd5b505050505050565b60606145d884846000856145e1565b90509392505050565b6060823073ffffffffffffffffffffffffffffffffffffffff1631101561463d576040517f08c379a000000000000000000000000000000000000000000000000000000000815260040161463490615be6565b60405180910390fd5b6146468561470c565b614685576040517f08c379a000000000000000000000000000000000000000000000000000000000815260040161467c90615c52565b60405180910390fd5b6000808673ffffffffffffffffffffffffffffffffffffffff1685876040516146ae9190615cae565b60006040518083038185875af1925050503d80600081146146eb576040519150601f19603f3d011682016040523d82523d6000602084013e6146f0565b606091505b509150915061470082828661471f565b92505050949350505050565b600080823b905060008111915050919050565b6060831561472f5782905061477f565b6000835111156147425782518084602001fd5b816040517f08c379a00000000000000000000000000000000000000000000000000000000081526004016147769190615d09565b60405180910390fd5b9392505050565b600073ffffffffffffffffffffffffffffffffffffffff82169050919050565b6000819050919050565b60006147cb6147c66147c184614786565b6147a6565b614786565b9050919050565b60006147dd826147b0565b9050919050565b60006147ef826147d2565b9050919050565b6147ff816147e4565b82525050565b600060208201905061481a60008301846147f6565b92915050565b600081519050919050565b600082825260208201905092915050565b6000819050602082019050919050565b6000819050919050565b61485f8161484c565b82525050565b60006148718383614856565b60208301905092915050565b6000602082019050919050565b600061489582614820565b61489f818561482b565b93506148aa8361483c565b8060005b838110156148db5781516148c28882614865565b97506148cd8361487d565b9250506001810190506148ae565b5085935050505092915050565b60006020820190508181036000830152614902818461488a565b905092915050565b6149138161484c565b82525050565b600060208201905061492e600083018461490a565b92915050565b6000604051905090565b600080fd5b600080fd5b600061495382614786565b9050919050565b61496381614948565b811461496e57600080fd5b50565b6000813590506149808161495a565b92915050565b60006020828403121561499c5761499b61493e565b5b60006149aa84828501614971565b91505092915050565b6149bc8161484c565b81146149c757600080fd5b50565b6000813590506149d9816149b3565b92915050565b6000602082840312156149f5576149f461493e565b5b6000614a03848285016149ca565b91505092915050565b60008060408385031215614a2357614a2261493e565b5b6000614a31858286016149ca565b9250506020614a4285828601614971565b9150509250929050565b60008115159050919050565b614a6181614a4c565b82525050565b6000602082019050614a7c6000830184614a58565b92915050565b600080600060608486031215614a9b57614a9a61493e565b5b6000614aa986828701614971565b9350506020614aba86828701614971565b9250506040614acb868287016149ca565b9150509250925092565b60008060408385031215614aec57614aeb61493e565b5b6000614afa858286016149ca565b9250506020614b0b858286016149ca565b9150509250929050565b614b1e81614948565b82525050565b6000602082019050614b396000830184614b15565b92915050565b600080fd5b600080fd5b600080fd5b60008083601f840112614b6457614b63614b3f565b5b8235905067ffffffffffffffff811115614b8157614b80614b44565b5b602083019150836020820283011115614b9d57614b9c614b49565b5b9250929050565b60008083601f840112614bba57614bb9614b3f565b5b8235905067ffffffffffffffff811115614bd757614bd6614b44565b5b602083019150836020820283011115614bf357614bf2614b49565b5b9250929050565b60008083601f840112614c1057614c0f614b3f565b5b8235905067ffffffffffffffff811115614c2d57614c2c614b44565b5b602083019150836001820283011115614c4957614c48614b49565b5b9250929050565b600080600080600080600080600060a08a8c031215614c7257614c7161493e565b5b60008a013567ffffffffffffffff811115614c9057614c8f614943565b5b614c9c8c828d01614b4e565b995099505060208a013567ffffffffffffffff811115614cbf57614cbe614943565b5b614ccb8c828d01614ba4565b975097505060408a013567ffffffffffffffff811115614cee57614ced614943565b5b614cfa8c828d01614ba4565b95509550506060614d0d8c828d01614971565b93505060808a013567ffffffffffffffff811115614d2e57614d2d614943565b5b614d3a8c828d01614bfa565b92509250509295985092959850929598565b600080600060608486031215614d6557614d6461493e565b5b6000614d73868287016149ca565b9350506020614d84868287016149ca565b9250506040614d95868287016149ca565b9150509250925092565b60008060408385031215614db657614db561493e565b5b6000614dc485828601614971565b9250506020614dd5858286016149ca565b9150509250929050565b6000614dea826147d2565b9050919050565b614dfa81614ddf565b82525050565b6000602082019050614e156000830184614df1565b92915050565b60008060408385031215614e3257614e3161493e565b5b6000614e4085828601614971565b9250506020614e5185828601614971565b9150509250929050565b600081519050919050565b600082825260208201905092915050565b6000819050602082019050919050565b614e9081614948565b82525050565b6000614ea28383614e87565b60208301905092915050565b6000602082019050919050565b6000614ec682614e5b565b614ed08185614e66565b9350614edb83614e77565b8060005b83811015614f0c578151614ef38882614e96565b9750614efe83614eae565b925050600181019050614edf565b5085935050505092915050565b60006020820190508181036000830152614f338184614ebb565b905092915050565b600082825260208201905092915050565b7f4f776e61626c653a2063616c6c6572206973206e6f7420746865206f776e6572600082015250565b6000614f82602083614f3b565b9150614f8d82614f4c565b602082019050919050565b60006020820190508181036000830152614fb181614f75565b9050919050565b7f4e487b7100000000000000000000000000000000000000000000000000000000600052601160045260246000fd5b6000614ff28261484c565b9150614ffd8361484c565b9250817fffffffffffffffffffffffffffffffffffffffffffffffffffffffffffffffff048311821515161561503657615035614fb8565b5b828202905092915050565b7f4e487b7100000000000000000000000000000000000000000000000000000000600052601260045260246000fd5b600061507b8261484c565b91506150868361484c565b92508261509657615095615041565b5b828204905092915050565b60006150ac8261484c565b91506150b78361484c565b9250827fffffffffffffffffffffffffffffffffffffffffffffffffffffffffffffffff038211156150ec576150eb614fb8565b5b828201905092915050565b600060408201905061510c6000830185614b15565b615119602083018461490a565b9392505050565b61512981614a4c565b811461513457600080fd5b50565b60008151905061514681615120565b92915050565b6000602082840312156151625761516161493e565b5b600061517084828501615137565b91505092915050565b600060608201905061518e6000830186614b15565b61519b6020830185614b15565b6151a8604083018461490a565b949350505050565b6000815190506151bf816149b3565b92915050565b6000602082840312156151db576151da61493e565b5b60006151e9848285016151b0565b91505092915050565b7f4e487b7100000000000000000000000000000000000000000000000000000000600052604160045260246000fd5b7f4e487b7100000000000000000000000000000000000000000000000000000000600052603260045260246000fd5b6000604082019050615265600083018561490a565b81810360208301526152778184614ebb565b90509392505050565b6000601f19601f8301169050919050565b61529a82615280565b810181811067ffffffffffffffff821117156152b9576152b86151f2565b5b80604052505050565b60006152cc614934565b90506152d88282615291565b919050565b600067ffffffffffffffff8211156152f8576152f76151f2565b5b602082029050602081019050919050565b600061531c615317846152dd565b6152c2565b9050808382526020820190506020840283018581111561533f5761533e614b49565b5b835b81811015615368578061535488826151b0565b845260208401935050602081019050615341565b5050509392505050565b600082601f83011261538757615386614b3f565b5b8151615397848260208601615309565b91505092915050565b6000602082840312156153b6576153b561493e565b5b600082015167ffffffffffffffff8111156153d4576153d3614943565b5b6153e084828501615372565b91505092915050565b60006153f48261484c565b91507fffffffffffffffffffffffffffffffffffffffffffffffffffffffffffffffff82141561542757615426614fb8565b5b600182019050919050565b600061543d8261484c565b91506154488361484c565b92508282101561545b5761545a614fb8565b5b828203905092915050565b7f555345525f4e4f545f4f574e4552000000000000000000000000000000000000600082015250565b600061549c600e83614f3b565b91506154a782615466565b602082019050919050565b600060208201905081810360008301526154cb8161548f565b9050919050565b60006040820190506154e7600083018561490a565b6154f4602083018461490a565b9392505050565b7f504f5349544956455f414d4f554e545f52455155495245440000000000000000600082015250565b6000615531601883614f3b565b915061553c826154fb565b602082019050919050565b6000602082019050818103600083015261556081615524565b9050919050565b600061557282614786565b9050919050565b61558281615567565b811461558d57600080fd5b50565b60008135905061559f81615579565b92915050565b600060ff82169050919050565b6155bb816155a5565b81146155c657600080fd5b50565b6000813590506155d8816155b2565b92915050565b600080600080600060a086880312156155fa576155f961493e565b5b6000615608888289016149ca565b955050602061561988828901615590565b945050604061562a888289016155c9565b935050606061563b888289016149ca565b925050608061564c888289016149ca565b9150509295509295909350565b7f4e4f545f454e4f5547485f434f4c4c41544552414c0000000000000000000000600082015250565b600061568f601583614f3b565b915061569a82615659565b602082019050919050565b600060208201905081810360008301526156be81615682565b9050919050565b60006060820190506156da600083018661490a565b6156e7602083018561490a565b6156f4604083018461490a565b949350505050565b7f414d4f554e545f544f4f5f424947000000000000000000000000000000000000600082015250565b6000615732600e83614f3b565b915061573d826156fc565b602082019050919050565b6000602082019050818103600083015261576181615725565b9050919050565b7f414d4f554e545f5a45524f000000000000000000000000000000000000000000600082015250565b600061579e600b83614f3b565b91506157a982615768565b602082019050919050565b600060208201905081810360008301526157cd81615791565b9050919050565b7f4f776e61626c653a206e6577206f776e657220697320746865207a65726f206160008201527f6464726573730000000000000000000000000000000000000000000000000000602082015250565b6000615830602683614f3b565b915061583b826157d4565b604082019050919050565b6000602082019050818103600083015261585f81615823565b9050919050565b61586f816155a5565b82525050565b600060a08201905061588a600083018861490a565b6158976020830187614b15565b6158a46040830186615866565b6158b1606083018561490a565b6158be608083018461490a565b9695505050505050565b600081519050919050565b600082825260208201905092915050565b60005b838110156159025780820151818401526020810190506158e7565b83811115615911576000848401525b50505050565b6000615922826158c8565b61592c81856158d3565b935061593c8185602086016158e4565b61594581615280565b840191505092915050565b600061ffff82169050919050565b61596781615950565b82525050565b600060e082019050615982600083018a614b15565b81810360208301526159948189614ebb565b905081810360408301526159a8818861488a565b905081810360608301526159bc818761488a565b90506159cb6080830186614b15565b81810360a08301526159dd8185615917565b90506159ec60c083018461595e565b98975050505050505050565b6000604082019050615a0d6000830185614b15565b615a1a6020830184614b15565b9392505050565b600060a082019050615a36600083018861490a565b615a43602083018761490a565b8181036040830152615a558186614ebb565b9050615a646060830185614b15565b615a71608083018461490a565b9695505050505050565b60008060008060808587031215615a9557615a9461493e565b5b6000615aa3878288016149ca565b9450506020615ab487828801615590565b9350506040615ac5878288016155c9565b9250506060615ad6878288016149ca565b91505092959194509250565b7f5361666545524332303a204552433230206f7065726174696f6e20646964206e60008201527f6f74207375636365656400000000000000000000000000000000000000000000602082015250565b6000615b3e602a83614f3b565b9150615b4982615ae2565b604082019050919050565b60006020820190508181036000830152615b6d81615b31565b9050919050565b7f416464726573733a20696e73756666696369656e742062616c616e636520666f60008201527f722063616c6c0000000000000000000000000000000000000000000000000000602082015250565b6000615bd0602683614f3b565b9150615bdb82615b74565b604082019050919050565b60006020820190508181036000830152615bff81615bc3565b9050919050565b7f416464726573733a2063616c6c20746f206e6f6e2d636f6e7472616374000000600082015250565b6000615c3c601d83614f3b565b9150615c4782615c06565b602082019050919050565b60006020820190508181036000830152615c6b81615c2f565b9050919050565b600081905092915050565b6000615c88826158c8565b615c928185615c72565b9350615ca28185602086016158e4565b80840191505092915050565b6000615cba8284615c7d565b915081905092915050565b600081519050919050565b6000615cdb82615cc5565b615ce58185614f3b565b9350615cf58185602086016158e4565b615cfe81615280565b840191505092915050565b60006020820190508181036000830152615d238184615cd0565b90509291505056fea2646970667358221220587ab02b84f6a320e1d650ffc6e09ccc459003e9227d1623ef14e48bc7889e0b64736f6c63430008090033",
    "immutableReferences": {
        "762": [
            {
                "length": 32,
                "start": 1911
            }
        ],
        "765": [
            {
                "length": 32,
                "start": 7372
            },
            {
                "length": 32,
                "start": 8355
            },
            {
                "length": 32,
                "start": 12426
            }
        ]
    },
    "source": "// SPDX-License-Identifier: MIT\npragma solidity 0.8.9;\n\nimport {VaultLongMaiFinanceBase} from \"./VaultLongMaiFinanceBase.sol\";\n\ncontract LinkVaultLong is VaultLongMaiFinanceBase {\n    address constant collateralAddr =\n        0x53E0bca35eC356BD5ddDFebbD1Fc0fD03FaBad39;\n    address constant vaultAddr = 0x61167073E31b1DAd85a3E531211c7B8F1E5cAE72;\n    uint256 constant periodStartRewards = 1637160627;\n\n    constructor()\n        VaultLongMaiFinanceBase(collateralAddr, vaultAddr, periodStartRewards)\n    {}\n}\n",
    "sourcePath": "/media/nello/Data/dev/blockchain/Consensys/blockchain-developer-bootcamp-final-project/contracts/LinkVaultLong.sol",
    "compiler": {
        "name": "solc",
        "version": "0.8.9+commit.e5eed63a.Emscripten.clang"
    },
    "schemaVersion": "3.4.3",
    "updatedAt": "2021-11-25T19:49:27.377Z",
    "networkType": "ethereum",
    "devdoc": {
        "kind": "dev",
        "methods": {
            "owner()": {
                "details": "Returns the address of the current owner."
            },
            "renounceOwnership()": {
                "details": "Leaves the contract without owner. It will not be possible to call `onlyOwner` functions anymore. Can only be called by the current owner. NOTE: Renouncing ownership will leave the contract without an owner, thereby removing any functionality that is only available to the owner."
            },
            "transferOwnership(address)": {
                "details": "Transfers ownership of the contract to a new account (`newOwner`). Can only be called by the current owner."
            }
        },
        "version": 1
    },
    "userdoc": {
        "kind": "user",
        "methods": {
            "claimRewardsFor(address)": {
                "notice": "To claim the pending reward for a user for a specific vault, the rewards are coming from the weekly distribution from Mai finance in Qi rewards, a user will be able to claim only once every REWARD_PERIOD_NB_BLOCKS blocks"
            },
            "claimableRewards(address)": {
                "notice": "Returns the amount of rewards a user can claim"
            },
            "deposit(uint256,uint256)": {
                "notice": "Deposit funds from the user to the contract, then the contract deposit the funds to the chosen Mai vault"
            },
            "executeOperation(address[],uint256[],uint256[],address,bytes)": {
                "notice": "This function is called after the contract has received the flash loaned amount"
            },
            "getAmountInMin(address,address,uint256)": {
                "notice": "This function will return the minimum amount in for a swap"
            },
            "getAmountOutMin(address,address,uint256)": {
                "notice": "This function will return the minimum amount out from a swap"
            },
            "getMAIDebtForAmount(uint256)": {
                "notice": "Returns an estimate of MAI amount to borrow to create a new long"
            },
            "getMaxWithdrawableCollateral(uint256)": {
                "notice": "This will return the max amount of collateral it is possible to withdraw with the current debt"
            },
            "getMinimumCollateralPercentage()": {
                "notice": "Get the minimum collateral percentage for this Mai vault type"
            },
            "getMultiplicatorMax100th()": {
                "notice": "This function will give the multiplicator maximum one user can long an asset The result is given multiplied by 100 to keep 2 decimals precision, the caller needs to devide by 100"
            },
            "getPathSwap(address,address)": {
                "notice": "Get the path for the 2 tokens passed in parameters, since we use Quickswap for the swaps, will go through WMATIC token to create the swap"
            },
            "getUserVaultList()": {
                "notice": "Get all the vault Ids for the sender address"
            },
            "longAsset(uint256,uint256,uint256)": {
                "notice": "The functions borrow the required amount of USDC to buy the chosen amount of collateral to long, will repay the borrowed USDC by borrowing MAI from Mai finance's vault, the user ends up with a long position and a debt in MAI Credits to Abracadra finance for the idea"
            },
            "reduceLong(uint256,uint256)": {
                "notice": "Reduce the long amount by doing another flash loan in USDC to buy the MAI required to repay the desired amount, the contract will then withdraw the required collateral to repay the USDC debt"
            },
            "repay(uint256,uint256)": {
                "notice": "Repay the wanted amount of MAI from the user wallet to the chosen vault"
            },
            "updateRewardsBalance(uint256,uint256)": {
                "notice": "Function called by an external script that will update the number of rewards which the contract get by period to be then shared with users"
            },
            "userOwnsVault(uint256,address)": {
                "notice": "Get the vault index for the vault Id and sender address passed in parameters"
            },
            "withdrawCollateral(uint256,uint256)": {
                "notice": "Withdraw the collateral amount from the Mai vault calling withdrawFromVault(), then sends the fund back to the user"
            }
        },
        "version": 1
    }
}