{
    "contractName": "VaultLongMaiFinance",
    "abi": [
        {
            "inputs": [
                {
                    "internalType": "address",
                    "name": "_collateral",
                    "type": "address"
                },
                {
                    "internalType": "address",
                    "name": "_maiVault",
                    "type": "address"
                }
            ],
            "stateMutability": "nonpayable",
            "type": "constructor"
        },
        {
            "anonymous": false,
            "inputs": [
                {
                    "indexed": false,
                    "internalType": "uint256",
                    "name": "amountClaimed",
                    "type": "uint256"
                },
                {
                    "indexed": false,
                    "internalType": "uint256",
                    "name": "nextClaimableBlock",
                    "type": "uint256"
                }
            ],
            "name": "ClaimRewards",
            "type": "event"
        },
        {
            "anonymous": false,
            "inputs": [
                {
                    "indexed": false,
                    "internalType": "uint256",
                    "name": "vaultId",
                    "type": "uint256"
                },
                {
                    "indexed": false,
                    "internalType": "uint256",
                    "name": "amount",
                    "type": "uint256"
                }
            ],
            "name": "Deposit",
            "type": "event"
        },
        {
            "anonymous": false,
            "inputs": [
                {
                    "indexed": false,
                    "internalType": "uint256",
                    "name": "vaultId",
                    "type": "uint256"
                },
                {
                    "indexed": false,
                    "internalType": "uint256",
                    "name": "longAmount",
                    "type": "uint256"
                },
                {
                    "indexed": false,
                    "internalType": "uint256",
                    "name": "initialDeposit",
                    "type": "uint256"
                }
            ],
            "name": "LongAsset",
            "type": "event"
        },
        {
            "anonymous": false,
            "inputs": [
                {
                    "indexed": false,
                    "internalType": "uint256",
                    "name": "vaultId",
                    "type": "uint256"
                },
                {
                    "indexed": false,
                    "internalType": "uint256",
                    "name": "debtAmountToReduce",
                    "type": "uint256"
                }
            ],
            "name": "ReduceLong",
            "type": "event"
        },
        {
            "anonymous": false,
            "inputs": [
                {
                    "indexed": false,
                    "internalType": "uint256",
                    "name": "vaultId",
                    "type": "uint256"
                },
                {
                    "indexed": false,
                    "internalType": "uint256",
                    "name": "amount",
                    "type": "uint256"
                }
            ],
            "name": "Repay",
            "type": "event"
        },
        {
            "anonymous": false,
            "inputs": [
                {
                    "indexed": false,
                    "internalType": "uint256",
                    "name": "reward",
                    "type": "uint256"
                }
            ],
            "name": "RewardAdded",
            "type": "event"
        },
        {
            "anonymous": false,
            "inputs": [
                {
                    "indexed": true,
                    "internalType": "address",
                    "name": "user",
                    "type": "address"
                },
                {
                    "indexed": false,
                    "internalType": "uint256",
                    "name": "reward",
                    "type": "uint256"
                }
            ],
            "name": "RewardPaid",
            "type": "event"
        },
        {
            "anonymous": false,
            "inputs": [
                {
                    "indexed": false,
                    "internalType": "uint256",
                    "name": "vaultId",
                    "type": "uint256"
                }
            ],
            "name": "VaultCreated",
            "type": "event"
        },
        {
            "anonymous": false,
            "inputs": [
                {
                    "indexed": false,
                    "internalType": "uint256",
                    "name": "vaultId",
                    "type": "uint256"
                },
                {
                    "indexed": false,
                    "internalType": "uint256",
                    "name": "amount",
                    "type": "uint256"
                }
            ],
            "name": "WithdrawCollateral",
            "type": "event"
        },
        {
            "inputs": [],
            "name": "ADDRESSES_PROVIDER",
            "outputs": [
                {
                    "internalType": "contract ILendingPoolAddressesProvider",
                    "name": "",
                    "type": "address"
                }
            ],
            "stateMutability": "view",
            "type": "function"
        },
        {
            "inputs": [],
            "name": "LENDING_POOL",
            "outputs": [
                {
                    "internalType": "contract ILendingPool",
                    "name": "",
                    "type": "address"
                }
            ],
            "stateMutability": "view",
            "type": "function"
        },
        {
            "inputs": [],
            "name": "collateral",
            "outputs": [
                {
                    "internalType": "address",
                    "name": "",
                    "type": "address"
                }
            ],
            "stateMutability": "view",
            "type": "function"
        },
        {
            "inputs": [],
            "name": "maiVault",
            "outputs": [
                {
                    "internalType": "address",
                    "name": "",
                    "type": "address"
                }
            ],
            "stateMutability": "view",
            "type": "function"
        },
        {
            "inputs": [],
            "name": "createVault",
            "outputs": [],
            "stateMutability": "nonpayable",
            "type": "function"
        },
        {
            "inputs": [
                {
                    "internalType": "uint256",
                    "name": "vaultId",
                    "type": "uint256"
                },
                {
                    "internalType": "uint256",
                    "name": "amount",
                    "type": "uint256"
                }
            ],
            "name": "deposit",
            "outputs": [],
            "stateMutability": "nonpayable",
            "type": "function"
        },
        {
            "inputs": [
                {
                    "internalType": "uint256",
                    "name": "vaultId",
                    "type": "uint256"
                },
                {
                    "internalType": "uint256",
                    "name": "amount",
                    "type": "uint256"
                }
            ],
            "name": "withdrawCollateral",
            "outputs": [],
            "stateMutability": "nonpayable",
            "type": "function"
        },
        {
            "inputs": [
                {
                    "internalType": "uint256",
                    "name": "vaultId",
                    "type": "uint256"
                },
                {
                    "internalType": "uint256",
                    "name": "longAmount",
                    "type": "uint256"
                },
                {
                    "internalType": "uint256",
                    "name": "initialDeposit",
                    "type": "uint256"
                }
            ],
            "name": "longAsset",
            "outputs": [],
            "stateMutability": "nonpayable",
            "type": "function"
        },
        {
            "inputs": [
                {
                    "internalType": "uint256",
                    "name": "vaultId",
                    "type": "uint256"
                },
                {
                    "internalType": "uint256",
                    "name": "debtAmountToReduce",
                    "type": "uint256"
                }
            ],
            "name": "reduceLong",
            "outputs": [],
            "stateMutability": "nonpayable",
            "type": "function"
        },
        {
            "inputs": [
                {
                    "internalType": "uint256",
                    "name": "vaultId",
                    "type": "uint256"
                },
                {
                    "internalType": "uint256",
                    "name": "amountToRepay",
                    "type": "uint256"
                }
            ],
            "name": "repay",
            "outputs": [],
            "stateMutability": "nonpayable",
            "type": "function"
        },
        {
            "inputs": [],
            "name": "getUserVaultList",
            "outputs": [
                {
                    "internalType": "uint256[]",
                    "name": "",
                    "type": "uint256[]"
                }
            ],
            "stateMutability": "view",
            "type": "function"
        },
        {
            "inputs": [
                {
                    "internalType": "address[]",
                    "name": "assets",
                    "type": "address[]"
                },
                {
                    "internalType": "uint256[]",
                    "name": "amounts",
                    "type": "uint256[]"
                },
                {
                    "internalType": "uint256[]",
                    "name": "premiums",
                    "type": "uint256[]"
                },
                {
                    "internalType": "address",
                    "name": "initiator",
                    "type": "address"
                },
                {
                    "internalType": "bytes",
                    "name": "params",
                    "type": "bytes"
                }
            ],
            "name": "executeOperation",
            "outputs": [
                {
                    "internalType": "bool",
                    "name": "",
                    "type": "bool"
                }
            ],
            "stateMutability": "nonpayable",
            "type": "function"
        },
        {
            "inputs": [],
            "name": "getMinimumCollateralPercentage",
            "outputs": [
                {
                    "internalType": "uint256",
                    "name": "",
                    "type": "uint256"
                }
            ],
            "stateMutability": "view",
            "type": "function"
        },
        {
            "inputs": [],
            "name": "getMultiplicatorMax100th",
            "outputs": [
                {
                    "internalType": "uint256",
                    "name": "",
                    "type": "uint256"
                }
            ],
            "stateMutability": "view",
            "type": "function"
        },
        {
            "inputs": [
                {
                    "internalType": "address",
                    "name": "_tokenIn",
                    "type": "address"
                },
                {
                    "internalType": "address",
                    "name": "_tokenOut",
                    "type": "address"
                },
                {
                    "internalType": "uint256",
                    "name": "_amountIn",
                    "type": "uint256"
                }
            ],
            "name": "getAmountOutMin",
            "outputs": [
                {
                    "internalType": "uint256",
                    "name": "",
                    "type": "uint256"
                }
            ],
            "stateMutability": "view",
            "type": "function"
        },
        {
            "inputs": [
                {
                    "internalType": "address",
                    "name": "_tokenIn",
                    "type": "address"
                },
                {
                    "internalType": "address",
                    "name": "_tokenOut",
                    "type": "address"
                },
                {
                    "internalType": "uint256",
                    "name": "_amountOut",
                    "type": "uint256"
                }
            ],
            "name": "getAmountInMin",
            "outputs": [
                {
                    "internalType": "uint256",
                    "name": "",
                    "type": "uint256"
                }
            ],
            "stateMutability": "view",
            "type": "function"
        },
        {
            "inputs": [
                {
                    "internalType": "uint256",
                    "name": "amount",
                    "type": "uint256"
                }
            ],
            "name": "getMAIDebtForAmount",
            "outputs": [
                {
                    "internalType": "uint256",
                    "name": "",
                    "type": "uint256"
                }
            ],
            "stateMutability": "view",
            "type": "function"
        },
        {
            "inputs": [
                {
                    "internalType": "uint256",
                    "name": "vaultId",
                    "type": "uint256"
                }
            ],
            "name": "getMaxWithdrawableCollateral",
            "outputs": [
                {
                    "internalType": "uint256",
                    "name": "",
                    "type": "uint256"
                }
            ],
            "stateMutability": "view",
            "type": "function"
        },
        {
            "inputs": [
                {
                    "internalType": "address",
                    "name": "token1",
                    "type": "address"
                },
                {
                    "internalType": "address",
                    "name": "token2",
                    "type": "address"
                }
            ],
            "name": "getPathSwap",
            "outputs": [
                {
                    "internalType": "address[]",
                    "name": "",
                    "type": "address[]"
                }
            ],
            "stateMutability": "view",
            "type": "function"
        }
    ],
    "bytecode": "0x60c060405273d05e3e715d945b59290df0ae8ef85c1bdb6847446000806101000a81548173ffffffffffffffffffffffffffffffffffffffff021916908373ffffffffffffffffffffffffffffffffffffffff160217905550732791bca1f2de4661ed88a30c99a7a9449aa84174600160006101000a81548173ffffffffffffffffffffffffffffffffffffffff021916908373ffffffffffffffffffffffffffffffffffffffff16021790555073a3fa99a148fa48d14ed51d610c367c61876997f1600260006101000a81548173ffffffffffffffffffffffffffffffffffffffff021916908373ffffffffffffffffffffffffffffffffffffffff160217905550730d500b1d8e8ef31e21c99d1db9a6444d3adf1270600360006101000a81548173ffffffffffffffffffffffffffffffffffffffff021916908373ffffffffffffffffffffffffffffffffffffffff16021790555073a5e0829caced8ffdd4de3c43696c57f7d7a678ff600460006101000a81548173ffffffffffffffffffffffffffffffffffffffff021916908373ffffffffffffffffffffffffffffffffffffffff160217905550348015620001b957600080fd5b5060405162004b5c38038062004b5c8339818101604052810190620001df9190620003fa565b60008054906101000a900473ffffffffffffffffffffffffffffffffffffffff168073ffffffffffffffffffffffffffffffffffffffff1660808173ffffffffffffffffffffffffffffffffffffffff16815250508073ffffffffffffffffffffffffffffffffffffffff16630261bf8b6040518163ffffffff167c010000000000000000000000000000000000000000000000000000000002815260040160206040518083038186803b1580156200029757600080fd5b505afa158015620002ac573d6000803e3d6000fd5b505050506040513d601f19601f82011682018060405250810190620002d2919062000441565b73ffffffffffffffffffffffffffffffffffffffff1660a08173ffffffffffffffffffffffffffffffffffffffff16815250505080600660006101000a81548173ffffffffffffffffffffffffffffffffffffffff021916908373ffffffffffffffffffffffffffffffffffffffff16021790555081600760006101000a81548173ffffffffffffffffffffffffffffffffffffffff021916908373ffffffffffffffffffffffffffffffffffffffff160217905550505062000473565b600080fd5b600073ffffffffffffffffffffffffffffffffffffffff82169050919050565b6000620003c28262000395565b9050919050565b620003d481620003b5565b8114620003e057600080fd5b50565b600081519050620003f481620003c9565b92915050565b6000806040838503121562000414576200041362000390565b5b60006200042485828601620003e3565b92505060206200043785828601620003e3565b9150509250929050565b6000602082840312156200045a576200045962000390565b5b60006200046a84828501620003e3565b91505092915050565b60805160a0516146b5620004a760003960008181611207015281816114130152611eef015260006103cd01526146b56000f3fe608060405234801561001057600080fd5b506004361061013e576000357c0100000000000000000000000000000000000000000000000000000000900480637afa4bbe116100ca578063b9f40cf91161008e578063b9f40cf914610327578063d8aed14514610345578063d8dfeb4514610361578063e2bbb1581461037f578063f48b0dc81461039b5761013e565b80637afa4bbe1461026f578063920f5c841461029f5780639b816a47146102cf578063a887b6af146102ed578063b4dcfc77146103095761013e565b80633c50eec1116101115780633c50eec1146101cd5780635d12928b146101fd5780635e99a7571461020757806368e1910414610223578063767a7b05146102535761013e565b80630542975c146101435780630654fc951461016157806322c40bdf1461017f578063241091431461019d575b600080fd5b61014b6103cb565b6040516101589190613300565b60405180910390f35b6101696103ef565b60405161017691906133e3565b60405180910390f35b610187610484565b6040516101949190613414565b60405180910390f35b6101b760048036038101906101b2919061346f565b610547565b6040516101c49190613414565b60405180910390f35b6101e760048036038101906101e291906134da565b6108c3565b6040516101f49190613414565b60405180910390f35b6102056109d8565b005b610221600480360381019061021c919061352d565b610b40565b005b61023d600480360381019061023891906134da565b610b9a565b60405161024a9190613414565b60405180910390f35b61026d6004803603810190610268919061352d565b610ca3565b005b6102896004803603810190610284919061346f565b610e59565b6040516102969190613414565b60405180910390f35b6102b960048036038101906102b4919061367e565b61110a565b6040516102c69190613795565b60405180910390f35b6102d76112c8565b6040516102e491906137bf565b60405180910390f35b610307600480360381019061030291906137da565b6112ee565b005b610311611411565b60405161031e919061384e565b60405180910390f35b61032f611435565b60405161033c9190613414565b60405180910390f35b61035f600480360381019061035a919061352d565b61146e565b005b610369611667565b60405161037691906137bf565b60405180910390f35b6103996004803603810190610394919061352d565b61168d565b005b6103b560048036038101906103b09190613869565b611839565b6040516103c29190613967565b60405180910390f35b7f000000000000000000000000000000000000000000000000000000000000000081565b6060600560003373ffffffffffffffffffffffffffffffffffffffff1673ffffffffffffffffffffffffffffffffffffffff16815260200190815260200160002080548060200260200160405190810160405280929190818152602001828054801561047a57602002820191906000526020600020905b815481526020019060010190808311610466575b5050505050905090565b6000600660009054906101000a900473ffffffffffffffffffffffffffffffffffffffff1673ffffffffffffffffffffffffffffffffffffffff1663e5f4dc926040518163ffffffff167c010000000000000000000000000000000000000000000000000000000002815260040160206040518083038186803b15801561050a57600080fd5b505afa15801561051e573d6000803e3d6000fd5b505050506040513d601f19601f82011682018060405250810190610542919061399e565b905090565b60006060600567ffffffffffffffff811115610566576105656139cb565b5b6040519080825280602002602001820160405280156105945781602001602082028036833780820191505090505b509050600260009054906101000a900473ffffffffffffffffffffffffffffffffffffffff16816000815181106105ce576105cd6139fa565b5b602002602001019073ffffffffffffffffffffffffffffffffffffffff16908173ffffffffffffffffffffffffffffffffffffffff1681525050600360009054906101000a900473ffffffffffffffffffffffffffffffffffffffff168160018151811061063f5761063e6139fa565b5b602002602001019073ffffffffffffffffffffffffffffffffffffffff16908173ffffffffffffffffffffffffffffffffffffffff1681525050600160009054906101000a900473ffffffffffffffffffffffffffffffffffffffff16816002815181106106b0576106af6139fa565b5b602002602001019073ffffffffffffffffffffffffffffffffffffffff16908173ffffffffffffffffffffffffffffffffffffffff1681525050600360009054906101000a900473ffffffffffffffffffffffffffffffffffffffff1681600381518110610721576107206139fa565b5b602002602001019073ffffffffffffffffffffffffffffffffffffffff16908173ffffffffffffffffffffffffffffffffffffffff1681525050600760009054906101000a900473ffffffffffffffffffffffffffffffffffffffff1681600481518110610792576107916139fa565b5b602002602001019073ffffffffffffffffffffffffffffffffffffffff16908173ffffffffffffffffffffffffffffffffffffffff16815250506000600460009054906101000a900473ffffffffffffffffffffffffffffffffffffffff1673ffffffffffffffffffffffffffffffffffffffff16631f00ca7485846040518363ffffffff167c0100000000000000000000000000000000000000000000000000000000028152600401610847929190613a29565b60006040518083038186803b15801561085f57600080fd5b505afa158015610873573d6000803e3d6000fd5b505050506040513d6000823e3d601f19601f8201168201806040525081019061089c9190613b79565b9050806000815181106108b2576108b16139fa565b5b602002602001015192505050919050565b600060606108d18585611839565b90506000600460009054906101000a900473ffffffffffffffffffffffffffffffffffffffff1673ffffffffffffffffffffffffffffffffffffffff1663d06ca61f85846040518363ffffffff167c010000000000000000000000000000000000000000000000000000000002815260040161094e929190613a29565b60006040518083038186803b15801561096657600080fd5b505afa15801561097a573d6000803e3d6000fd5b505050506040513d6000823e3d601f19601f820116820180604052508101906109a39190613b79565b905080600183516109b49190613bf1565b815181106109c5576109c46139fa565b5b6020026020010151925050509392505050565b6000600660009054906101000a900473ffffffffffffffffffffffffffffffffffffffff16905060008173ffffffffffffffffffffffffffffffffffffffff16635d12928b6040518163ffffffff167c0100000000000000000000000000000000000000000000000000000000028152600401602060405180830381600087803b158015610a6557600080fd5b505af1158015610a79573d6000803e3d6000fd5b505050506040513d601f19601f82011682018060405250810190610a9d919061399e565b9050600560003373ffffffffffffffffffffffffffffffffffffffff1673ffffffffffffffffffffffffffffffffffffffff1681526020019081526020016000208190806001815401808255809150506001900390600052602060002001600090919091909150557f4111fcee61908834830adf60a520ba26d09f02fa4e00cfe3d2c134e32f3f869681604051610b349190613414565b60405180910390a15050565b8133610b4c8282611b46565b50610b5b848460016000611c66565b7fc0df9fe8084fa90073ce26d7d6aab182bcc9b31fc0d5d0292b71444a96fa9e3d8484604051610b8c929190613c25565b60405180910390a150505050565b60006060610ba88585611839565b90506000600460009054906101000a900473ffffffffffffffffffffffffffffffffffffffff1673ffffffffffffffffffffffffffffffffffffffff16631f00ca7485846040518363ffffffff167c0100000000000000000000000000000000000000000000000000000000028152600401610c25929190613a29565b60006040518083038186803b158015610c3d57600080fd5b505afa158015610c51573d6000803e3d6000fd5b505050506040513d6000823e3d601f19601f82011682018060405250810190610c7a9190613b79565b905080600081518110610c9057610c8f6139fa565b5b6020026020010151925050509392505050565b8133610caf8282611b46565b508260008111610cf4576040517f08c379a0000000000000000000000000000000000000000000000000000000008152600401610ceb90613cab565b60405180910390fd5b610cfe8585611fae565b600760009054906101000a900473ffffffffffffffffffffffffffffffffffffffff1673ffffffffffffffffffffffffffffffffffffffff1663095ea7b330866040518363ffffffff167c0100000000000000000000000000000000000000000000000000000000028152600401610d77929190613ccb565b602060405180830381600087803b158015610d9157600080fd5b505af1158015610da5573d6000803e3d6000fd5b505050506040513d601f19601f82011682018060405250810190610dc99190613d20565b50610e19303386600760009054906101000a900473ffffffffffffffffffffffffffffffffffffffff1673ffffffffffffffffffffffffffffffffffffffff1661205d909392919063ffffffff16565b7f6c0ea3bea9dd66afa8f9d39d6eb93d833466190330813b42835efc650dca4cb98585604051610e4a929190613c25565b60405180910390a15050505050565b600080600660009054906101000a900473ffffffffffffffffffffffffffffffffffffffff16905060008173ffffffffffffffffffffffffffffffffffffffff1663d310f49b856040518263ffffffff167c0100000000000000000000000000000000000000000000000000000000028152600401610ed89190613414565b60206040518083038186803b158015610ef057600080fd5b505afa158015610f04573d6000803e3d6000fd5b505050506040513d601f19601f82011682018060405250810190610f28919061399e565b905060008273ffffffffffffffffffffffffffffffffffffffff1663d4a9b2c5866040518263ffffffff167c0100000000000000000000000000000000000000000000000000000000028152600401610f819190613414565b60206040518083038186803b158015610f9957600080fd5b505afa158015610fad573d6000803e3d6000fd5b505050506040513d601f19601f82011682018060405250810190610fd1919061399e565b90506000821415610fe757809350505050611105565b6000610ff1610484565b905060008473ffffffffffffffffffffffffffffffffffffffff1663df987846886040518263ffffffff167c010000000000000000000000000000000000000000000000000000000002815260040161104a9190613414565b60206040518083038186803b15801561106257600080fd5b505afa158015611076573d6000803e3d6000fd5b505050506040513d601f19601f8201168201806040525081019061109a919061399e565b9050600081856110aa9190613d4d565b9050600084826110ba9190613dd6565b9050600084836110ca9190613dd6565b9050600087826110da9190613bf1565b905060008684836110eb9190613dd6565b6110f59190613d4d565b9050809a50505050505050505050505b919050565b600080838381019061111c9190613e7e565b505092505050600089896000818110611138576111376139fa565b5b905060200201359050600088886000818110611157576111566139fa565b5b905060200201358b8b6000818110611172576111716139fa565b5b905060200201356111839190613ef9565b905060008d8d600081811061119b5761119a6139fa565b5b90506020020160208101906111b09190613f4f565b905060008460ff1614156111cf576111ca83838989612102565b6111e9565b60018460ff1614156111e8576111e78383898961262d565b5b5b8073ffffffffffffffffffffffffffffffffffffffff1663095ea7b37f0000000000000000000000000000000000000000000000000000000000000000846040518363ffffffff167c0100000000000000000000000000000000000000000000000000000000028152600401611260929190613ccb565b602060405180830381600087803b15801561127a57600080fd5b505af115801561128e573d6000803e3d6000fd5b505050506040513d601f19601f820116820180604052508101906112b29190613d20565b5060019450505050509998505050505050505050565b600660009054906101000a900473ffffffffffffffffffffffffffffffffffffffff1681565b82336112fa8282611b46565b50600083118015611334575061130e610484565b846064858761131d9190613ef9565b6113279190613d4d565b6113319190613dd6565b10155b611373576040517f08c379a000000000000000000000000000000000000000000000000000000000815260040161136a90613fc8565b60405180910390fd5b6113c2333085600760009054906101000a900473ffffffffffffffffffffffffffffffffffffffff1673ffffffffffffffffffffffffffffffffffffffff1661205d909392919063ffffffff16565b6113cf8585600086611c66565b7fcbf3d8fa8a0327024c779609ca3898d31246e64909b6867939acb857a6ca747e85858560405161140293929190613fe8565b60405180910390a15050505050565b7f000000000000000000000000000000000000000000000000000000000000000081565b6000806064611442610484565b61144c9190613bf1565b905060018161145b9190613ef9565b6127106114689190613dd6565b91505090565b813361147a8282611b46565b5082600081116114bf576040517f08c379a00000000000000000000000000000000000000000000000000000000081526004016114b690613cab565b60405180910390fd5b6000600660009054906101000a900473ffffffffffffffffffffffffffffffffffffffff1673ffffffffffffffffffffffffffffffffffffffff1663d310f49b876040518263ffffffff167c01000000000000000000000000000000000000000000000000000000000281526004016115389190613414565b60206040518083038186803b15801561155057600080fd5b505afa158015611564573d6000803e3d6000fd5b505050506040513d601f19601f82011682018060405250810190611588919061399e565b9050808511156115cd576040517f08c379a00000000000000000000000000000000000000000000000000000000081526004016115c49061406b565b60405180910390fd5b61161c333087600260009054906101000a900473ffffffffffffffffffffffffffffffffffffffff1673ffffffffffffffffffffffffffffffffffffffff1661205d909392919063ffffffff16565b6116268686612c0a565b7f552544cb36551120f07c66c5cd4b2987725a0c72198587f2ce796099bb66c58c8686604051611657929190613c25565b60405180910390a1505050505050565b600760009054906101000a900473ffffffffffffffffffffffffffffffffffffffff1681565b81336116998282611b46565b5082600081116116de576040517f08c379a00000000000000000000000000000000000000000000000000000000081526004016116d590613cab565b60405180910390fd5b60008411611721576040517f08c379a0000000000000000000000000000000000000000000000000000000008152600401611718906140d7565b60405180910390fd5b600760009054906101000a900473ffffffffffffffffffffffffffffffffffffffff1673ffffffffffffffffffffffffffffffffffffffff166323b872dd3330876040518463ffffffff167c010000000000000000000000000000000000000000000000000000000002815260040161179c939291906140f7565b602060405180830381600087803b1580156117b657600080fd5b505af11580156117ca573d6000803e3d6000fd5b505050506040513d601f19601f820116820180604052508101906117ee9190613d20565b506117f98585612da7565b7fa3af609bf46297028ce551832669030f9effef2b02606d02cbbcc40fe6b47c55858560405161182a929190613c25565b60405180910390a15050505050565b6060600360009054906101000a900473ffffffffffffffffffffffffffffffffffffffff1673ffffffffffffffffffffffffffffffffffffffff168373ffffffffffffffffffffffffffffffffffffffff1614806118e45750600360009054906101000a900473ffffffffffffffffffffffffffffffffffffffff1673ffffffffffffffffffffffffffffffffffffffff168273ffffffffffffffffffffffffffffffffffffffff16145b156119de576000600267ffffffffffffffff811115611906576119056139cb565b5b6040519080825280602002602001820160405280156119345781602001602082028036833780820191505090505b509050838160008151811061194c5761194b6139fa565b5b602002602001019073ffffffffffffffffffffffffffffffffffffffff16908173ffffffffffffffffffffffffffffffffffffffff1681525050828160018151811061199b5761199a6139fa565b5b602002602001019073ffffffffffffffffffffffffffffffffffffffff16908173ffffffffffffffffffffffffffffffffffffffff168152505080915050611b40565b6000600367ffffffffffffffff8111156119fb576119fa6139cb565b5b604051908082528060200260200182016040528015611a295781602001602082028036833780820191505090505b5090508381600081518110611a4157611a406139fa565b5b602002602001019073ffffffffffffffffffffffffffffffffffffffff16908173ffffffffffffffffffffffffffffffffffffffff1681525050600360009054906101000a900473ffffffffffffffffffffffffffffffffffffffff1681600181518110611ab257611ab16139fa565b5b602002602001019073ffffffffffffffffffffffffffffffffffffffff16908173ffffffffffffffffffffffffffffffffffffffff16815250508281600281518110611b0157611b006139fa565b5b602002602001019073ffffffffffffffffffffffffffffffffffffffff16908173ffffffffffffffffffffffffffffffffffffffff1681525050809150505b92915050565b600080600560008473ffffffffffffffffffffffffffffffffffffffff1673ffffffffffffffffffffffffffffffffffffffff168152602001908152602001600020805480602002602001604051908101604052809291908181526020018280548015611bd257602002820191906000526020600020905b815481526020019060010190808311611bbe575b5050505050905060005b8151811015611c245784828281518110611bf957611bf86139fa565b5b60200260200101511415611c11578092505050611c60565b8080611c1c9061412e565b915050611bdc565b506040517f08c379a0000000000000000000000000000000000000000000000000000000008152600401611c57906141c3565b60405180910390fd5b92915050565b6000611cb7600160009054906101000a900473ffffffffffffffffffffffffffffffffffffffff16600760009054906101000a900473ffffffffffffffffffffffffffffffffffffffff1686610b9a565b905060018360ff161415611d1757611d14600160009054906101000a900473ffffffffffffffffffffffffffffffffffffffff16600260009054906101000a900473ffffffffffffffffffffffffffffffffffffffff1686610b9a565b90505b60003090506000600167ffffffffffffffff811115611d3957611d386139cb565b5b604051908082528060200260200182016040528015611d675781602001602082028036833780820191505090505b509050600160009054906101000a900473ffffffffffffffffffffffffffffffffffffffff1681600081518110611da157611da06139fa565b5b602002602001019073ffffffffffffffffffffffffffffffffffffffff16908173ffffffffffffffffffffffffffffffffffffffff16815250506000600167ffffffffffffffff811115611df857611df76139cb565b5b604051908082528060200260200182016040528015611e265781602001602082028036833780820191505090505b5090508381600081518110611e3e57611e3d6139fa565b5b6020026020010181815250506000600167ffffffffffffffff811115611e6757611e666139cb565b5b604051908082528060200260200182016040528015611e955781602001602082028036833780820191505090505b509050600081600081518110611eae57611ead6139fa565b5b602002602001018181525050600030905060008a338a8c8b604051602001611eda9594939291906141f2565b604051602081830303815290604052905060007f000000000000000000000000000000000000000000000000000000000000000073ffffffffffffffffffffffffffffffffffffffff1663ab9c4b5d888888888888886040518863ffffffff167c0100000000000000000000000000000000000000000000000000000000028152600401611f6e97969594939291906142ea565b600060405180830381600087803b158015611f8857600080fd5b505af1158015611f9c573d6000803e3d6000fd5b50505050505050505050505050505050565b600660009054906101000a900473ffffffffffffffffffffffffffffffffffffffff1673ffffffffffffffffffffffffffffffffffffffff1663767a7b0583836040518363ffffffff167c0100000000000000000000000000000000000000000000000000000000028152600401612027929190613c25565b600060405180830381600087803b15801561204157600080fd5b505af1158015612055573d6000803e3d6000fd5b505050505050565b6120fc846323b872dd7c01000000000000000000000000000000000000000000000000000000000285858560405160240161209a939291906140f7565b604051602081830303815290604052907bffffffffffffffffffffffffffffffffffffffffffffffffffffffff19166020820180517bffffffffffffffffffffffffffffffffffffffffffffffffffffffff8381831617835250505050612f4e565b50505050565b600080600084848101906121169190613e7e565b9450945050509250600160009054906101000a900473ffffffffffffffffffffffffffffffffffffffff1673ffffffffffffffffffffffffffffffffffffffff1663095ea7b3600460009054906101000a900473ffffffffffffffffffffffffffffffffffffffff16896040518363ffffffff167c01000000000000000000000000000000000000000000000000000000000281526004016121b9929190613ccb565b602060405180830381600087803b1580156121d357600080fd5b505af11580156121e7573d6000803e3d6000fd5b505050506040513d601f19601f8201168201806040525081019061220b9190613d20565b506000600460009054906101000a900473ffffffffffffffffffffffffffffffffffffffff1673ffffffffffffffffffffffffffffffffffffffff16638803dbee848a61229c600160009054906101000a900473ffffffffffffffffffffffffffffffffffffffff16600760009054906101000a900473ffffffffffffffffffffffffffffffffffffffff16611839565b30426040518663ffffffff167c01000000000000000000000000000000000000000000000000000000000281526004016122da959493929190614375565b600060405180830381600087803b1580156122f457600080fd5b505af1158015612308573d6000803e3d6000fd5b505050506040513d6000823e3d601f19601f820116820180604052508101906123319190613b79565b905080600081518110612347576123466139fa565b5b60200260200101518861235a9190613bf1565b876123659190613bf1565b9650600082846123759190613ef9565b90506123818582612da7565b60006123d2600260009054906101000a900473ffffffffffffffffffffffffffffffffffffffff16600160009054906101000a900473ffffffffffffffffffffffffffffffffffffffff168b610b9a565b90506123de8682613015565b600260009054906101000a900473ffffffffffffffffffffffffffffffffffffffff1673ffffffffffffffffffffffffffffffffffffffff1663095ea7b3600460009054906101000a900473ffffffffffffffffffffffffffffffffffffffff16836040518363ffffffff167c0100000000000000000000000000000000000000000000000000000000028152600401612479929190613ccb565b602060405180830381600087803b15801561249357600080fd5b505af11580156124a7573d6000803e3d6000fd5b505050506040513d601f19601f820116820180604052508101906124cb9190613d20565b50600460009054906101000a900473ffffffffffffffffffffffffffffffffffffffff1673ffffffffffffffffffffffffffffffffffffffff16638803dbee8a8361255a600260009054906101000a900473ffffffffffffffffffffffffffffffffffffffff16600160009054906101000a900473ffffffffffffffffffffffffffffffffffffffff16611839565b30426040518663ffffffff167c0100000000000000000000000000000000000000000000000000000000028152600401612598959493929190614375565b600060405180830381600087803b1580156125b257600080fd5b505af11580156125c6573d6000803e3d6000fd5b505050506040513d6000823e3d601f19601f820116820180604052508101906125ef9190613b79565b92506126218684600081518110612609576126086139fa565b5b60200260200101518361261c9190613bf1565b612c0a565b50505050505050505050565b600080838381019061263f91906143cf565b935050509150600160009054906101000a900473ffffffffffffffffffffffffffffffffffffffff1673ffffffffffffffffffffffffffffffffffffffff1663095ea7b3600460009054906101000a900473ffffffffffffffffffffffffffffffffffffffff16886040518363ffffffff167c01000000000000000000000000000000000000000000000000000000000281526004016126e0929190613ccb565b602060405180830381600087803b1580156126fa57600080fd5b505af115801561270e573d6000803e3d6000fd5b505050506040513d601f19601f820116820180604052508101906127329190613d20565b506000600460009054906101000a900473ffffffffffffffffffffffffffffffffffffffff1673ffffffffffffffffffffffffffffffffffffffff16638803dbee83896127c3600160009054906101000a900473ffffffffffffffffffffffffffffffffffffffff16600260009054906101000a900473ffffffffffffffffffffffffffffffffffffffff16611839565b30426040518663ffffffff167c0100000000000000000000000000000000000000000000000000000000028152600401612801959493929190614375565b600060405180830381600087803b15801561281b57600080fd5b505af115801561282f573d6000803e3d6000fd5b505050506040513d6000823e3d601f19601f820116820180604052508101906128589190613b79565b90508060008151811061286e5761286d6139fa565b5b6020026020010151876128819190613bf1565b8661288c9190613bf1565b95506128bf8382600184516128a19190613bf1565b815181106128b2576128b16139fa565b5b6020026020010151612c0a565b6000612910600760009054906101000a900473ffffffffffffffffffffffffffffffffffffffff16600160009054906101000a900473ffffffffffffffffffffffffffffffffffffffff1689610b9a565b9050600660009054906101000a900473ffffffffffffffffffffffffffffffffffffffff1673ffffffffffffffffffffffffffffffffffffffff1663767a7b0585836040518363ffffffff167c010000000000000000000000000000000000000000000000000000000002815260040161298b929190613c25565b600060405180830381600087803b1580156129a557600080fd5b505af11580156129b9573d6000803e3d6000fd5b50505050600760009054906101000a900473ffffffffffffffffffffffffffffffffffffffff1673ffffffffffffffffffffffffffffffffffffffff1663095ea7b3600460009054906101000a900473ffffffffffffffffffffffffffffffffffffffff16836040518363ffffffff167c0100000000000000000000000000000000000000000000000000000000028152600401612a58929190613ccb565b602060405180830381600087803b158015612a7257600080fd5b505af1158015612a86573d6000803e3d6000fd5b505050506040513d601f19601f82011682018060405250810190612aaa9190613d20565b50600460009054906101000a900473ffffffffffffffffffffffffffffffffffffffff1673ffffffffffffffffffffffffffffffffffffffff16638803dbee8883612b39600760009054906101000a900473ffffffffffffffffffffffffffffffffffffffff16600160009054906101000a900473ffffffffffffffffffffffffffffffffffffffff16611839565b30426040518663ffffffff167c0100000000000000000000000000000000000000000000000000000000028152600401612b77959493929190614375565b600060405180830381600087803b158015612b9157600080fd5b505af1158015612ba5573d6000803e3d6000fd5b505050506040513d6000823e3d601f19601f82011682018060405250810190612bce9190613b79565b9150612c008483600081518110612be857612be76139fa565b5b602002602001015183612bfb9190613bf1565b612da7565b5050505050505050565b600260009054906101000a900473ffffffffffffffffffffffffffffffffffffffff1673ffffffffffffffffffffffffffffffffffffffff1663095ea7b3600660009054906101000a900473ffffffffffffffffffffffffffffffffffffffff16836040518363ffffffff167c0100000000000000000000000000000000000000000000000000000000028152600401612ca5929190613ccb565b602060405180830381600087803b158015612cbf57600080fd5b505af1158015612cd3573d6000803e3d6000fd5b505050506040513d601f19601f82011682018060405250810190612cf79190613d20565b50600660009054906101000a900473ffffffffffffffffffffffffffffffffffffffff1673ffffffffffffffffffffffffffffffffffffffff166385af3c1683836040518363ffffffff167c0100000000000000000000000000000000000000000000000000000000028152600401612d71929190613c25565b600060405180830381600087803b158015612d8b57600080fd5b505af1158015612d9f573d6000803e3d6000fd5b505050505050565b6000811115612f4a57600760009054906101000a900473ffffffffffffffffffffffffffffffffffffffff1673ffffffffffffffffffffffffffffffffffffffff1663095ea7b3600660009054906101000a900473ffffffffffffffffffffffffffffffffffffffff16836040518363ffffffff167c0100000000000000000000000000000000000000000000000000000000028152600401612e4b929190613ccb565b602060405180830381600087803b158015612e6557600080fd5b505af1158015612e79573d6000803e3d6000fd5b505050506040513d601f19601f82011682018060405250810190612e9d9190613d20565b50600660009054906101000a900473ffffffffffffffffffffffffffffffffffffffff1673ffffffffffffffffffffffffffffffffffffffff1663ece1373283836040518363ffffffff167c0100000000000000000000000000000000000000000000000000000000028152600401612f17929190613c25565b600060405180830381600087803b158015612f3157600080fd5b505af1158015612f45573d6000803e3d6000fd5b505050505b5050565b6000612fb0826040518060400160405280602081526020017f5361666545524332303a206c6f772d6c6576656c2063616c6c206661696c65648152508573ffffffffffffffffffffffffffffffffffffffff166130c49092919063ffffffff16565b90506000815111156130105780806020019051810190612fd09190613d20565b61300f576040517f08c379a0000000000000000000000000000000000000000000000000000000008152600401613006906144a8565b60405180910390fd5b5b505050565b600660009054906101000a900473ffffffffffffffffffffffffffffffffffffffff1673ffffffffffffffffffffffffffffffffffffffff166308ec592783836040518363ffffffff167c010000000000000000000000000000000000000000000000000000000002815260040161308e929190613c25565b600060405180830381600087803b1580156130a857600080fd5b505af11580156130bc573d6000803e3d6000fd5b505050505050565b60606130d384846000856130dc565b90509392505050565b6060823073ffffffffffffffffffffffffffffffffffffffff16311015613138576040517f08c379a000000000000000000000000000000000000000000000000000000000815260040161312f9061453a565b60405180910390fd5b61314185613207565b613180576040517f08c379a0000000000000000000000000000000000000000000000000000000008152600401613177906145a6565b60405180910390fd5b6000808673ffffffffffffffffffffffffffffffffffffffff1685876040516131a99190614602565b60006040518083038185875af1925050503d80600081146131e6576040519150601f19603f3d011682016040523d82523d6000602084013e6131eb565b606091505b50915091506131fb82828661321a565b92505050949350505050565b600080823b905060008111915050919050565b6060831561322a5782905061327a565b60008351111561323d5782518084602001fd5b816040517f08c379a0000000000000000000000000000000000000000000000000000000008152600401613271919061465d565b60405180910390fd5b9392505050565b600073ffffffffffffffffffffffffffffffffffffffff82169050919050565b6000819050919050565b60006132c66132c16132bc84613281565b6132a1565b613281565b9050919050565b60006132d8826132ab565b9050919050565b60006132ea826132cd565b9050919050565b6132fa816132df565b82525050565b600060208201905061331560008301846132f1565b92915050565b600081519050919050565b600082825260208201905092915050565b6000819050602082019050919050565b6000819050919050565b61335a81613347565b82525050565b600061336c8383613351565b60208301905092915050565b6000602082019050919050565b60006133908261331b565b61339a8185613326565b93506133a583613337565b8060005b838110156133d65781516133bd8882613360565b97506133c883613378565b9250506001810190506133a9565b5085935050505092915050565b600060208201905081810360008301526133fd8184613385565b905092915050565b61340e81613347565b82525050565b60006020820190506134296000830184613405565b92915050565b6000604051905090565b600080fd5b600080fd5b61344c81613347565b811461345757600080fd5b50565b60008135905061346981613443565b92915050565b60006020828403121561348557613484613439565b5b60006134938482850161345a565b91505092915050565b60006134a782613281565b9050919050565b6134b78161349c565b81146134c257600080fd5b50565b6000813590506134d4816134ae565b92915050565b6000806000606084860312156134f3576134f2613439565b5b6000613501868287016134c5565b9350506020613512868287016134c5565b92505060406135238682870161345a565b9150509250925092565b6000806040838503121561354457613543613439565b5b60006135528582860161345a565b92505060206135638582860161345a565b9150509250929050565b600080fd5b600080fd5b600080fd5b60008083601f8401126135925761359161356d565b5b8235905067ffffffffffffffff8111156135af576135ae613572565b5b6020830191508360208202830111156135cb576135ca613577565b5b9250929050565b60008083601f8401126135e8576135e761356d565b5b8235905067ffffffffffffffff81111561360557613604613572565b5b60208301915083602082028301111561362157613620613577565b5b9250929050565b60008083601f84011261363e5761363d61356d565b5b8235905067ffffffffffffffff81111561365b5761365a613572565b5b60208301915083600182028301111561367757613676613577565b5b9250929050565b600080600080600080600080600060a08a8c0312156136a05761369f613439565b5b60008a013567ffffffffffffffff8111156136be576136bd61343e565b5b6136ca8c828d0161357c565b995099505060208a013567ffffffffffffffff8111156136ed576136ec61343e565b5b6136f98c828d016135d2565b975097505060408a013567ffffffffffffffff81111561371c5761371b61343e565b5b6137288c828d016135d2565b9550955050606061373b8c828d016134c5565b93505060808a013567ffffffffffffffff81111561375c5761375b61343e565b5b6137688c828d01613628565b92509250509295985092959850929598565b60008115159050919050565b61378f8161377a565b82525050565b60006020820190506137aa6000830184613786565b92915050565b6137b98161349c565b82525050565b60006020820190506137d460008301846137b0565b92915050565b6000806000606084860312156137f3576137f2613439565b5b60006138018682870161345a565b93505060206138128682870161345a565b92505060406138238682870161345a565b9150509250925092565b6000613838826132cd565b9050919050565b6138488161382d565b82525050565b6000602082019050613863600083018461383f565b92915050565b600080604083850312156138805761387f613439565b5b600061388e858286016134c5565b925050602061389f858286016134c5565b9150509250929050565b600081519050919050565b600082825260208201905092915050565b6000819050602082019050919050565b6138de8161349c565b82525050565b60006138f083836138d5565b60208301905092915050565b6000602082019050919050565b6000613914826138a9565b61391e81856138b4565b9350613929836138c5565b8060005b8381101561395a57815161394188826138e4565b975061394c836138fc565b92505060018101905061392d565b5085935050505092915050565b600060208201905081810360008301526139818184613909565b905092915050565b60008151905061399881613443565b92915050565b6000602082840312156139b4576139b3613439565b5b60006139c284828501613989565b91505092915050565b7f4e487b7100000000000000000000000000000000000000000000000000000000600052604160045260246000fd5b7f4e487b7100000000000000000000000000000000000000000000000000000000600052603260045260246000fd5b6000604082019050613a3e6000830185613405565b8181036020830152613a508184613909565b90509392505050565b6000601f19601f8301169050919050565b613a7382613a59565b810181811067ffffffffffffffff82111715613a9257613a916139cb565b5b80604052505050565b6000613aa561342f565b9050613ab18282613a6a565b919050565b600067ffffffffffffffff821115613ad157613ad06139cb565b5b602082029050602081019050919050565b6000613af5613af084613ab6565b613a9b565b90508083825260208201905060208402830185811115613b1857613b17613577565b5b835b81811015613b415780613b2d8882613989565b845260208401935050602081019050613b1a565b5050509392505050565b600082601f830112613b6057613b5f61356d565b5b8151613b70848260208601613ae2565b91505092915050565b600060208284031215613b8f57613b8e613439565b5b600082015167ffffffffffffffff811115613bad57613bac61343e565b5b613bb984828501613b4b565b91505092915050565b7f4e487b7100000000000000000000000000000000000000000000000000000000600052601160045260246000fd5b6000613bfc82613347565b9150613c0783613347565b925082821015613c1a57613c19613bc2565b5b828203905092915050565b6000604082019050613c3a6000830185613405565b613c476020830184613405565b9392505050565b600082825260208201905092915050565b7f504f5349544956455f414d4f554e545f52455155495245440000000000000000600082015250565b6000613c95601883613c4e565b9150613ca082613c5f565b602082019050919050565b60006020820190508181036000830152613cc481613c88565b9050919050565b6000604082019050613ce060008301856137b0565b613ced6020830184613405565b9392505050565b613cfd8161377a565b8114613d0857600080fd5b50565b600081519050613d1a81613cf4565b92915050565b600060208284031215613d3657613d35613439565b5b6000613d4484828501613d0b565b91505092915050565b6000613d5882613347565b9150613d6383613347565b9250817fffffffffffffffffffffffffffffffffffffffffffffffffffffffffffffffff0483118215151615613d9c57613d9b613bc2565b5b828202905092915050565b7f4e487b7100000000000000000000000000000000000000000000000000000000600052601260045260246000fd5b6000613de182613347565b9150613dec83613347565b925082613dfc57613dfb613da7565b5b828204905092915050565b6000613e1282613281565b9050919050565b613e2281613e07565b8114613e2d57600080fd5b50565b600081359050613e3f81613e19565b92915050565b600060ff82169050919050565b613e5b81613e45565b8114613e6657600080fd5b50565b600081359050613e7881613e52565b92915050565b600080600080600060a08688031215613e9a57613e99613439565b5b6000613ea88882890161345a565b9550506020613eb988828901613e30565b9450506040613eca88828901613e69565b9350506060613edb8882890161345a565b9250506080613eec8882890161345a565b9150509295509295909350565b6000613f0482613347565b9150613f0f83613347565b9250827fffffffffffffffffffffffffffffffffffffffffffffffffffffffffffffffff03821115613f4457613f43613bc2565b5b828201905092915050565b600060208284031215613f6557613f64613439565b5b6000613f73848285016134c5565b91505092915050565b7f4e4f545f454e4f5547485f434f4c4c41544552414c0000000000000000000000600082015250565b6000613fb2601583613c4e565b9150613fbd82613f7c565b602082019050919050565b60006020820190508181036000830152613fe181613fa5565b9050919050565b6000606082019050613ffd6000830186613405565b61400a6020830185613405565b6140176040830184613405565b949350505050565b7f414d4f554e545f544f4f5f424947000000000000000000000000000000000000600082015250565b6000614055600e83613c4e565b91506140608261401f565b602082019050919050565b6000602082019050818103600083015261408481614048565b9050919050565b7f414d4f554e545f5a45524f000000000000000000000000000000000000000000600082015250565b60006140c1600b83613c4e565b91506140cc8261408b565b602082019050919050565b600060208201905081810360008301526140f0816140b4565b9050919050565b600060608201905061410c60008301866137b0565b61411960208301856137b0565b6141266040830184613405565b949350505050565b600061413982613347565b91507fffffffffffffffffffffffffffffffffffffffffffffffffffffffffffffffff82141561416c5761416b613bc2565b5b600182019050919050565b7f555345525f4e4f545f4f574e4552000000000000000000000000000000000000600082015250565b60006141ad600e83613c4e565b91506141b882614177565b602082019050919050565b600060208201905081810360008301526141dc816141a0565b9050919050565b6141ec81613e45565b82525050565b600060a0820190506142076000830188613405565b61421460208301876137b0565b61422160408301866141e3565b61422e6060830185613405565b61423b6080830184613405565b9695505050505050565b600081519050919050565b600082825260208201905092915050565b60005b8381101561427f578082015181840152602081019050614264565b8381111561428e576000848401525b50505050565b600061429f82614245565b6142a98185614250565b93506142b9818560208601614261565b6142c281613a59565b840191505092915050565b600061ffff82169050919050565b6142e4816142cd565b82525050565b600060e0820190506142ff600083018a6137b0565b81810360208301526143118189613909565b905081810360408301526143258188613385565b905081810360608301526143398187613385565b905061434860808301866137b0565b81810360a083015261435a8185614294565b905061436960c08301846142db565b98975050505050505050565b600060a08201905061438a6000830188613405565b6143976020830187613405565b81810360408301526143a98186613909565b90506143b860608301856137b0565b6143c56080830184613405565b9695505050505050565b600080600080608085870312156143e9576143e8613439565b5b60006143f78782880161345a565b945050602061440887828801613e30565b935050604061441987828801613e69565b925050606061442a8782880161345a565b91505092959194509250565b7f5361666545524332303a204552433230206f7065726174696f6e20646964206e60008201527f6f74207375636365656400000000000000000000000000000000000000000000602082015250565b6000614492602a83613c4e565b915061449d82614436565b604082019050919050565b600060208201905081810360008301526144c181614485565b9050919050565b7f416464726573733a20696e73756666696369656e742062616c616e636520666f60008201527f722063616c6c0000000000000000000000000000000000000000000000000000602082015250565b6000614524602683613c4e565b915061452f826144c8565b604082019050919050565b6000602082019050818103600083015261455381614517565b9050919050565b7f416464726573733a2063616c6c20746f206e6f6e2d636f6e7472616374000000600082015250565b6000614590601d83613c4e565b915061459b8261455a565b602082019050919050565b600060208201905081810360008301526145bf81614583565b9050919050565b600081905092915050565b60006145dc82614245565b6145e681856145c6565b93506145f6818560208601614261565b80840191505092915050565b600061460e82846145d1565b915081905092915050565b600081519050919050565b600061462f82614619565b6146398185613c4e565b9350614649818560208601614261565b61465281613a59565b840191505092915050565b600060208201905081810360008301526146778184614624565b90509291505056fea264697066735822122095c8c8e9bb32833855c3417d2b5da6bcd337698f6055dfe822af355c9417d61f64736f6c63430008090033",
    "immutableReferences": {
        "930": [
            {
                "length": 32,
                "start": 973
            }
        ],
        "933": [
            {
                "length": 32,
                "start": 4615
            },
            {
                "length": 32,
                "start": 5139
            },
            {
                "length": 32,
                "start": 7919
            }
        ]
    },
    "source": "// SPDX-License-Identifier: MIT\npragma solidity =0.8.9;\n\nimport \"@openzeppelin/contracts/token/ERC20/utils/SafeERC20.sol\";\nimport {FlashLoanReceiverBase} from \"./FlashLoanReceiverBase.sol\";\nimport {ILendingPoolAddressesProvider} from \"./interfaces/Interfaces.sol\";\nimport {IUniswapV2Router} from \"./interfaces/Uniswap.sol\";\nimport {IERC20StableCoin} from \"./interfaces/MaiFinance.sol\";\nimport {IVaultLongMaiFinance} from \"./interfaces/IVaultLongMaiFinance.sol\";\n\ncontract VaultLongMaiFinance is FlashLoanReceiverBase {\n    using SafeERC20 for IERC20;\n\n    //Using Aave's lending pool for the flash loan\n    ILendingPoolAddressesProvider LENDING_POOL_PRODIVER =\n        ILendingPoolAddressesProvider(\n            0xd05e3E715d945B59290df0ae8eF85c1BdB684744\n        );\n    address USDC_ADDRESS = 0x2791Bca1f2de4661ED88A30C99A7a9449Aa84174;\n    address MAI_ADDRESS = 0xa3Fa99A148fA48D14Ed51d610c367C61876997F1;\n    address WMATIC_ADDRESS = 0x0d500B1d8E8eF31E21C99d1Db9A6444d3ADf1270;\n\n    //Swaps are executed on Quickswap\n    address QUICKSWAP_ROUTER = 0xa5E0829CaCEd8fFDD4De3c43696c57F7D7A678ff;\n\n    //The list of vault ids(Ids returned by Mai finance when creating the vault) owned by a user\n    mapping(address => uint256[]) private vaults;\n    //The address of the mai vault initialized in the constructor\n    address public maiVault;\n    //The collateral used in this vault\n    address public collateral;\n\n    /**\n     Will check if the caller actually owns the vaultId passed in parameter\n    */\n    modifier ownsVault(uint256 vaultId, address sender) {\n        getVaultIndex(vaultId, sender);\n        _;\n    }\n\n    /**\n     Will revert if amount is not bigger than 0\n    */\n    modifier positiveAmount(uint256 amount) {\n        require(amount > 0, \"POSITIVE_AMOUNT_REQUIRED\");\n        _;\n    }\n\n    event VaultCreated(uint256 vaultId);\n\n    event WithdrawCollateral(uint256 vaultId, uint256 amount);\n\n    event LongAsset(\n        uint256 vaultId,\n        uint256 longAmount,\n        uint256 initialDeposit\n    );\n\n    event ReduceLong(uint256 vaultId, uint256 debtAmountToReduce);\n\n    event ClaimRewards(uint256 amountClaimed, uint256 nextClaimableBlock);\n\n    event Deposit(uint256 vaultId, uint256 amount);\n\n    event Repay(uint256 vaultId, uint256 amount);\n\n    event RewardAdded(uint256 reward);\n\n    event RewardPaid(address indexed user, uint256 reward);\n\n    constructor(address _collateral, address _maiVault)\n        FlashLoanReceiverBase(LENDING_POOL_PRODIVER)\n    {\n        maiVault = _maiVault;\n        collateral = _collateral;\n    }\n\n    function createVault() external {\n        //Will call MAI finance's createVault function\n        //After the creation it will store the vaultId in the contract mapping the user's address\n        IERC20StableCoin vault = IERC20StableCoin(maiVault);\n        uint256 vaultId = vault.createVault();\n\n        vaults[msg.sender].push(vaultId);\n\n        emit VaultCreated(vaultId);\n    }\n\n    /**\n     Deposit funds from the user to the contract, then the contract deposit the funds to the chosen Mai vault\n     */\n    function deposit(uint256 vaultId, uint256 amount)\n        external\n        ownsVault(vaultId, msg.sender)\n        positiveAmount(amount)\n    {\n        require(amount > 0, \"AMOUNT_ZERO\");\n        IERC20(collateral).transferFrom(msg.sender, address(this), amount);\n        depositInVault(vaultId, amount);\n\n        emit Deposit(vaultId, amount);\n    }\n\n    /**\n     Deposit the collateral from the contract to the Mai finance vault, this is only called after\n     the user has deposited the funds in the contract\n     */\n    function depositInVault(uint256 vaultId, uint256 amount) private {\n        //To save on gas we check that the deposit amont is bigger than 0\n        if (amount > 0) {\n            IERC20(collateral).approve(maiVault, amount);\n            IERC20StableCoin(maiVault).depositCollateral(vaultId, amount);\n        }\n    }\n\n    /**\n     Withdraw the collateral amount from the Mai vault calling withdrawFromVault(),\n     then sends the fund back to the user\n     */\n    function withdrawCollateral(uint256 vaultId, uint256 amount)\n        external\n        ownsVault(vaultId, msg.sender)\n        positiveAmount(amount)\n    {\n        //First withdraw from mai's vault\n        withdrawFromVault(vaultId, amount);\n        //Then withdraw the amount of collateral from this contract to the user's wallet\n        IERC20(collateral).approve(address(this), amount);\n        IERC20(collateral).safeTransferFrom(address(this), msg.sender, amount);\n\n        emit WithdrawCollateral(vaultId, amount);\n    }\n\n    /**\n     Withdraw the collateral amount from the Mai vault to the contract, only called by the contract itself\n     */\n    function withdrawFromVault(uint256 vaultId, uint256 amount) private {\n        IERC20StableCoin(maiVault).withdrawCollateral(vaultId, amount);\n    }\n\n    /**\n     The functions borrow the required amount of USDC to buy the chosen amount of collateral to long,\n     will repay the borrowed USDC by borrowing MAI from Mai finance's vault, the user ends up with a\n     long position and a debt in MAI\n     Credits to Abracadra finance for the idea\n    */\n    function longAsset(\n        uint256 vaultId,\n        uint256 longAmount,\n        uint256 initialDeposit\n    ) external ownsVault(vaultId, msg.sender) {\n        //For each asset there a different maximum amount a user can leverage\n        //We make sure the leverage amount is below the maximum\n        require(\n            initialDeposit > 0 &&\n                ((longAmount + initialDeposit) * 100) / longAmount >=\n                getMinimumCollateralPercentage(),\n            \"NOT_ENOUGH_COLLATERAL\"\n        );\n\n        IERC20(collateral).safeTransferFrom(\n            msg.sender,\n            address(this),\n            initialDeposit\n        );\n\n        //Flash loan the number required of USDC\n        callFlashLoan(vaultId, longAmount, 0, initialDeposit);\n        //The next operations happen in the function \"executeOperation\" which is called by\n        //callFlashLoan once the asset the contract has received the loaned asset\n\n        emit LongAsset(vaultId, longAmount, initialDeposit);\n    }\n\n    /**\n     Reduce the long amount by doing another flash loan in USDC to buy the MAI required to repay the desired amount,\n     the contract will then withdraw the required collateral to repay the USDC debt\n    */\n    function reduceLong(uint256 vaultId, uint256 debtAmountToReduce)\n        external\n        ownsVault(vaultId, msg.sender)\n    {\n        //Flash loan the number required of USDC, here the last argument is not used\n        callFlashLoan(vaultId, debtAmountToReduce, 1, 0);\n        //The next operations happen in the function \"executeOperation\" which is called by\n        //callFlashLoan once the asset the contract has received the loaned asset\n\n        emit ReduceLong(vaultId, debtAmountToReduce);\n    }\n\n    /**\n     Borrow the required amount of MAI from the wanted Mai finance vault, only callable by\n     the contract\n     */\n    function borrowMai(uint256 vaultId, uint256 amountToBorrow) private {\n        IERC20StableCoin(maiVault).borrowToken(vaultId, amountToBorrow);\n    }\n\n    /**\n     Repay the wanted amount of MAI from the user wallet to the chosen vault\n     */\n    function repay(uint256 vaultId, uint256 amountToRepay)\n        external\n        ownsVault(vaultId, msg.sender)\n        positiveAmount(amountToRepay)\n    {\n        uint256 userDebt = IERC20StableCoin(maiVault).vaultDebt(vaultId);\n        require(amountToRepay <= userDebt, \"AMOUNT_TOO_BIG\");\n        IERC20(MAI_ADDRESS).safeTransferFrom(\n            msg.sender,\n            address(this),\n            amountToRepay\n        );\n        repayDebt(vaultId, amountToRepay);\n\n        emit Repay(vaultId, amountToRepay);\n    }\n\n    /**\n     Repay the debt amount in MAI, only callable by\n     the contract\n     */\n    function repayDebt(uint256 vaultId, uint256 amountToRepay) private {\n        IERC20(MAI_ADDRESS).approve(maiVault, amountToRepay);\n        IERC20StableCoin(maiVault).payBackToken(vaultId, amountToRepay);\n    }\n\n    /**\n     Get all the vault Ids for the sender address\n     */\n    function getUserVaultList() public view returns (uint256[] memory) {\n        //Return the list of vaults the user has created\n        return vaults[msg.sender];\n    }\n\n    /**\n     This function is called after the contract has received the flash loaned amount\n     */\n    function executeOperation(\n        address[] calldata assets,\n        uint256[] calldata amounts,\n        uint256[] calldata premiums,\n        address initiator,\n        bytes calldata params\n    ) external override returns (bool) {\n        (, , uint8 operation, , ) = abi.decode(\n            params,\n            (uint256, address, uint8, uint256, uint256)\n        );\n        //\n        // This contract now has the funds requested.\n        //\n        uint256 amountFL = amounts[0];\n        uint256 amountFLWithFees = amounts[0] + premiums[0];\n        address tokenFL = assets[0];\n\n        if (operation == 0) {\n            longOperation(amountFL, amountFLWithFees, params);\n        } else if (operation == 1) {\n            reduceOperation(amountFL, amountFLWithFees, params);\n        }\n        // Approve the LendingPool contract allowance to *pull* the owed amount\n        //The flashloan amount will be reimbursed at the end of this function\n        IERC20(tokenFL).approve(address(LENDING_POOL), amountFLWithFees);\n\n        return true;\n    }\n\n    function longOperation(\n        uint256 amountFL,\n        uint256 amountFLWithFees,\n        bytes calldata params\n    ) private {\n        (\n            uint256 vaultId,\n            ,\n            ,\n            uint256 amountWanted,\n            uint256 initialDeposit\n        ) = abi.decode(params, (uint256, address, uint8, uint256, uint256));\n\n        //Use borrowed USDC to swap for the longed collateral\n        IERC20(USDC_ADDRESS).approve(QUICKSWAP_ROUTER, amountFL);\n        uint256[] memory amountsResult = IUniswapV2Router(QUICKSWAP_ROUTER)\n            .swapTokensForExactTokens(\n                amountWanted,\n                amountFL,\n                getPathSwap(USDC_ADDRESS, collateral),\n                address(this),\n                block.timestamp\n            );\n\n        //If we have some USDC left over\n        amountFLWithFees -= (amountFL - amountsResult[0]);\n\n        uint256 collateralTotal = amountWanted + initialDeposit;\n\n        //Deposit all the collateral available for this user to MAI finance\n        depositInVault(vaultId, collateralTotal);\n\n        //Borrow the number of MAI needed to reimburse the flash loan + fees\n        uint256 amountToBorrow = getAmountInMin(\n            MAI_ADDRESS,\n            USDC_ADDRESS,\n            amountFLWithFees\n        );\n        borrowMai(vaultId, amountToBorrow);\n\n        //SWAP MAI for USDC\n        IERC20(MAI_ADDRESS).approve(QUICKSWAP_ROUTER, amountToBorrow);\n        amountsResult = IUniswapV2Router(QUICKSWAP_ROUTER)\n            .swapTokensForExactTokens(\n                amountFLWithFees,\n                amountToBorrow,\n                getPathSwap(MAI_ADDRESS, USDC_ADDRESS),\n                address(this),\n                block.timestamp\n            );\n\n        //Repay part of the debt if we have MAI leftover\n        repayDebt(vaultId, amountToBorrow - amountsResult[0]);\n    }\n\n    function reduceOperation(\n        uint256 amountFL,\n        uint256 amountFLWithFees,\n        bytes calldata params\n    ) private {\n        (uint256 vaultId, , , uint256 amountWanted) = abi.decode(\n            params,\n            (uint256, address, uint8, uint256)\n        );\n\n        //Use borrowed USDC to swap for MAI to repay the debt on MAI finance\n        IERC20(USDC_ADDRESS).approve(QUICKSWAP_ROUTER, amountFL);\n        uint256[] memory amountsResult = IUniswapV2Router(QUICKSWAP_ROUTER)\n            .swapTokensForExactTokens(\n                amountWanted,\n                amountFL,\n                getPathSwap(USDC_ADDRESS, MAI_ADDRESS),\n                address(this),\n                block.timestamp\n            );\n\n        //If we have some USDC left over\n        amountFLWithFees -= (amountFL - amountsResult[0]);\n\n        //Repay the debt with the MAI received\n        repayDebt(vaultId, amountsResult[amountsResult.length - 1]);\n\n        //Withdraw required collateral from the vault to repay the flash loan\n        uint256 amountInMax = getAmountInMin(\n            collateral,\n            USDC_ADDRESS,\n            amountFLWithFees\n        );\n\n        IERC20StableCoin(maiVault).withdrawCollateral(vaultId, amountInMax);\n\n        //Swap the collateral for USDC to repay the loan + premium\n        IERC20(collateral).approve(QUICKSWAP_ROUTER, amountInMax);\n        amountsResult = IUniswapV2Router(QUICKSWAP_ROUTER)\n            .swapTokensForExactTokens(\n                amountFLWithFees,\n                amountInMax,\n                getPathSwap(collateral, USDC_ADDRESS),\n                address(this),\n                block.timestamp\n            );\n\n        //Deposit back the collateral left over\n        depositInVault(vaultId, amountInMax - amountsResult[0]);\n    }\n\n    //Flash loan using Aave\n    function callFlashLoan(\n        uint256 vaultId,\n        uint256 amountWanted,\n        uint8 operation,\n        uint256 initialDeposit\n    ) private {\n        //Quote quickswap to know how much USDC we need to buy the right amount of collateral asset\n        //We want to long an asset so we get the amount of USDC we need to get the desired amount of that asset\n        uint256 amountInMin = getAmountInMin(\n            USDC_ADDRESS,\n            collateral,\n            amountWanted\n        );\n\n        if (operation == 1) {\n            //We want to repay the MAI debt so we get the amount of USDC we need to get the MAI desired to be repay\n            amountInMin = getAmountInMin(\n                USDC_ADDRESS,\n                MAI_ADDRESS,\n                amountWanted\n            );\n        }\n\n        address receiverAddress = address(this);\n        address[] memory assets = new address[](1);\n        assets[0] = USDC_ADDRESS;\n        uint256[] memory amounts = new uint256[](1);\n        amounts[0] = amountInMin;\n        // 0 = no debt, 1 = stable, 2 = variable\n        uint256[] memory modes = new uint256[](1);\n        modes[0] = 0;\n\n        address onBehalfOf = address(this);\n        //Parameter operation code (0 = LONG, 1 = REDUCE)\n        bytes memory params = abi.encode(\n            vaultId,\n            msg.sender,\n            operation,\n            amountWanted,\n            initialDeposit\n        );\n        uint16 referralCode = 0;\n        LENDING_POOL.flashLoan(\n            receiverAddress,\n            assets,\n            amounts,\n            modes,\n            onBehalfOf,\n            params,\n            referralCode\n        );\n    }\n\n    //HELPERS view/pure functions\n\n    /**\n     Get the minimum collateral percentage for this Mai vault type\n     */\n    function getMinimumCollateralPercentage() public view returns (uint256) {\n        return IERC20StableCoin(maiVault)._minimumCollateralPercentage();\n    }\n\n    /**\n     This function will give the multiplicator maximum one user can long an asset\n     The result is given multiplied by 100 to keep 2 decimals precision, the caller needs to devide by 100\n    */\n    function getMultiplicatorMax100th() public view returns (uint256) {\n        uint256 collateralThreshold = getMinimumCollateralPercentage() - 100;\n        //The +1 is to keep a safety to handle the swap slippage that could occur\n        //when longing an asset\n        return 10000 / (collateralThreshold + 1);\n    }\n\n    /**\n     This function will return the minimum amount out from a swap\n     */\n    function getAmountOutMin(\n        address _tokenIn,\n        address _tokenOut,\n        uint256 _amountIn\n    ) public view returns (uint256) {\n        address[] memory path;\n\n        path = getPathSwap(_tokenIn, _tokenOut);\n\n        uint256[] memory amountOutMins = IUniswapV2Router(QUICKSWAP_ROUTER)\n            .getAmountsOut(_amountIn, path);\n        return amountOutMins[path.length - 1];\n    }\n\n    /**\n     This function will return the minimum amount in for a swap\n     */\n    function getAmountInMin(\n        address _tokenIn,\n        address _tokenOut,\n        uint256 _amountOut\n    ) public view returns (uint256) {\n        address[] memory path;\n\n        path = getPathSwap(_tokenIn, _tokenOut);\n\n        uint256[] memory amountInMins = IUniswapV2Router(QUICKSWAP_ROUTER)\n            .getAmountsIn(_amountOut, path);\n        return amountInMins[0];\n    }\n\n    /**\n     Returns an estimate of MAI amount to borrow to create a new long\n     */\n    function getMAIDebtForAmount(uint256 amount) public view returns (uint256) {\n        //path is an array of addresses.\n        address[] memory path;\n\n        path = new address[](5);\n        path[0] = MAI_ADDRESS;\n        path[1] = WMATIC_ADDRESS;\n        path[2] = USDC_ADDRESS;\n        path[3] = WMATIC_ADDRESS;\n        path[4] = collateral;\n\n        uint256[] memory amountInMins = IUniswapV2Router(QUICKSWAP_ROUTER)\n            .getAmountsIn(amount, path);\n        return amountInMins[0];\n    }\n\n    /**\n     This will return the max amount of collateral it is possible to withdraw with the current debt\n     */\n    function getMaxWithdrawableCollateral(uint256 vaultId)\n        public\n        view\n        returns (uint256)\n    {\n        IERC20StableCoin vault = IERC20StableCoin(maiVault);\n        uint256 debt = vault.vaultDebt(vaultId);\n        uint256 vautTotalCollateral = vault.vaultCollateral(vaultId);\n        if (debt == 0) {\n            return vautTotalCollateral;\n        }\n        uint256 mimumCollateralPercentage = getMinimumCollateralPercentage();\n        uint256 currentCollateralPercentage = vault.checkCollateralPercentage(\n            vaultId\n        );\n        uint256 collateralTotalValue = debt * currentCollateralPercentage;\n        uint256 collateralUnitValue = collateralTotalValue /\n            vautTotalCollateral;\n        uint256 maxBorrowableUSDValue = collateralTotalValue /\n            mimumCollateralPercentage;\n        uint256 leftToBorrowUSDValue = maxBorrowableUSDValue - debt;\n        uint256 withdrawableCollateralMax = (leftToBorrowUSDValue /\n            collateralUnitValue) * mimumCollateralPercentage;\n\n        return withdrawableCollateralMax;\n    }\n\n    /**\n     Get the path for the 2 tokens passed in parameters, since we use Quickswap for the swaps,\n     will go through WMATIC token to create the swap\n    */\n    function getPathSwap(address token1, address token2)\n        public\n        view\n        returns (address[] memory)\n    {\n        if (token1 == WMATIC_ADDRESS || token2 == WMATIC_ADDRESS) {\n            address[] memory path = new address[](2);\n            path[0] = token1;\n            path[1] = token2;\n\n            return path;\n        }\n\n        address[] memory pathWMATIC = new address[](3);\n        pathWMATIC[0] = token1;\n        pathWMATIC[1] = WMATIC_ADDRESS;\n        pathWMATIC[2] = token2;\n\n        return pathWMATIC;\n    }\n\n    /**\n     Get the vault index for the vault Id and sender address passed in parameters\n     */\n    function getVaultIndex(uint256 vaultId, address sender)\n        private\n        view\n        returns (uint256)\n    {\n        uint256[] memory userVaults = vaults[sender];\n        for (uint256 i = 0; i < userVaults.length; i++) {\n            if (userVaults[i] == vaultId) {\n                return i;\n            }\n        }\n\n        //If this user does not own this vaultId revert transaction\n        revert(\"USER_NOT_OWNER\");\n    }\n}\n",
    "sourcePath": "/media/nello/Data/dev/blockchain/Consensys/blockchain-developer-bootcamp-final-project/contracts/VaultLongMaiFinance.sol",
    "compiler": {
        "name": "solc",
        "version": "0.8.9+commit.e5eed63a.Emscripten.clang"
    },
    "schemaVersion": "3.4.3",
    "updatedAt": "2021-11-19T03:11:14.131Z",
    "devdoc": {
        "kind": "dev",
        "methods": {},
        "version": 1
    },
    "userdoc": {
        "kind": "user",
        "methods": {
            "deposit(uint256,uint256)": {
                "notice": "Deposit funds from the user to the contract, then the contract deposit the funds to the chosen Mai vault"
            },
            "executeOperation(address[],uint256[],uint256[],address,bytes)": {
                "notice": "This function is called after the contract has received the flash loaned amount"
            },
            "getAmountInMin(address,address,uint256)": {
                "notice": "This function will return the minimum amount in for a swap"
            },
            "getAmountOutMin(address,address,uint256)": {
                "notice": "This function will return the minimum amount out from a swap"
            },
            "getMAIDebtForAmount(uint256)": {
                "notice": "Returns an estimate of MAI amount to borrow to create a new long"
            },
            "getMaxWithdrawableCollateral(uint256)": {
                "notice": "This will return the max amount of collateral it is possible to withdraw with the current debt"
            },
            "getMinimumCollateralPercentage()": {
                "notice": "Get the minimum collateral percentage for this Mai vault type"
            },
            "getMultiplicatorMax100th()": {
                "notice": "This function will give the multiplicator maximum one user can long an asset The result is given multiplied by 100 to keep 2 decimals precision, the caller needs to devide by 100"
            },
            "getPathSwap(address,address)": {
                "notice": "Get the path for the 2 tokens passed in parameters, since we use Quickswap for the swaps, will go through WMATIC token to create the swap"
            },
            "getUserVaultList()": {
                "notice": "Get all the vault Ids for the sender address"
            },
            "longAsset(uint256,uint256,uint256)": {
                "notice": "The functions borrow the required amount of USDC to buy the chosen amount of collateral to long, will repay the borrowed USDC by borrowing MAI from Mai finance's vault, the user ends up with a long position and a debt in MAI Credits to Abracadra finance for the idea"
            },
            "reduceLong(uint256,uint256)": {
                "notice": "Reduce the long amount by doing another flash loan in USDC to buy the MAI required to repay the desired amount, the contract will then withdraw the required collateral to repay the USDC debt"
            },
            "repay(uint256,uint256)": {
                "notice": "Repay the wanted amount of MAI from the user wallet to the chosen vault"
            },
            "withdrawCollateral(uint256,uint256)": {
                "notice": "Withdraw the collateral amount from the Mai vault calling withdrawFromVault(), then sends the fund back to the user"
            }
        },
        "version": 1
    }
}