{
  "contractName": "VaultLongMaiFinance",
  "abi": [
    {
      "inputs": [],
      "stateMutability": "nonpayable",
      "type": "constructor"
    },
    {
      "anonymous": false,
      "inputs": [
        {
          "indexed": false,
          "internalType": "uint256",
          "name": "vaultId",
          "type": "uint256"
        }
      ],
      "name": "VaultCreated",
      "type": "event"
    },
    {
      "inputs": [
        {
          "internalType": "address",
          "name": "vaultAddress",
          "type": "address"
        }
      ],
      "name": "createVault",
      "outputs": [],
      "stateMutability": "nonpayable",
      "type": "function"
    },
    {
      "inputs": [
        {
          "internalType": "uint256",
          "name": "vaultId",
          "type": "uint256"
        }
      ],
      "name": "depositInVault",
      "outputs": [],
      "stateMutability": "payable",
      "type": "function",
      "payable": true
    },
    {
      "inputs": [
        {
          "internalType": "uint256",
          "name": "vaultId",
          "type": "uint256"
        },
        {
          "internalType": "uint256",
          "name": "amountToWithdraw",
          "type": "uint256"
        }
      ],
      "name": "withdrawFromVault",
      "outputs": [],
      "stateMutability": "nonpayable",
      "type": "function"
    },
    {
      "inputs": [
        {
          "internalType": "uint256",
          "name": "vaultId",
          "type": "uint256"
        },
        {
          "internalType": "uint8",
          "name": "collateralAmountToUse",
          "type": "uint8"
        },
        {
          "internalType": "uint256",
          "name": "leverageLoops",
          "type": "uint256"
        }
      ],
      "name": "longAsset",
      "outputs": [],
      "stateMutability": "nonpayable",
      "type": "function"
    },
    {
      "inputs": [
        {
          "internalType": "uint256",
          "name": "vaultId",
          "type": "uint256"
        },
        {
          "internalType": "uint256",
          "name": "amountToRepay",
          "type": "uint256"
        }
      ],
      "name": "repayDebt",
      "outputs": [],
      "stateMutability": "nonpayable",
      "type": "function"
    },
    {
      "inputs": [
        {
          "internalType": "address",
          "name": "vaultAddress",
          "type": "address"
        }
      ],
      "name": "getUserVaultList",
      "outputs": [
        {
          "internalType": "uint256[]",
          "name": "",
          "type": "uint256[]"
        }
      ],
      "stateMutability": "view",
      "type": "function",
      "constant": true
    }
  ],
  "bytecode": "0x608060405234801561001057600080fd5b50610821806100206000396000f3fe608060405260043610610072576000357c010000000000000000000000000000000000000000000000000000000090048063015cb0a514610077578063565f4930146100a057806362a99827146100dd57806370974818146100f9578063b3fcaf2014610122578063b4bd6f461461014b575b600080fd5b34801561008357600080fd5b5061009e6004803603810190610099919061048a565b610174565b005b3480156100ac57600080fd5b506100c760048036038101906100c29190610528565b610178565b6040516100d49190610613565b60405180910390f35b6100f760048036038101906100f29190610635565b61024b565b005b34801561010557600080fd5b50610120600480360381019061011b919061048a565b61024e565b005b34801561012e57600080fd5b506101496004803603810190610144919061069b565b610252565b005b34801561015757600080fd5b50610172600480360381019061016d9190610528565b610257565b005b5050565b60606000803373ffffffffffffffffffffffffffffffffffffffff1673ffffffffffffffffffffffffffffffffffffffff16815260200190815260200160002060008373ffffffffffffffffffffffffffffffffffffffff1673ffffffffffffffffffffffffffffffffffffffff16815260200190815260200160002080548060200260200160405190810160405280929190818152602001828054801561023f57602002820191906000526020600020905b81548152602001906001019080831161022b575b50505050509050919050565b50565b5050565b505050565b60006040516024016040516020818303038152906040527f5d12928b000000000000000000000000000000000000000000000000000000007bffffffffffffffffffffffffffffffffffffffffffffffffffffffff19166020820180517bffffffffffffffffffffffffffffffffffffffffffffffffffffffff838183161783525050505090506000808373ffffffffffffffffffffffffffffffffffffffff16836040516103069190610768565b6000604051808303816000865af19150503d8060008114610343576040519150601f19603f3d011682016040523d82523d6000602084013e610348565b606091505b50915091508161035757600080fd5b60008180602001905181019061036d9190610794565b90506000803373ffffffffffffffffffffffffffffffffffffffff1673ffffffffffffffffffffffffffffffffffffffff16815260200190815260200160002060008673ffffffffffffffffffffffffffffffffffffffff1673ffffffffffffffffffffffffffffffffffffffff1681526020019081526020016000208190806001815401808255809150506001900390600052602060002001600090919091909150557f4111fcee61908834830adf60a520ba26d09f02fa4e00cfe3d2c134e32f3f86968160405161044091906107d0565b60405180910390a15050505050565b600080fd5b6000819050919050565b61046781610454565b811461047257600080fd5b50565b6000813590506104848161045e565b92915050565b600080604083850312156104a1576104a061044f565b5b60006104af85828601610475565b92505060206104c085828601610475565b9150509250929050565b600073ffffffffffffffffffffffffffffffffffffffff82169050919050565b60006104f5826104ca565b9050919050565b610505816104ea565b811461051057600080fd5b50565b600081359050610522816104fc565b92915050565b60006020828403121561053e5761053d61044f565b5b600061054c84828501610513565b91505092915050565b600081519050919050565b600082825260208201905092915050565b6000819050602082019050919050565b61058a81610454565b82525050565b600061059c8383610581565b60208301905092915050565b6000602082019050919050565b60006105c082610555565b6105ca8185610560565b93506105d583610571565b8060005b838110156106065781516105ed8882610590565b97506105f8836105a8565b9250506001810190506105d9565b5085935050505092915050565b6000602082019050818103600083015261062d81846105b5565b905092915050565b60006020828403121561064b5761064a61044f565b5b600061065984828501610475565b91505092915050565b600060ff82169050919050565b61067881610662565b811461068357600080fd5b50565b6000813590506106958161066f565b92915050565b6000806000606084860312156106b4576106b361044f565b5b60006106c286828701610475565b93505060206106d386828701610686565b92505060406106e486828701610475565b9150509250925092565b600081519050919050565b600081905092915050565b60005b83811015610722578082015181840152602081019050610707565b83811115610731576000848401525b50505050565b6000610742826106ee565b61074c81856106f9565b935061075c818560208601610704565b80840191505092915050565b60006107748284610737565b915081905092915050565b60008151905061078e8161045e565b92915050565b6000602082840312156107aa576107a961044f565b5b60006107b88482850161077f565b91505092915050565b6107ca81610454565b82525050565b60006020820190506107e560008301846107c1565b9291505056fea2646970667358221220ff97f2c6550d9ec979b960e818fa9f218c0bd89b96d83154ecbceb82bca8ae3564736f6c63430008090033",
  "immutableReferences": {},
  "source": "// SPDX-License-Identifier: MIT\npragma solidity >=0.8.9;\n\ncontract VaultLongMaiFinance {\n    mapping(address => mapping(address => uint256[])) private vaults;\n\n    modifier ownsVault(uint256 vaultId) {\n        //Will check if the caller actually owns the vaultId passed in parameter\n        _;\n    }\n\n    event VaultCreated(uint256 vaultId);\n\n    constructor() {}\n\n    function createVault(address vaultAddress) public {\n        //Will call MAI finance's createVault function\n        //After the creation it will store the vaultId in the contract mapping the user's address\n        bytes memory payload = abi.encodeWithSignature(\"createVault()\");\n        (bool success, bytes memory returnData) = address(vaultAddress).call(\n            payload\n        );\n\n        require(success);\n\n        uint256 vaultId = abi.decode(returnData, (uint256));\n        vaults[msg.sender][vaultAddress].push(vaultId);\n\n        emit VaultCreated(vaultId);\n    }\n\n    function depositInVault(uint256 vaultId) public payable ownsVault(vaultId) {\n        //Will get the funds from the user's wallet then will call MAI finance's deposit function\n    }\n\n    function withdrawFromVault(uint256 vaultId, uint256 amountToWithdraw)\n        public\n        ownsVault(vaultId)\n    {\n        //Will call MAI finance's withdraw function and then will send the funds to the user\n    }\n\n    function longAsset(\n        uint256 vaultId,\n        uint8 collateralAmountToUse,\n        uint256 leverageLoops\n    ) public ownsVault(vaultId) {\n        //Will create/modify a leverage position borrowing MAI -> Selling MAI for more Collateral -> Borrowing more MAI etc...\n        //As many times as the parameter @leverageLoops\n    }\n\n    function borrowMai(uint256 vaultId, uint256 amountToBorrow)\n        internal\n        ownsVault(vaultId)\n    {\n        //Will call MAI finance's borrow function in the vault chosen\n    }\n\n    function repayDebt(uint256 vaultId, uint256 amountToRepay)\n        public\n        ownsVault(vaultId)\n    {\n        //Well call MAI finance's repay function to repay the user's debt in its MAI finance's vault\n    }\n\n    function getUserVaultList(address vaultAddress)\n        public\n        view\n        returns (uint256[] memory)\n    {\n        //Return the list of vaults the user has created\n        return vaults[msg.sender][vaultAddress];\n    }\n}\n",
  "sourcePath": "/media/nello/Data/dev/blockchain/Consensys/blockchain-developer-bootcamp-final-project/contracts/VaultLongMaiFinance.sol",
  "compiler": {
    "name": "solc",
    "version": "0.8.9+commit.e5eed63a.Emscripten.clang"
  },
  "schemaVersion": "3.4.3",
  "updatedAt": "2021-10-17T18:01:12.613Z",
  "networkType": "ethereum",
  "devdoc": {
    "kind": "dev",
    "methods": {},
    "version": 1
  },
  "userdoc": {
    "kind": "user",
    "methods": {},
    "version": 1
  }
}