{
  "contractName": "WethVaultLong",
  "abi": [
    {
      "inputs": [],
      "stateMutability": "nonpayable",
      "type": "constructor"
    },
    {
      "anonymous": false,
      "inputs": [
        {
          "indexed": false,
          "internalType": "uint256",
          "name": "amountClaimed",
          "type": "uint256"
        },
        {
          "indexed": false,
          "internalType": "uint256",
          "name": "nextClaimableBlock",
          "type": "uint256"
        }
      ],
      "name": "ClaimRewards",
      "type": "event"
    },
    {
      "anonymous": false,
      "inputs": [
        {
          "indexed": false,
          "internalType": "uint256",
          "name": "vaultId",
          "type": "uint256"
        },
        {
          "indexed": false,
          "internalType": "uint256",
          "name": "amount",
          "type": "uint256"
        }
      ],
      "name": "Deposit",
      "type": "event"
    },
    {
      "anonymous": false,
      "inputs": [
        {
          "indexed": false,
          "internalType": "uint256",
          "name": "vaultId",
          "type": "uint256"
        },
        {
          "indexed": false,
          "internalType": "uint256",
          "name": "longAmount",
          "type": "uint256"
        },
        {
          "indexed": false,
          "internalType": "uint256",
          "name": "initialDeposit",
          "type": "uint256"
        }
      ],
      "name": "LongAsset",
      "type": "event"
    },
    {
      "anonymous": false,
      "inputs": [
        {
          "indexed": false,
          "internalType": "uint256",
          "name": "vaultId",
          "type": "uint256"
        },
        {
          "indexed": false,
          "internalType": "uint256",
          "name": "debtAmountToReduce",
          "type": "uint256"
        }
      ],
      "name": "ReduceLong",
      "type": "event"
    },
    {
      "anonymous": false,
      "inputs": [
        {
          "indexed": false,
          "internalType": "uint256",
          "name": "vaultId",
          "type": "uint256"
        },
        {
          "indexed": false,
          "internalType": "uint256",
          "name": "amount",
          "type": "uint256"
        }
      ],
      "name": "Repay",
      "type": "event"
    },
    {
      "anonymous": false,
      "inputs": [
        {
          "indexed": false,
          "internalType": "uint256",
          "name": "reward",
          "type": "uint256"
        }
      ],
      "name": "RewardAdded",
      "type": "event"
    },
    {
      "anonymous": false,
      "inputs": [
        {
          "indexed": true,
          "internalType": "address",
          "name": "user",
          "type": "address"
        },
        {
          "indexed": false,
          "internalType": "uint256",
          "name": "reward",
          "type": "uint256"
        }
      ],
      "name": "RewardPaid",
      "type": "event"
    },
    {
      "anonymous": false,
      "inputs": [
        {
          "indexed": false,
          "internalType": "uint256",
          "name": "vaultId",
          "type": "uint256"
        }
      ],
      "name": "VaultCreated",
      "type": "event"
    },
    {
      "anonymous": false,
      "inputs": [
        {
          "indexed": false,
          "internalType": "uint256",
          "name": "vaultId",
          "type": "uint256"
        },
        {
          "indexed": false,
          "internalType": "uint256",
          "name": "amount",
          "type": "uint256"
        }
      ],
      "name": "WithdrawCollateral",
      "type": "event"
    },
    {
      "inputs": [],
      "name": "ADDRESSES_PROVIDER",
      "outputs": [
        {
          "internalType": "contract ILendingPoolAddressesProvider",
          "name": "",
          "type": "address"
        }
      ],
      "stateMutability": "view",
      "type": "function",
      "constant": true
    },
    {
      "inputs": [],
      "name": "LENDING_POOL",
      "outputs": [
        {
          "internalType": "contract ILendingPool",
          "name": "",
          "type": "address"
        }
      ],
      "stateMutability": "view",
      "type": "function",
      "constant": true
    },
    {
      "inputs": [],
      "name": "collateral",
      "outputs": [
        {
          "internalType": "address",
          "name": "",
          "type": "address"
        }
      ],
      "stateMutability": "view",
      "type": "function",
      "constant": true
    },
    {
      "inputs": [],
      "name": "createVault",
      "outputs": [],
      "stateMutability": "nonpayable",
      "type": "function"
    },
    {
      "inputs": [
        {
          "internalType": "uint256",
          "name": "vaultId",
          "type": "uint256"
        },
        {
          "internalType": "uint256",
          "name": "amount",
          "type": "uint256"
        }
      ],
      "name": "deposit",
      "outputs": [],
      "stateMutability": "nonpayable",
      "type": "function"
    },
    {
      "inputs": [
        {
          "internalType": "address",
          "name": "",
          "type": "address"
        },
        {
          "internalType": "uint256",
          "name": "",
          "type": "uint256"
        }
      ],
      "name": "deposits",
      "outputs": [
        {
          "internalType": "uint256",
          "name": "",
          "type": "uint256"
        }
      ],
      "stateMutability": "view",
      "type": "function",
      "constant": true
    },
    {
      "inputs": [
        {
          "internalType": "address[]",
          "name": "assets",
          "type": "address[]"
        },
        {
          "internalType": "uint256[]",
          "name": "amounts",
          "type": "uint256[]"
        },
        {
          "internalType": "uint256[]",
          "name": "premiums",
          "type": "uint256[]"
        },
        {
          "internalType": "address",
          "name": "initiator",
          "type": "address"
        },
        {
          "internalType": "bytes",
          "name": "params",
          "type": "bytes"
        }
      ],
      "name": "executeOperation",
      "outputs": [
        {
          "internalType": "bool",
          "name": "",
          "type": "bool"
        }
      ],
      "stateMutability": "nonpayable",
      "type": "function"
    },
    {
      "inputs": [
        {
          "internalType": "address",
          "name": "_tokenIn",
          "type": "address"
        },
        {
          "internalType": "address",
          "name": "_tokenOut",
          "type": "address"
        },
        {
          "internalType": "uint256",
          "name": "_amountOut",
          "type": "uint256"
        }
      ],
      "name": "getAmountInMin",
      "outputs": [
        {
          "internalType": "uint256",
          "name": "",
          "type": "uint256"
        }
      ],
      "stateMutability": "view",
      "type": "function",
      "constant": true
    },
    {
      "inputs": [
        {
          "internalType": "address",
          "name": "_tokenIn",
          "type": "address"
        },
        {
          "internalType": "address",
          "name": "_tokenOut",
          "type": "address"
        },
        {
          "internalType": "uint256",
          "name": "_amountIn",
          "type": "uint256"
        }
      ],
      "name": "getAmountOutMin",
      "outputs": [
        {
          "internalType": "uint256",
          "name": "",
          "type": "uint256"
        }
      ],
      "stateMutability": "view",
      "type": "function",
      "constant": true
    },
    {
      "inputs": [
        {
          "internalType": "uint256",
          "name": "amount",
          "type": "uint256"
        }
      ],
      "name": "getMAIDebtForAmount",
      "outputs": [
        {
          "internalType": "uint256",
          "name": "",
          "type": "uint256"
        }
      ],
      "stateMutability": "view",
      "type": "function",
      "constant": true
    },
    {
      "inputs": [
        {
          "internalType": "uint256",
          "name": "vaultId",
          "type": "uint256"
        }
      ],
      "name": "getMaxWithdrawableCollateral",
      "outputs": [
        {
          "internalType": "uint256",
          "name": "",
          "type": "uint256"
        }
      ],
      "stateMutability": "view",
      "type": "function",
      "constant": true
    },
    {
      "inputs": [],
      "name": "getMinimumCollateralPercentage",
      "outputs": [
        {
          "internalType": "uint256",
          "name": "",
          "type": "uint256"
        }
      ],
      "stateMutability": "view",
      "type": "function",
      "constant": true
    },
    {
      "inputs": [],
      "name": "getMultiplicatorMax100th",
      "outputs": [
        {
          "internalType": "uint256",
          "name": "",
          "type": "uint256"
        }
      ],
      "stateMutability": "view",
      "type": "function",
      "constant": true
    },
    {
      "inputs": [
        {
          "internalType": "address",
          "name": "token1",
          "type": "address"
        },
        {
          "internalType": "address",
          "name": "token2",
          "type": "address"
        }
      ],
      "name": "getPathSwap",
      "outputs": [
        {
          "internalType": "address[]",
          "name": "",
          "type": "address[]"
        }
      ],
      "stateMutability": "view",
      "type": "function",
      "constant": true
    },
    {
      "inputs": [],
      "name": "getUserVaultList",
      "outputs": [
        {
          "internalType": "uint256[]",
          "name": "",
          "type": "uint256[]"
        }
      ],
      "stateMutability": "view",
      "type": "function",
      "constant": true
    },
    {
      "inputs": [
        {
          "internalType": "uint256",
          "name": "vaultId",
          "type": "uint256"
        },
        {
          "internalType": "uint256",
          "name": "longAmount",
          "type": "uint256"
        },
        {
          "internalType": "uint256",
          "name": "initialDeposit",
          "type": "uint256"
        }
      ],
      "name": "longAsset",
      "outputs": [],
      "stateMutability": "nonpayable",
      "type": "function"
    },
    {
      "inputs": [],
      "name": "maiVault",
      "outputs": [
        {
          "internalType": "address",
          "name": "",
          "type": "address"
        }
      ],
      "stateMutability": "view",
      "type": "function",
      "constant": true
    },
    {
      "inputs": [
        {
          "internalType": "uint256",
          "name": "vaultId",
          "type": "uint256"
        },
        {
          "internalType": "uint256",
          "name": "debtAmountToReduce",
          "type": "uint256"
        }
      ],
      "name": "reduceLong",
      "outputs": [],
      "stateMutability": "nonpayable",
      "type": "function"
    },
    {
      "inputs": [
        {
          "internalType": "uint256",
          "name": "vaultId",
          "type": "uint256"
        },
        {
          "internalType": "uint256",
          "name": "amountToRepay",
          "type": "uint256"
        }
      ],
      "name": "repay",
      "outputs": [],
      "stateMutability": "nonpayable",
      "type": "function"
    },
    {
      "inputs": [
        {
          "internalType": "uint256",
          "name": "vaultId",
          "type": "uint256"
        },
        {
          "internalType": "uint256",
          "name": "amount",
          "type": "uint256"
        }
      ],
      "name": "withdrawCollateral",
      "outputs": [],
      "stateMutability": "nonpayable",
      "type": "function"
    }
  ],
  "bytecode": "0x60c060405273d05e3e715d945b59290df0ae8ef85c1bdb6847446000806101000a81548173ffffffffffffffffffffffffffffffffffffffff021916908373ffffffffffffffffffffffffffffffffffffffff160217905550732791bca1f2de4661ed88a30c99a7a9449aa84174600160006101000a81548173ffffffffffffffffffffffffffffffffffffffff021916908373ffffffffffffffffffffffffffffffffffffffff16021790555073a3fa99a148fa48d14ed51d610c367c61876997f1600260006101000a81548173ffffffffffffffffffffffffffffffffffffffff021916908373ffffffffffffffffffffffffffffffffffffffff160217905550730d500b1d8e8ef31e21c99d1db9a6444d3adf1270600360006101000a81548173ffffffffffffffffffffffffffffffffffffffff021916908373ffffffffffffffffffffffffffffffffffffffff16021790555073a5e0829caced8ffdd4de3c43696c57f7d7a678ff600460006101000a81548173ffffffffffffffffffffffffffffffffffffffff021916908373ffffffffffffffffffffffffffffffffffffffff160217905550737ceb23fd6bc0add59e62ac25578270cff1b9f619600960006101000a81548173ffffffffffffffffffffffffffffffffffffffff021916908373ffffffffffffffffffffffffffffffffffffffff160217905550733fd939b017b31eaadf9ae50c7ff7fa5c0661d47c600a60006101000a81548173ffffffffffffffffffffffffffffffffffffffff021916908373ffffffffffffffffffffffffffffffffffffffff1602179055503480156200026357600080fd5b50600960009054906101000a900473ffffffffffffffffffffffffffffffffffffffff16600a60009054906101000a900473ffffffffffffffffffffffffffffffffffffffff1660008054906101000a900473ffffffffffffffffffffffffffffffffffffffff168073ffffffffffffffffffffffffffffffffffffffff1660808173ffffffffffffffffffffffffffffffffffffffff16815250508073ffffffffffffffffffffffffffffffffffffffff16630261bf8b6040518163ffffffff167c010000000000000000000000000000000000000000000000000000000002815260040160206040518083038186803b1580156200036257600080fd5b505afa15801562000377573d6000803e3d6000fd5b505050506040513d601f19601f820116820180604052508101906200039d9190620004c5565b73ffffffffffffffffffffffffffffffffffffffff1660a08173ffffffffffffffffffffffffffffffffffffffff16815250505080600660006101000a81548173ffffffffffffffffffffffffffffffffffffffff021916908373ffffffffffffffffffffffffffffffffffffffff16021790555081600760006101000a81548173ffffffffffffffffffffffffffffffffffffffff021916908373ffffffffffffffffffffffffffffffffffffffff1602179055505050620004f7565b600080fd5b600073ffffffffffffffffffffffffffffffffffffffff82169050919050565b60006200048d8262000460565b9050919050565b6200049f8162000480565b8114620004ab57600080fd5b50565b600081519050620004bf8162000494565b92915050565b600060208284031215620004de57620004dd6200045b565b5b6000620004ee84828501620004ae565b91505092915050565b60805160a0516147556200052b600039600081816112420152818161144e0152611f4f0152600061040801526147556000f3fe608060405234801561001057600080fd5b5060043610610149576000357c010000000000000000000000000000000000000000000000000000000090048063920f5c84116100ca578063d6d681771161008e578063d6d6817714610350578063d8aed14514610380578063d8dfeb451461039c578063e2bbb158146103ba578063f48b0dc8146103d657610149565b8063920f5c84146102aa5780639b816a47146102da578063a887b6af146102f8578063b4dcfc7714610314578063b9f40cf91461033257610149565b80635d12928b116101115780635d12928b146102085780635e99a7571461021257806368e191041461022e578063767a7b051461025e5780637afa4bbe1461027a57610149565b80630542975c1461014e5780630654fc951461016c57806322c40bdf1461018a57806324109143146101a85780633c50eec1146101d8575b600080fd5b610156610406565b6040516101639190613360565b60405180910390f35b61017461042a565b6040516101819190613443565b60405180910390f35b6101926104bf565b60405161019f9190613474565b60405180910390f35b6101c260048036038101906101bd91906134cf565b610582565b6040516101cf9190613474565b60405180910390f35b6101f260048036038101906101ed919061353a565b6108fe565b6040516101ff9190613474565b60405180910390f35b610210610a13565b005b61022c6004803603810190610227919061358d565b610b7b565b005b6102486004803603810190610243919061353a565b610bd5565b6040516102559190613474565b60405180910390f35b6102786004803603810190610273919061358d565b610cde565b005b610294600480360381019061028f91906134cf565b610e94565b6040516102a19190613474565b60405180910390f35b6102c460048036038101906102bf91906136de565b611145565b6040516102d191906137f5565b60405180910390f35b6102e2611303565b6040516102ef919061381f565b60405180910390f35b610312600480360381019061030d919061383a565b611329565b005b61031c61144c565b60405161032991906138ae565b60405180910390f35b61033a611470565b6040516103479190613474565b60405180910390f35b61036a600480360381019061036591906138c9565b6114a9565b6040516103779190613474565b60405180910390f35b61039a6004803603810190610395919061358d565b6114ce565b005b6103a46116c7565b6040516103b1919061381f565b60405180910390f35b6103d460048036038101906103cf919061358d565b6116ed565b005b6103f060048036038101906103eb9190613909565b611899565b6040516103fd9190613a07565b60405180910390f35b7f000000000000000000000000000000000000000000000000000000000000000081565b6060600560003373ffffffffffffffffffffffffffffffffffffffff1673ffffffffffffffffffffffffffffffffffffffff1681526020019081526020016000208054806020026020016040519081016040528092919081815260200182805480156104b557602002820191906000526020600020905b8154815260200190600101908083116104a1575b5050505050905090565b6000600660009054906101000a900473ffffffffffffffffffffffffffffffffffffffff1673ffffffffffffffffffffffffffffffffffffffff1663e5f4dc926040518163ffffffff167c010000000000000000000000000000000000000000000000000000000002815260040160206040518083038186803b15801561054557600080fd5b505afa158015610559573d6000803e3d6000fd5b505050506040513d601f19601f8201168201806040525081019061057d9190613a3e565b905090565b60006060600567ffffffffffffffff8111156105a1576105a0613a6b565b5b6040519080825280602002602001820160405280156105cf5781602001602082028036833780820191505090505b509050600260009054906101000a900473ffffffffffffffffffffffffffffffffffffffff168160008151811061060957610608613a9a565b5b602002602001019073ffffffffffffffffffffffffffffffffffffffff16908173ffffffffffffffffffffffffffffffffffffffff1681525050600360009054906101000a900473ffffffffffffffffffffffffffffffffffffffff168160018151811061067a57610679613a9a565b5b602002602001019073ffffffffffffffffffffffffffffffffffffffff16908173ffffffffffffffffffffffffffffffffffffffff1681525050600160009054906101000a900473ffffffffffffffffffffffffffffffffffffffff16816002815181106106eb576106ea613a9a565b5b602002602001019073ffffffffffffffffffffffffffffffffffffffff16908173ffffffffffffffffffffffffffffffffffffffff1681525050600360009054906101000a900473ffffffffffffffffffffffffffffffffffffffff168160038151811061075c5761075b613a9a565b5b602002602001019073ffffffffffffffffffffffffffffffffffffffff16908173ffffffffffffffffffffffffffffffffffffffff1681525050600760009054906101000a900473ffffffffffffffffffffffffffffffffffffffff16816004815181106107cd576107cc613a9a565b5b602002602001019073ffffffffffffffffffffffffffffffffffffffff16908173ffffffffffffffffffffffffffffffffffffffff16815250506000600460009054906101000a900473ffffffffffffffffffffffffffffffffffffffff1673ffffffffffffffffffffffffffffffffffffffff16631f00ca7485846040518363ffffffff167c0100000000000000000000000000000000000000000000000000000000028152600401610882929190613ac9565b60006040518083038186803b15801561089a57600080fd5b505afa1580156108ae573d6000803e3d6000fd5b505050506040513d6000823e3d601f19601f820116820180604052508101906108d79190613c19565b9050806000815181106108ed576108ec613a9a565b5b602002602001015192505050919050565b6000606061090c8585611899565b90506000600460009054906101000a900473ffffffffffffffffffffffffffffffffffffffff1673ffffffffffffffffffffffffffffffffffffffff1663d06ca61f85846040518363ffffffff167c0100000000000000000000000000000000000000000000000000000000028152600401610989929190613ac9565b60006040518083038186803b1580156109a157600080fd5b505afa1580156109b5573d6000803e3d6000fd5b505050506040513d6000823e3d601f19601f820116820180604052508101906109de9190613c19565b905080600183516109ef9190613c91565b81518110610a00576109ff613a9a565b5b6020026020010151925050509392505050565b6000600660009054906101000a900473ffffffffffffffffffffffffffffffffffffffff16905060008173ffffffffffffffffffffffffffffffffffffffff16635d12928b6040518163ffffffff167c0100000000000000000000000000000000000000000000000000000000028152600401602060405180830381600087803b158015610aa057600080fd5b505af1158015610ab4573d6000803e3d6000fd5b505050506040513d601f19601f82011682018060405250810190610ad89190613a3e565b9050600560003373ffffffffffffffffffffffffffffffffffffffff1673ffffffffffffffffffffffffffffffffffffffff1681526020019081526020016000208190806001815401808255809150506001900390600052602060002001600090919091909150557f4111fcee61908834830adf60a520ba26d09f02fa4e00cfe3d2c134e32f3f869681604051610b6f9190613474565b60405180910390a15050565b8133610b878282611ba6565b50610b96848460016000611cc6565b7fc0df9fe8084fa90073ce26d7d6aab182bcc9b31fc0d5d0292b71444a96fa9e3d8484604051610bc7929190613cc5565b60405180910390a150505050565b60006060610be38585611899565b90506000600460009054906101000a900473ffffffffffffffffffffffffffffffffffffffff1673ffffffffffffffffffffffffffffffffffffffff16631f00ca7485846040518363ffffffff167c0100000000000000000000000000000000000000000000000000000000028152600401610c60929190613ac9565b60006040518083038186803b158015610c7857600080fd5b505afa158015610c8c573d6000803e3d6000fd5b505050506040513d6000823e3d601f19601f82011682018060405250810190610cb59190613c19565b905080600081518110610ccb57610cca613a9a565b5b6020026020010151925050509392505050565b8133610cea8282611ba6565b508260008111610d2f576040517f08c379a0000000000000000000000000000000000000000000000000000000008152600401610d2690613d4b565b60405180910390fd5b610d39858561200e565b600760009054906101000a900473ffffffffffffffffffffffffffffffffffffffff1673ffffffffffffffffffffffffffffffffffffffff1663095ea7b330866040518363ffffffff167c0100000000000000000000000000000000000000000000000000000000028152600401610db2929190613d6b565b602060405180830381600087803b158015610dcc57600080fd5b505af1158015610de0573d6000803e3d6000fd5b505050506040513d601f19601f82011682018060405250810190610e049190613dc0565b50610e54303386600760009054906101000a900473ffffffffffffffffffffffffffffffffffffffff1673ffffffffffffffffffffffffffffffffffffffff166120bd909392919063ffffffff16565b7f6c0ea3bea9dd66afa8f9d39d6eb93d833466190330813b42835efc650dca4cb98585604051610e85929190613cc5565b60405180910390a15050505050565b600080600660009054906101000a900473ffffffffffffffffffffffffffffffffffffffff16905060008173ffffffffffffffffffffffffffffffffffffffff1663d310f49b856040518263ffffffff167c0100000000000000000000000000000000000000000000000000000000028152600401610f139190613474565b60206040518083038186803b158015610f2b57600080fd5b505afa158015610f3f573d6000803e3d6000fd5b505050506040513d601f19601f82011682018060405250810190610f639190613a3e565b905060008273ffffffffffffffffffffffffffffffffffffffff1663d4a9b2c5866040518263ffffffff167c0100000000000000000000000000000000000000000000000000000000028152600401610fbc9190613474565b60206040518083038186803b158015610fd457600080fd5b505afa158015610fe8573d6000803e3d6000fd5b505050506040513d601f19601f8201168201806040525081019061100c9190613a3e565b9050600082141561102257809350505050611140565b600061102c6104bf565b905060008473ffffffffffffffffffffffffffffffffffffffff1663df987846886040518263ffffffff167c01000000000000000000000000000000000000000000000000000000000281526004016110859190613474565b60206040518083038186803b15801561109d57600080fd5b505afa1580156110b1573d6000803e3d6000fd5b505050506040513d601f19601f820116820180604052508101906110d59190613a3e565b9050600081856110e59190613ded565b9050600084826110f59190613e76565b9050600084836111059190613e76565b9050600087826111159190613c91565b905060008684836111269190613e76565b6111309190613ded565b9050809a50505050505050505050505b919050565b60008083838101906111579190613f1e565b50509250505060008989600081811061117357611172613a9a565b5b90506020020135905060008888600081811061119257611191613a9a565b5b905060200201358b8b60008181106111ad576111ac613a9a565b5b905060200201356111be9190613f99565b905060008d8d60008181106111d6576111d5613a9a565b5b90506020020160208101906111eb9190613fef565b905060008460ff16141561120a5761120583838989612162565b611224565b60018460ff161415611223576112228383898961268d565b5b5b8073ffffffffffffffffffffffffffffffffffffffff1663095ea7b37f0000000000000000000000000000000000000000000000000000000000000000846040518363ffffffff167c010000000000000000000000000000000000000000000000000000000002815260040161129b929190613d6b565b602060405180830381600087803b1580156112b557600080fd5b505af11580156112c9573d6000803e3d6000fd5b505050506040513d601f19601f820116820180604052508101906112ed9190613dc0565b5060019450505050509998505050505050505050565b600660009054906101000a900473ffffffffffffffffffffffffffffffffffffffff1681565b82336113358282611ba6565b5060008311801561136f57506113496104bf565b84606485876113589190613f99565b6113629190613ded565b61136c9190613e76565b10155b6113ae576040517f08c379a00000000000000000000000000000000000000000000000000000000081526004016113a590614068565b60405180910390fd5b6113fd333085600760009054906101000a900473ffffffffffffffffffffffffffffffffffffffff1673ffffffffffffffffffffffffffffffffffffffff166120bd909392919063ffffffff16565b61140a8585600086611cc6565b7fcbf3d8fa8a0327024c779609ca3898d31246e64909b6867939acb857a6ca747e85858560405161143d93929190614088565b60405180910390a15050505050565b7f000000000000000000000000000000000000000000000000000000000000000081565b600080606461147d6104bf565b6114879190613c91565b90506001816114969190613f99565b6127106114a39190613e76565b91505090565b6008602052816000526040600020602052806000526040600020600091509150505481565b81336114da8282611ba6565b50826000811161151f576040517f08c379a000000000000000000000000000000000000000000000000000000000815260040161151690613d4b565b60405180910390fd5b6000600660009054906101000a900473ffffffffffffffffffffffffffffffffffffffff1673ffffffffffffffffffffffffffffffffffffffff1663d310f49b876040518263ffffffff167c01000000000000000000000000000000000000000000000000000000000281526004016115989190613474565b60206040518083038186803b1580156115b057600080fd5b505afa1580156115c4573d6000803e3d6000fd5b505050506040513d601f19601f820116820180604052508101906115e89190613a3e565b90508085111561162d576040517f08c379a00000000000000000000000000000000000000000000000000000000081526004016116249061410b565b60405180910390fd5b61167c333087600260009054906101000a900473ffffffffffffffffffffffffffffffffffffffff1673ffffffffffffffffffffffffffffffffffffffff166120bd909392919063ffffffff16565b6116868686612c6a565b7f552544cb36551120f07c66c5cd4b2987725a0c72198587f2ce796099bb66c58c86866040516116b7929190613cc5565b60405180910390a1505050505050565b600760009054906101000a900473ffffffffffffffffffffffffffffffffffffffff1681565b81336116f98282611ba6565b50826000811161173e576040517f08c379a000000000000000000000000000000000000000000000000000000000815260040161173590613d4b565b60405180910390fd5b60008411611781576040517f08c379a000000000000000000000000000000000000000000000000000000000815260040161177890614177565b60405180910390fd5b600760009054906101000a900473ffffffffffffffffffffffffffffffffffffffff1673ffffffffffffffffffffffffffffffffffffffff166323b872dd3330876040518463ffffffff167c01000000000000000000000000000000000000000000000000000000000281526004016117fc93929190614197565b602060405180830381600087803b15801561181657600080fd5b505af115801561182a573d6000803e3d6000fd5b505050506040513d601f19601f8201168201806040525081019061184e9190613dc0565b506118598585612e07565b7fa3af609bf46297028ce551832669030f9effef2b02606d02cbbcc40fe6b47c55858560405161188a929190613cc5565b60405180910390a15050505050565b6060600360009054906101000a900473ffffffffffffffffffffffffffffffffffffffff1673ffffffffffffffffffffffffffffffffffffffff168373ffffffffffffffffffffffffffffffffffffffff1614806119445750600360009054906101000a900473ffffffffffffffffffffffffffffffffffffffff1673ffffffffffffffffffffffffffffffffffffffff168273ffffffffffffffffffffffffffffffffffffffff16145b15611a3e576000600267ffffffffffffffff81111561196657611965613a6b565b5b6040519080825280602002602001820160405280156119945781602001602082028036833780820191505090505b50905083816000815181106119ac576119ab613a9a565b5b602002602001019073ffffffffffffffffffffffffffffffffffffffff16908173ffffffffffffffffffffffffffffffffffffffff168152505082816001815181106119fb576119fa613a9a565b5b602002602001019073ffffffffffffffffffffffffffffffffffffffff16908173ffffffffffffffffffffffffffffffffffffffff168152505080915050611ba0565b6000600367ffffffffffffffff811115611a5b57611a5a613a6b565b5b604051908082528060200260200182016040528015611a895781602001602082028036833780820191505090505b5090508381600081518110611aa157611aa0613a9a565b5b602002602001019073ffffffffffffffffffffffffffffffffffffffff16908173ffffffffffffffffffffffffffffffffffffffff1681525050600360009054906101000a900473ffffffffffffffffffffffffffffffffffffffff1681600181518110611b1257611b11613a9a565b5b602002602001019073ffffffffffffffffffffffffffffffffffffffff16908173ffffffffffffffffffffffffffffffffffffffff16815250508281600281518110611b6157611b60613a9a565b5b602002602001019073ffffffffffffffffffffffffffffffffffffffff16908173ffffffffffffffffffffffffffffffffffffffff1681525050809150505b92915050565b600080600560008473ffffffffffffffffffffffffffffffffffffffff1673ffffffffffffffffffffffffffffffffffffffff168152602001908152602001600020805480602002602001604051908101604052809291908181526020018280548015611c3257602002820191906000526020600020905b815481526020019060010190808311611c1e575b5050505050905060005b8151811015611c845784828281518110611c5957611c58613a9a565b5b60200260200101511415611c71578092505050611cc0565b8080611c7c906141ce565b915050611c3c565b506040517f08c379a0000000000000000000000000000000000000000000000000000000008152600401611cb790614263565b60405180910390fd5b92915050565b6000611d17600160009054906101000a900473ffffffffffffffffffffffffffffffffffffffff16600760009054906101000a900473ffffffffffffffffffffffffffffffffffffffff1686610bd5565b905060018360ff161415611d7757611d74600160009054906101000a900473ffffffffffffffffffffffffffffffffffffffff16600260009054906101000a900473ffffffffffffffffffffffffffffffffffffffff1686610bd5565b90505b60003090506000600167ffffffffffffffff811115611d9957611d98613a6b565b5b604051908082528060200260200182016040528015611dc75781602001602082028036833780820191505090505b509050600160009054906101000a900473ffffffffffffffffffffffffffffffffffffffff1681600081518110611e0157611e00613a9a565b5b602002602001019073ffffffffffffffffffffffffffffffffffffffff16908173ffffffffffffffffffffffffffffffffffffffff16815250506000600167ffffffffffffffff811115611e5857611e57613a6b565b5b604051908082528060200260200182016040528015611e865781602001602082028036833780820191505090505b5090508381600081518110611e9e57611e9d613a9a565b5b6020026020010181815250506000600167ffffffffffffffff811115611ec757611ec6613a6b565b5b604051908082528060200260200182016040528015611ef55781602001602082028036833780820191505090505b509050600081600081518110611f0e57611f0d613a9a565b5b602002602001018181525050600030905060008a338a8c8b604051602001611f3a959493929190614292565b604051602081830303815290604052905060007f000000000000000000000000000000000000000000000000000000000000000073ffffffffffffffffffffffffffffffffffffffff1663ab9c4b5d888888888888886040518863ffffffff167c0100000000000000000000000000000000000000000000000000000000028152600401611fce979695949392919061438a565b600060405180830381600087803b158015611fe857600080fd5b505af1158015611ffc573d6000803e3d6000fd5b50505050505050505050505050505050565b600660009054906101000a900473ffffffffffffffffffffffffffffffffffffffff1673ffffffffffffffffffffffffffffffffffffffff1663767a7b0583836040518363ffffffff167c0100000000000000000000000000000000000000000000000000000000028152600401612087929190613cc5565b600060405180830381600087803b1580156120a157600080fd5b505af11580156120b5573d6000803e3d6000fd5b505050505050565b61215c846323b872dd7c0100000000000000000000000000000000000000000000000000000000028585856040516024016120fa93929190614197565b604051602081830303815290604052907bffffffffffffffffffffffffffffffffffffffffffffffffffffffff19166020820180517bffffffffffffffffffffffffffffffffffffffffffffffffffffffff8381831617835250505050612fae565b50505050565b600080600084848101906121769190613f1e565b9450945050509250600160009054906101000a900473ffffffffffffffffffffffffffffffffffffffff1673ffffffffffffffffffffffffffffffffffffffff1663095ea7b3600460009054906101000a900473ffffffffffffffffffffffffffffffffffffffff16896040518363ffffffff167c0100000000000000000000000000000000000000000000000000000000028152600401612219929190613d6b565b602060405180830381600087803b15801561223357600080fd5b505af1158015612247573d6000803e3d6000fd5b505050506040513d601f19601f8201168201806040525081019061226b9190613dc0565b506000600460009054906101000a900473ffffffffffffffffffffffffffffffffffffffff1673ffffffffffffffffffffffffffffffffffffffff16638803dbee848a6122fc600160009054906101000a900473ffffffffffffffffffffffffffffffffffffffff16600760009054906101000a900473ffffffffffffffffffffffffffffffffffffffff16611899565b30426040518663ffffffff167c010000000000000000000000000000000000000000000000000000000002815260040161233a959493929190614415565b600060405180830381600087803b15801561235457600080fd5b505af1158015612368573d6000803e3d6000fd5b505050506040513d6000823e3d601f19601f820116820180604052508101906123919190613c19565b9050806000815181106123a7576123a6613a9a565b5b6020026020010151886123ba9190613c91565b876123c59190613c91565b9650600082846123d59190613f99565b90506123e18582612e07565b6000612432600260009054906101000a900473ffffffffffffffffffffffffffffffffffffffff16600160009054906101000a900473ffffffffffffffffffffffffffffffffffffffff168b610bd5565b905061243e8682613075565b600260009054906101000a900473ffffffffffffffffffffffffffffffffffffffff1673ffffffffffffffffffffffffffffffffffffffff1663095ea7b3600460009054906101000a900473ffffffffffffffffffffffffffffffffffffffff16836040518363ffffffff167c01000000000000000000000000000000000000000000000000000000000281526004016124d9929190613d6b565b602060405180830381600087803b1580156124f357600080fd5b505af1158015612507573d6000803e3d6000fd5b505050506040513d601f19601f8201168201806040525081019061252b9190613dc0565b50600460009054906101000a900473ffffffffffffffffffffffffffffffffffffffff1673ffffffffffffffffffffffffffffffffffffffff16638803dbee8a836125ba600260009054906101000a900473ffffffffffffffffffffffffffffffffffffffff16600160009054906101000a900473ffffffffffffffffffffffffffffffffffffffff16611899565b30426040518663ffffffff167c01000000000000000000000000000000000000000000000000000000000281526004016125f8959493929190614415565b600060405180830381600087803b15801561261257600080fd5b505af1158015612626573d6000803e3d6000fd5b505050506040513d6000823e3d601f19601f8201168201806040525081019061264f9190613c19565b9250612681868460008151811061266957612668613a9a565b5b60200260200101518361267c9190613c91565b612c6a565b50505050505050505050565b600080838381019061269f919061446f565b935050509150600160009054906101000a900473ffffffffffffffffffffffffffffffffffffffff1673ffffffffffffffffffffffffffffffffffffffff1663095ea7b3600460009054906101000a900473ffffffffffffffffffffffffffffffffffffffff16886040518363ffffffff167c0100000000000000000000000000000000000000000000000000000000028152600401612740929190613d6b565b602060405180830381600087803b15801561275a57600080fd5b505af115801561276e573d6000803e3d6000fd5b505050506040513d601f19601f820116820180604052508101906127929190613dc0565b506000600460009054906101000a900473ffffffffffffffffffffffffffffffffffffffff1673ffffffffffffffffffffffffffffffffffffffff16638803dbee8389612823600160009054906101000a900473ffffffffffffffffffffffffffffffffffffffff16600260009054906101000a900473ffffffffffffffffffffffffffffffffffffffff16611899565b30426040518663ffffffff167c0100000000000000000000000000000000000000000000000000000000028152600401612861959493929190614415565b600060405180830381600087803b15801561287b57600080fd5b505af115801561288f573d6000803e3d6000fd5b505050506040513d6000823e3d601f19601f820116820180604052508101906128b89190613c19565b9050806000815181106128ce576128cd613a9a565b5b6020026020010151876128e19190613c91565b866128ec9190613c91565b955061291f8382600184516129019190613c91565b8151811061291257612911613a9a565b5b6020026020010151612c6a565b6000612970600760009054906101000a900473ffffffffffffffffffffffffffffffffffffffff16600160009054906101000a900473ffffffffffffffffffffffffffffffffffffffff1689610bd5565b9050600660009054906101000a900473ffffffffffffffffffffffffffffffffffffffff1673ffffffffffffffffffffffffffffffffffffffff1663767a7b0585836040518363ffffffff167c01000000000000000000000000000000000000000000000000000000000281526004016129eb929190613cc5565b600060405180830381600087803b158015612a0557600080fd5b505af1158015612a19573d6000803e3d6000fd5b50505050600760009054906101000a900473ffffffffffffffffffffffffffffffffffffffff1673ffffffffffffffffffffffffffffffffffffffff1663095ea7b3600460009054906101000a900473ffffffffffffffffffffffffffffffffffffffff16836040518363ffffffff167c0100000000000000000000000000000000000000000000000000000000028152600401612ab8929190613d6b565b602060405180830381600087803b158015612ad257600080fd5b505af1158015612ae6573d6000803e3d6000fd5b505050506040513d601f19601f82011682018060405250810190612b0a9190613dc0565b50600460009054906101000a900473ffffffffffffffffffffffffffffffffffffffff1673ffffffffffffffffffffffffffffffffffffffff16638803dbee8883612b99600760009054906101000a900473ffffffffffffffffffffffffffffffffffffffff16600160009054906101000a900473ffffffffffffffffffffffffffffffffffffffff16611899565b30426040518663ffffffff167c0100000000000000000000000000000000000000000000000000000000028152600401612bd7959493929190614415565b600060405180830381600087803b158015612bf157600080fd5b505af1158015612c05573d6000803e3d6000fd5b505050506040513d6000823e3d601f19601f82011682018060405250810190612c2e9190613c19565b9150612c608483600081518110612c4857612c47613a9a565b5b602002602001015183612c5b9190613c91565b612e07565b5050505050505050565b600260009054906101000a900473ffffffffffffffffffffffffffffffffffffffff1673ffffffffffffffffffffffffffffffffffffffff1663095ea7b3600660009054906101000a900473ffffffffffffffffffffffffffffffffffffffff16836040518363ffffffff167c0100000000000000000000000000000000000000000000000000000000028152600401612d05929190613d6b565b602060405180830381600087803b158015612d1f57600080fd5b505af1158015612d33573d6000803e3d6000fd5b505050506040513d601f19601f82011682018060405250810190612d579190613dc0565b50600660009054906101000a900473ffffffffffffffffffffffffffffffffffffffff1673ffffffffffffffffffffffffffffffffffffffff166385af3c1683836040518363ffffffff167c0100000000000000000000000000000000000000000000000000000000028152600401612dd1929190613cc5565b600060405180830381600087803b158015612deb57600080fd5b505af1158015612dff573d6000803e3d6000fd5b505050505050565b6000811115612faa57600760009054906101000a900473ffffffffffffffffffffffffffffffffffffffff1673ffffffffffffffffffffffffffffffffffffffff1663095ea7b3600660009054906101000a900473ffffffffffffffffffffffffffffffffffffffff16836040518363ffffffff167c0100000000000000000000000000000000000000000000000000000000028152600401612eab929190613d6b565b602060405180830381600087803b158015612ec557600080fd5b505af1158015612ed9573d6000803e3d6000fd5b505050506040513d601f19601f82011682018060405250810190612efd9190613dc0565b50600660009054906101000a900473ffffffffffffffffffffffffffffffffffffffff1673ffffffffffffffffffffffffffffffffffffffff1663ece1373283836040518363ffffffff167c0100000000000000000000000000000000000000000000000000000000028152600401612f77929190613cc5565b600060405180830381600087803b158015612f9157600080fd5b505af1158015612fa5573d6000803e3d6000fd5b505050505b5050565b6000613010826040518060400160405280602081526020017f5361666545524332303a206c6f772d6c6576656c2063616c6c206661696c65648152508573ffffffffffffffffffffffffffffffffffffffff166131249092919063ffffffff16565b905060008151111561307057808060200190518101906130309190613dc0565b61306f576040517f08c379a000000000000000000000000000000000000000000000000000000000815260040161306690614548565b60405180910390fd5b5b505050565b600660009054906101000a900473ffffffffffffffffffffffffffffffffffffffff1673ffffffffffffffffffffffffffffffffffffffff166308ec592783836040518363ffffffff167c01000000000000000000000000000000000000000000000000000000000281526004016130ee929190613cc5565b600060405180830381600087803b15801561310857600080fd5b505af115801561311c573d6000803e3d6000fd5b505050505050565b6060613133848460008561313c565b90509392505050565b6060823073ffffffffffffffffffffffffffffffffffffffff16311015613198576040517f08c379a000000000000000000000000000000000000000000000000000000000815260040161318f906145da565b60405180910390fd5b6131a185613267565b6131e0576040517f08c379a00000000000000000000000000000000000000000000000000000000081526004016131d790614646565b60405180910390fd5b6000808673ffffffffffffffffffffffffffffffffffffffff16858760405161320991906146a2565b60006040518083038185875af1925050503d8060008114613246576040519150601f19603f3d011682016040523d82523d6000602084013e61324b565b606091505b509150915061325b82828661327a565b92505050949350505050565b600080823b905060008111915050919050565b6060831561328a578290506132da565b60008351111561329d5782518084602001fd5b816040517f08c379a00000000000000000000000000000000000000000000000000000000081526004016132d191906146fd565b60405180910390fd5b9392505050565b600073ffffffffffffffffffffffffffffffffffffffff82169050919050565b6000819050919050565b600061332661332161331c846132e1565b613301565b6132e1565b9050919050565b60006133388261330b565b9050919050565b600061334a8261332d565b9050919050565b61335a8161333f565b82525050565b60006020820190506133756000830184613351565b92915050565b600081519050919050565b600082825260208201905092915050565b6000819050602082019050919050565b6000819050919050565b6133ba816133a7565b82525050565b60006133cc83836133b1565b60208301905092915050565b6000602082019050919050565b60006133f08261337b565b6133fa8185613386565b935061340583613397565b8060005b8381101561343657815161341d88826133c0565b9750613428836133d8565b925050600181019050613409565b5085935050505092915050565b6000602082019050818103600083015261345d81846133e5565b905092915050565b61346e816133a7565b82525050565b60006020820190506134896000830184613465565b92915050565b6000604051905090565b600080fd5b600080fd5b6134ac816133a7565b81146134b757600080fd5b50565b6000813590506134c9816134a3565b92915050565b6000602082840312156134e5576134e4613499565b5b60006134f3848285016134ba565b91505092915050565b6000613507826132e1565b9050919050565b613517816134fc565b811461352257600080fd5b50565b6000813590506135348161350e565b92915050565b60008060006060848603121561355357613552613499565b5b600061356186828701613525565b935050602061357286828701613525565b9250506040613583868287016134ba565b9150509250925092565b600080604083850312156135a4576135a3613499565b5b60006135b2858286016134ba565b92505060206135c3858286016134ba565b9150509250929050565b600080fd5b600080fd5b600080fd5b60008083601f8401126135f2576135f16135cd565b5b8235905067ffffffffffffffff81111561360f5761360e6135d2565b5b60208301915083602082028301111561362b5761362a6135d7565b5b9250929050565b60008083601f840112613648576136476135cd565b5b8235905067ffffffffffffffff811115613665576136646135d2565b5b602083019150836020820283011115613681576136806135d7565b5b9250929050565b60008083601f84011261369e5761369d6135cd565b5b8235905067ffffffffffffffff8111156136bb576136ba6135d2565b5b6020830191508360018202830111156136d7576136d66135d7565b5b9250929050565b600080600080600080600080600060a08a8c031215613700576136ff613499565b5b60008a013567ffffffffffffffff81111561371e5761371d61349e565b5b61372a8c828d016135dc565b995099505060208a013567ffffffffffffffff81111561374d5761374c61349e565b5b6137598c828d01613632565b975097505060408a013567ffffffffffffffff81111561377c5761377b61349e565b5b6137888c828d01613632565b9550955050606061379b8c828d01613525565b93505060808a013567ffffffffffffffff8111156137bc576137bb61349e565b5b6137c88c828d01613688565b92509250509295985092959850929598565b60008115159050919050565b6137ef816137da565b82525050565b600060208201905061380a60008301846137e6565b92915050565b613819816134fc565b82525050565b60006020820190506138346000830184613810565b92915050565b60008060006060848603121561385357613852613499565b5b6000613861868287016134ba565b9350506020613872868287016134ba565b9250506040613883868287016134ba565b9150509250925092565b60006138988261332d565b9050919050565b6138a88161388d565b82525050565b60006020820190506138c3600083018461389f565b92915050565b600080604083850312156138e0576138df613499565b5b60006138ee85828601613525565b92505060206138ff858286016134ba565b9150509250929050565b600080604083850312156139205761391f613499565b5b600061392e85828601613525565b925050602061393f85828601613525565b9150509250929050565b600081519050919050565b600082825260208201905092915050565b6000819050602082019050919050565b61397e816134fc565b82525050565b60006139908383613975565b60208301905092915050565b6000602082019050919050565b60006139b482613949565b6139be8185613954565b93506139c983613965565b8060005b838110156139fa5781516139e18882613984565b97506139ec8361399c565b9250506001810190506139cd565b5085935050505092915050565b60006020820190508181036000830152613a2181846139a9565b905092915050565b600081519050613a38816134a3565b92915050565b600060208284031215613a5457613a53613499565b5b6000613a6284828501613a29565b91505092915050565b7f4e487b7100000000000000000000000000000000000000000000000000000000600052604160045260246000fd5b7f4e487b7100000000000000000000000000000000000000000000000000000000600052603260045260246000fd5b6000604082019050613ade6000830185613465565b8181036020830152613af081846139a9565b90509392505050565b6000601f19601f8301169050919050565b613b1382613af9565b810181811067ffffffffffffffff82111715613b3257613b31613a6b565b5b80604052505050565b6000613b4561348f565b9050613b518282613b0a565b919050565b600067ffffffffffffffff821115613b7157613b70613a6b565b5b602082029050602081019050919050565b6000613b95613b9084613b56565b613b3b565b90508083825260208201905060208402830185811115613bb857613bb76135d7565b5b835b81811015613be15780613bcd8882613a29565b845260208401935050602081019050613bba565b5050509392505050565b600082601f830112613c0057613bff6135cd565b5b8151613c10848260208601613b82565b91505092915050565b600060208284031215613c2f57613c2e613499565b5b600082015167ffffffffffffffff811115613c4d57613c4c61349e565b5b613c5984828501613beb565b91505092915050565b7f4e487b7100000000000000000000000000000000000000000000000000000000600052601160045260246000fd5b6000613c9c826133a7565b9150613ca7836133a7565b925082821015613cba57613cb9613c62565b5b828203905092915050565b6000604082019050613cda6000830185613465565b613ce76020830184613465565b9392505050565b600082825260208201905092915050565b7f504f5349544956455f414d4f554e545f52455155495245440000000000000000600082015250565b6000613d35601883613cee565b9150613d4082613cff565b602082019050919050565b60006020820190508181036000830152613d6481613d28565b9050919050565b6000604082019050613d806000830185613810565b613d8d6020830184613465565b9392505050565b613d9d816137da565b8114613da857600080fd5b50565b600081519050613dba81613d94565b92915050565b600060208284031215613dd657613dd5613499565b5b6000613de484828501613dab565b91505092915050565b6000613df8826133a7565b9150613e03836133a7565b9250817fffffffffffffffffffffffffffffffffffffffffffffffffffffffffffffffff0483118215151615613e3c57613e3b613c62565b5b828202905092915050565b7f4e487b7100000000000000000000000000000000000000000000000000000000600052601260045260246000fd5b6000613e81826133a7565b9150613e8c836133a7565b925082613e9c57613e9b613e47565b5b828204905092915050565b6000613eb2826132e1565b9050919050565b613ec281613ea7565b8114613ecd57600080fd5b50565b600081359050613edf81613eb9565b92915050565b600060ff82169050919050565b613efb81613ee5565b8114613f0657600080fd5b50565b600081359050613f1881613ef2565b92915050565b600080600080600060a08688031215613f3a57613f39613499565b5b6000613f48888289016134ba565b9550506020613f5988828901613ed0565b9450506040613f6a88828901613f09565b9350506060613f7b888289016134ba565b9250506080613f8c888289016134ba565b9150509295509295909350565b6000613fa4826133a7565b9150613faf836133a7565b9250827fffffffffffffffffffffffffffffffffffffffffffffffffffffffffffffffff03821115613fe457613fe3613c62565b5b828201905092915050565b60006020828403121561400557614004613499565b5b600061401384828501613525565b91505092915050565b7f4e4f545f454e4f5547485f434f4c4c41544552414c0000000000000000000000600082015250565b6000614052601583613cee565b915061405d8261401c565b602082019050919050565b6000602082019050818103600083015261408181614045565b9050919050565b600060608201905061409d6000830186613465565b6140aa6020830185613465565b6140b76040830184613465565b949350505050565b7f414d4f554e545f544f4f5f424947000000000000000000000000000000000000600082015250565b60006140f5600e83613cee565b9150614100826140bf565b602082019050919050565b60006020820190508181036000830152614124816140e8565b9050919050565b7f414d4f554e545f5a45524f000000000000000000000000000000000000000000600082015250565b6000614161600b83613cee565b915061416c8261412b565b602082019050919050565b6000602082019050818103600083015261419081614154565b9050919050565b60006060820190506141ac6000830186613810565b6141b96020830185613810565b6141c66040830184613465565b949350505050565b60006141d9826133a7565b91507fffffffffffffffffffffffffffffffffffffffffffffffffffffffffffffffff82141561420c5761420b613c62565b5b600182019050919050565b7f555345525f4e4f545f4f574e4552000000000000000000000000000000000000600082015250565b600061424d600e83613cee565b915061425882614217565b602082019050919050565b6000602082019050818103600083015261427c81614240565b9050919050565b61428c81613ee5565b82525050565b600060a0820190506142a76000830188613465565b6142b46020830187613810565b6142c16040830186614283565b6142ce6060830185613465565b6142db6080830184613465565b9695505050505050565b600081519050919050565b600082825260208201905092915050565b60005b8381101561431f578082015181840152602081019050614304565b8381111561432e576000848401525b50505050565b600061433f826142e5565b61434981856142f0565b9350614359818560208601614301565b61436281613af9565b840191505092915050565b600061ffff82169050919050565b6143848161436d565b82525050565b600060e08201905061439f600083018a613810565b81810360208301526143b181896139a9565b905081810360408301526143c581886133e5565b905081810360608301526143d981876133e5565b90506143e86080830186613810565b81810360a08301526143fa8185614334565b905061440960c083018461437b565b98975050505050505050565b600060a08201905061442a6000830188613465565b6144376020830187613465565b818103604083015261444981866139a9565b90506144586060830185613810565b6144656080830184613465565b9695505050505050565b6000806000806080858703121561448957614488613499565b5b6000614497878288016134ba565b94505060206144a887828801613ed0565b93505060406144b987828801613f09565b92505060606144ca878288016134ba565b91505092959194509250565b7f5361666545524332303a204552433230206f7065726174696f6e20646964206e60008201527f6f74207375636365656400000000000000000000000000000000000000000000602082015250565b6000614532602a83613cee565b915061453d826144d6565b604082019050919050565b6000602082019050818103600083015261456181614525565b9050919050565b7f416464726573733a20696e73756666696369656e742062616c616e636520666f60008201527f722063616c6c0000000000000000000000000000000000000000000000000000602082015250565b60006145c4602683613cee565b91506145cf82614568565b604082019050919050565b600060208201905081810360008301526145f3816145b7565b9050919050565b7f416464726573733a2063616c6c20746f206e6f6e2d636f6e7472616374000000600082015250565b6000614630601d83613cee565b915061463b826145fa565b602082019050919050565b6000602082019050818103600083015261465f81614623565b9050919050565b600081905092915050565b600061467c826142e5565b6146868185614666565b9350614696818560208601614301565b80840191505092915050565b60006146ae8284614671565b915081905092915050565b600081519050919050565b60006146cf826146b9565b6146d98185613cee565b93506146e9818560208601614301565b6146f281613af9565b840191505092915050565b6000602082019050818103600083015261471781846146c4565b90509291505056fea26469706673582212209d4d798c5d65a027f53c1accddafd042890db05b221ef18dd45f50ea5f530e5a64736f6c63430008090033",
  "immutableReferences": {
    "930": [
      {
        "length": 32,
        "start": 1032
      }
    ],
    "933": [
      {
        "length": 32,
        "start": 4674
      },
      {
        "length": 32,
        "start": 5198
      },
      {
        "length": 32,
        "start": 8015
      }
    ]
  },
  "source": "// SPDX-License-Identifier: MIT\npragma solidity >=0.8.9;\n\nimport {VaultLongMaiFinance} from \"./VaultLongMaiFinance.sol\";\n\ncontract WethVaultLong is VaultLongMaiFinance {\n    address WETH_COLLATERAL = 0x7ceB23fD6bC0adD59E62ac25578270cFf1b9f619;\n    address MAI_WETH_VAULT = 0x3fd939B017b31eaADF9ae50C7fF7Fa5c0661d47C;\n\n    constructor() VaultLongMaiFinance(WETH_COLLATERAL, MAI_WETH_VAULT) {}\n}\n",
  "sourcePath": "/media/nello/Data/dev/blockchain/Consensys/blockchain-developer-bootcamp-final-project/contracts/WethVaultLong.sol",
  "compiler": {
    "name": "solc",
    "version": "0.8.9+commit.e5eed63a.Emscripten.clang"
  },
  "schemaVersion": "3.4.3",
  "updatedAt": "2021-11-17T23:35:39.491Z",
  "networkType": "ethereum",
  "devdoc": {
    "kind": "dev",
    "methods": {},
    "version": 1
  },
  "userdoc": {
    "kind": "user",
    "methods": {
      "deposit(uint256,uint256)": {
        "notice": "Deposit funds from the user to the contract, then the contract deposit the funds to the chosen Mai vault"
      },
      "executeOperation(address[],uint256[],uint256[],address,bytes)": {
        "notice": "This function is called after the contract has received the flash loaned amount"
      },
      "getAmountInMin(address,address,uint256)": {
        "notice": "This function will return the minimum amount in for a swap"
      },
      "getAmountOutMin(address,address,uint256)": {
        "notice": "This function will return the minimum amount out from a swap"
      },
      "getMAIDebtForAmount(uint256)": {
        "notice": "Returns an estimate of MAI amount to borrow to create a new long"
      },
      "getMaxWithdrawableCollateral(uint256)": {
        "notice": "This will return the max amount of collateral it is possible to withdraw with the current debt"
      },
      "getMinimumCollateralPercentage()": {
        "notice": "Get the minimum collateral percentage for this Mai vault type"
      },
      "getMultiplicatorMax100th()": {
        "notice": "This function will give the multiplicator maximum one user can long an asset The result is given multiplied by 100 to keep 2 decimals precision, the caller needs to devide by 100"
      },
      "getPathSwap(address,address)": {
        "notice": "Get the path for the 2 tokens passed in parameters, since we use Quickswap for the swaps, will go through WMATIC token to create the swap"
      },
      "getUserVaultList()": {
        "notice": "Get all the vault Ids for the sender address"
      },
      "longAsset(uint256,uint256,uint256)": {
        "notice": "The functions borrow the required amount of USDC to buy the chosen amount of collateral to long, will repay the borrowed USDC by borrowing MAI from Mai finance's vault, the user ends up with a long position and a debt in MAI Credits to Abracadra finance for the idea"
      },
      "reduceLong(uint256,uint256)": {
        "notice": "Reduce the long amount by doing another flash loan in USDC to buy the MAI required to repay the desired amount, the contract will then withdraw the required collateral to repay the USDC debt"
      },
      "repay(uint256,uint256)": {
        "notice": "Repay the wanted amount of MAI from the user wallet to the chosen vault"
      },
      "withdrawCollateral(uint256,uint256)": {
        "notice": "Withdraw the collateral amount from the Mai vault calling withdrawFromVault(), then sends the fund back to the user"
      }
    },
    "version": 1
  }
}